{
  "contractName": "ElectionManager",
  "abi": [
    {
      "inputs": [
        {
          "internalType": "address",
          "name": "_baseAddress",
          "type": "address"
        },
        {
          "internalType": "address",
          "name": "_voterManagerAddress",
          "type": "address"
        },
        {
          "internalType": "address[]",
          "name": "trustedForwarders",
          "type": "address[]"
        }
      ],
      "stateMutability": "nonpayable",
      "type": "constructor"
    },
    {
      "inputs": [],
      "name": "ElectionAlreadyExists",
      "type": "error"
    },
    {
      "inputs": [],
      "name": "ElectionNotActive",
      "type": "error"
    },
    {
      "inputs": [],
      "name": "ElectionNumberMismatch",
      "type": "error"
    },
    {
      "inputs": [],
      "name": "InvalidElection",
      "type": "error"
    },
    {
      "inputs": [],
      "name": "NIKMismatch",
      "type": "error"
    },
    {
      "inputs": [],
      "name": "UnauthorizedCaller",
      "type": "error"
    },
    {
      "inputs": [],
      "name": "VoterAlreadyVoted",
      "type": "error"
    },
    {
      "inputs": [],
      "name": "VoterNotRegistered",
      "type": "error"
    },
    {
      "anonymous": false,
      "inputs": [
        {
          "indexed": true,
          "internalType": "string",
          "name": "electionId",
          "type": "string"
        },
        {
          "indexed": false,
          "internalType": "string",
          "name": "electionNo",
          "type": "string"
        }
      ],
      "name": "ElectionAdded",
      "type": "event"
    },
    {
      "anonymous": false,
      "inputs": [
        {
          "indexed": true,
          "internalType": "string",
          "name": "electionId",
          "type": "string"
        },
        {
          "indexed": true,
          "internalType": "string",
          "name": "electionNo",
          "type": "string"
        },
        {
          "indexed": false,
          "internalType": "bool",
          "name": "isActive",
          "type": "bool"
        }
      ],
      "name": "ElectionStatusChange",
      "type": "event"
    },
    {
      "anonymous": false,
      "inputs": [
        {
          "indexed": true,
          "internalType": "address",
          "name": "forwarder",
          "type": "address"
        }
      ],
      "name": "TrustedForwarderAdded",
      "type": "event"
    },
    {
      "anonymous": false,
      "inputs": [
        {
          "indexed": true,
          "internalType": "address",
          "name": "forwarder",
          "type": "address"
        }
      ],
      "name": "TrustedForwarderRemoved",
      "type": "event"
    },
    {
      "anonymous": false,
      "inputs": [
        {
          "indexed": true,
          "internalType": "string",
          "name": "nik",
          "type": "string"
        },
        {
          "indexed": true,
          "internalType": "string",
          "name": "electionId",
          "type": "string"
        },
        {
          "indexed": true,
          "internalType": "string",
          "name": "electionNo",
          "type": "string"
        }
      ],
      "name": "VoteCasted",
      "type": "event"
    },
    {
      "inputs": [
        {
          "internalType": "string",
          "name": "",
          "type": "string"
        }
      ],
      "name": "_electionss",
      "outputs": [
        {
          "internalType": "string",
          "name": "id",
          "type": "string"
        },
        {
          "internalType": "string",
          "name": "electionNo",
          "type": "string"
        },
        {
          "internalType": "uint256",
          "name": "voteCount",
          "type": "uint256"
        },
        {
          "internalType": "bool",
          "name": "isActive",
          "type": "bool"
        }
      ],
      "stateMutability": "view",
      "type": "function",
      "constant": true
    },
    {
      "inputs": [],
      "name": "base",
      "outputs": [
        {
          "internalType": "contract IVotechainBase",
          "name": "",
          "type": "address"
        }
      ],
      "stateMutability": "view",
      "type": "function",
      "constant": true
    },
    {
      "inputs": [
        {
          "internalType": "uint256",
          "name": "",
          "type": "uint256"
        }
      ],
      "name": "electionAddressArray",
      "outputs": [
        {
          "internalType": "string",
          "name": "id",
          "type": "string"
        },
        {
          "internalType": "string",
          "name": "electionNo",
          "type": "string"
        },
        {
          "internalType": "uint256",
          "name": "voteCount",
          "type": "uint256"
        },
        {
          "internalType": "bool",
          "name": "isActive",
          "type": "bool"
        }
      ],
      "stateMutability": "view",
      "type": "function",
      "constant": true
    },
    {
      "inputs": [],
      "name": "getTrustedForwarders",
      "outputs": [
        {
          "internalType": "address[]",
          "name": "",
          "type": "address[]"
        }
      ],
      "stateMutability": "view",
      "type": "function",
      "constant": true
    },
    {
      "inputs": [
        {
          "internalType": "address",
          "name": "forwarder",
          "type": "address"
        }
      ],
      "name": "isTrustedForwarder",
      "outputs": [
        {
          "internalType": "bool",
          "name": "",
          "type": "bool"
        }
      ],
      "stateMutability": "view",
      "type": "function",
      "constant": true
    },
    {
      "inputs": [],
      "name": "voterManager",
      "outputs": [
        {
          "internalType": "contract IVoterManager",
          "name": "",
          "type": "address"
        }
      ],
      "stateMutability": "view",
      "type": "function",
      "constant": true
    },
    {
      "inputs": [
        {
          "internalType": "string",
          "name": "electionId",
          "type": "string"
        }
      ],
      "name": "elections",
      "outputs": [
        {
          "components": [
            {
              "internalType": "string",
              "name": "id",
              "type": "string"
            },
            {
              "internalType": "string",
              "name": "electionNo",
              "type": "string"
            },
            {
              "internalType": "uint256",
              "name": "voteCount",
              "type": "uint256"
            },
            {
              "internalType": "bool",
              "name": "isActive",
              "type": "bool"
            }
          ],
          "internalType": "struct IElectionManager.Election",
          "name": "",
          "type": "tuple"
        }
      ],
      "stateMutability": "view",
      "type": "function",
      "constant": true
    },
    {
      "inputs": [
        {
          "internalType": "string",
          "name": "electionId",
          "type": "string"
        },
        {
          "internalType": "string",
          "name": "electionNo",
          "type": "string"
        }
      ],
      "name": "addElection",
      "outputs": [],
      "stateMutability": "nonpayable",
      "type": "function"
    },
    {
      "inputs": [
        {
          "internalType": "string",
          "name": "electionId",
          "type": "string"
        },
        {
          "internalType": "string",
          "name": "electionNo",
          "type": "string"
        }
      ],
      "name": "toggleElectionActive",
      "outputs": [],
      "stateMutability": "nonpayable",
      "type": "function"
    },
    {
      "inputs": [
        {
          "internalType": "string",
          "name": "electionId",
          "type": "string"
        },
        {
          "internalType": "string",
          "name": "electionNo",
          "type": "string"
        },
        {
          "internalType": "string",
          "name": "voterNik",
          "type": "string"
        }
      ],
      "name": "vote",
      "outputs": [],
      "stateMutability": "nonpayable",
      "type": "function"
    },
    {
      "inputs": [
        {
          "internalType": "string",
          "name": "electionId",
          "type": "string"
        }
      ],
      "name": "getElection",
      "outputs": [
        {
          "components": [
            {
              "internalType": "string",
              "name": "id",
              "type": "string"
            },
            {
              "internalType": "string",
              "name": "electionNo",
              "type": "string"
            },
            {
              "internalType": "uint256",
              "name": "voteCount",
              "type": "uint256"
            },
            {
              "internalType": "bool",
              "name": "isActive",
              "type": "bool"
            }
          ],
          "internalType": "struct IElectionManager.Election",
          "name": "",
          "type": "tuple"
        }
      ],
      "stateMutability": "view",
      "type": "function",
      "constant": true
    },
    {
      "inputs": [],
      "name": "getAllElection",
      "outputs": [
        {
          "components": [
            {
              "internalType": "string",
              "name": "id",
              "type": "string"
            },
            {
              "internalType": "string",
              "name": "electionNo",
              "type": "string"
            },
            {
              "internalType": "uint256",
              "name": "voteCount",
              "type": "uint256"
            },
            {
              "internalType": "bool",
              "name": "isActive",
              "type": "bool"
            }
          ],
          "internalType": "struct IElectionManager.Election[]",
          "name": "",
          "type": "tuple[]"
        }
      ],
      "stateMutability": "view",
      "type": "function",
      "constant": true
    },
    {
      "inputs": [
        {
          "internalType": "string",
          "name": "electionNo",
          "type": "string"
        }
      ],
      "name": "getElectionByNo",
      "outputs": [
        {
          "components": [
            {
              "internalType": "string",
              "name": "id",
              "type": "string"
            },
            {
              "internalType": "string",
              "name": "electionNo",
              "type": "string"
            },
            {
              "internalType": "uint256",
              "name": "voteCount",
              "type": "uint256"
            },
            {
              "internalType": "bool",
              "name": "isActive",
              "type": "bool"
            }
          ],
          "internalType": "struct IElectionManager.Election",
          "name": "",
          "type": "tuple"
        }
      ],
      "stateMutability": "view",
      "type": "function",
      "constant": true
    },
    {
      "inputs": [
        {
          "internalType": "address",
          "name": "forwarder",
          "type": "address"
        }
      ],
      "name": "addTrustedForwarder",
      "outputs": [],
      "stateMutability": "nonpayable",
      "type": "function"
    },
    {
      "inputs": [
        {
          "internalType": "address",
          "name": "forwarder",
          "type": "address"
        }
      ],
      "name": "removeTrustedForwarder",
      "outputs": [],
      "stateMutability": "nonpayable",
      "type": "function"
    }
  ],
  "bytecode": "0x608060405234801561001057600080fd5b5060405161253838038061253883398101604081905261002f91610182565b8060005b815181101561006c576100648282815181106100515761005161026a565b60200260200101516100a460201b60201c565b600101610033565b5050600280546001600160a01b039485166001600160a01b031991821617909155600380549390941692169190911790915550610280565b6001600160a01b03811660009081526020819052604090205460ff1661014d576001600160a01b038116600081815260208190526040808220805460ff19166001908117909155805480820182559083527fb10e2d527612073b26eecdfd717e6a320cf44b4afac2b0732d9fcbe2b7fa0cf60180546001600160a01b03191684179055517f3ef8564460ada92419608d823c014975d98f8104d7d1e68c222967ac6814cd979190a25b50565b80516001600160a01b038116811461016757600080fd5b919050565b634e487b7160e01b600052604160045260246000fd5b60008060006060848603121561019757600080fd5b6101a084610150565b925060206101af818601610150565b60408601519093506001600160401b03808211156101cc57600080fd5b818701915087601f8301126101e057600080fd5b8151818111156101f2576101f261016c565b8060051b604051601f19603f830116810181811085821117156102175761021761016c565b60405291825284820192508381018501918a83111561023557600080fd5b938501935b8285101561025a5761024b85610150565b8452938501939285019261023a565b8096505050505050509250925092565b634e487b7160e01b600052603260045260246000fd5b6122a98061028f6000396000f3fe608060405234801561001057600080fd5b50600436106100f55760003560e01c806365910a4f11610097578063a9d93bf011610066578063a9d93bf014610236578063df3cf74914610249578063e030cba01461025c578063ff7196c81461026f57600080fd5b806365910a4f146101da57806395b79907146101ed57806395f59fe1146102005780639f9070d51461021357600080fd5b80634a3ccc96116100d35780634a3ccc961461014b5780635001f3b51461015e5780635597f08314610189578063572b6c051461019e57600080fd5b806326d00668146100fa5780633751d89c1461010f5780634771b57314610122575b600080fd5b61010d610108366004611a22565b610284565b005b61010d61011d366004611a22565b61033f565b610135610130366004611a8f565b6103f7565b6040516101429190611b72565b60405180910390f35b610135610159366004611a8f565b6105cd565b600254610171906001600160a01b031681565b6040516001600160a01b039091168152602001610142565b61019161076a565b6040516101429190611b85565b6101ca6101ac366004611a22565b6001600160a01b031660009081526020819052604090205460ff1690565b6040519015158152602001610142565b600354610171906001600160a01b031681565b61010d6101fb366004611be9565b61090c565b61010d61020e366004611c55565b610da1565b610226610221366004611cef565b611129565b6040516101429493929190611d08565b61010d610244366004611be9565b61127d565b610135610257366004611a8f565b611508565b61022661026a366004611dde565b61172d565b610277611753565b6040516101429190611e5e565b600260009054906101000a90046001600160a01b03166001600160a01b031663fb4ab1646040518163ffffffff1660e01b8152600401602060405180830381865afa1580156102d7573d6000803e3d6000fd5b505050506040513d601f19601f820116820180604052508101906102fb9190611eab565b6001600160a01b031661030c6117b5565b6001600160a01b03161461033357604051635c427cd960e01b815260040160405180910390fd5b61033c816117c4565b50565b600260009054906101000a90046001600160a01b03166001600160a01b031663fb4ab1646040518163ffffffff1660e01b8152600401602060405180830381865afa158015610392573d6000803e3d6000fd5b505050506040513d601f19601f820116820180604052508101906103b69190611eab565b6001600160a01b03166103c76117b5565b6001600160a01b0316146103ee57604051635c427cd960e01b815260040160405180910390fd5b61033c8161186f565b61042460405180608001604052806060815260200160608152602001600081526020016000151581525090565b600060048484604051610438929190611ec8565b9081526020016040518091039020905080600001805461045790611ed8565b90506000036104795760405163cd9f14e160e01b815260040160405180910390fd5b8060405180608001604052908160008201805461049590611ed8565b80601f01602080910402602001604051908101604052809291908181526020018280546104c190611ed8565b801561050e5780601f106104e35761010080835404028352916020019161050e565b820191906000526020600020905b8154815290600101906020018083116104f157829003601f168201915b5050505050815260200160018201805461052790611ed8565b80601f016020809104026020016040519081016040528092919081815260200182805461055390611ed8565b80156105a05780601f10610575576101008083540402835291602001916105a0565b820191906000526020600020905b81548152906001019060200180831161058357829003601f168201915b50505091835250506002820154602082015260039091015460ff1615156040909101529150505b92915050565b6105fa60405180608001604052806060815260200160608152602001600081526020016000151581525090565b6004838360405161060c929190611ec8565b908152602001604051809103902060405180608001604052908160008201805461063590611ed8565b80601f016020809104026020016040519081016040528092919081815260200182805461066190611ed8565b80156106ae5780601f10610683576101008083540402835291602001916106ae565b820191906000526020600020905b81548152906001019060200180831161069157829003601f168201915b505050505081526020016001820180546106c790611ed8565b80601f01602080910402602001604051908101604052809291908181526020018280546106f390611ed8565b80156107405780601f1061071557610100808354040283529160200191610740565b820191906000526020600020905b81548152906001019060200180831161072357829003601f168201915b50505091835250506002820154602082015260039091015460ff1615156040909101529392505050565b60606005805480602002602001604051908101604052809291908181526020016000905b8282101561090357838290600052602060002090600402016040518060800160405290816000820180546107c190611ed8565b80601f01602080910402602001604051908101604052809291908181526020018280546107ed90611ed8565b801561083a5780601f1061080f5761010080835404028352916020019161083a565b820191906000526020600020905b81548152906001019060200180831161081d57829003601f168201915b5050505050815260200160018201805461085390611ed8565b80601f016020809104026020016040519081016040528092919081815260200182805461087f90611ed8565b80156108cc5780601f106108a1576101008083540402835291602001916108cc565b820191906000526020600020905b8154815290600101906020018083116108af57829003601f168201915b5050509183525050600282015460208083019190915260039092015460ff161515604090910152908252600192909201910161078e565b50505050905090565b600260009054906101000a90046001600160a01b03166001600160a01b031663fb4ab1646040518163ffffffff1660e01b8152600401602060405180830381865afa15801561095f573d6000803e3d6000fd5b505050506040513d601f19601f820116820180604052508101906109839190611eab565b6001600160a01b03166109946117b5565b6001600160a01b0316146109bb57604051635c427cd960e01b815260040160405180910390fd5b6000600485856040516109cf929190611ec8565b90815260200160405180910390206040518060800160405290816000820180546109f890611ed8565b80601f0160208091040260200160405190810160405280929190818152602001828054610a2490611ed8565b8015610a715780601f10610a4657610100808354040283529160200191610a71565b820191906000526020600020905b815481529060010190602001808311610a5457829003601f168201915b50505050508152602001600182018054610a8a90611ed8565b80601f0160208091040260200160405190810160405280929190818152602001828054610ab690611ed8565b8015610b035780601f10610ad857610100808354040283529160200191610b03565b820191906000526020600020905b815481529060010190602001808311610ae657829003601f168201915b50505091835250506002820154602082015260039091015460ff16151560409091015280515190915015610b4a576040516339136f8360e21b815260040160405180910390fd5b60005b600554811015610bce578383604051610b67929190611ec8565b604051809103902060058281548110610b8257610b82611f12565b9060005260206000209060040201600101604051610ba09190611f28565b604051809103902003610bc6576040516339136f8360e21b815260040160405180910390fd5b600101610b4d565b506040805160a06020601f88018190040282018101909252608081018681526000928291908990899081908501838280828437600092019190915250505090825250604080516020601f880181900481028201810190925286815291810191908790879081908401838280828437600092018290525093855250505060208201526001604091820152519092508291508190600490610c709089908990611ec8565b90815260405190819003602001902081518190610c8d9082611fef565b5060208201516001820190610ca29082611fef565b50604082015160028201556060909101516003909101805491151560ff1990921691909117905560058054600181018255600091909152815182916004027f036b6384b5eca791c62761152d0c79bb0604c104a5fb6f4eb0703f3154bb3db001908190610d0f9082611fef565b5060208201516001820190610d249082611fef565b5060408281015160028301556060909201516003909101805460ff191691151591909117905551610d589087908790611ec8565b60405180910390207ffbb39612bc65a9d2c5c0137dc505f3a2fa0d4c0dac443a06fcf9df0c281c55b28585604051610d919291906120af565b60405180910390a2505050505050565b600260009054906101000a90046001600160a01b03166001600160a01b031663408e27276040518163ffffffff1660e01b8152600401602060405180830381865afa158015610df4573d6000803e3d6000fd5b505050506040513d601f19601f82011682018060405250810190610e1891906120f3565b610e3557604051635c427cd960e01b815260040160405180910390fd5b600060048787604051610e49929190611ec8565b90815260200160405180910390209050806000018054610e6890611ed8565b9050600003610e8a5760405163cd9f14e160e01b815260040160405180910390fd5b600381015460ff16610eaf57604051638744898560e01b815260040160405180910390fd5b8484604051610ebf929190611ec8565b604051809103902081600101604051610ed89190611f28565b604051809103902014610efe5760405163373251d760e01b815260040160405180910390fd5b6000610f086117b5565b600354604051634bdd758560e01b81526001600160a01b03808416600483015292935060009290911690634bdd758590602401600060405180830381865afa158015610f58573d6000803e3d6000fd5b505050506040513d6000823e601f3d908101601f19168201604052610f80919081019061215b565b9050806040015115610fa557604051633e9b6bb560e01b815260040160405180910390fd5b8484604051610fb5929190611ec8565b604051809103902081600001518051906020012014610fe75760405163c654d8a160e01b815260040160405180910390fd5b6001836002016000828254610ffc9190612237565b90915550600090505b6005548110156110ad57878760405161101f929190611ec8565b60405180910390206005828154811061103a5761103a611f12565b90600052602060002090600402016001016040516110589190611f28565b6040518091039020036110a55760016005828154811061107a5761107a611f12565b9060005260206000209060040201600201600082825461109a9190612237565b909155506110ad9050565b600101611005565b5086866040516110be929190611ec8565b604051809103902089896040516110d6929190611ec8565b604051809103902086866040516110ee929190611ec8565b604051908190038120907f55d6abdae2902a81f7b08dea88ada88d6ce858ae8ce1754c62b7dd2d8332d72290600090a4505050505050505050565b6005818154811061113957600080fd5b906000526020600020906004020160009150905080600001805461115c90611ed8565b80601f016020809104026020016040519081016040528092919081815260200182805461118890611ed8565b80156111d55780601f106111aa576101008083540402835291602001916111d5565b820191906000526020600020905b8154815290600101906020018083116111b857829003601f168201915b5050505050908060010180546111ea90611ed8565b80601f016020809104026020016040519081016040528092919081815260200182805461121690611ed8565b80156112635780601f1061123857610100808354040283529160200191611263565b820191906000526020600020905b81548152906001019060200180831161124657829003601f168201915b50505050600283015460039093015491929160ff16905084565b600260009054906101000a90046001600160a01b03166001600160a01b031663fb4ab1646040518163ffffffff1660e01b8152600401602060405180830381865afa1580156112d0573d6000803e3d6000fd5b505050506040513d601f19601f820116820180604052508101906112f49190611eab565b6001600160a01b03166113056117b5565b6001600160a01b03161461132c57604051635c427cd960e01b815260040160405180910390fd5b600060048585604051611340929190611ec8565b9081526020016040518091039020905080600001805461135f90611ed8565b90506000036113815760405163cd9f14e160e01b815260040160405180910390fd5b8282604051611391929190611ec8565b6040518091039020816001016040516113aa9190611f28565b6040518091039020146113d05760405163373251d760e01b815260040160405180910390fd5b60038101805460ff19811660ff9091161517905560005b600554811015611495578585604051611401929190611ec8565b60405180910390206005828154811061141c5761141c611f12565b906000526020600020906004020160000160405161143a9190611f28565b60405180910390200361148d5760038201546005805460ff909216918390811061146657611466611f12565b60009182526020909120600490910201600301805460ff1916911515919091179055611495565b6001016113e7565b5082826040516114a6929190611ec8565b604051809103902085856040516114be929190611ec8565b604051908190038120600384015460ff1615158252907fc4ed90e5395aebcc1e7e027dfc5cafaa02443f04824a16ab3ad2f6a52f8ca06d9060200160405180910390a35050505050565b61153560405180608001604052806060815260200160608152602001600081526020016000151581525090565b60005b600554811015611713578383604051611552929190611ec8565b60405180910390206005828154811061156d5761156d611f12565b906000526020600020906004020160010160405161158b9190611f28565b60405180910390200361170b57600581815481106115ab576115ab611f12565b90600052602060002090600402016040518060800160405290816000820180546115d490611ed8565b80601f016020809104026020016040519081016040528092919081815260200182805461160090611ed8565b801561164d5780601f106116225761010080835404028352916020019161164d565b820191906000526020600020905b81548152906001019060200180831161163057829003601f168201915b5050505050815260200160018201805461166690611ed8565b80601f016020809104026020016040519081016040528092919081815260200182805461169290611ed8565b80156116df5780601f106116b4576101008083540402835291602001916116df565b820191906000526020600020905b8154815290600101906020018083116116c257829003601f168201915b50505091835250506002820154602082015260039091015460ff16151560409091015291506105c79050565b600101611538565b5060405163cd9f14e160e01b815260040160405180910390fd5b805160208183018101805160048252928201919093012091528054819061115c90611ed8565b606060018054806020026020016040519081016040528092919081815260200182805480156117ab57602002820191906000526020600020905b81546001600160a01b0316815260019091019060200180831161178d575b5050505050905090565b60006117bf6119e3565b905090565b6001600160a01b03811660009081526020819052604090205460ff1661033c576001600160a01b038116600081815260208190526040808220805460ff19166001908117909155805480820182559083527fb10e2d527612073b26eecdfd717e6a320cf44b4afac2b0732d9fcbe2b7fa0cf60180546001600160a01b03191684179055517f3ef8564460ada92419608d823c014975d98f8104d7d1e68c222967ac6814cd979190a250565b6001600160a01b03811660009081526020819052604090205460ff161561033c576001600160a01b0381166000908152602081905260408120805460ff191690555b6001548110156119ab57816001600160a01b0316600182815481106118d8576118d8611f12565b6000918252602090912001546001600160a01b0316036119a3576001805461190190829061224a565b8154811061191157611911611f12565b600091825260209091200154600180546001600160a01b03909216918390811061193d5761193d611f12565b9060005260206000200160006101000a8154816001600160a01b0302191690836001600160a01b03160217905550600180548061197c5761197c61225d565b600082815260209020810160001990810180546001600160a01b03191690550190556119ab565b6001016118b1565b506040516001600160a01b038216907fd2d636efcad0cea42e170256f4c5d8b1cd81e47b855557edaf44014e6cc4cee690600090a250565b3360009081526020819052604081205460ff1615611a08575060131936013560601c90565b503390565b6001600160a01b038116811461033c57600080fd5b600060208284031215611a3457600080fd5b8135611a3f81611a0d565b9392505050565b60008083601f840112611a5857600080fd5b50813567ffffffffffffffff811115611a7057600080fd5b602083019150836020828501011115611a8857600080fd5b9250929050565b60008060208385031215611aa257600080fd5b823567ffffffffffffffff811115611ab957600080fd5b611ac585828601611a46565b90969095509350505050565b60005b83811015611aec578181015183820152602001611ad4565b50506000910152565b60008151808452611b0d816020860160208601611ad1565b601f01601f19169290920160200192915050565b6000815160808452611b366080850182611af5565b905060208301518482036020860152611b4f8282611af5565b915050604083015160408501526060830151151560608501528091505092915050565b602081526000611a3f6020830184611b21565b600060208083016020845280855180835260408601915060408160051b87010192506020870160005b82811015611bdc57603f19888603018452611bca858351611b21565b94509285019290850190600101611bae565b5092979650505050505050565b60008060008060408587031215611bff57600080fd5b843567ffffffffffffffff80821115611c1757600080fd5b611c2388838901611a46565b90965094506020870135915080821115611c3c57600080fd5b50611c4987828801611a46565b95989497509550505050565b60008060008060008060608789031215611c6e57600080fd5b863567ffffffffffffffff80821115611c8657600080fd5b611c928a838b01611a46565b90985096506020890135915080821115611cab57600080fd5b611cb78a838b01611a46565b90965094506040890135915080821115611cd057600080fd5b50611cdd89828a01611a46565b979a9699509497509295939492505050565b600060208284031215611d0157600080fd5b5035919050565b608081526000611d1b6080830187611af5565b8281036020840152611d2d8187611af5565b6040840195909552505090151560609091015292915050565b634e487b7160e01b600052604160045260246000fd5b60405160a0810167ffffffffffffffff81118282101715611d7f57611d7f611d46565b60405290565b604051601f8201601f1916810167ffffffffffffffff81118282101715611dae57611dae611d46565b604052919050565b600067ffffffffffffffff821115611dd057611dd0611d46565b50601f01601f191660200190565b600060208284031215611df057600080fd5b813567ffffffffffffffff811115611e0757600080fd5b8201601f81018413611e1857600080fd5b8035611e2b611e2682611db6565b611d85565b818152856020838501011115611e4057600080fd5b81602084016020830137600091810160200191909152949350505050565b6020808252825182820181905260009190848201906040850190845b81811015611e9f5783516001600160a01b031683529284019291840191600101611e7a565b50909695505050505050565b600060208284031215611ebd57600080fd5b8151611a3f81611a0d565b8183823760009101908152919050565b600181811c90821680611eec57607f821691505b602082108103611f0c57634e487b7160e01b600052602260045260246000fd5b50919050565b634e487b7160e01b600052603260045260246000fd5b6000808354611f3681611ed8565b60018281168015611f4e5760018114611f6357611f92565b60ff1984168752821515830287019450611f92565b8760005260208060002060005b85811015611f895781548a820152908401908201611f70565b50505082870194505b50929695505050505050565b601f821115611fea576000816000526020600020601f850160051c81016020861015611fc75750805b601f850160051c820191505b81811015611fe657828155600101611fd3565b5050505b505050565b815167ffffffffffffffff81111561200957612009611d46565b61201d816120178454611ed8565b84611f9e565b602080601f831160018114612052576000841561203a5750858301515b600019600386901b1c1916600185901b178555611fe6565b600085815260208120601f198616915b8281101561208157888601518255948401946001909101908401612062565b508582101561209f5787850151600019600388901b60f8161c191681555b5050505050600190811b01905550565b60208152816020820152818360408301376000818301604090810191909152601f909201601f19160101919050565b805180151581146120ee57600080fd5b919050565b60006020828403121561210557600080fd5b611a3f826120de565b600082601f83011261211f57600080fd5b815161212d611e2682611db6565b81815284602083860101111561214257600080fd5b612153826020830160208701611ad1565b949350505050565b60006020828403121561216d57600080fd5b815167ffffffffffffffff8082111561218557600080fd5b9083019060a0828603121561219957600080fd5b6121a1611d5c565b8251828111156121b057600080fd5b6121bc8782860161210e565b82525060208301516121cd81611a0d565b60208201526121de604084016120de565b60408201526060830151828111156121f557600080fd5b6122018782860161210e565b606083015250612213608084016120de565b608082015295945050505050565b634e487b7160e01b600052601160045260246000fd5b808201808211156105c7576105c7612221565b818103818111156105c7576105c7612221565b634e487b7160e01b600052603160045260246000fdfea2646970667358221220d818ef30980b5c9bb4250226b111ac9cecca097ad1aa84d2d09e69350dfc1b5064736f6c63430008190033",
  "immutableReferences": {},
  "source": "// SPDX-License-Identifier: UNLICENSED\r\npragma solidity ^0.8.25;\r\n\r\nimport \"./Interfaces.sol\";\r\nimport \"./Context.sol\";\r\n\r\ncontract ElectionManager is IElectionManager, MultiERC2771Context {\r\n    error InvalidElection();\r\n    error ElectionAlreadyExists();\r\n    error UnauthorizedCaller();\r\n    error ElectionNumberMismatch();\r\n    error VoterNotRegistered();\r\n    error VoterAlreadyVoted();\r\n    error NIKMismatch();\r\n    error ElectionNotActive();\r\n\r\n    IVotechainBase public base;\r\n    IVoterManager public voterManager;\r\n\r\n    mapping(string => Election) public _electionss;\r\n    Election[] public electionAddressArray;\r\n\r\n    event ElectionAdded(string indexed electionId, string electionNo);\r\n    event ElectionStatusChange(string indexed electionId, string indexed electionNo, bool isActive);\r\n    event VoteCasted(string indexed nik, string indexed electionId, string indexed electionNo);\r\n\r\n    constructor(\r\n        address _baseAddress,\r\n        address _voterManagerAddress,\r\n        address[] memory trustedForwarders\r\n    ) MultiERC2771Context(trustedForwarders) {\r\n        base = IVotechainBase(_baseAddress);\r\n        voterManager = IVoterManager(_voterManagerAddress);\r\n    }\r\n\r\n    function elections(string calldata electionId) external view returns (Election memory) {\r\n        return _electionss[electionId];\r\n    }\r\n\r\n    modifier onlyKpuAdmin() {\r\n        if (_msgSender() != base.kpuAdmin()) revert UnauthorizedCaller();\r\n        _;\r\n    }\r\n\r\n    modifier votingIsActive() {\r\n        if (!base.votingActive()) revert UnauthorizedCaller();\r\n        _;\r\n    }\r\n\r\n    function addElection(\r\n        string calldata electionId,\r\n        string calldata electionNo\r\n    ) external override onlyKpuAdmin {\r\n\r\n        Election memory election = _electionss[electionId];\r\n        if (bytes(election.id).length != 0) revert ElectionAlreadyExists();\r\n\r\n        for (uint i = 0; i < electionAddressArray.length; i++) {\r\n            if (keccak256(bytes(electionAddressArray[i].electionNo)) == keccak256(bytes(electionNo))) {\r\n                revert ElectionAlreadyExists();\r\n            }\r\n        }\r\n\r\n        Election memory newElection = Election({\r\n            id: electionId,\r\n            electionNo: electionNo,\r\n            voteCount: 0,\r\n            isActive: true\r\n        });\r\n        election = newElection;\r\n        _electionss[electionId] = newElection;\r\n        electionAddressArray.push(newElection);\r\n\r\n        emit ElectionAdded(electionId, electionNo);\r\n    }\r\n\r\n    function toggleElectionActive(string calldata electionId, string calldata electionNo) external override onlyKpuAdmin {\r\n        Election storage election = _electionss[electionId];\r\n        if (bytes(election.id).length == 0) revert InvalidElection();\r\n        if (keccak256(bytes(election.electionNo)) != keccak256(bytes(electionNo))) revert ElectionNumberMismatch();\r\n\r\n        election.isActive = !election.isActive;\r\n        for (uint i = 0; i < electionAddressArray.length; i++) {\r\n            if (keccak256(bytes(electionAddressArray[i].id)) == keccak256(bytes(electionId))) {\r\n                electionAddressArray[i].isActive = election.isActive;\r\n                break;\r\n            }\r\n        }\r\n        emit ElectionStatusChange(electionId, electionNo, election.isActive);\r\n    }\r\n\r\n    function vote(string calldata electionId, string calldata electionNo, string calldata voterNik) external override votingIsActive {\r\n        Election storage election = _electionss[electionId];\r\n        if (bytes(election.id).length == 0) revert InvalidElection();\r\n        if (!election.isActive) revert ElectionNotActive();\r\n\r\n        if (keccak256(bytes(election.electionNo)) != keccak256(bytes(electionNo))) revert ElectionNumberMismatch();\r\n\r\n        // Use _msgSender() instead of msg.sender for gasless transactions\r\n        address sender = _msgSender();\r\n        IVoterManager.Voter memory voter = voterManager.getVoterByAddress(sender);\r\n        if (voter.hasVoted) revert VoterAlreadyVoted();\r\n\r\n        if (keccak256(bytes(voter.nik)) != keccak256(bytes(voterNik))) revert NIKMismatch();\r\n\r\n        // Update vote count in storage\r\n        election.voteCount += 1;\r\n\r\n        // Update vote count in array\r\n        for (uint i = 0; i < electionAddressArray.length; i++) {\r\n            if (keccak256(bytes(electionAddressArray[i].electionNo)) == keccak256(bytes(electionNo))) {\r\n                electionAddressArray[i].voteCount += 1;\r\n                break;\r\n            }\r\n        }\r\n\r\n        emit VoteCasted(voterNik, electionId, electionNo);\r\n    }\r\n\r\n    function getElection(string calldata electionId) external view override returns (Election memory) {\r\n        Election storage election = _electionss[electionId];\r\n        if (bytes(election.id).length == 0) revert InvalidElection();\r\n        return election;\r\n    }\r\n\r\n    function getAllElection() external view returns (Election[] memory) {\r\n        return electionAddressArray;\r\n    }\r\n\r\n    function getElectionByNo(string calldata electionNo) external view returns (Election memory) {\r\n        for (uint i = 0; i < electionAddressArray.length; i++) {\r\n            if (keccak256(bytes(electionAddressArray[i].electionNo)) == keccak256(bytes(electionNo))) {\r\n                return electionAddressArray[i];\r\n            }\r\n        }\r\n        revert InvalidElection();\r\n    }\r\n\r\n    /**\r\n     * @dev Add a trusted forwarder for gasless transactions\r\n     */\r\n    function addTrustedForwarder(address forwarder) external onlyKpuAdmin {\r\n        _addTrustedForwarder(forwarder);\r\n    }\r\n\r\n    /**\r\n     * @dev Remove a trusted forwarder\r\n     */\r\n    function removeTrustedForwarder(address forwarder) external onlyKpuAdmin {\r\n        _removeTrustedForwarder(forwarder);\r\n    }\r\n\r\n    /**\r\n     * @dev Override to use the correct _msgSender implementation\r\n     */\r\n    function _msgSender() internal view override returns (address) {\r\n        return MultiERC2771Context._msgSender();\r\n    }\r\n\r\n    /**\r\n     * @dev Override to use the correct _msgData implementation\r\n     */\r\n    function _msgData() internal view override returns (bytes calldata) {\r\n        return MultiERC2771Context._msgData();\r\n    }\r\n}",
  "sourcePath": "C:\\Users\\bbyas\\Documents\\Kuliah\\Skripsi\\backend\\votechain-contract\\contracts\\ElectionManager.sol",
  "compiler": {
    "name": "solc",
    "version": "0.8.25+commit.b61c2a91.Emscripten.clang"
  },
  "schemaVersion": "3.4.16",
  "updatedAt": "2025-06-19T07:26:19.406Z",
  "networkType": "ethereum",
  "devdoc": {
    "kind": "dev",
    "methods": {
      "addTrustedForwarder(address)": {
        "details": "Add a trusted forwarder for gasless transactions"
      },
      "removeTrustedForwarder(address)": {
        "details": "Remove a trusted forwarder"
      }
    },
    "version": 1
  },
  "userdoc": {
    "kind": "user",
    "methods": {},
    "version": 1
  }
}