{
  "contractName": "ElectionManager",
  "abi": [
    {
      "inputs": [
        {
          "internalType": "address",
          "name": "_baseAddress",
          "type": "address"
        },
        {
          "internalType": "address",
          "name": "_voterManagerAddress",
          "type": "address"
        }
      ],
      "stateMutability": "nonpayable",
      "type": "constructor"
    },
    {
      "inputs": [],
      "name": "ElectionAlreadyExists",
      "type": "error"
    },
    {
      "inputs": [],
      "name": "ElectionNumberMismatch",
      "type": "error"
    },
    {
      "inputs": [],
      "name": "InvalidElection",
      "type": "error"
    },
    {
      "inputs": [],
      "name": "UnauthorizedCaller",
      "type": "error"
    },
    {
      "anonymous": false,
      "inputs": [
        {
          "indexed": true,
          "internalType": "string",
          "name": "electionId",
          "type": "string"
        },
        {
          "indexed": false,
          "internalType": "string",
          "name": "electionNo",
          "type": "string"
        }
      ],
      "name": "ElectionAdded",
      "type": "event"
    },
    {
      "anonymous": false,
      "inputs": [
        {
          "indexed": true,
          "internalType": "string",
          "name": "electionId",
          "type": "string"
        },
        {
          "indexed": true,
          "internalType": "string",
          "name": "electionNo",
          "type": "string"
        },
        {
          "indexed": false,
          "internalType": "bool",
          "name": "isActive",
          "type": "bool"
        }
      ],
      "name": "ElectionStatusChange",
      "type": "event"
    },
    {
      "anonymous": false,
      "inputs": [
        {
          "indexed": true,
          "internalType": "string",
          "name": "nik",
          "type": "string"
        },
        {
          "indexed": true,
          "internalType": "string",
          "name": "electionId",
          "type": "string"
        }
      ],
      "name": "VoteCasted",
      "type": "event"
    },
    {
      "inputs": [
        {
          "internalType": "string",
          "name": "",
          "type": "string"
        }
      ],
      "name": "_electionss",
      "outputs": [
        {
          "internalType": "string",
          "name": "id",
          "type": "string"
        },
        {
          "internalType": "string",
          "name": "electionNo",
          "type": "string"
        },
        {
          "internalType": "uint256",
          "name": "voteCount",
          "type": "uint256"
        },
        {
          "internalType": "bool",
          "name": "isActive",
          "type": "bool"
        }
      ],
      "stateMutability": "view",
      "type": "function",
      "constant": true
    },
    {
      "inputs": [],
      "name": "base",
      "outputs": [
        {
          "internalType": "contract IVotechainBase",
          "name": "",
          "type": "address"
        }
      ],
      "stateMutability": "view",
      "type": "function",
      "constant": true
    },
    {
      "inputs": [
        {
          "internalType": "uint256",
          "name": "",
          "type": "uint256"
        }
      ],
      "name": "electionAddressArray",
      "outputs": [
        {
          "internalType": "string",
          "name": "id",
          "type": "string"
        },
        {
          "internalType": "string",
          "name": "electionNo",
          "type": "string"
        },
        {
          "internalType": "uint256",
          "name": "voteCount",
          "type": "uint256"
        },
        {
          "internalType": "bool",
          "name": "isActive",
          "type": "bool"
        }
      ],
      "stateMutability": "view",
      "type": "function",
      "constant": true
    },
    {
      "inputs": [],
      "name": "voterManager",
      "outputs": [
        {
          "internalType": "contract IVoterManager",
          "name": "",
          "type": "address"
        }
      ],
      "stateMutability": "view",
      "type": "function",
      "constant": true
    },
    {
      "inputs": [
        {
          "internalType": "string",
          "name": "electionId",
          "type": "string"
        }
      ],
      "name": "elections",
      "outputs": [
        {
          "components": [
            {
              "internalType": "string",
              "name": "id",
              "type": "string"
            },
            {
              "internalType": "string",
              "name": "electionNo",
              "type": "string"
            },
            {
              "internalType": "uint256",
              "name": "voteCount",
              "type": "uint256"
            },
            {
              "internalType": "bool",
              "name": "isActive",
              "type": "bool"
            }
          ],
          "internalType": "struct IElectionManager.Election",
          "name": "",
          "type": "tuple"
        }
      ],
      "stateMutability": "view",
      "type": "function",
      "constant": true
    },
    {
      "inputs": [
        {
          "internalType": "string",
          "name": "electionId",
          "type": "string"
        },
        {
          "internalType": "string",
          "name": "electionNo",
          "type": "string"
        }
      ],
      "name": "addElection",
      "outputs": [],
      "stateMutability": "nonpayable",
      "type": "function"
    },
    {
      "inputs": [
        {
          "internalType": "string",
          "name": "electionId",
          "type": "string"
        },
        {
          "internalType": "string",
          "name": "electionNo",
          "type": "string"
        }
      ],
      "name": "toggleElectionActive",
      "outputs": [],
      "stateMutability": "nonpayable",
      "type": "function"
    },
    {
      "inputs": [
        {
          "internalType": "string",
          "name": "electionId",
          "type": "string"
        },
        {
          "internalType": "string",
          "name": "electionNo",
          "type": "string"
        },
        {
          "internalType": "string",
          "name": "voterNik",
          "type": "string"
        }
      ],
      "name": "vote",
      "outputs": [],
      "stateMutability": "nonpayable",
      "type": "function"
    },
    {
      "inputs": [
        {
          "internalType": "string",
          "name": "electionId",
          "type": "string"
        }
      ],
      "name": "getElection",
      "outputs": [
        {
          "components": [
            {
              "internalType": "string",
              "name": "id",
              "type": "string"
            },
            {
              "internalType": "string",
              "name": "electionNo",
              "type": "string"
            },
            {
              "internalType": "uint256",
              "name": "voteCount",
              "type": "uint256"
            },
            {
              "internalType": "bool",
              "name": "isActive",
              "type": "bool"
            }
          ],
          "internalType": "struct IElectionManager.Election",
          "name": "",
          "type": "tuple"
        }
      ],
      "stateMutability": "view",
      "type": "function",
      "constant": true
    },
    {
      "inputs": [],
      "name": "getAllElection",
      "outputs": [
        {
          "components": [
            {
              "internalType": "string",
              "name": "id",
              "type": "string"
            },
            {
              "internalType": "string",
              "name": "electionNo",
              "type": "string"
            },
            {
              "internalType": "uint256",
              "name": "voteCount",
              "type": "uint256"
            },
            {
              "internalType": "bool",
              "name": "isActive",
              "type": "bool"
            }
          ],
          "internalType": "struct IElectionManager.Election[]",
          "name": "",
          "type": "tuple[]"
        }
      ],
      "stateMutability": "view",
      "type": "function",
      "constant": true
    },
    {
      "inputs": [
        {
          "internalType": "string",
          "name": "electionNo",
          "type": "string"
        }
      ],
      "name": "getElectionByNo",
      "outputs": [
        {
          "components": [
            {
              "internalType": "string",
              "name": "id",
              "type": "string"
            },
            {
              "internalType": "string",
              "name": "electionNo",
              "type": "string"
            },
            {
              "internalType": "uint256",
              "name": "voteCount",
              "type": "uint256"
            },
            {
              "internalType": "bool",
              "name": "isActive",
              "type": "bool"
            }
          ],
          "internalType": "struct IElectionManager.Election",
          "name": "",
          "type": "tuple"
        }
      ],
      "stateMutability": "view",
      "type": "function",
      "constant": true
    }
  ],
  "bytecode": "0x6080604052348015600f57600080fd5b5060405161194e38038061194e833981016040819052602c916077565b600080546001600160a01b039384166001600160a01b0319918216179091556001805492909316911617905560a5565b80516001600160a01b0381168114607257600080fd5b919050565b60008060408385031215608957600080fd5b609083605c565b9150609c60208401605c565b90509250929050565b61189a806100b46000396000f3fe608060405234801561001057600080fd5b50600436106100a95760003560e01c806395b799071161007157806395b799071461013d57806395f59fe1146101525780639f9070d514610165578063a9d93bf014610188578063df3cf7491461019b578063e030cba0146101ae57600080fd5b80634771b573146100ae5780634a3ccc96146100d75780635001f3b5146100ea5780635597f0831461011557806365910a4f1461012a575b600080fd5b6100c16100bc366004611258565b6101c1565b6040516100ce9190611331565b60405180910390f35b6100c16100e5366004611258565b610397565b6000546100fd906001600160a01b031681565b6040516001600160a01b0390911681526020016100ce565b61011d610534565b6040516100ce919061134b565b6001546100fd906001600160a01b031681565b61015061014b3660046113af565b6106d6565b005b6101506101603660046114be565b610b60565b610178610173366004611552565b610ca0565b6040516100ce949392919061156b565b6101506101963660046113af565b610df4565b6100c16101a9366004611258565b610fc4565b6101786101bc3660046115a9565b6111e9565b6101ee60405180608001604052806060815260200160608152602001600081526020016000151581525090565b6000600284846040516102029291906115e6565b90815260200160405180910390209050806000018054610221906115f6565b90506000036102435760405163cd9f14e160e01b815260040160405180910390fd5b8060405180608001604052908160008201805461025f906115f6565b80601f016020809104026020016040519081016040528092919081815260200182805461028b906115f6565b80156102d85780601f106102ad576101008083540402835291602001916102d8565b820191906000526020600020905b8154815290600101906020018083116102bb57829003601f168201915b505050505081526020016001820180546102f1906115f6565b80601f016020809104026020016040519081016040528092919081815260200182805461031d906115f6565b801561036a5780601f1061033f5761010080835404028352916020019161036a565b820191906000526020600020905b81548152906001019060200180831161034d57829003601f168201915b50505091835250506002820154602082015260039091015460ff1615156040909101529150505b92915050565b6103c460405180608001604052806060815260200160608152602001600081526020016000151581525090565b600283836040516103d69291906115e6565b90815260200160405180910390206040518060800160405290816000820180546103ff906115f6565b80601f016020809104026020016040519081016040528092919081815260200182805461042b906115f6565b80156104785780601f1061044d57610100808354040283529160200191610478565b820191906000526020600020905b81548152906001019060200180831161045b57829003601f168201915b50505050508152602001600182018054610491906115f6565b80601f01602080910402602001604051908101604052809291908181526020018280546104bd906115f6565b801561050a5780601f106104df5761010080835404028352916020019161050a565b820191906000526020600020905b8154815290600101906020018083116104ed57829003601f168201915b50505091835250506002820154602082015260039091015460ff1615156040909101529392505050565b60606003805480602002602001604051908101604052809291908181526020016000905b828210156106cd578382906000526020600020906004020160405180608001604052908160008201805461058b906115f6565b80601f01602080910402602001604051908101604052809291908181526020018280546105b7906115f6565b80156106045780601f106105d957610100808354040283529160200191610604565b820191906000526020600020905b8154815290600101906020018083116105e757829003601f168201915b5050505050815260200160018201805461061d906115f6565b80601f0160208091040260200160405190810160405280929190818152602001828054610649906115f6565b80156106965780601f1061066b57610100808354040283529160200191610696565b820191906000526020600020905b81548152906001019060200180831161067957829003601f168201915b5050509183525050600282015460208083019190915260039092015460ff1615156040909101529082526001929092019101610558565b50505050905090565b60008054906101000a90046001600160a01b03166001600160a01b031663fb4ab1646040518163ffffffff1660e01b8152600401602060405180830381865afa158015610727573d6000803e3d6000fd5b505050506040513d601f19601f8201168201806040525081019061074b9190611630565b6001600160a01b0316336001600160a01b03161461077c57604051635c427cd960e01b815260040160405180910390fd5b6000600285856040516107909291906115e6565b90815260200160405180910390206040518060800160405290816000820180546107b9906115f6565b80601f01602080910402602001604051908101604052809291908181526020018280546107e5906115f6565b80156108325780601f1061080757610100808354040283529160200191610832565b820191906000526020600020905b81548152906001019060200180831161081557829003601f168201915b5050505050815260200160018201805461084b906115f6565b80601f0160208091040260200160405190810160405280929190818152602001828054610877906115f6565b80156108c45780601f10610899576101008083540402835291602001916108c4565b820191906000526020600020905b8154815290600101906020018083116108a757829003601f168201915b50505091835250506002820154602082015260039091015460ff1615156040909101528051519091501561090b576040516339136f8360e21b815260040160405180910390fd5b60005b60035481101561098f5783836040516109289291906115e6565b60405180910390206003828154811061094357610943611659565b9060005260206000209060040201600101604051610961919061166f565b604051809103902003610987576040516339136f8360e21b815260040160405180910390fd5b60010161090e565b506040805160a06020601f88018190040282018101909252608081018681526000928291908990899081908501838280828437600092019190915250505090825250604080516020601f880181900481028201810190925286815291810191908790879081908401838280828437600092018290525093855250505060208201526001604091820152519092508291508190600290610a3190899089906115e6565b90815260405190819003602001902081518190610a4e9082611732565b5060208201516001820190610a639082611732565b50604082015160028201556060909101516003918201805491151560ff199092169190911790558054600181018255600091909152815182916004027fc2575a0e9e593c00f959f8c92f12db2869c3395a3b0502d05e2516446f71f85b01908190610ace9082611732565b5060208201516001820190610ae39082611732565b5060408281015160028301556060909201516003909101805460ff191691151591909117905551610b1790879087906115e6565b60405180910390207ffbb39612bc65a9d2c5c0137dc505f3a2fa0d4c0dac443a06fcf9df0c281c55b28585604051610b509291906117f2565b60405180910390a2505050505050565b60008054906101000a90046001600160a01b03166001600160a01b031663408e27276040518163ffffffff1660e01b8152600401602060405180830381865afa158015610bb1573d6000803e3d6000fd5b505050506040513d601f19601f82011682018060405250810190610bd59190611821565b610bf257604051635c427cd960e01b815260040160405180910390fd5b60005b600354811015610c98578383604051610c0f9291906115e6565b604051809103902060038281548110610c2a57610c2a611659565b9060005260206000209060040201600101604051610c48919061166f565b604051809103902003610c9057600160038281548110610c6a57610c6a611659565b90600052602060002090600402016002016000828254610c8a9190611843565b90915550505b600101610bf5565b505050505050565b60038181548110610cb057600080fd5b9060005260206000209060040201600091509050806000018054610cd3906115f6565b80601f0160208091040260200160405190810160405280929190818152602001828054610cff906115f6565b8015610d4c5780601f10610d2157610100808354040283529160200191610d4c565b820191906000526020600020905b815481529060010190602001808311610d2f57829003601f168201915b505050505090806001018054610d61906115f6565b80601f0160208091040260200160405190810160405280929190818152602001828054610d8d906115f6565b8015610dda5780601f10610daf57610100808354040283529160200191610dda565b820191906000526020600020905b815481529060010190602001808311610dbd57829003601f168201915b50505050600283015460039093015491929160ff16905084565b60008054906101000a90046001600160a01b03166001600160a01b031663fb4ab1646040518163ffffffff1660e01b8152600401602060405180830381865afa158015610e45573d6000803e3d6000fd5b505050506040513d601f19601f82011682018060405250810190610e699190611630565b6001600160a01b0316336001600160a01b031614610e9a57604051635c427cd960e01b815260040160405180910390fd5b600060028585604051610eae9291906115e6565b90815260200160405180910390209050806000018054610ecd906115f6565b9050600003610eef5760405163cd9f14e160e01b815260040160405180910390fd5b8282604051610eff9291906115e6565b604051809103902081600101604051610f18919061166f565b604051809103902014610f3e5760405163373251d760e01b815260040160405180910390fd5b60038101805460ff19811660ff90911615179055604051610f6290849084906115e6565b60405180910390208585604051610f7a9291906115e6565b604051908190038120600384015460ff1615158252907fc4ed90e5395aebcc1e7e027dfc5cafaa02443f04824a16ab3ad2f6a52f8ca06d9060200160405180910390a35050505050565b610ff160405180608001604052806060815260200160608152602001600081526020016000151581525090565b60005b6003548110156111cf57838360405161100e9291906115e6565b60405180910390206003828154811061102957611029611659565b9060005260206000209060040201600101604051611047919061166f565b6040518091039020036111c7576003818154811061106757611067611659565b9060005260206000209060040201604051806080016040529081600082018054611090906115f6565b80601f01602080910402602001604051908101604052809291908181526020018280546110bc906115f6565b80156111095780601f106110de57610100808354040283529160200191611109565b820191906000526020600020905b8154815290600101906020018083116110ec57829003601f168201915b50505050508152602001600182018054611122906115f6565b80601f016020809104026020016040519081016040528092919081815260200182805461114e906115f6565b801561119b5780601f106111705761010080835404028352916020019161119b565b820191906000526020600020905b81548152906001019060200180831161117e57829003601f168201915b50505091835250506002820154602082015260039091015460ff16151560409091015291506103919050565b600101610ff4565b5060405163cd9f14e160e01b815260040160405180910390fd5b8051602081830181018051600282529282019190930120915280548190610cd3906115f6565b60008083601f84011261122157600080fd5b50813567ffffffffffffffff81111561123957600080fd5b60208301915083602082850101111561125157600080fd5b9250929050565b6000806020838503121561126b57600080fd5b823567ffffffffffffffff81111561128257600080fd5b61128e8582860161120f565b90969095509350505050565b6000815180845260005b818110156112c0576020818501810151868301820152016112a4565b506000602082860101526020601f19601f83011685010191505092915050565b60008151608084526112f5608085018261129a565b90506020830151848203602086015261130e828261129a565b915050604083015160408501526060830151151560608501528091505092915050565b60208152600061134460208301846112e0565b9392505050565b600060208083016020845280855180835260408601915060408160051b87010192506020870160005b828110156113a257603f198886030184526113908583516112e0565b94509285019290850190600101611374565b5092979650505050505050565b600080600080604085870312156113c557600080fd5b843567ffffffffffffffff808211156113dd57600080fd5b6113e98883890161120f565b9096509450602087013591508082111561140257600080fd5b5061140f8782880161120f565b95989497509550505050565b634e487b7160e01b600052604160045260246000fd5b600082601f83011261144257600080fd5b813567ffffffffffffffff8082111561145d5761145d61141b565b604051601f8301601f19908116603f011681019082821181831017156114855761148561141b565b8160405283815286602085880101111561149e57600080fd5b836020870160208301376000602085830101528094505050505092915050565b6000806000806000606086880312156114d657600080fd5b853567ffffffffffffffff808211156114ee57600080fd5b6114fa89838a0161120f565b9097509550602088013591508082111561151357600080fd5b61151f89838a0161120f565b9095509350604088013591508082111561153857600080fd5b5061154588828901611431565b9150509295509295909350565b60006020828403121561156457600080fd5b5035919050565b60808152600061157e608083018761129a565b8281036020840152611590818761129a565b6040840195909552505090151560609091015292915050565b6000602082840312156115bb57600080fd5b813567ffffffffffffffff8111156115d257600080fd5b6115de84828501611431565b949350505050565b8183823760009101908152919050565b600181811c9082168061160a57607f821691505b60208210810361162a57634e487b7160e01b600052602260045260246000fd5b50919050565b60006020828403121561164257600080fd5b81516001600160a01b038116811461134457600080fd5b634e487b7160e01b600052603260045260246000fd5b600080835461167d816115f6565b6001828116801561169557600181146116aa576116d9565b60ff19841687528215158302870194506116d9565b8760005260208060002060005b858110156116d05781548a8201529084019082016116b7565b50505082870194505b50929695505050505050565b601f82111561172d576000816000526020600020601f850160051c8101602086101561170e5750805b601f850160051c820191505b81811015610c985782815560010161171a565b505050565b815167ffffffffffffffff81111561174c5761174c61141b565b6117608161175a84546115f6565b846116e5565b602080601f831160018114611795576000841561177d5750858301515b600019600386901b1c1916600185901b178555610c98565b600085815260208120601f198616915b828110156117c4578886015182559484019460019091019084016117a5565b50858210156117e25787850151600019600388901b60f8161c191681555b5050505050600190811b01905550565b60208152816020820152818360408301376000818301604090810191909152601f909201601f19160101919050565b60006020828403121561183357600080fd5b8151801515811461134457600080fd5b8082018082111561039157634e487b7160e01b600052601160045260246000fdfea264697066735822122062bf1c2a59626c66dedec67aaf7d59a89fa25142ff611af67e7038cba972bcd164736f6c63430008190033",
  "immutableReferences": {},
  "source": "// SPDX-License-Identifier: UNLICENSED\r\npragma solidity ^0.8.25;\r\n\r\nimport \"./Interfaces.sol\";\r\n\r\ncontract ElectionManager is IElectionManager {\r\n    error InvalidElection();\r\n    error ElectionAlreadyExists();\r\n    error UnauthorizedCaller();\r\n    error ElectionNumberMismatch();\r\n\r\n    IVotechainBase public base;\r\n    IVoterManager public voterManager;\r\n\r\n    mapping(string => Election) public _electionss;\r\n    Election[] public electionAddressArray;\r\n\r\n    event ElectionAdded(string indexed electionId, string electionNo);\r\n    event ElectionStatusChange(string indexed electionId, string indexed electionNo, bool isActive);\r\n    event VoteCasted(string indexed nik, string indexed electionId);\r\n\r\n    constructor(address _baseAddress, address _voterManagerAddress) {\r\n        base = IVotechainBase(_baseAddress);\r\n        voterManager = IVoterManager(_voterManagerAddress);\r\n    }\r\n\r\n    function elections(string calldata electionId) external view returns (Election memory) {\r\n        return _electionss[electionId];\r\n    }\r\n\r\n\r\n    modifier onlyKpuAdmin() {\r\n        if (msg.sender != base.kpuAdmin()) revert UnauthorizedCaller();\r\n        _;\r\n    }\r\n\r\n    modifier votingIsActive() {\r\n        if (!base.votingActive()) revert UnauthorizedCaller();\r\n        _;\r\n    }\r\n\r\n    function addElection(\r\n        string calldata electionId,\r\n        string calldata electionNo\r\n    ) external override onlyKpuAdmin {\r\n\r\n        Election memory election = _electionss[electionId];\r\n        if (bytes(election.id).length != 0) revert ElectionAlreadyExists();\r\n\r\n        for (uint i = 0; i < electionAddressArray.length; i++) {\r\n            if (keccak256(bytes(electionAddressArray[i].electionNo)) == keccak256(bytes(electionNo))) {\r\n                revert ElectionAlreadyExists();\r\n            }\r\n        }\r\n\r\n        Election memory newElection = Election({\r\n            id: electionId,\r\n            electionNo: electionNo,\r\n            voteCount: 0,\r\n            isActive: true\r\n        });\r\n        election = newElection;\r\n        _electionss[electionId] = newElection;\r\n        electionAddressArray.push(newElection);\r\n\r\n        emit ElectionAdded(electionId, electionNo);\r\n    }\r\n\r\n    function toggleElectionActive(string calldata electionId, string calldata electionNo) external override onlyKpuAdmin {\r\n        Election storage election = _electionss[electionId];\r\n        if (bytes(election.id).length == 0) revert InvalidElection();\r\n        if (keccak256(bytes(election.electionNo)) != keccak256(bytes(electionNo))) revert ElectionNumberMismatch();\r\n\r\n        election.isActive = !election.isActive;\r\n        emit ElectionStatusChange(electionId, electionNo, election.isActive);\r\n    }\r\n\r\n    function vote(string calldata electionId, string calldata electionNo, string memory voterNik) external override votingIsActive {\r\n\r\n        for (uint i = 0; i < electionAddressArray.length; i++) {\r\n            if (keccak256(bytes(electionAddressArray[i].electionNo)) == keccak256(bytes(electionNo))) {\r\n                electionAddressArray[i].voteCount+= 1;\r\n            }\r\n        }\r\n    }\r\n\r\n    function getElection(string calldata electionId) external view override returns (Election memory) {\r\n        Election storage election = _electionss[electionId];\r\n        if (bytes(election.id).length == 0) revert InvalidElection();\r\n        return election;\r\n    }\r\n\r\n    function getAllElection() external view returns (Election[] memory) {\r\n        return electionAddressArray;\r\n    }\r\n\r\n    function getElectionByNo(string calldata electionNo) external view returns (Election memory) {\r\n        for (uint i = 0; i < electionAddressArray.length; i++) {\r\n            if (keccak256(bytes(electionAddressArray[i].electionNo)) == keccak256(bytes(electionNo))) {\r\n                return electionAddressArray[i];\r\n            }\r\n        }\r\n        revert InvalidElection();\r\n    }\r\n}\r\n",
  "sourcePath": "C:\\Users\\bbyas\\Documents\\Kuliah\\Skripsi\\backend\\votechain-contract\\contracts\\ElectionManager.sol",
  "compiler": {
    "name": "solc",
    "version": "0.8.25+commit.b61c2a91.Emscripten.clang"
  },
  "schemaVersion": "3.4.16",
  "updatedAt": "2025-05-20T10:46:29.175Z",
  "networkType": "ethereum",
  "devdoc": {
    "kind": "dev",
    "methods": {},
    "version": 1
  },
  "userdoc": {
    "kind": "user",
    "methods": {},
    "version": 1
  }
}