{
  "contractName": "ElectionManager",
  "abi": [
    {
      "inputs": [
        {
          "internalType": "address",
          "name": "_baseAddress",
          "type": "address"
        },
        {
          "internalType": "address",
          "name": "_voterManagerAddress",
          "type": "address"
        }
      ],
      "stateMutability": "nonpayable",
      "type": "constructor"
    },
    {
      "inputs": [],
      "name": "ElectionAlreadyExists",
      "type": "error"
    },
    {
      "inputs": [],
      "name": "InvalidElection",
      "type": "error"
    },
    {
      "inputs": [],
      "name": "UnauthorizedCaller",
      "type": "error"
    },
    {
      "anonymous": false,
      "inputs": [
        {
          "indexed": true,
          "internalType": "string",
          "name": "electionId",
          "type": "string"
        },
        {
          "indexed": false,
          "internalType": "string",
          "name": "electionName",
          "type": "string"
        }
      ],
      "name": "ElectionAdded",
      "type": "event"
    },
    {
      "anonymous": false,
      "inputs": [
        {
          "indexed": true,
          "internalType": "string",
          "name": "electionId",
          "type": "string"
        },
        {
          "indexed": false,
          "internalType": "bool",
          "name": "isActive",
          "type": "bool"
        }
      ],
      "name": "ElectionStatusChange",
      "type": "event"
    },
    {
      "anonymous": false,
      "inputs": [
        {
          "indexed": true,
          "internalType": "string",
          "name": "nik",
          "type": "string"
        },
        {
          "indexed": true,
          "internalType": "string",
          "name": "candidateId",
          "type": "string"
        }
      ],
      "name": "VoteCasted",
      "type": "event"
    },
    {
      "inputs": [
        {
          "internalType": "string",
          "name": "",
          "type": "string"
        }
      ],
      "name": "_electionss",
      "outputs": [
        {
          "internalType": "string",
          "name": "id",
          "type": "string"
        },
        {
          "internalType": "string",
          "name": "electionName",
          "type": "string"
        },
        {
          "internalType": "string",
          "name": "electionNo",
          "type": "string"
        },
        {
          "internalType": "uint256",
          "name": "voteCount",
          "type": "uint256"
        },
        {
          "internalType": "bool",
          "name": "isActive",
          "type": "bool"
        }
      ],
      "stateMutability": "view",
      "type": "function",
      "constant": true
    },
    {
      "inputs": [],
      "name": "base",
      "outputs": [
        {
          "internalType": "contract IVotechainBase",
          "name": "",
          "type": "address"
        }
      ],
      "stateMutability": "view",
      "type": "function",
      "constant": true
    },
    {
      "inputs": [
        {
          "internalType": "uint256",
          "name": "",
          "type": "uint256"
        }
      ],
      "name": "electionAddressArray",
      "outputs": [
        {
          "internalType": "string",
          "name": "id",
          "type": "string"
        },
        {
          "internalType": "string",
          "name": "electionName",
          "type": "string"
        },
        {
          "internalType": "string",
          "name": "electionNo",
          "type": "string"
        },
        {
          "internalType": "uint256",
          "name": "voteCount",
          "type": "uint256"
        },
        {
          "internalType": "bool",
          "name": "isActive",
          "type": "bool"
        }
      ],
      "stateMutability": "view",
      "type": "function",
      "constant": true
    },
    {
      "inputs": [],
      "name": "voterManager",
      "outputs": [
        {
          "internalType": "contract IVoterManager",
          "name": "",
          "type": "address"
        }
      ],
      "stateMutability": "view",
      "type": "function",
      "constant": true
    },
    {
      "inputs": [
        {
          "internalType": "string",
          "name": "electionId",
          "type": "string"
        }
      ],
      "name": "elections",
      "outputs": [
        {
          "components": [
            {
              "internalType": "string",
              "name": "id",
              "type": "string"
            },
            {
              "internalType": "string",
              "name": "electionName",
              "type": "string"
            },
            {
              "internalType": "string",
              "name": "electionNo",
              "type": "string"
            },
            {
              "internalType": "uint256",
              "name": "voteCount",
              "type": "uint256"
            },
            {
              "internalType": "bool",
              "name": "isActive",
              "type": "bool"
            }
          ],
          "internalType": "struct IElectionManager.Election",
          "name": "",
          "type": "tuple"
        }
      ],
      "stateMutability": "view",
      "type": "function",
      "constant": true
    },
    {
      "inputs": [
        {
          "internalType": "string",
          "name": "electionId",
          "type": "string"
        },
        {
          "internalType": "string",
          "name": "electionName",
          "type": "string"
        },
        {
          "internalType": "string",
          "name": "electionNo",
          "type": "string"
        }
      ],
      "name": "addElection",
      "outputs": [],
      "stateMutability": "nonpayable",
      "type": "function"
    },
    {
      "inputs": [
        {
          "internalType": "string",
          "name": "electionId",
          "type": "string"
        }
      ],
      "name": "toggleElectionActive",
      "outputs": [],
      "stateMutability": "nonpayable",
      "type": "function"
    },
    {
      "inputs": [
        {
          "internalType": "string",
          "name": "electionId",
          "type": "string"
        },
        {
          "internalType": "string",
          "name": "voterNik",
          "type": "string"
        }
      ],
      "name": "vote",
      "outputs": [],
      "stateMutability": "nonpayable",
      "type": "function"
    },
    {
      "inputs": [
        {
          "internalType": "string",
          "name": "electionId",
          "type": "string"
        }
      ],
      "name": "getElection",
      "outputs": [
        {
          "components": [
            {
              "internalType": "string",
              "name": "id",
              "type": "string"
            },
            {
              "internalType": "string",
              "name": "electionName",
              "type": "string"
            },
            {
              "internalType": "string",
              "name": "electionNo",
              "type": "string"
            },
            {
              "internalType": "uint256",
              "name": "voteCount",
              "type": "uint256"
            },
            {
              "internalType": "bool",
              "name": "isActive",
              "type": "bool"
            }
          ],
          "internalType": "struct IElectionManager.Election",
          "name": "",
          "type": "tuple"
        }
      ],
      "stateMutability": "view",
      "type": "function",
      "constant": true
    },
    {
      "inputs": [],
      "name": "getAllElection",
      "outputs": [
        {
          "components": [
            {
              "internalType": "string",
              "name": "id",
              "type": "string"
            },
            {
              "internalType": "string",
              "name": "electionName",
              "type": "string"
            },
            {
              "internalType": "string",
              "name": "electionNo",
              "type": "string"
            },
            {
              "internalType": "uint256",
              "name": "voteCount",
              "type": "uint256"
            },
            {
              "internalType": "bool",
              "name": "isActive",
              "type": "bool"
            }
          ],
          "internalType": "struct IElectionManager.Election[]",
          "name": "",
          "type": "tuple[]"
        }
      ],
      "stateMutability": "view",
      "type": "function",
      "constant": true
    },
    {
      "inputs": [
        {
          "internalType": "string",
          "name": "electionNo",
          "type": "string"
        }
      ],
      "name": "getElectionByNo",
      "outputs": [
        {
          "components": [
            {
              "internalType": "string",
              "name": "id",
              "type": "string"
            },
            {
              "internalType": "string",
              "name": "electionName",
              "type": "string"
            },
            {
              "internalType": "string",
              "name": "electionNo",
              "type": "string"
            },
            {
              "internalType": "uint256",
              "name": "voteCount",
              "type": "uint256"
            },
            {
              "internalType": "bool",
              "name": "isActive",
              "type": "bool"
            }
          ],
          "internalType": "struct IElectionManager.Election",
          "name": "",
          "type": "tuple"
        }
      ],
      "stateMutability": "view",
      "type": "function",
      "constant": true
    }
  ],
  "bytecode": "0x6080604052348015600f57600080fd5b506040516119a43803806119a4833981016040819052602c916077565b600080546001600160a01b039384166001600160a01b0319918216179091556001805492909316911617905560a5565b80516001600160a01b0381168114607257600080fd5b919050565b60008060408385031215608957600080fd5b609083605c565b9150609c60208401605c565b90509250929050565b6118f0806100b46000396000f3fe608060405234801561001057600080fd5b50600436106100a95760003560e01c80639f9070d5116100715780639f9070d51461013d578063db5dfdd714610161578063df3cf74914610176578063e030cba014610189578063e8d5940d1461019c578063fd1c6e61146101af57600080fd5b80634771b573146100ae5780634a3ccc96146100d75780635001f3b5146100ea5780635597f0831461011557806365910a4f1461012a575b600080fd5b6100c16100bc36600461124c565b6101c2565b6040516100ce9190611349565b60405180910390f35b6100c16100e536600461124c565b610448565b6000546100fd906001600160a01b031681565b6040516001600160a01b0390911681526020016100ce565b61011d61047c565b6040516100ce9190611363565b6001546100fd906001600160a01b031681565b61015061014b3660046113c7565b6106b0565b6040516100ce9594939291906113e0565b61017461016f36600461124c565b610892565b005b6100c161018436600461124c565b610a54565b6101506101973660046114d6565b610d12565b6101746101aa366004611513565b610d38565b6101746101bd36600461157c565b610ed9565b6101f66040518060a00160405280606081526020016060815260200160608152602001600081526020016000151581525090565b60028383604051610208929190611616565b908152604051908190036020019020805461022290611626565b90506000036102445760405163cd9f14e160e01b815260040160405180910390fd5b60028383604051610256929190611616565b90815260200160405180910390206040518060a001604052908160008201805461027f90611626565b80601f01602080910402602001604051908101604052809291908181526020018280546102ab90611626565b80156102f85780601f106102cd576101008083540402835291602001916102f8565b820191906000526020600020905b8154815290600101906020018083116102db57829003601f168201915b5050505050815260200160018201805461031190611626565b80601f016020809104026020016040519081016040528092919081815260200182805461033d90611626565b801561038a5780601f1061035f5761010080835404028352916020019161038a565b820191906000526020600020905b81548152906001019060200180831161036d57829003601f168201915b505050505081526020016002820180546103a390611626565b80601f01602080910402602001604051908101604052809291908181526020018280546103cf90611626565b801561041c5780601f106103f15761010080835404028352916020019161041c565b820191906000526020600020905b8154815290600101906020018083116103ff57829003601f168201915b50505091835250506003820154602082015260049091015460ff16151560409091015290505b92915050565b6102446040518060a00160405280606081526020016060815260200160608152602001600081526020016000151581525090565b60606003805480602002602001604051908101604052809291908181526020016000905b828210156106a757838290600052602060002090600502016040518060a00160405290816000820180546104d390611626565b80601f01602080910402602001604051908101604052809291908181526020018280546104ff90611626565b801561054c5780601f106105215761010080835404028352916020019161054c565b820191906000526020600020905b81548152906001019060200180831161052f57829003601f168201915b5050505050815260200160018201805461056590611626565b80601f016020809104026020016040519081016040528092919081815260200182805461059190611626565b80156105de5780601f106105b3576101008083540402835291602001916105de565b820191906000526020600020905b8154815290600101906020018083116105c157829003601f168201915b505050505081526020016002820180546105f790611626565b80601f016020809104026020016040519081016040528092919081815260200182805461062390611626565b80156106705780601f1061064557610100808354040283529160200191610670565b820191906000526020600020905b81548152906001019060200180831161065357829003601f168201915b5050509183525050600382015460208083019190915260049092015460ff16151560409091015290825260019290920191016104a0565b50505050905090565b600381815481106106c057600080fd5b90600052602060002090600502016000915090508060000180546106e390611626565b80601f016020809104026020016040519081016040528092919081815260200182805461070f90611626565b801561075c5780601f106107315761010080835404028352916020019161075c565b820191906000526020600020905b81548152906001019060200180831161073f57829003601f168201915b50505050509080600101805461077190611626565b80601f016020809104026020016040519081016040528092919081815260200182805461079d90611626565b80156107ea5780601f106107bf576101008083540402835291602001916107ea565b820191906000526020600020905b8154815290600101906020018083116107cd57829003601f168201915b5050505050908060020180546107ff90611626565b80601f016020809104026020016040519081016040528092919081815260200182805461082b90611626565b80156108785780601f1061084d57610100808354040283529160200191610878565b820191906000526020600020905b81548152906001019060200180831161085b57829003601f168201915b50505050600383015460049093015491929160ff16905085565b60008054906101000a90046001600160a01b03166001600160a01b031663fb4ab1646040518163ffffffff1660e01b8152600401602060405180830381865afa1580156108e3573d6000803e3d6000fd5b505050506040513d601f19601f820116820180604052508101906109079190611660565b6001600160a01b0316336001600160a01b03161461093857604051635c427cd960e01b815260040160405180910390fd5b6002828260405161094a929190611616565b908152604051908190036020019020805461096490611626565b90506000036109865760405163cd9f14e160e01b815260040160405180910390fd5b60028282604051610998929190611616565b9081526040519081900360200181206004015460ff1615906002906109c09085908590611616565b908152604051908190036020018120600401805492151560ff19909316929092179091556109f19083908390611616565b60405180910390207f4cdbc6bfe3fe60973ba81af65167b9aeabf33c024d02873823ddbddb210b68e660028484604051610a2c929190611616565b908152604051602091819003820181206004015460ff16151581520160405180910390a25050565b610a886040518060a00160405280606081526020016060815260200160608152602001600081526020016000151581525090565b60005b600354811015610cf8578383604051610aa5929190611616565b604051809103902060038281548110610ac057610ac0611689565b9060005260206000209060050201600201604051610ade919061169f565b604051809103902003610cf05760038181548110610afe57610afe611689565b90600052602060002090600502016040518060a0016040529081600082018054610b2790611626565b80601f0160208091040260200160405190810160405280929190818152602001828054610b5390611626565b8015610ba05780601f10610b7557610100808354040283529160200191610ba0565b820191906000526020600020905b815481529060010190602001808311610b8357829003601f168201915b50505050508152602001600182018054610bb990611626565b80601f0160208091040260200160405190810160405280929190818152602001828054610be590611626565b8015610c325780601f10610c0757610100808354040283529160200191610c32565b820191906000526020600020905b815481529060010190602001808311610c1557829003601f168201915b50505050508152602001600282018054610c4b90611626565b80601f0160208091040260200160405190810160405280929190818152602001828054610c7790611626565b8015610cc45780601f10610c9957610100808354040283529160200191610cc4565b820191906000526020600020905b815481529060010190602001808311610ca757829003601f168201915b50505091835250506003820154602082015260049091015460ff16151560409091015291506104429050565b600101610a8b565b5060405163cd9f14e160e01b815260040160405180910390fd5b80516020818301810180516002825292820191909301209152805481906106e390611626565b60008054906101000a90046001600160a01b03166001600160a01b031663408e27276040518163ffffffff1660e01b8152600401602060405180830381865afa158015610d89573d6000803e3d6000fd5b505050506040513d601f19601f82011682018060405250810190610dad9190611715565b610dca57604051635c427cd960e01b815260040160405180910390fd5b60028383604051610ddc929190611616565b9081526040519081900360200190208054610df690611626565b15905080610e29575060028383604051610e11929190611616565b9081526040519081900360200190206004015460ff16155b15610e475760405163cd9f14e160e01b815260040160405180910390fd5b60028383604051610e59929190611616565b9081526040519081900360200190206003018054906000610e7983611737565b91905055508282604051610e8e929190611616565b604051809103902081604051610ea4919061175e565b604051908190038120907f791f7d5f0b0d6e798f239ccca607156ff12f293d6709379301dc1a27e520618190600090a3505050565b60008054906101000a90046001600160a01b03166001600160a01b031663fb4ab1646040518163ffffffff1660e01b8152600401602060405180830381865afa158015610f2a573d6000803e3d6000fd5b505050506040513d601f19601f82011682018060405250810190610f4e9190611660565b6001600160a01b0316336001600160a01b031614610f7f57604051635c427cd960e01b815260040160405180910390fd5b60028686604051610f91929190611616565b9081526040519081900360200190208054610fab90611626565b159050610fcb576040516339136f8360e21b815260040160405180910390fd5b6040805160c06020601f8901819004028201810190925260a081018781526000928291908a908a9081908501838280828437600092019190915250505090825250604080516020601f890181900481028201810190925287815291810191908890889081908401838280828437600092019190915250505090825250604080516020601f8701819004810282018101909252858152918101919086908690819084018382808284376000920182905250938552505050602082015260016040918201525190915081906002906110a4908a908a90611616565b908152604051908190036020019020815181906110c190826117cb565b50602082015160018201906110d690826117cb565b50604082015160028201906110eb90826117cb565b5060608201516003808301919091556080909201516004909101805491151560ff199092169190911790558054600181018255600091909152815182916005027fc2575a0e9e593c00f959f8c92f12db2869c3395a3b0502d05e2516446f71f85b0190819061115a90826117cb565b506020820151600182019061116f90826117cb565b506040820151600282019061118490826117cb565b50606082015160038201556080909101516004909101805460ff19169115159190911790556040516111b99088908890611616565b60405180910390207ffbb39612bc65a9d2c5c0137dc505f3a2fa0d4c0dac443a06fcf9df0c281c55b286866040516111f292919061188b565b60405180910390a250505050505050565b60008083601f84011261121557600080fd5b50813567ffffffffffffffff81111561122d57600080fd5b60208301915083602082850101111561124557600080fd5b9250929050565b6000806020838503121561125f57600080fd5b823567ffffffffffffffff81111561127657600080fd5b61128285828601611203565b90969095509350505050565b60005b838110156112a9578181015183820152602001611291565b50506000910152565b600081518084526112ca81602086016020860161128e565b601f01601f19169290920160200192915050565b6000815160a084526112f360a08501826112b2565b90506020830151848203602086015261130c82826112b2565b9150506040830151848203604086015261132682826112b2565b915050606083015160608501526080830151151560808501528091505092915050565b60208152600061135c60208301846112de565b9392505050565b600060208083016020845280855180835260408601915060408160051b87010192506020870160005b828110156113ba57603f198886030184526113a88583516112de565b9450928501929085019060010161138c565b5092979650505050505050565b6000602082840312156113d957600080fd5b5035919050565b60a0815260006113f360a08301886112b2565b828103602084015261140581886112b2565b9050828103604084015261141981876112b2565b606084019590955250509015156080909101529392505050565b634e487b7160e01b600052604160045260246000fd5b600082601f83011261145a57600080fd5b813567ffffffffffffffff8082111561147557611475611433565b604051601f8301601f19908116603f0116810190828211818310171561149d5761149d611433565b816040528381528660208588010111156114b657600080fd5b836020870160208301376000602085830101528094505050505092915050565b6000602082840312156114e857600080fd5b813567ffffffffffffffff8111156114ff57600080fd5b61150b84828501611449565b949350505050565b60008060006040848603121561152857600080fd5b833567ffffffffffffffff8082111561154057600080fd5b61154c87838801611203565b9095509350602086013591508082111561156557600080fd5b5061157286828701611449565b9150509250925092565b6000806000806000806060878903121561159557600080fd5b863567ffffffffffffffff808211156115ad57600080fd5b6115b98a838b01611203565b909850965060208901359150808211156115d257600080fd5b6115de8a838b01611203565b909650945060408901359150808211156115f757600080fd5b5061160489828a01611203565b979a9699509497509295939492505050565b8183823760009101908152919050565b600181811c9082168061163a57607f821691505b60208210810361165a57634e487b7160e01b600052602260045260246000fd5b50919050565b60006020828403121561167257600080fd5b81516001600160a01b038116811461135c57600080fd5b634e487b7160e01b600052603260045260246000fd5b60008083546116ad81611626565b600182811680156116c557600181146116da57611709565b60ff1984168752821515830287019450611709565b8760005260208060002060005b858110156117005781548a8201529084019082016116e7565b50505082870194505b50929695505050505050565b60006020828403121561172757600080fd5b8151801515811461135c57600080fd5b60006001820161175757634e487b7160e01b600052601160045260246000fd5b5060010190565b6000825161177081846020870161128e565b9190910192915050565b601f8211156117c6576000816000526020600020601f850160051c810160208610156117a35750805b601f850160051c820191505b818110156117c2578281556001016117af565b5050505b505050565b815167ffffffffffffffff8111156117e5576117e5611433565b6117f9816117f38454611626565b8461177a565b602080601f83116001811461182e57600084156118165750858301515b600019600386901b1c1916600185901b1785556117c2565b600085815260208120601f198616915b8281101561185d5788860151825594840194600190910190840161183e565b508582101561187b5787850151600019600388901b60f8161c191681555b5050505050600190811b01905550565b60208152816020820152818360408301376000818301604090810191909152601f909201601f1916010191905056fea2646970667358221220e30e0fcb875d6127f83a01d2c354f90f2e58f9bd500bc9b2190c324d370846d164736f6c63430008190033",
  "immutableReferences": {},
  "source": "// SPDX-License-Identifier: UNLICENSED\r\npragma solidity ^0.8.25;\r\n\r\nimport \"./Interfaces.sol\";\r\n\r\ncontract ElectionManager is IElectionManager {\r\n    error InvalidElection();\r\n    error ElectionAlreadyExists();\r\n    error UnauthorizedCaller();\r\n\r\n    IVotechainBase public base;\r\n    IVoterManager public voterManager;\r\n\r\n    mapping(string => Election) public _electionss;\r\n    Election[] public electionAddressArray;\r\n\r\n    event ElectionAdded(string indexed electionId, string electionName);\r\n    event ElectionStatusChange(string indexed electionId, bool isActive);\r\n    event VoteCasted(string indexed nik, string indexed candidateId);\r\n\r\n    constructor(address _baseAddress, address _voterManagerAddress) {\r\n        base = IVotechainBase(_baseAddress);\r\n        voterManager = IVoterManager(_voterManagerAddress);\r\n    }\r\n\r\n    function elections(string calldata electionId) external view returns (Election memory) {\r\n        return _electionss[electionId];\r\n    }\r\n\r\n\r\n    modifier onlyKpuAdmin() {\r\n        if (msg.sender != base.kpuAdmin()) revert UnauthorizedCaller();\r\n        _;\r\n    }\r\n\r\n    modifier votingIsActive() {\r\n        if (!base.votingActive()) revert UnauthorizedCaller();\r\n        _;\r\n    }\r\n\r\n    function addElection(\r\n        string calldata electionId,\r\n        string calldata electionName,\r\n        string calldata electionNo\r\n    ) external override onlyKpuAdmin {\r\n        if (bytes(_electionss[electionId].id).length != 0) revert ElectionAlreadyExists();\r\n\r\n        Election memory newElection = Election({\r\n            id: electionId,\r\n            electionName: electionName,\r\n            electionNo: electionNo,\r\n            voteCount: 0,\r\n            isActive: true\r\n        });\r\n        _electionss[electionId] = newElection;\r\n        electionAddressArray.push(newElection);\r\n\r\n        emit ElectionAdded(electionId, electionName);\r\n    }\r\n\r\n    function toggleElectionActive(string calldata electionId) external override onlyKpuAdmin {\r\n        if (bytes(_electionss[electionId].id).length == 0) revert InvalidElection();\r\n        _electionss[electionId].isActive = !_electionss[electionId].isActive;\r\n        emit ElectionStatusChange(electionId, _electionss[electionId].isActive);\r\n    }\r\n\r\n    function vote(string calldata electionId, string memory voterNik) external override votingIsActive {\r\n\r\n        if (bytes(_electionss[electionId].id).length == 0 || !_electionss[electionId].isActive)\r\n            revert InvalidElection();\r\n\r\n        _electionss[electionId].voteCount++;\r\n        emit VoteCasted(voterNik, electionId);\r\n    }\r\n\r\n    function getElection(string calldata electionId) external view override returns (Election memory) {\r\n        if (bytes(_electionss[electionId].id).length == 0) revert InvalidElection();\r\n        return _electionss[electionId];\r\n    }\r\n\r\n    function getAllElection() external view returns (Election[] memory) {\r\n        return electionAddressArray;\r\n    }\r\n\r\n    function getElectionByNo(string calldata electionNo) external view returns (Election memory) {\r\n        for (uint i = 0; i < electionAddressArray.length; i++) {\r\n            if (keccak256(bytes(electionAddressArray[i].electionNo)) == keccak256(bytes(electionNo))) {\r\n                return electionAddressArray[i];\r\n            }\r\n        }\r\n        revert InvalidElection();\r\n    }\r\n}\r\n",
  "sourcePath": "C:\\Users\\bbyas\\Documents\\Kuliah\\Skripsi\\backend\\votechain-contract\\contracts\\ElectionManager.sol",
  "compiler": {
    "name": "solc",
    "version": "0.8.25+commit.b61c2a91.Emscripten.clang"
  },
  "schemaVersion": "3.4.16",
  "updatedAt": "2025-04-09T07:16:16.212Z",
  "networkType": "ethereum",
  "devdoc": {
    "kind": "dev",
    "methods": {},
    "version": 1
  },
  "userdoc": {
    "kind": "user",
    "methods": {},
    "version": 1
  }
}