{
  "contractName": "ElectionManager",
  "abi": [
    {
      "inputs": [
        {
          "internalType": "address",
          "name": "_baseAddress",
          "type": "address"
        },
        {
          "internalType": "address",
          "name": "_voterManagerAddress",
          "type": "address"
        }
      ],
      "stateMutability": "nonpayable",
      "type": "constructor"
    },
    {
      "inputs": [],
      "name": "ElectionAlreadyExists",
      "type": "error"
    },
    {
      "inputs": [],
      "name": "ElectionNumberMismatch",
      "type": "error"
    },
    {
      "inputs": [],
      "name": "InvalidElection",
      "type": "error"
    },
    {
      "inputs": [],
      "name": "UnauthorizedCaller",
      "type": "error"
    },
    {
      "anonymous": false,
      "inputs": [
        {
          "indexed": true,
          "internalType": "string",
          "name": "electionId",
          "type": "string"
        },
        {
          "indexed": false,
          "internalType": "string",
          "name": "electionNo",
          "type": "string"
        }
      ],
      "name": "ElectionAdded",
      "type": "event"
    },
    {
      "anonymous": false,
      "inputs": [
        {
          "indexed": true,
          "internalType": "string",
          "name": "electionId",
          "type": "string"
        },
        {
          "indexed": true,
          "internalType": "string",
          "name": "electionNo",
          "type": "string"
        },
        {
          "indexed": false,
          "internalType": "bool",
          "name": "isActive",
          "type": "bool"
        }
      ],
      "name": "ElectionStatusChange",
      "type": "event"
    },
    {
      "anonymous": false,
      "inputs": [
        {
          "indexed": true,
          "internalType": "string",
          "name": "nik",
          "type": "string"
        },
        {
          "indexed": true,
          "internalType": "string",
          "name": "electionId",
          "type": "string"
        }
      ],
      "name": "VoteCasted",
      "type": "event"
    },
    {
      "inputs": [
        {
          "internalType": "string",
          "name": "",
          "type": "string"
        }
      ],
      "name": "_electionss",
      "outputs": [
        {
          "internalType": "string",
          "name": "id",
          "type": "string"
        },
        {
          "internalType": "string",
          "name": "electionNo",
          "type": "string"
        },
        {
          "internalType": "uint256",
          "name": "voteCount",
          "type": "uint256"
        },
        {
          "internalType": "bool",
          "name": "isActive",
          "type": "bool"
        }
      ],
      "stateMutability": "view",
      "type": "function",
      "constant": true
    },
    {
      "inputs": [],
      "name": "base",
      "outputs": [
        {
          "internalType": "contract IVotechainBase",
          "name": "",
          "type": "address"
        }
      ],
      "stateMutability": "view",
      "type": "function",
      "constant": true
    },
    {
      "inputs": [
        {
          "internalType": "uint256",
          "name": "",
          "type": "uint256"
        }
      ],
      "name": "electionAddressArray",
      "outputs": [
        {
          "internalType": "string",
          "name": "id",
          "type": "string"
        },
        {
          "internalType": "string",
          "name": "electionNo",
          "type": "string"
        },
        {
          "internalType": "uint256",
          "name": "voteCount",
          "type": "uint256"
        },
        {
          "internalType": "bool",
          "name": "isActive",
          "type": "bool"
        }
      ],
      "stateMutability": "view",
      "type": "function",
      "constant": true
    },
    {
      "inputs": [],
      "name": "voterManager",
      "outputs": [
        {
          "internalType": "contract IVoterManager",
          "name": "",
          "type": "address"
        }
      ],
      "stateMutability": "view",
      "type": "function",
      "constant": true
    },
    {
      "inputs": [
        {
          "internalType": "string",
          "name": "electionId",
          "type": "string"
        }
      ],
      "name": "elections",
      "outputs": [
        {
          "components": [
            {
              "internalType": "string",
              "name": "id",
              "type": "string"
            },
            {
              "internalType": "string",
              "name": "electionNo",
              "type": "string"
            },
            {
              "internalType": "uint256",
              "name": "voteCount",
              "type": "uint256"
            },
            {
              "internalType": "bool",
              "name": "isActive",
              "type": "bool"
            }
          ],
          "internalType": "struct IElectionManager.Election",
          "name": "",
          "type": "tuple"
        }
      ],
      "stateMutability": "view",
      "type": "function",
      "constant": true
    },
    {
      "inputs": [
        {
          "internalType": "string",
          "name": "electionId",
          "type": "string"
        },
        {
          "internalType": "string",
          "name": "electionNo",
          "type": "string"
        }
      ],
      "name": "addElection",
      "outputs": [],
      "stateMutability": "nonpayable",
      "type": "function"
    },
    {
      "inputs": [
        {
          "internalType": "string",
          "name": "electionId",
          "type": "string"
        },
        {
          "internalType": "string",
          "name": "electionNo",
          "type": "string"
        }
      ],
      "name": "toggleElectionActive",
      "outputs": [],
      "stateMutability": "nonpayable",
      "type": "function"
    },
    {
      "inputs": [
        {
          "internalType": "string",
          "name": "electionId",
          "type": "string"
        },
        {
          "internalType": "string",
          "name": "electionNo",
          "type": "string"
        },
        {
          "internalType": "string",
          "name": "voterNik",
          "type": "string"
        }
      ],
      "name": "vote",
      "outputs": [],
      "stateMutability": "nonpayable",
      "type": "function"
    },
    {
      "inputs": [
        {
          "internalType": "string",
          "name": "electionId",
          "type": "string"
        }
      ],
      "name": "getElection",
      "outputs": [
        {
          "components": [
            {
              "internalType": "string",
              "name": "id",
              "type": "string"
            },
            {
              "internalType": "string",
              "name": "electionNo",
              "type": "string"
            },
            {
              "internalType": "uint256",
              "name": "voteCount",
              "type": "uint256"
            },
            {
              "internalType": "bool",
              "name": "isActive",
              "type": "bool"
            }
          ],
          "internalType": "struct IElectionManager.Election",
          "name": "",
          "type": "tuple"
        }
      ],
      "stateMutability": "view",
      "type": "function",
      "constant": true
    },
    {
      "inputs": [],
      "name": "getAllElection",
      "outputs": [
        {
          "components": [
            {
              "internalType": "string",
              "name": "id",
              "type": "string"
            },
            {
              "internalType": "string",
              "name": "electionNo",
              "type": "string"
            },
            {
              "internalType": "uint256",
              "name": "voteCount",
              "type": "uint256"
            },
            {
              "internalType": "bool",
              "name": "isActive",
              "type": "bool"
            }
          ],
          "internalType": "struct IElectionManager.Election[]",
          "name": "",
          "type": "tuple[]"
        }
      ],
      "stateMutability": "view",
      "type": "function",
      "constant": true
    },
    {
      "inputs": [
        {
          "internalType": "string",
          "name": "electionNo",
          "type": "string"
        }
      ],
      "name": "getElectionByNo",
      "outputs": [
        {
          "components": [
            {
              "internalType": "string",
              "name": "id",
              "type": "string"
            },
            {
              "internalType": "string",
              "name": "electionNo",
              "type": "string"
            },
            {
              "internalType": "uint256",
              "name": "voteCount",
              "type": "uint256"
            },
            {
              "internalType": "bool",
              "name": "isActive",
              "type": "bool"
            }
          ],
          "internalType": "struct IElectionManager.Election",
          "name": "",
          "type": "tuple"
        }
      ],
      "stateMutability": "view",
      "type": "function",
      "constant": true
    }
  ],
  "bytecode": "0x6080604052348015600f57600080fd5b50604051611909380380611909833981016040819052602c916077565b600080546001600160a01b039384166001600160a01b0319918216179091556001805492909316911617905560a5565b80516001600160a01b0381168114607257600080fd5b919050565b60008060408385031215608957600080fd5b609083605c565b9150609c60208401605c565b90509250929050565b611855806100b46000396000f3fe608060405234801561001057600080fd5b50600436106100a95760003560e01c806395b799071161007157806395b799071461013d57806395f59fe1146101525780639f9070d514610165578063a9d93bf014610188578063df3cf7491461019b578063e030cba0146101ae57600080fd5b80634771b573146100ae5780634a3ccc96146100d75780635001f3b5146100ea5780635597f0831461011557806365910a4f1461012a575b600080fd5b6100c16100bc3660046111e3565b6101c1565b6040516100ce91906112c6565b60405180910390f35b6100c16100e53660046111e3565b610397565b6000546100fd906001600160a01b031681565b6040516001600160a01b0390911681526020016100ce565b61011d610534565b6040516100ce91906112e0565b6001546100fd906001600160a01b031681565b61015061014b366004611344565b6106d6565b005b610150610160366004611453565b610a72565b6101786101733660046114e7565b610c2b565b6040516100ce9493929190611500565b610150610196366004611344565b610d7f565b6100c16101a93660046111e3565b610f4f565b6101786101bc36600461153e565b611174565b6101ee60405180608001604052806060815260200160608152602001600081526020016000151581525090565b60006002848460405161020292919061157b565b908152602001604051809103902090508060000180546102219061158b565b90506000036102435760405163cd9f14e160e01b815260040160405180910390fd5b8060405180608001604052908160008201805461025f9061158b565b80601f016020809104026020016040519081016040528092919081815260200182805461028b9061158b565b80156102d85780601f106102ad576101008083540402835291602001916102d8565b820191906000526020600020905b8154815290600101906020018083116102bb57829003601f168201915b505050505081526020016001820180546102f19061158b565b80601f016020809104026020016040519081016040528092919081815260200182805461031d9061158b565b801561036a5780601f1061033f5761010080835404028352916020019161036a565b820191906000526020600020905b81548152906001019060200180831161034d57829003601f168201915b50505091835250506002820154602082015260039091015460ff1615156040909101529150505b92915050565b6103c460405180608001604052806060815260200160608152602001600081526020016000151581525090565b600283836040516103d692919061157b565b90815260200160405180910390206040518060800160405290816000820180546103ff9061158b565b80601f016020809104026020016040519081016040528092919081815260200182805461042b9061158b565b80156104785780601f1061044d57610100808354040283529160200191610478565b820191906000526020600020905b81548152906001019060200180831161045b57829003601f168201915b505050505081526020016001820180546104919061158b565b80601f01602080910402602001604051908101604052809291908181526020018280546104bd9061158b565b801561050a5780601f106104df5761010080835404028352916020019161050a565b820191906000526020600020905b8154815290600101906020018083116104ed57829003601f168201915b50505091835250506002820154602082015260039091015460ff1615156040909101529392505050565b60606003805480602002602001604051908101604052809291908181526020016000905b828210156106cd578382906000526020600020906004020160405180608001604052908160008201805461058b9061158b565b80601f01602080910402602001604051908101604052809291908181526020018280546105b79061158b565b80156106045780601f106105d957610100808354040283529160200191610604565b820191906000526020600020905b8154815290600101906020018083116105e757829003601f168201915b5050505050815260200160018201805461061d9061158b565b80601f01602080910402602001604051908101604052809291908181526020018280546106499061158b565b80156106965780601f1061066b57610100808354040283529160200191610696565b820191906000526020600020905b81548152906001019060200180831161067957829003601f168201915b5050509183525050600282015460208083019190915260039092015460ff1615156040909101529082526001929092019101610558565b50505050905090565b60008054906101000a90046001600160a01b03166001600160a01b031663fb4ab1646040518163ffffffff1660e01b8152600401602060405180830381865afa158015610727573d6000803e3d6000fd5b505050506040513d601f19601f8201168201806040525081019061074b91906115c5565b6001600160a01b0316336001600160a01b03161461077c57604051635c427cd960e01b815260040160405180910390fd5b60006002858560405161079092919061157b565b90815260200160405180910390206040518060800160405290816000820180546107b99061158b565b80601f01602080910402602001604051908101604052809291908181526020018280546107e59061158b565b80156108325780601f1061080757610100808354040283529160200191610832565b820191906000526020600020905b81548152906001019060200180831161081557829003601f168201915b5050505050815260200160018201805461084b9061158b565b80601f01602080910402602001604051908101604052809291908181526020018280546108779061158b565b80156108c45780601f10610899576101008083540402835291602001916108c4565b820191906000526020600020905b8154815290600101906020018083116108a757829003601f168201915b50505091835250506002820154602082015260039091015460ff1615156040909101528051519091501561090b576040516339136f8360e21b815260040160405180910390fd5b6040805160a06020601f88018190040282018101909252608081018681526000928291908990899081908501838280828437600092019190915250505090825250604080516020601f8801819004810282018101909252868152918101919087908790819084018382808284376000920182905250938552505050602082018190526001604090920182905260038054928301815590528151919350839250829160049091027fc2575a0e9e593c00f959f8c92f12db2869c3395a3b0502d05e2516446f71f85b019081906109e0908261163f565b50602082015160018201906109f5908261163f565b5060408281015160028301556060909201516003909101805460ff191691151591909117905551610a29908790879061157b565b60405180910390207ffbb39612bc65a9d2c5c0137dc505f3a2fa0d4c0dac443a06fcf9df0c281c55b28585604051610a629291906116ff565b60405180910390a2505050505050565b60008054906101000a90046001600160a01b03166001600160a01b031663408e27276040518163ffffffff1660e01b8152600401602060405180830381865afa158015610ac3573d6000803e3d6000fd5b505050506040513d601f19601f82011682018060405250810190610ae7919061172e565b610b0457604051635c427cd960e01b815260040160405180910390fd5b600060028686604051610b1892919061157b565b90815260200160405180910390209050806000018054610b379061158b565b15905080610b495750600381015460ff165b15610b675760405163cd9f14e160e01b815260040160405180910390fd5b8383604051610b7792919061157b565b604051809103902081600101604051610b909190611750565b604051809103902014610bb65760405163373251d760e01b815260040160405180910390fd5b600281018054906000610bc8836117c6565b91905055508585604051610bdd92919061157b565b604051809103902082604051610bf391906117ed565b604051908190038120907f791f7d5f0b0d6e798f239ccca607156ff12f293d6709379301dc1a27e520618190600090a3505050505050565b60038181548110610c3b57600080fd5b9060005260206000209060040201600091509050806000018054610c5e9061158b565b80601f0160208091040260200160405190810160405280929190818152602001828054610c8a9061158b565b8015610cd75780601f10610cac57610100808354040283529160200191610cd7565b820191906000526020600020905b815481529060010190602001808311610cba57829003601f168201915b505050505090806001018054610cec9061158b565b80601f0160208091040260200160405190810160405280929190818152602001828054610d189061158b565b8015610d655780601f10610d3a57610100808354040283529160200191610d65565b820191906000526020600020905b815481529060010190602001808311610d4857829003601f168201915b50505050600283015460039093015491929160ff16905084565b60008054906101000a90046001600160a01b03166001600160a01b031663fb4ab1646040518163ffffffff1660e01b8152600401602060405180830381865afa158015610dd0573d6000803e3d6000fd5b505050506040513d601f19601f82011682018060405250810190610df491906115c5565b6001600160a01b0316336001600160a01b031614610e2557604051635c427cd960e01b815260040160405180910390fd5b600060028585604051610e3992919061157b565b90815260200160405180910390209050806000018054610e589061158b565b9050600003610e7a5760405163cd9f14e160e01b815260040160405180910390fd5b8282604051610e8a92919061157b565b604051809103902081600101604051610ea39190611750565b604051809103902014610ec95760405163373251d760e01b815260040160405180910390fd5b60038101805460ff19811660ff90911615179055604051610eed908490849061157b565b60405180910390208585604051610f0592919061157b565b604051908190038120600384015460ff1615158252907fc4ed90e5395aebcc1e7e027dfc5cafaa02443f04824a16ab3ad2f6a52f8ca06d9060200160405180910390a35050505050565b610f7c60405180608001604052806060815260200160608152602001600081526020016000151581525090565b60005b60035481101561115a578383604051610f9992919061157b565b604051809103902060038281548110610fb457610fb4611809565b9060005260206000209060040201600101604051610fd29190611750565b6040518091039020036111525760038181548110610ff257610ff2611809565b906000526020600020906004020160405180608001604052908160008201805461101b9061158b565b80601f01602080910402602001604051908101604052809291908181526020018280546110479061158b565b80156110945780601f1061106957610100808354040283529160200191611094565b820191906000526020600020905b81548152906001019060200180831161107757829003601f168201915b505050505081526020016001820180546110ad9061158b565b80601f01602080910402602001604051908101604052809291908181526020018280546110d99061158b565b80156111265780601f106110fb57610100808354040283529160200191611126565b820191906000526020600020905b81548152906001019060200180831161110957829003601f168201915b50505091835250506002820154602082015260039091015460ff16151560409091015291506103919050565b600101610f7f565b5060405163cd9f14e160e01b815260040160405180910390fd5b8051602081830181018051600282529282019190930120915280548190610c5e9061158b565b60008083601f8401126111ac57600080fd5b50813567ffffffffffffffff8111156111c457600080fd5b6020830191508360208285010111156111dc57600080fd5b9250929050565b600080602083850312156111f657600080fd5b823567ffffffffffffffff81111561120d57600080fd5b6112198582860161119a565b90969095509350505050565b60005b83811015611240578181015183820152602001611228565b50506000910152565b60008151808452611261816020860160208601611225565b601f01601f19169290920160200192915050565b600081516080845261128a6080850182611249565b9050602083015184820360208601526112a38282611249565b915050604083015160408501526060830151151560608501528091505092915050565b6020815260006112d96020830184611275565b9392505050565b600060208083016020845280855180835260408601915060408160051b87010192506020870160005b8281101561133757603f19888603018452611325858351611275565b94509285019290850190600101611309565b5092979650505050505050565b6000806000806040858703121561135a57600080fd5b843567ffffffffffffffff8082111561137257600080fd5b61137e8883890161119a565b9096509450602087013591508082111561139757600080fd5b506113a48782880161119a565b95989497509550505050565b634e487b7160e01b600052604160045260246000fd5b600082601f8301126113d757600080fd5b813567ffffffffffffffff808211156113f2576113f26113b0565b604051601f8301601f19908116603f0116810190828211818310171561141a5761141a6113b0565b8160405283815286602085880101111561143357600080fd5b836020870160208301376000602085830101528094505050505092915050565b60008060008060006060868803121561146b57600080fd5b853567ffffffffffffffff8082111561148357600080fd5b61148f89838a0161119a565b909750955060208801359150808211156114a857600080fd5b6114b489838a0161119a565b909550935060408801359150808211156114cd57600080fd5b506114da888289016113c6565b9150509295509295909350565b6000602082840312156114f957600080fd5b5035919050565b6080815260006115136080830187611249565b82810360208401526115258187611249565b6040840195909552505090151560609091015292915050565b60006020828403121561155057600080fd5b813567ffffffffffffffff81111561156757600080fd5b611573848285016113c6565b949350505050565b8183823760009101908152919050565b600181811c9082168061159f57607f821691505b6020821081036115bf57634e487b7160e01b600052602260045260246000fd5b50919050565b6000602082840312156115d757600080fd5b81516001600160a01b03811681146112d957600080fd5b601f82111561163a576000816000526020600020601f850160051c810160208610156116175750805b601f850160051c820191505b8181101561163657828155600101611623565b5050505b505050565b815167ffffffffffffffff811115611659576116596113b0565b61166d81611667845461158b565b846115ee565b602080601f8311600181146116a2576000841561168a5750858301515b600019600386901b1c1916600185901b178555611636565b600085815260208120601f198616915b828110156116d1578886015182559484019460019091019084016116b2565b50858210156116ef5787850151600019600388901b60f8161c191681555b5050505050600190811b01905550565b60208152816020820152818360408301376000818301604090810191909152601f909201601f19160101919050565b60006020828403121561174057600080fd5b815180151581146112d957600080fd5b600080835461175e8161158b565b60018281168015611776576001811461178b576117ba565b60ff19841687528215158302870194506117ba565b8760005260208060002060005b858110156117b15781548a820152908401908201611798565b50505082870194505b50929695505050505050565b6000600182016117e657634e487b7160e01b600052601160045260246000fd5b5060010190565b600082516117ff818460208701611225565b9190910192915050565b634e487b7160e01b600052603260045260246000fdfea2646970667358221220176bdc749858c90cef5167110f1fa31329fb8622255b16f9eaec0148a0230a2b64736f6c63430008190033",
  "immutableReferences": {},
  "source": "// SPDX-License-Identifier: UNLICENSED\r\npragma solidity ^0.8.25;\r\n\r\nimport \"./Interfaces.sol\";\r\n\r\ncontract ElectionManager is IElectionManager {\r\n    error InvalidElection();\r\n    error ElectionAlreadyExists();\r\n    error UnauthorizedCaller();\r\n    error ElectionNumberMismatch();\r\n\r\n    IVotechainBase public base;\r\n    IVoterManager public voterManager;\r\n\r\n    mapping(string => Election) public _electionss;\r\n    Election[] public electionAddressArray;\r\n\r\n    event ElectionAdded(string indexed electionId, string electionNo);\r\n    event ElectionStatusChange(string indexed electionId, string indexed electionNo, bool isActive);\r\n    event VoteCasted(string indexed nik, string indexed electionId);\r\n\r\n    constructor(address _baseAddress, address _voterManagerAddress) {\r\n        base = IVotechainBase(_baseAddress);\r\n        voterManager = IVoterManager(_voterManagerAddress);\r\n    }\r\n\r\n    function elections(string calldata electionId) external view returns (Election memory) {\r\n        return _electionss[electionId];\r\n    }\r\n\r\n\r\n    modifier onlyKpuAdmin() {\r\n        if (msg.sender != base.kpuAdmin()) revert UnauthorizedCaller();\r\n        _;\r\n    }\r\n\r\n    modifier votingIsActive() {\r\n        if (!base.votingActive()) revert UnauthorizedCaller();\r\n        _;\r\n    }\r\n\r\n    function addElection(\r\n        string calldata electionId,\r\n        string calldata electionNo\r\n    ) external override onlyKpuAdmin {\r\n\r\n        Election memory election = _electionss[electionId];\r\n        if (bytes(election.id).length != 0) revert ElectionAlreadyExists();\r\n\r\n        Election memory newElection = Election({\r\n            id: electionId,\r\n            electionNo: electionNo,\r\n            voteCount: 0,\r\n            isActive: true\r\n        });\r\n        election = newElection;\r\n        electionAddressArray.push(newElection);\r\n\r\n        emit ElectionAdded(electionId, electionNo);\r\n    }\r\n\r\n    function toggleElectionActive(string calldata electionId, string calldata electionNo) external override onlyKpuAdmin {\r\n        Election storage election = _electionss[electionId];\r\n        if (bytes(election.id).length == 0) revert InvalidElection();\r\n        if (keccak256(bytes(election.electionNo)) != keccak256(bytes(electionNo))) revert ElectionNumberMismatch();\r\n\r\n        election.isActive = !election.isActive;\r\n        emit ElectionStatusChange(electionId, electionNo, election.isActive);\r\n    }\r\n\r\n    function vote(string calldata electionId, string calldata electionNo, string memory voterNik) external override votingIsActive {\r\n        Election storage election = _electionss[electionId];\r\n        if (bytes(election.id).length == 0 || election.isActive)\r\n            revert InvalidElection();\r\n\r\n        if (keccak256(bytes(election.electionNo)) != keccak256(bytes(electionNo))) revert ElectionNumberMismatch();\r\n\r\n        election.voteCount++;\r\n        emit VoteCasted(voterNik, electionId);\r\n    }\r\n\r\n    function getElection(string calldata electionId) external view override returns (Election memory) {\r\n        Election storage election = _electionss[electionId];\r\n        if (bytes(election.id).length == 0) revert InvalidElection();\r\n        return election;\r\n    }\r\n\r\n    function getAllElection() external view returns (Election[] memory) {\r\n        return electionAddressArray;\r\n    }\r\n\r\n    function getElectionByNo(string calldata electionNo) external view returns (Election memory) {\r\n        for (uint i = 0; i < electionAddressArray.length; i++) {\r\n            if (keccak256(bytes(electionAddressArray[i].electionNo)) == keccak256(bytes(electionNo))) {\r\n                return electionAddressArray[i];\r\n            }\r\n        }\r\n        revert InvalidElection();\r\n    }\r\n}\r\n",
  "sourcePath": "C:\\Users\\bbyas\\Documents\\Kuliah\\Skripsi\\backend\\votechain-contract\\contracts\\ElectionManager.sol",
  "compiler": {
    "name": "solc",
    "version": "0.8.25+commit.b61c2a91.Emscripten.clang"
  },
  "schemaVersion": "3.4.16",
  "updatedAt": "2025-04-26T09:29:14.837Z",
  "networkType": "ethereum",
  "devdoc": {
    "kind": "dev",
    "methods": {},
    "version": 1
  },
  "userdoc": {
    "kind": "user",
    "methods": {},
    "version": 1
  }
}