{
  "contractName": "KPUManager",
  "abi": [
    {
      "inputs": [
        {
          "internalType": "address",
          "name": "_baseAddress",
          "type": "address"
        },
        {
          "internalType": "address[]",
          "name": "trustedForwarders",
          "type": "address[]"
        }
      ],
      "stateMutability": "nonpayable",
      "type": "constructor"
    },
    {
      "inputs": [],
      "name": "KPUKotaAlreadyRegistered",
      "type": "error"
    },
    {
      "inputs": [],
      "name": "KPUKotaNotActive",
      "type": "error"
    },
    {
      "inputs": [],
      "name": "KPUNotFound",
      "type": "error"
    },
    {
      "inputs": [],
      "name": "KPUProvinsiAlreadyRegistered",
      "type": "error"
    },
    {
      "inputs": [],
      "name": "KPUProvinsiNotActive",
      "type": "error"
    },
    {
      "inputs": [],
      "name": "OnlyKpuKota",
      "type": "error"
    },
    {
      "inputs": [],
      "name": "OnlyKpuProvinsi",
      "type": "error"
    },
    {
      "anonymous": false,
      "inputs": [
        {
          "indexed": true,
          "internalType": "address",
          "name": "Address",
          "type": "address"
        }
      ],
      "name": "KPUKotaDeactivated",
      "type": "event"
    },
    {
      "anonymous": false,
      "inputs": [
        {
          "indexed": true,
          "internalType": "address",
          "name": "Address",
          "type": "address"
        },
        {
          "indexed": false,
          "internalType": "string",
          "name": "name",
          "type": "string"
        },
        {
          "indexed": false,
          "internalType": "string",
          "name": "region",
          "type": "string"
        }
      ],
      "name": "KPUKotaRegistered",
      "type": "event"
    },
    {
      "anonymous": false,
      "inputs": [
        {
          "indexed": true,
          "internalType": "address",
          "name": "Address",
          "type": "address"
        },
        {
          "indexed": false,
          "internalType": "string",
          "name": "name",
          "type": "string"
        },
        {
          "indexed": false,
          "internalType": "string",
          "name": "region",
          "type": "string"
        }
      ],
      "name": "KPUKotaUpdated",
      "type": "event"
    },
    {
      "anonymous": false,
      "inputs": [
        {
          "indexed": true,
          "internalType": "address",
          "name": "Address",
          "type": "address"
        }
      ],
      "name": "KPUProvinsiDeactivated",
      "type": "event"
    },
    {
      "anonymous": false,
      "inputs": [
        {
          "indexed": true,
          "internalType": "address",
          "name": "Address",
          "type": "address"
        },
        {
          "indexed": false,
          "internalType": "string",
          "name": "name",
          "type": "string"
        },
        {
          "indexed": false,
          "internalType": "string",
          "name": "region",
          "type": "string"
        }
      ],
      "name": "KPUProvinsiRegistered",
      "type": "event"
    },
    {
      "anonymous": false,
      "inputs": [
        {
          "indexed": true,
          "internalType": "address",
          "name": "Address",
          "type": "address"
        },
        {
          "indexed": false,
          "internalType": "string",
          "name": "name",
          "type": "string"
        },
        {
          "indexed": false,
          "internalType": "string",
          "name": "region",
          "type": "string"
        }
      ],
      "name": "KPUProvinsiUpdated",
      "type": "event"
    },
    {
      "anonymous": false,
      "inputs": [
        {
          "indexed": true,
          "internalType": "address",
          "name": "forwarder",
          "type": "address"
        }
      ],
      "name": "TrustedForwarderAdded",
      "type": "event"
    },
    {
      "anonymous": false,
      "inputs": [
        {
          "indexed": true,
          "internalType": "address",
          "name": "forwarder",
          "type": "address"
        }
      ],
      "name": "TrustedForwarderRemoved",
      "type": "event"
    },
    {
      "inputs": [],
      "name": "base",
      "outputs": [
        {
          "internalType": "contract IVotechainBase",
          "name": "",
          "type": "address"
        }
      ],
      "stateMutability": "view",
      "type": "function",
      "constant": true
    },
    {
      "inputs": [],
      "name": "getTrustedForwarders",
      "outputs": [
        {
          "internalType": "address[]",
          "name": "",
          "type": "address[]"
        }
      ],
      "stateMutability": "view",
      "type": "function",
      "constant": true
    },
    {
      "inputs": [
        {
          "internalType": "address",
          "name": "forwarder",
          "type": "address"
        }
      ],
      "name": "isTrustedForwarder",
      "outputs": [
        {
          "internalType": "bool",
          "name": "",
          "type": "bool"
        }
      ],
      "stateMutability": "view",
      "type": "function",
      "constant": true
    },
    {
      "inputs": [
        {
          "internalType": "uint256",
          "name": "",
          "type": "uint256"
        }
      ],
      "name": "kpuKotaAddressesArray",
      "outputs": [
        {
          "internalType": "string",
          "name": "name",
          "type": "string"
        },
        {
          "internalType": "address",
          "name": "Address",
          "type": "address"
        },
        {
          "internalType": "bool",
          "name": "isActive",
          "type": "bool"
        },
        {
          "internalType": "string",
          "name": "region",
          "type": "string"
        }
      ],
      "stateMutability": "view",
      "type": "function",
      "constant": true
    },
    {
      "inputs": [
        {
          "internalType": "uint256",
          "name": "",
          "type": "uint256"
        }
      ],
      "name": "kpuProvinsiAddressesArray",
      "outputs": [
        {
          "internalType": "string",
          "name": "name",
          "type": "string"
        },
        {
          "internalType": "address",
          "name": "Address",
          "type": "address"
        },
        {
          "internalType": "bool",
          "name": "isActive",
          "type": "bool"
        },
        {
          "internalType": "string",
          "name": "region",
          "type": "string"
        }
      ],
      "stateMutability": "view",
      "type": "function",
      "constant": true
    },
    {
      "inputs": [
        {
          "internalType": "address",
          "name": "addr",
          "type": "address"
        }
      ],
      "name": "kpuProvinsi",
      "outputs": [
        {
          "components": [
            {
              "internalType": "string",
              "name": "name",
              "type": "string"
            },
            {
              "internalType": "address",
              "name": "Address",
              "type": "address"
            },
            {
              "internalType": "bool",
              "name": "isActive",
              "type": "bool"
            },
            {
              "internalType": "string",
              "name": "region",
              "type": "string"
            }
          ],
          "internalType": "struct IKPUManager.KPUProvinsi",
          "name": "",
          "type": "tuple"
        }
      ],
      "stateMutability": "view",
      "type": "function",
      "constant": true
    },
    {
      "inputs": [
        {
          "internalType": "address",
          "name": "addr",
          "type": "address"
        }
      ],
      "name": "kpuKota",
      "outputs": [
        {
          "components": [
            {
              "internalType": "string",
              "name": "name",
              "type": "string"
            },
            {
              "internalType": "address",
              "name": "Address",
              "type": "address"
            },
            {
              "internalType": "bool",
              "name": "isActive",
              "type": "bool"
            },
            {
              "internalType": "string",
              "name": "region",
              "type": "string"
            }
          ],
          "internalType": "struct IKPUManager.KPUKota",
          "name": "",
          "type": "tuple"
        }
      ],
      "stateMutability": "view",
      "type": "function",
      "constant": true
    },
    {
      "inputs": [
        {
          "internalType": "address",
          "name": "Address",
          "type": "address"
        },
        {
          "internalType": "string",
          "name": "name",
          "type": "string"
        },
        {
          "internalType": "string",
          "name": "region",
          "type": "string"
        }
      ],
      "name": "registerKPUProvinsi",
      "outputs": [],
      "stateMutability": "nonpayable",
      "type": "function"
    },
    {
      "inputs": [
        {
          "internalType": "address",
          "name": "Address",
          "type": "address"
        },
        {
          "internalType": "string",
          "name": "name",
          "type": "string"
        },
        {
          "internalType": "string",
          "name": "region",
          "type": "string"
        }
      ],
      "name": "registerKPUKota",
      "outputs": [],
      "stateMutability": "nonpayable",
      "type": "function"
    },
    {
      "inputs": [
        {
          "internalType": "address",
          "name": "Address",
          "type": "address"
        }
      ],
      "name": "deactivateKPUProvinsi",
      "outputs": [],
      "stateMutability": "nonpayable",
      "type": "function"
    },
    {
      "inputs": [
        {
          "internalType": "address",
          "name": "Address",
          "type": "address"
        }
      ],
      "name": "deactivateKPUKota",
      "outputs": [],
      "stateMutability": "nonpayable",
      "type": "function"
    },
    {
      "inputs": [
        {
          "internalType": "address",
          "name": "kpuAddress",
          "type": "address"
        }
      ],
      "name": "isKPUKota",
      "outputs": [
        {
          "internalType": "bool",
          "name": "",
          "type": "bool"
        }
      ],
      "stateMutability": "view",
      "type": "function",
      "constant": true
    },
    {
      "inputs": [
        {
          "internalType": "address",
          "name": "kpuAddress",
          "type": "address"
        }
      ],
      "name": "isKPUProvinsi",
      "outputs": [
        {
          "internalType": "bool",
          "name": "",
          "type": "bool"
        }
      ],
      "stateMutability": "view",
      "type": "function",
      "constant": true
    },
    {
      "inputs": [
        {
          "internalType": "address",
          "name": "kpuAddress",
          "type": "address"
        }
      ],
      "name": "getKpuKotaRegion",
      "outputs": [
        {
          "internalType": "string",
          "name": "",
          "type": "string"
        }
      ],
      "stateMutability": "view",
      "type": "function",
      "constant": true
    },
    {
      "inputs": [],
      "name": "getAllKPUProvinsi",
      "outputs": [
        {
          "components": [
            {
              "internalType": "string",
              "name": "name",
              "type": "string"
            },
            {
              "internalType": "address",
              "name": "Address",
              "type": "address"
            },
            {
              "internalType": "bool",
              "name": "isActive",
              "type": "bool"
            },
            {
              "internalType": "string",
              "name": "region",
              "type": "string"
            }
          ],
          "internalType": "struct IKPUManager.KPUProvinsi[]",
          "name": "",
          "type": "tuple[]"
        }
      ],
      "stateMutability": "view",
      "type": "function",
      "constant": true
    },
    {
      "inputs": [],
      "name": "getAllKPUKota",
      "outputs": [
        {
          "components": [
            {
              "internalType": "string",
              "name": "name",
              "type": "string"
            },
            {
              "internalType": "address",
              "name": "Address",
              "type": "address"
            },
            {
              "internalType": "bool",
              "name": "isActive",
              "type": "bool"
            },
            {
              "internalType": "string",
              "name": "region",
              "type": "string"
            }
          ],
          "internalType": "struct IKPUManager.KPUKota[]",
          "name": "",
          "type": "tuple[]"
        }
      ],
      "stateMutability": "view",
      "type": "function",
      "constant": true
    },
    {
      "inputs": [
        {
          "internalType": "address",
          "name": "Address",
          "type": "address"
        }
      ],
      "name": "getKpuProvinsiByAddress",
      "outputs": [
        {
          "components": [
            {
              "internalType": "string",
              "name": "name",
              "type": "string"
            },
            {
              "internalType": "address",
              "name": "Address",
              "type": "address"
            },
            {
              "internalType": "bool",
              "name": "isActive",
              "type": "bool"
            },
            {
              "internalType": "string",
              "name": "region",
              "type": "string"
            }
          ],
          "internalType": "struct IKPUManager.KPUProvinsi",
          "name": "",
          "type": "tuple"
        }
      ],
      "stateMutability": "view",
      "type": "function",
      "constant": true
    },
    {
      "inputs": [
        {
          "internalType": "address",
          "name": "Address",
          "type": "address"
        }
      ],
      "name": "getKpuKotaByAddress",
      "outputs": [
        {
          "components": [
            {
              "internalType": "string",
              "name": "name",
              "type": "string"
            },
            {
              "internalType": "address",
              "name": "Address",
              "type": "address"
            },
            {
              "internalType": "bool",
              "name": "isActive",
              "type": "bool"
            },
            {
              "internalType": "string",
              "name": "region",
              "type": "string"
            }
          ],
          "internalType": "struct IKPUManager.KPUKota",
          "name": "",
          "type": "tuple"
        }
      ],
      "stateMutability": "view",
      "type": "function",
      "constant": true
    },
    {
      "inputs": [
        {
          "internalType": "address",
          "name": "Address",
          "type": "address"
        },
        {
          "internalType": "string",
          "name": "name",
          "type": "string"
        },
        {
          "internalType": "string",
          "name": "region",
          "type": "string"
        }
      ],
      "name": "updateKPUProvinsi",
      "outputs": [],
      "stateMutability": "nonpayable",
      "type": "function"
    },
    {
      "inputs": [
        {
          "internalType": "address",
          "name": "Address",
          "type": "address"
        },
        {
          "internalType": "string",
          "name": "name",
          "type": "string"
        },
        {
          "internalType": "string",
          "name": "region",
          "type": "string"
        }
      ],
      "name": "updateKPUKota",
      "outputs": [],
      "stateMutability": "nonpayable",
      "type": "function"
    },
    {
      "inputs": [
        {
          "internalType": "address",
          "name": "forwarder",
          "type": "address"
        }
      ],
      "name": "addTrustedForwarder",
      "outputs": [],
      "stateMutability": "nonpayable",
      "type": "function"
    },
    {
      "inputs": [
        {
          "internalType": "address",
          "name": "forwarder",
          "type": "address"
        }
      ],
      "name": "removeTrustedForwarder",
      "outputs": [],
      "stateMutability": "nonpayable",
      "type": "function"
    }
  ],
  "bytecode": "0x608060405234801561001057600080fd5b506040516124c13803806124c183398101604081905261002f91610173565b8060005b815181101561006c576100648282815181106100515761005161024c565b602002602001015161009560201b60201c565b600101610033565b5050600280546001600160a01b0319166001600160a01b03939093169290921790915550610262565b6001600160a01b03811660009081526020819052604090205460ff1661013e576001600160a01b038116600081815260208190526040808220805460ff19166001908117909155805480820182559083527fb10e2d527612073b26eecdfd717e6a320cf44b4afac2b0732d9fcbe2b7fa0cf60180546001600160a01b03191684179055517f3ef8564460ada92419608d823c014975d98f8104d7d1e68c222967ac6814cd979190a25b50565b80516001600160a01b038116811461015857600080fd5b919050565b634e487b7160e01b600052604160045260246000fd5b6000806040838503121561018657600080fd5b61018f83610141565b602084810151919350906001600160401b03808211156101ae57600080fd5b818601915086601f8301126101c257600080fd5b8151818111156101d4576101d461015d565b8060051b604051601f19603f830116810181811085821117156101f9576101f961015d565b60405291825284820192508381018501918983111561021757600080fd5b938501935b8285101561023c5761022d85610141565b8452938501939285019261021c565b8096505050505050509250929050565b634e487b7160e01b600052603260045260246000fd5b612250806102716000396000f3fe608060405234801561001057600080fd5b50600436106101425760003560e01c8063631a4438116100b85780639424ab901161007c5780639424ab9014610312578063b7a3418e14610325578063cea414691461033a578063df3aae0b1461034d578063f9cdd55614610383578063ff7196c81461039657600080fd5b8063631a4438146102835780636fee7d581461029657806374c80380146102a957806375a4352f146102c957806392423815146102ff57600080fd5b80633751d89c1161010a5780633751d89c146101be5780634bcb1b0f146101d15780634da1b97a146101f45780635001f3b51461020757806356d35b5114610232578063572b6c051461024757600080fd5b806302819b9914610147578063147d559b1461015c57806326d00668146101855780632db33a2f14610198578063356b0480146101ab575b600080fd5b61015a610155366004611c68565b6103ab565b005b61016f61016a366004611ceb565b610599565b60405161017c9190611daa565b60405180910390f35b61015a610193366004611ceb565b610745565b61015a6101a6366004611c68565b610800565b61015a6101b9366004611ceb565b610aee565b61015a6101cc366004611ceb565b610c2f565b6101e46101df366004611dbd565b610ce7565b60405161017c9493929190611dd6565b61015a610202366004611c68565b610e49565b60025461021a906001600160a01b031681565b6040516001600160a01b03909116815260200161017c565b61023a611028565b60405161017c9190611e1d565b610273610255366004611ceb565b6001600160a01b031660009081526020819052604090205460ff1690565b604051901515815260200161017c565b6101e4610291366004611dbd565b6111d4565b61016f6102a4366004611ceb565b6111e4565b6102bc6102b7366004611ceb565b61125d565b60405161017c9190611e81565b6102736102d7366004611ceb565b6001600160a01b0316600090815260046020526040902060010154600160a01b900460ff1690565b61015a61030d366004611c68565b61130c565b61016f610320366004611ceb565b61158b565b61032d611636565b60405161017c9190611e94565b61015a610348366004611ceb565b6117d9565b61027361035b366004611ceb565b6001600160a01b0316600090815260036020526040902060010154600160a01b900460ff1690565b61016f610391366004611ceb565b61191a565b61039e611950565b60405161017c9190611eeb565b600360006103b76119b2565b6001600160a01b03168152602081019190915260400160002060010154600160a01b900460ff166103fb5760405163f75c676f60e01b815260040160405180910390fd5b6001600160a01b038516600090815260036020526040902060010154600160a01b900460ff1661043e576040516313da1a7160e11b815260040160405180910390fd5b6001600160a01b0385166000908152600360205260409020610461848683611fd9565b506001600160a01b0385166000908152600360205260409020600201610488828483611fd9565b5060005b60055481101561054a57856001600160a01b0316600582815481106104b3576104b361209a565b60009182526020909120600160039092020101546001600160a01b031603610542578484600583815481106104ea576104ea61209a565b90600052602060002090600302016000019182610508929190611fd9565b5082826005838154811061051e5761051e61209a565b9060005260206000209060030201600201918261053c929190611fd9565b5061054a565b60010161048c565b50846001600160a01b03167f12fbd96f82516b91ab18004905e324016dd38b631fed5d3884ef88ebe3ae20e58585858560405161058a94939291906120d9565b60405180910390a25050505050565b6105cf60405180608001604052806060815260200160006001600160a01b03168152602001600015158152602001606081525090565b6001600160a01b0382166000908152600460205260409081902081516080810190925280548290829061060190611f4e565b80601f016020809104026020016040519081016040528092919081815260200182805461062d90611f4e565b801561067a5780601f1061064f5761010080835404028352916020019161067a565b820191906000526020600020905b81548152906001019060200180831161065d57829003601f168201915b505050918352505060018201546001600160a01b0381166020830152600160a01b900460ff16151560408201526002820180546060909201916106bc90611f4e565b80601f01602080910402602001604051908101604052809291908181526020018280546106e890611f4e565b80156107355780601f1061070a57610100808354040283529160200191610735565b820191906000526020600020905b81548152906001019060200180831161071857829003601f168201915b5050505050815250509050919050565b600260009054906101000a90046001600160a01b03166001600160a01b031663fb4ab1646040518163ffffffff1660e01b8152600401602060405180830381865afa158015610798573d6000803e3d6000fd5b505050506040513d601f19601f820116820180604052508101906107bc9190612100565b6001600160a01b03166107cd6119b2565b6001600160a01b0316146107f45760405163f75c676f60e01b815260040160405180910390fd5b6107fd816119c1565b50565b600260009054906101000a90046001600160a01b03166001600160a01b031663fb4ab1646040518163ffffffff1660e01b8152600401602060405180830381865afa158015610853573d6000803e3d6000fd5b505050506040513d601f19601f820116820180604052508101906108779190612100565b6001600160a01b03166108886119b2565b6001600160a01b0316146108af5760405163f75c676f60e01b815260040160405180910390fd5b6001600160a01b038516600090815260036020526040902060010154600160a01b900460ff16156108f357604051636fed5b9960e01b815260040160405180910390fd5b6040805160a06020601f870181900402820181019092526080810185815260009282919088908890819085018382808284376000920191909152505050908252506001600160a01b03881660208083019190915260016040808401919091528051601f870183900483028101830190915285815260609092019190869086908190840183828082843760009201829052509390945250506001600160a01b03891681526003602052604090208251929350839290915081906109b5908261211d565b50602082015160018201805460408501511515600160a01b026001600160a81b03199091166001600160a01b039093169290921791909117905560608201516002820190610a03908261211d565b505060058054600181018255600091909152825183925060039091027f036b6384b5eca791c62761152d0c79bb0604c104a5fb6f4eb0703f3154bb3db001908190610a4e908261211d565b50602082015160018201805460408501511515600160a01b026001600160a81b03199091166001600160a01b039093169290921791909117905560608201516002820190610a9c908261211d565b505050856001600160a01b03167fe253ed8255fe5723a22412bf5804ee9034911e408cdbfe8547438f23ef23103586868686604051610ade94939291906120d9565b60405180910390a2505050505050565b600260009054906101000a90046001600160a01b03166001600160a01b031663fb4ab1646040518163ffffffff1660e01b8152600401602060405180830381865afa158015610b41573d6000803e3d6000fd5b505050506040513d601f19601f82011682018060405250810190610b659190612100565b6001600160a01b0316610b766119b2565b6001600160a01b031614610b9d5760405163f75c676f60e01b815260040160405180910390fd5b6001600160a01b038116600090815260036020526040902060010154600160a01b900460ff16610be0576040516313da1a7160e11b815260040160405180910390fd5b6001600160a01b038116600081815260036020526040808220600101805460ff60a01b19169055517f9821f051eb616938dcfef57fac817566f3954f1ed18aa52b2916921cb2bacc699190a250565b600260009054906101000a90046001600160a01b03166001600160a01b031663fb4ab1646040518163ffffffff1660e01b8152600401602060405180830381865afa158015610c82573d6000803e3d6000fd5b505050506040513d601f19601f82011682018060405250810190610ca69190612100565b6001600160a01b0316610cb76119b2565b6001600160a01b031614610cde5760405163f75c676f60e01b815260040160405180910390fd5b6107fd81611a6c565b60068181548110610cf757600080fd5b9060005260206000209060030201600091509050806000018054610d1a90611f4e565b80601f0160208091040260200160405190810160405280929190818152602001828054610d4690611f4e565b8015610d935780601f10610d6857610100808354040283529160200191610d93565b820191906000526020600020905b815481529060010190602001808311610d7657829003601f168201915b50505050600183015460028401805493946001600160a01b03831694600160a01b90930460ff16935091610dc690611f4e565b80601f0160208091040260200160405190810160405280929190818152602001828054610df290611f4e565b8015610e3f5780601f10610e1457610100808354040283529160200191610e3f565b820191906000526020600020905b815481529060010190602001808311610e2257829003601f168201915b5050505050905084565b60046000610e556119b2565b6001600160a01b03168152602081019190915260400160002060010154600160a01b900460ff16610e9957604051633f148bdd60e01b815260040160405180910390fd5b6001600160a01b038516600090815260046020526040902060010154600160a01b900460ff16610edc57604051638789d78960e01b815260040160405180910390fd5b6001600160a01b0385166000908152600460205260409020610eff848683611fd9565b506001600160a01b0385166000908152600460205260409020600201610f26828483611fd9565b5060005b600654811015610fe857856001600160a01b031660068281548110610f5157610f5161209a565b60009182526020909120600160039092020101546001600160a01b031603610fe057848460068381548110610f8857610f8861209a565b90600052602060002090600302016000019182610fa6929190611fd9565b50828260068381548110610fbc57610fbc61209a565b90600052602060002090600302016002019182610fda929190611fd9565b50610fe8565b600101610f2a565b50846001600160a01b03167f0966d5f4d49182394f8f66be9e93db3b0305879db3a22cce2895c3ead22ed7538585858560405161058a94939291906120d9565b60606005805480602002602001604051908101604052809291908181526020016000905b828210156111cb578382906000526020600020906003020160405180608001604052908160008201805461107f90611f4e565b80601f01602080910402602001604051908101604052809291908181526020018280546110ab90611f4e565b80156110f85780601f106110cd576101008083540402835291602001916110f8565b820191906000526020600020905b8154815290600101906020018083116110db57829003601f168201915b505050918352505060018201546001600160a01b0381166020830152600160a01b900460ff161515604082015260028201805460609092019161113a90611f4e565b80601f016020809104026020016040519081016040528092919081815260200182805461116690611f4e565b80156111b35780601f10611188576101008083540402835291602001916111b3565b820191906000526020600020905b81548152906001019060200180831161119657829003601f168201915b5050505050815250508152602001906001019061104c565b50505050905090565b60058181548110610cf757600080fd5b61121a60405180608001604052806060815260200160006001600160a01b03168152602001600015158152602001606081525090565b6001600160a01b038216600090815260046020526040902060010154600160a01b900460ff166105cf57604051638789d78960e01b815260040160405180910390fd5b6001600160a01b038116600090815260046020526040902060020180546060919061128790611f4e565b80601f01602080910402602001604051908101604052809291908181526020018280546112b390611f4e565b80156113005780601f106112d557610100808354040283529160200191611300565b820191906000526020600020905b8154815290600101906020018083116112e357829003601f168201915b50505050509050919050565b600360006113186119b2565b6001600160a01b03168152602081019190915260400160002060010154600160a01b900460ff1661135c5760405163f75c676f60e01b815260040160405180910390fd5b6001600160a01b038516600090815260046020526040902060010154600160a01b900460ff16156113a0576040516327abb51960e11b815260040160405180910390fd5b6040805160a06020601f870181900402820181019092526080810185815260009282919088908890819085018382808284376000920191909152505050908252506001600160a01b03881660208083019190915260016040808401919091528051601f870183900483028101830190915285815260609092019190869086908190840183828082843760009201829052509390945250506001600160a01b0389168152600460205260409020825192935083929091508190611462908261211d565b50602082015160018201805460408501511515600160a01b026001600160a81b03199091166001600160a01b0390931692909217919091179055606082015160028201906114b0908261211d565b505060068054600181018255600091909152825183925060039091027ff652222313e28459528d920b65115c16c04f3efc82aaedc97be59f3f377c0d3f019081906114fb908261211d565b50602082015160018201805460408501511515600160a01b026001600160a81b03199091166001600160a01b039093169290921791909117905560608201516002820190611549908261211d565b505050856001600160a01b03167f9c6f19aa0cf3f6a0d4fdbd9269f4a794835bf59c3c7561af88f025740ef3cb7786868686604051610ade94939291906120d9565b6115c160405180608001604052806060815260200160006001600160a01b03168152602001600015158152602001606081525090565b6001600160a01b038216600090815260036020526040902060010154600160a01b900460ff16611604576040516313da1a7160e11b815260040160405180910390fd5b6001600160a01b0382166000908152600360205260409081902081516080810190925280548290829061060190611f4e565b60606006805480602002602001604051908101604052809291908181526020016000905b828210156111cb578382906000526020600020906003020160405180608001604052908160008201805461168d90611f4e565b80601f01602080910402602001604051908101604052809291908181526020018280546116b990611f4e565b80156117065780601f106116db57610100808354040283529160200191611706565b820191906000526020600020905b8154815290600101906020018083116116e957829003601f168201915b505050918352505060018201546001600160a01b0381166020830152600160a01b900460ff161515604082015260028201805460609092019161174890611f4e565b80601f016020809104026020016040519081016040528092919081815260200182805461177490611f4e565b80156117c15780601f10611796576101008083540402835291602001916117c1565b820191906000526020600020905b8154815290600101906020018083116117a457829003601f168201915b5050505050815250508152602001906001019061165a565b600260009054906101000a90046001600160a01b03166001600160a01b031663fb4ab1646040518163ffffffff1660e01b8152600401602060405180830381865afa15801561182c573d6000803e3d6000fd5b505050506040513d601f19601f820116820180604052508101906118509190612100565b6001600160a01b03166118616119b2565b6001600160a01b0316146118885760405163f75c676f60e01b815260040160405180910390fd5b6001600160a01b038116600090815260046020526040902060010154600160a01b900460ff166118cb57604051638789d78960e01b815260040160405180910390fd5b6001600160a01b038116600081815260046020526040808220600101805460ff60a01b19169055517f4287f31e2e9e49d47750bbe8bcdc9848644c0566e597ce529738d63b27b7b9929190a250565b61160460405180608001604052806060815260200160006001600160a01b03168152602001600015158152602001606081525090565b606060018054806020026020016040519081016040528092919081815260200182805480156119a857602002820191906000526020600020905b81546001600160a01b0316815260019091019060200180831161198a575b5050505050905090565b60006119bc611be0565b905090565b6001600160a01b03811660009081526020819052604090205460ff166107fd576001600160a01b038116600081815260208190526040808220805460ff19166001908117909155805480820182559083527fb10e2d527612073b26eecdfd717e6a320cf44b4afac2b0732d9fcbe2b7fa0cf60180546001600160a01b03191684179055517f3ef8564460ada92419608d823c014975d98f8104d7d1e68c222967ac6814cd979190a250565b6001600160a01b03811660009081526020819052604090205460ff16156107fd576001600160a01b0381166000908152602081905260408120805460ff191690555b600154811015611ba857816001600160a01b031660018281548110611ad557611ad561209a565b6000918252602090912001546001600160a01b031603611ba05760018054611afe9082906121dd565b81548110611b0e57611b0e61209a565b600091825260209091200154600180546001600160a01b039092169183908110611b3a57611b3a61209a565b9060005260206000200160006101000a8154816001600160a01b0302191690836001600160a01b031602179055506001805480611b7957611b79612204565b600082815260209020810160001990810180546001600160a01b0319169055019055611ba8565b600101611aae565b506040516001600160a01b038216907fd2d636efcad0cea42e170256f4c5d8b1cd81e47b855557edaf44014e6cc4cee690600090a250565b3360009081526020819052604081205460ff1615611c05575060131936013560601c90565b503390565b6001600160a01b03811681146107fd57600080fd5b60008083601f840112611c3157600080fd5b50813567ffffffffffffffff811115611c4957600080fd5b602083019150836020828501011115611c6157600080fd5b9250929050565b600080600080600060608688031215611c8057600080fd5b8535611c8b81611c0a565b9450602086013567ffffffffffffffff80821115611ca857600080fd5b611cb489838a01611c1f565b90965094506040880135915080821115611ccd57600080fd5b50611cda88828901611c1f565b969995985093965092949392505050565b600060208284031215611cfd57600080fd5b8135611d0881611c0a565b9392505050565b6000815180845260005b81811015611d3557602081850181015186830182015201611d19565b506000602082860101526020601f19601f83011685010191505092915050565b6000815160808452611d6a6080850182611d0f565b905060018060a01b03602084015116602085015260408301511515604085015260608301518482036060860152611da18282611d0f565b95945050505050565b602081526000611d086020830184611d55565b600060208284031215611dcf57600080fd5b5035919050565b608081526000611de96080830187611d0f565b6001600160a01b038616602084015284151560408401528281036060840152611e128185611d0f565b979650505050505050565b600060208083016020845280855180835260408601915060408160051b87010192506020870160005b82811015611e7457603f19888603018452611e62858351611d55565b94509285019290850190600101611e46565b5092979650505050505050565b602081526000611d086020830184611d0f565b600060208083016020845280855180835260408601915060408160051b87010192506020870160005b82811015611e7457603f19888603018452611ed9858351611d55565b94509285019290850190600101611ebd565b6020808252825182820181905260009190848201906040850190845b81811015611f2c5783516001600160a01b031683529284019291840191600101611f07565b50909695505050505050565b634e487b7160e01b600052604160045260246000fd5b600181811c90821680611f6257607f821691505b602082108103611f8257634e487b7160e01b600052602260045260246000fd5b50919050565b601f821115611fd4576000816000526020600020601f850160051c81016020861015611fb15750805b601f850160051c820191505b81811015611fd057828155600101611fbd565b5050505b505050565b67ffffffffffffffff831115611ff157611ff1611f38565b61200583611fff8354611f4e565b83611f88565b6000601f84116001811461203957600085156120215750838201355b600019600387901b1c1916600186901b178355612093565b600083815260209020601f19861690835b8281101561206a578685013582556020948501946001909201910161204a565b50868210156120875760001960f88860031b161c19848701351681555b505060018560011b0183555b5050505050565b634e487b7160e01b600052603260045260246000fd5b81835281816020850137506000828201602090810191909152601f909101601f19169091010190565b6040815260006120ed6040830186886120b0565b8281036020840152611e128185876120b0565b60006020828403121561211257600080fd5b8151611d0881611c0a565b815167ffffffffffffffff81111561213757612137611f38565b61214b816121458454611f4e565b84611f88565b602080601f83116001811461218057600084156121685750858301515b600019600386901b1c1916600185901b178555611fd0565b600085815260208120601f198616915b828110156121af57888601518255948401946001909101908401612190565b50858210156121cd5787850151600019600388901b60f8161c191681555b5050505050600190811b01905550565b818103818111156121fe57634e487b7160e01b600052601160045260246000fd5b92915050565b634e487b7160e01b600052603160045260246000fdfea2646970667358221220ee5335a2105cfd2d853fe9423b8942078c44d20f30bc9a01f0a71ca4a46f531464736f6c63430008190033",
  "immutableReferences": {},
  "source": "// SPDX-License-Identifier: UNLICENSED\r\npragma solidity ^0.8.25;\r\n\r\nimport \"./Interfaces.sol\";\r\nimport \"./VotechainBase.sol\";\r\nimport \"./Context.sol\";\r\n\r\ncontract KPUManager is IKPUManager, MultiERC2771Context {\r\n\r\n    error OnlyKpuProvinsi();\r\n    error OnlyKpuKota();\r\n    error KPUProvinsiAlreadyRegistered();\r\n    error KPUProvinsiNotActive();\r\n    error KPUKotaAlreadyRegistered();\r\n    error KPUKotaNotActive();\r\n    error KPUNotFound();\r\n\r\n    IVotechainBase public base;\r\n\r\n    mapping(address => KPUProvinsi) internal _kpuProvinsi;\r\n    mapping(address => KPUKota) internal _kpuKota;\r\n\r\n    KPUProvinsi[] public kpuProvinsiAddressesArray;\r\n    KPUKota[] public kpuKotaAddressesArray;\r\n\r\n    event KPUProvinsiRegistered(address indexed Address, string name, string region);\r\n    event KPUKotaRegistered(address indexed Address, string name, string region);\r\n    event KPUKotaDeactivated(address indexed Address);\r\n    event KPUProvinsiDeactivated(address indexed Address);\r\n    event KPUProvinsiUpdated(address indexed Address, string name, string region);\r\n    event KPUKotaUpdated(address indexed Address, string name, string region);\r\n\r\n    modifier onlyKpuAdmin() {\r\n        if (_msgSender() != base.kpuAdmin()) revert OnlyKpuProvinsi();\r\n        _;\r\n    }\r\n\r\n    modifier onlyKpuProvinsi() {\r\n        if (!_kpuProvinsi[_msgSender()].isActive) revert OnlyKpuProvinsi();\r\n        _;\r\n    }\r\n\r\n    modifier onlyKpuKota(){\r\n        if (!_kpuKota[_msgSender()].isActive) revert OnlyKpuKota();\r\n        _;\r\n    }\r\n\r\n    constructor(\r\n        address _baseAddress,\r\n        address[] memory trustedForwarders\r\n    ) MultiERC2771Context(trustedForwarders) {\r\n        base = IVotechainBase(_baseAddress);\r\n    }\r\n\r\n    function kpuProvinsi(address addr) external view override returns (KPUProvinsi memory) {\r\n        return _kpuProvinsi[addr];\r\n    }\r\n\r\n    function kpuKota(address addr) external view override returns (KPUKota memory) {\r\n        return _kpuKota[addr];\r\n    }\r\n\r\n    function registerKPUProvinsi(\r\n        address Address,\r\n        string calldata name,\r\n        string calldata region\r\n    ) external override onlyKpuAdmin {\r\n        if (_kpuProvinsi[Address].isActive) revert KPUProvinsiAlreadyRegistered();\r\n\r\n        KPUProvinsi memory newKPU = KPUProvinsi(name, Address, true, region);\r\n        _kpuProvinsi[Address] = newKPU;\r\n        kpuProvinsiAddressesArray.push(newKPU);\r\n\r\n        emit KPUProvinsiRegistered(Address, name, region);\r\n    }\r\n\r\n    function registerKPUKota(\r\n        address Address,\r\n        string calldata name,\r\n        string calldata region\r\n    ) external override onlyKpuProvinsi {\r\n        if (_kpuKota[Address].isActive) revert KPUKotaAlreadyRegistered();\r\n\r\n        KPUKota memory newKPU = KPUKota(name, Address, true, region);\r\n        _kpuKota[Address] = newKPU;\r\n        kpuKotaAddressesArray.push(newKPU);\r\n\r\n        emit KPUKotaRegistered(Address, name, region);\r\n    }\r\n\r\n    function deactivateKPUProvinsi(address Address) external override onlyKpuAdmin {\r\n        if (!_kpuProvinsi[Address].isActive) revert KPUProvinsiNotActive();\r\n        _kpuProvinsi[Address].isActive = false;\r\n        emit KPUProvinsiDeactivated(Address);\r\n    }\r\n\r\n    function deactivateKPUKota(address Address) external override onlyKpuAdmin {\r\n        if (!_kpuKota[Address].isActive) revert KPUKotaNotActive();\r\n        _kpuKota[Address].isActive = false;\r\n        emit KPUKotaDeactivated(Address);\r\n    }\r\n\r\n    // Helper functions for other contracts\r\n    function isKPUKota(address kpuAddress) external view override returns (bool) {\r\n        return _kpuKota[kpuAddress].isActive;\r\n    }\r\n\r\n    function isKPUProvinsi(address kpuAddress) external view override returns (bool) {\r\n        return _kpuProvinsi[kpuAddress].isActive;\r\n    }\r\n\r\n    function getKpuKotaRegion(address kpuAddress) external view override returns (string memory) {\r\n        return _kpuKota[kpuAddress].region;\r\n    }\r\n\r\n    function getAllKPUProvinsi() external view returns (KPUProvinsi[] memory) {\r\n        return kpuProvinsiAddressesArray;\r\n    }\r\n\r\n    function getAllKPUKota() external view returns (KPUKota[] memory) {\r\n        return kpuKotaAddressesArray;\r\n    }\r\n\r\n    function getKpuProvinsiByAddress(address Address) external view returns (KPUProvinsi memory) {\r\n        if (!_kpuProvinsi[Address].isActive) revert KPUProvinsiNotActive();\r\n        return _kpuProvinsi[Address];\r\n    }\r\n\r\n    function getKpuKotaByAddress(address Address) external view returns (KPUKota memory) {\r\n        if (!_kpuKota[Address].isActive) revert KPUKotaNotActive();\r\n        return _kpuKota[Address];\r\n    }\r\n\r\n    function updateKPUProvinsi(\r\n        address Address,\r\n        string calldata name,\r\n        string calldata region\r\n    ) external override onlyKpuProvinsi {\r\n        if (!_kpuProvinsi[Address].isActive) revert KPUProvinsiNotActive();\r\n\r\n        _kpuProvinsi[Address].name = name;\r\n        _kpuProvinsi[Address].region = region;\r\n\r\n        for (uint i = 0; i < kpuProvinsiAddressesArray.length; i++) {\r\n            if (kpuProvinsiAddressesArray[i].Address == Address) {\r\n                kpuProvinsiAddressesArray[i].name = name;\r\n                kpuProvinsiAddressesArray[i].region = region;\r\n                break;\r\n            }\r\n        }\r\n\r\n        emit KPUProvinsiUpdated(Address, name, region);\r\n    }\r\n\r\n    function updateKPUKota(\r\n        address Address,\r\n        string calldata name,\r\n        string calldata region\r\n    ) external override onlyKpuKota {\r\n        if (!_kpuKota[Address].isActive) revert KPUKotaNotActive();\r\n\r\n        _kpuKota[Address].name = name;\r\n        _kpuKota[Address].region = region;\r\n\r\n        // Update in the array too\r\n        for (uint i = 0; i < kpuKotaAddressesArray.length; i++) {\r\n            if (kpuKotaAddressesArray[i].Address == Address) {\r\n                kpuKotaAddressesArray[i].name = name;\r\n                kpuKotaAddressesArray[i].region = region;\r\n                break;\r\n            }\r\n        }\r\n\r\n        emit KPUKotaUpdated(Address, name, region);\r\n    }\r\n\r\n    /**\r\n     * @dev Add a trusted forwarder for gasless transactions\r\n     */\r\n    function addTrustedForwarder(address forwarder) external onlyKpuAdmin {\r\n        _addTrustedForwarder(forwarder);\r\n    }\r\n\r\n    /**\r\n     * @dev Remove a trusted forwarder\r\n     */\r\n    function removeTrustedForwarder(address forwarder) external onlyKpuAdmin {\r\n        _removeTrustedForwarder(forwarder);\r\n    }\r\n\r\n    /**\r\n     * @dev Override to use the correct _msgSender implementation\r\n     */\r\n    function _msgSender() internal view override returns (address) {\r\n        return MultiERC2771Context._msgSender();\r\n    }\r\n\r\n    /**\r\n     * @dev Override to use the correct _msgData implementation\r\n     */\r\n    function _msgData() internal view override returns (bytes calldata) {\r\n        return MultiERC2771Context._msgData();\r\n    }\r\n}",
  "sourcePath": "C:\\Users\\bbyas\\Documents\\Kuliah\\Skripsi\\backend\\votechain-contract\\contracts\\KPUManager.sol",
  "compiler": {
    "name": "solc",
    "version": "0.8.25+commit.b61c2a91.Emscripten.clang"
  },
  "schemaVersion": "3.4.16",
  "updatedAt": "2025-06-19T07:26:19.367Z",
  "networkType": "ethereum",
  "devdoc": {
    "kind": "dev",
    "methods": {
      "addTrustedForwarder(address)": {
        "details": "Add a trusted forwarder for gasless transactions"
      },
      "removeTrustedForwarder(address)": {
        "details": "Remove a trusted forwarder"
      }
    },
    "version": 1
  },
  "userdoc": {
    "kind": "user",
    "methods": {},
    "version": 1
  }
}