{
  "contractName": "KPUManager",
  "abi": [
    {
      "inputs": [
        {
          "internalType": "address",
          "name": "_baseAddress",
          "type": "address"
        }
      ],
      "stateMutability": "nonpayable",
      "type": "constructor"
    },
    {
      "inputs": [],
      "name": "KPUKotaAlreadyRegistered",
      "type": "error"
    },
    {
      "inputs": [],
      "name": "KPUKotaNotActive",
      "type": "error"
    },
    {
      "inputs": [],
      "name": "KPUNotFound",
      "type": "error"
    },
    {
      "inputs": [],
      "name": "KPUProvinsiAlreadyRegistered",
      "type": "error"
    },
    {
      "inputs": [],
      "name": "KPUProvinsiNotActive",
      "type": "error"
    },
    {
      "inputs": [],
      "name": "OnlyKpuKota",
      "type": "error"
    },
    {
      "inputs": [],
      "name": "OnlyKpuProvinsi",
      "type": "error"
    },
    {
      "anonymous": false,
      "inputs": [
        {
          "indexed": true,
          "internalType": "address",
          "name": "Address",
          "type": "address"
        }
      ],
      "name": "KPUKotaDeactivated",
      "type": "event"
    },
    {
      "anonymous": false,
      "inputs": [
        {
          "indexed": true,
          "internalType": "address",
          "name": "Address",
          "type": "address"
        },
        {
          "indexed": false,
          "internalType": "string",
          "name": "name",
          "type": "string"
        },
        {
          "indexed": false,
          "internalType": "string",
          "name": "region",
          "type": "string"
        }
      ],
      "name": "KPUKotaRegistered",
      "type": "event"
    },
    {
      "anonymous": false,
      "inputs": [
        {
          "indexed": true,
          "internalType": "address",
          "name": "Address",
          "type": "address"
        },
        {
          "indexed": false,
          "internalType": "string",
          "name": "name",
          "type": "string"
        },
        {
          "indexed": false,
          "internalType": "string",
          "name": "region",
          "type": "string"
        }
      ],
      "name": "KPUKotaUpdated",
      "type": "event"
    },
    {
      "anonymous": false,
      "inputs": [
        {
          "indexed": true,
          "internalType": "address",
          "name": "Address",
          "type": "address"
        }
      ],
      "name": "KPUProvinsiDeactivated",
      "type": "event"
    },
    {
      "anonymous": false,
      "inputs": [
        {
          "indexed": true,
          "internalType": "address",
          "name": "Address",
          "type": "address"
        },
        {
          "indexed": false,
          "internalType": "string",
          "name": "name",
          "type": "string"
        },
        {
          "indexed": false,
          "internalType": "string",
          "name": "region",
          "type": "string"
        }
      ],
      "name": "KPUProvinsiRegistered",
      "type": "event"
    },
    {
      "anonymous": false,
      "inputs": [
        {
          "indexed": true,
          "internalType": "address",
          "name": "Address",
          "type": "address"
        },
        {
          "indexed": false,
          "internalType": "string",
          "name": "name",
          "type": "string"
        },
        {
          "indexed": false,
          "internalType": "string",
          "name": "region",
          "type": "string"
        }
      ],
      "name": "KPUProvinsiUpdated",
      "type": "event"
    },
    {
      "inputs": [],
      "name": "base",
      "outputs": [
        {
          "internalType": "contract IVotechainBase",
          "name": "",
          "type": "address"
        }
      ],
      "stateMutability": "view",
      "type": "function",
      "constant": true
    },
    {
      "inputs": [
        {
          "internalType": "uint256",
          "name": "",
          "type": "uint256"
        }
      ],
      "name": "kpuKotaAddressesArray",
      "outputs": [
        {
          "internalType": "string",
          "name": "name",
          "type": "string"
        },
        {
          "internalType": "address",
          "name": "Address",
          "type": "address"
        },
        {
          "internalType": "bool",
          "name": "isActive",
          "type": "bool"
        },
        {
          "internalType": "string",
          "name": "region",
          "type": "string"
        }
      ],
      "stateMutability": "view",
      "type": "function",
      "constant": true
    },
    {
      "inputs": [
        {
          "internalType": "uint256",
          "name": "",
          "type": "uint256"
        }
      ],
      "name": "kpuProvinsiAddressesArray",
      "outputs": [
        {
          "internalType": "string",
          "name": "name",
          "type": "string"
        },
        {
          "internalType": "address",
          "name": "Address",
          "type": "address"
        },
        {
          "internalType": "bool",
          "name": "isActive",
          "type": "bool"
        },
        {
          "internalType": "string",
          "name": "region",
          "type": "string"
        }
      ],
      "stateMutability": "view",
      "type": "function",
      "constant": true
    },
    {
      "inputs": [
        {
          "internalType": "address",
          "name": "addr",
          "type": "address"
        }
      ],
      "name": "kpuProvinsi",
      "outputs": [
        {
          "components": [
            {
              "internalType": "string",
              "name": "name",
              "type": "string"
            },
            {
              "internalType": "address",
              "name": "Address",
              "type": "address"
            },
            {
              "internalType": "bool",
              "name": "isActive",
              "type": "bool"
            },
            {
              "internalType": "string",
              "name": "region",
              "type": "string"
            }
          ],
          "internalType": "struct IKPUManager.KPUProvinsi",
          "name": "",
          "type": "tuple"
        }
      ],
      "stateMutability": "view",
      "type": "function",
      "constant": true
    },
    {
      "inputs": [
        {
          "internalType": "address",
          "name": "addr",
          "type": "address"
        }
      ],
      "name": "kpuKota",
      "outputs": [
        {
          "components": [
            {
              "internalType": "string",
              "name": "name",
              "type": "string"
            },
            {
              "internalType": "address",
              "name": "Address",
              "type": "address"
            },
            {
              "internalType": "bool",
              "name": "isActive",
              "type": "bool"
            },
            {
              "internalType": "string",
              "name": "region",
              "type": "string"
            }
          ],
          "internalType": "struct IKPUManager.KPUKota",
          "name": "",
          "type": "tuple"
        }
      ],
      "stateMutability": "view",
      "type": "function",
      "constant": true
    },
    {
      "inputs": [
        {
          "internalType": "address",
          "name": "Address",
          "type": "address"
        },
        {
          "internalType": "string",
          "name": "name",
          "type": "string"
        },
        {
          "internalType": "string",
          "name": "region",
          "type": "string"
        }
      ],
      "name": "registerKPUProvinsi",
      "outputs": [],
      "stateMutability": "nonpayable",
      "type": "function"
    },
    {
      "inputs": [
        {
          "internalType": "address",
          "name": "Address",
          "type": "address"
        },
        {
          "internalType": "string",
          "name": "name",
          "type": "string"
        },
        {
          "internalType": "string",
          "name": "region",
          "type": "string"
        }
      ],
      "name": "registerKPUKota",
      "outputs": [],
      "stateMutability": "nonpayable",
      "type": "function"
    },
    {
      "inputs": [
        {
          "internalType": "address",
          "name": "Address",
          "type": "address"
        }
      ],
      "name": "deactivateKPUProvinsi",
      "outputs": [],
      "stateMutability": "nonpayable",
      "type": "function"
    },
    {
      "inputs": [
        {
          "internalType": "address",
          "name": "Address",
          "type": "address"
        }
      ],
      "name": "deactivateKPUKota",
      "outputs": [],
      "stateMutability": "nonpayable",
      "type": "function"
    },
    {
      "inputs": [
        {
          "internalType": "address",
          "name": "kpuAddress",
          "type": "address"
        }
      ],
      "name": "isKPUKota",
      "outputs": [
        {
          "internalType": "bool",
          "name": "",
          "type": "bool"
        }
      ],
      "stateMutability": "view",
      "type": "function",
      "constant": true
    },
    {
      "inputs": [
        {
          "internalType": "address",
          "name": "kpuAddress",
          "type": "address"
        }
      ],
      "name": "isKPUProvinsi",
      "outputs": [
        {
          "internalType": "bool",
          "name": "",
          "type": "bool"
        }
      ],
      "stateMutability": "view",
      "type": "function",
      "constant": true
    },
    {
      "inputs": [
        {
          "internalType": "address",
          "name": "kpuAddress",
          "type": "address"
        }
      ],
      "name": "getKpuKotaRegion",
      "outputs": [
        {
          "internalType": "string",
          "name": "",
          "type": "string"
        }
      ],
      "stateMutability": "view",
      "type": "function",
      "constant": true
    },
    {
      "inputs": [],
      "name": "getAllKPUProvinsi",
      "outputs": [
        {
          "components": [
            {
              "internalType": "string",
              "name": "name",
              "type": "string"
            },
            {
              "internalType": "address",
              "name": "Address",
              "type": "address"
            },
            {
              "internalType": "bool",
              "name": "isActive",
              "type": "bool"
            },
            {
              "internalType": "string",
              "name": "region",
              "type": "string"
            }
          ],
          "internalType": "struct IKPUManager.KPUProvinsi[]",
          "name": "",
          "type": "tuple[]"
        }
      ],
      "stateMutability": "view",
      "type": "function",
      "constant": true
    },
    {
      "inputs": [],
      "name": "getAllKPUKota",
      "outputs": [
        {
          "components": [
            {
              "internalType": "string",
              "name": "name",
              "type": "string"
            },
            {
              "internalType": "address",
              "name": "Address",
              "type": "address"
            },
            {
              "internalType": "bool",
              "name": "isActive",
              "type": "bool"
            },
            {
              "internalType": "string",
              "name": "region",
              "type": "string"
            }
          ],
          "internalType": "struct IKPUManager.KPUKota[]",
          "name": "",
          "type": "tuple[]"
        }
      ],
      "stateMutability": "view",
      "type": "function",
      "constant": true
    },
    {
      "inputs": [
        {
          "internalType": "address",
          "name": "Address",
          "type": "address"
        }
      ],
      "name": "getKpuProvinsiByAddress",
      "outputs": [
        {
          "components": [
            {
              "internalType": "string",
              "name": "name",
              "type": "string"
            },
            {
              "internalType": "address",
              "name": "Address",
              "type": "address"
            },
            {
              "internalType": "bool",
              "name": "isActive",
              "type": "bool"
            },
            {
              "internalType": "string",
              "name": "region",
              "type": "string"
            }
          ],
          "internalType": "struct IKPUManager.KPUProvinsi",
          "name": "",
          "type": "tuple"
        }
      ],
      "stateMutability": "view",
      "type": "function",
      "constant": true
    },
    {
      "inputs": [
        {
          "internalType": "address",
          "name": "Address",
          "type": "address"
        }
      ],
      "name": "getKpuKotaByAddress",
      "outputs": [
        {
          "components": [
            {
              "internalType": "string",
              "name": "name",
              "type": "string"
            },
            {
              "internalType": "address",
              "name": "Address",
              "type": "address"
            },
            {
              "internalType": "bool",
              "name": "isActive",
              "type": "bool"
            },
            {
              "internalType": "string",
              "name": "region",
              "type": "string"
            }
          ],
          "internalType": "struct IKPUManager.KPUKota",
          "name": "",
          "type": "tuple"
        }
      ],
      "stateMutability": "view",
      "type": "function",
      "constant": true
    },
    {
      "inputs": [
        {
          "internalType": "address",
          "name": "Address",
          "type": "address"
        },
        {
          "internalType": "string",
          "name": "name",
          "type": "string"
        },
        {
          "internalType": "string",
          "name": "region",
          "type": "string"
        }
      ],
      "name": "updateKPUProvinsi",
      "outputs": [],
      "stateMutability": "nonpayable",
      "type": "function"
    },
    {
      "inputs": [
        {
          "internalType": "address",
          "name": "Address",
          "type": "address"
        },
        {
          "internalType": "string",
          "name": "name",
          "type": "string"
        },
        {
          "internalType": "string",
          "name": "region",
          "type": "string"
        }
      ],
      "name": "updateKPUKota",
      "outputs": [],
      "stateMutability": "nonpayable",
      "type": "function"
    }
  ],
  "bytecode": "0x6080604052348015600f57600080fd5b50604051611d40380380611d40833981016040819052602c916050565b600080546001600160a01b0319166001600160a01b0392909216919091179055607e565b600060208284031215606157600080fd5b81516001600160a01b0381168114607757600080fd5b9392505050565b611cb38061008d6000396000f3fe608060405234801561001057600080fd5b50600436106101165760003560e01c80636fee7d58116100a25780639424ab90116100715780639424ab9014610294578063b7a3418e146102a7578063cea41469146102bc578063df3aae0b146102cf578063f9cdd5561461030657600080fd5b80636fee7d581461020857806374c803801461021b57806375a4352f1461023b578063924238151461028157600080fd5b80634bcb1b0f116100e95780634bcb1b0f1461017f5780634da1b97a146101a25780635001f3b5146101b557806356d35b51146101e0578063631a4438146101f557600080fd5b806302819b991461011b578063147d559b146101305780632db33a2f14610159578063356b04801461016c575b600080fd5b61012e610129366004611755565b610319565b005b61014361013e3660046117d8565b6104f3565b6040516101509190611897565b60405180910390f35b61012e610167366004611755565b61069f565b61012e61017a3660046117d8565b610981565b61019261018d3660046118aa565b610abc565b60405161015094939291906118c3565b61012e6101b0366004611755565b610c1e565b6000546101c8906001600160a01b031681565b6040516001600160a01b039091168152602001610150565b6101e8610de8565b604051610150919061190a565b6101926102033660046118aa565b610f94565b6101436102163660046117d8565b610fa4565b61022e6102293660046117d8565b61101d565b604051610150919061196e565b6102716102493660046117d8565b6001600160a01b0316600090815260026020526040902060010154600160a01b900460ff1690565b6040519015158152602001610150565b61012e61028f366004611755565b6110cd565b6101436102a23660046117d8565b611337565b6102af6113e3565b6040516101509190611981565b61012e6102ca3660046117d8565b611586565b6102716102dd3660046117d8565b6001600160a01b031660009081526001602081905260409091200154600160a01b900460ff1690565b6101436103143660046117d8565b6116be565b3360009081526001602081905260409091200154600160a01b900460ff166103545760405163f75c676f60e01b815260040160405180910390fd5b6001600160a01b03851660009081526001602081905260409091200154600160a01b900460ff16610398576040516313da1a7160e11b815260040160405180910390fd5b6001600160a01b03851660009081526001602052604090206103bb848683611a79565b506001600160a01b03851660009081526001602052604090206002016103e2828483611a79565b5060005b6003548110156104a457856001600160a01b03166003828154811061040d5761040d611b3a565b60009182526020909120600160039092020101546001600160a01b03160361049c5784846003838154811061044457610444611b3a565b90600052602060002090600302016000019182610462929190611a79565b5082826003838154811061047857610478611b3a565b90600052602060002090600302016002019182610496929190611a79565b506104a4565b6001016103e6565b50846001600160a01b03167f12fbd96f82516b91ab18004905e324016dd38b631fed5d3884ef88ebe3ae20e5858585856040516104e49493929190611b79565b60405180910390a25050505050565b61052960405180608001604052806060815260200160006001600160a01b03168152602001600015158152602001606081525090565b6001600160a01b0382166000908152600260205260409081902081516080810190925280548290829061055b906119ee565b80601f0160208091040260200160405190810160405280929190818152602001828054610587906119ee565b80156105d45780601f106105a9576101008083540402835291602001916105d4565b820191906000526020600020905b8154815290600101906020018083116105b757829003601f168201915b505050918352505060018201546001600160a01b0381166020830152600160a01b900460ff1615156040820152600282018054606090920191610616906119ee565b80601f0160208091040260200160405190810160405280929190818152602001828054610642906119ee565b801561068f5780601f106106645761010080835404028352916020019161068f565b820191906000526020600020905b81548152906001019060200180831161067257829003601f168201915b5050505050815250509050919050565b60008054906101000a90046001600160a01b03166001600160a01b031663fb4ab1646040518163ffffffff1660e01b8152600401602060405180830381865afa1580156106f0573d6000803e3d6000fd5b505050506040513d601f19601f820116820180604052508101906107149190611ba0565b6001600160a01b0316336001600160a01b0316146107455760405163f75c676f60e01b815260040160405180910390fd5b6001600160a01b03851660009081526001602081905260409091200154600160a01b900460ff161561078a57604051636fed5b9960e01b815260040160405180910390fd5b6040805160a06020601f870181900402820181019092526080810185815260009282919088908890819085018382808284376000920191909152505050908252506001600160a01b03881660208083019190915260016040808401919091528051601f870183900483028101830190915285815260609092019190869086908190840183828082843760009201829052509390945250506001600160a01b038916815260016020526040902082519293508392909150819061084c9082611bbd565b50602082015160018201805460408501511515600160a01b026001600160a81b03199091166001600160a01b03909316929092179190911790556060820151600282019061089a9082611bbd565b5050600380546001810182556000829052835184935091027fc2575a0e9e593c00f959f8c92f12db2869c3395a3b0502d05e2516446f71f85b019081906108e19082611bbd565b50602082015160018201805460408501511515600160a01b026001600160a81b03199091166001600160a01b03909316929092179190911790556060820151600282019061092f9082611bbd565b505050856001600160a01b03167fe253ed8255fe5723a22412bf5804ee9034911e408cdbfe8547438f23ef231035868686866040516109719493929190611b79565b60405180910390a2505050505050565b60008054906101000a90046001600160a01b03166001600160a01b031663fb4ab1646040518163ffffffff1660e01b8152600401602060405180830381865afa1580156109d2573d6000803e3d6000fd5b505050506040513d601f19601f820116820180604052508101906109f69190611ba0565b6001600160a01b0316336001600160a01b031614610a275760405163f75c676f60e01b815260040160405180910390fd5b6001600160a01b03811660009081526001602081905260409091200154600160a01b900460ff16610a6b576040516313da1a7160e11b815260040160405180910390fd5b6001600160a01b0381166000818152600160208190526040808320909101805460ff60a01b19169055517f9821f051eb616938dcfef57fac817566f3954f1ed18aa52b2916921cb2bacc699190a250565b60048181548110610acc57600080fd5b9060005260206000209060030201600091509050806000018054610aef906119ee565b80601f0160208091040260200160405190810160405280929190818152602001828054610b1b906119ee565b8015610b685780601f10610b3d57610100808354040283529160200191610b68565b820191906000526020600020905b815481529060010190602001808311610b4b57829003601f168201915b50505050600183015460028401805493946001600160a01b03831694600160a01b90930460ff16935091610b9b906119ee565b80601f0160208091040260200160405190810160405280929190818152602001828054610bc7906119ee565b8015610c145780601f10610be957610100808354040283529160200191610c14565b820191906000526020600020905b815481529060010190602001808311610bf757829003601f168201915b5050505050905084565b33600090815260026020526040902060010154600160a01b900460ff16610c5857604051633f148bdd60e01b815260040160405180910390fd5b6001600160a01b038516600090815260026020526040902060010154600160a01b900460ff16610c9b57604051638789d78960e01b815260040160405180910390fd5b6001600160a01b0385166000908152600260205260409020610cbe848683611a79565b506001600160a01b038516600090815260026020819052604090912001610ce6828483611a79565b5060005b600454811015610da857856001600160a01b031660048281548110610d1157610d11611b3a565b60009182526020909120600160039092020101546001600160a01b031603610da057848460048381548110610d4857610d48611b3a565b90600052602060002090600302016000019182610d66929190611a79565b50828260048381548110610d7c57610d7c611b3a565b90600052602060002090600302016002019182610d9a929190611a79565b50610da8565b600101610cea565b50846001600160a01b03167f0966d5f4d49182394f8f66be9e93db3b0305879db3a22cce2895c3ead22ed753858585856040516104e49493929190611b79565b60606003805480602002602001604051908101604052809291908181526020016000905b82821015610f8b5783829060005260206000209060030201604051806080016040529081600082018054610e3f906119ee565b80601f0160208091040260200160405190810160405280929190818152602001828054610e6b906119ee565b8015610eb85780601f10610e8d57610100808354040283529160200191610eb8565b820191906000526020600020905b815481529060010190602001808311610e9b57829003601f168201915b505050918352505060018201546001600160a01b0381166020830152600160a01b900460ff1615156040820152600282018054606090920191610efa906119ee565b80601f0160208091040260200160405190810160405280929190818152602001828054610f26906119ee565b8015610f735780601f10610f4857610100808354040283529160200191610f73565b820191906000526020600020905b815481529060010190602001808311610f5657829003601f168201915b50505050508152505081526020019060010190610e0c565b50505050905090565b60038181548110610acc57600080fd5b610fda60405180608001604052806060815260200160006001600160a01b03168152602001600015158152602001606081525090565b6001600160a01b038216600090815260026020526040902060010154600160a01b900460ff1661052957604051638789d78960e01b815260040160405180910390fd5b6001600160a01b038116600090815260026020819052604090912001805460609190611048906119ee565b80601f0160208091040260200160405190810160405280929190818152602001828054611074906119ee565b80156110c15780601f10611096576101008083540402835291602001916110c1565b820191906000526020600020905b8154815290600101906020018083116110a457829003601f168201915b50505050509050919050565b3360009081526001602081905260409091200154600160a01b900460ff166111085760405163f75c676f60e01b815260040160405180910390fd5b6001600160a01b038516600090815260026020526040902060010154600160a01b900460ff161561114c576040516327abb51960e11b815260040160405180910390fd5b6040805160a06020601f870181900402820181019092526080810185815260009282919088908890819085018382808284376000920191909152505050908252506001600160a01b03881660208083019190915260016040808401919091528051601f870183900483028101830190915285815260609092019190869086908190840183828082843760009201829052509390945250506001600160a01b038916815260026020526040902082519293508392909150819061120e9082611bbd565b50602082015160018201805460408501511515600160a01b026001600160a81b03199091166001600160a01b03909316929092179190911790556060820151600282019061125c9082611bbd565b505060048054600181018255600091909152825183925060039091027f8a35acfbc15ff81a39ae7d344fd709f28e8600b4aa8c65c6b64bfe7fe36bd19b019081906112a79082611bbd565b50602082015160018201805460408501511515600160a01b026001600160a81b03199091166001600160a01b0390931692909217919091179055606082015160028201906112f59082611bbd565b505050856001600160a01b03167f9c6f19aa0cf3f6a0d4fdbd9269f4a794835bf59c3c7561af88f025740ef3cb77868686866040516109719493929190611b79565b61136d60405180608001604052806060815260200160006001600160a01b03168152602001600015158152602001606081525090565b6001600160a01b03821660009081526001602081905260409091200154600160a01b900460ff166113b1576040516313da1a7160e11b815260040160405180910390fd5b6001600160a01b0382166000908152600160205260409081902081516080810190925280548290829061055b906119ee565b60606004805480602002602001604051908101604052809291908181526020016000905b82821015610f8b578382906000526020600020906003020160405180608001604052908160008201805461143a906119ee565b80601f0160208091040260200160405190810160405280929190818152602001828054611466906119ee565b80156114b35780601f10611488576101008083540402835291602001916114b3565b820191906000526020600020905b81548152906001019060200180831161149657829003601f168201915b505050918352505060018201546001600160a01b0381166020830152600160a01b900460ff16151560408201526002820180546060909201916114f5906119ee565b80601f0160208091040260200160405190810160405280929190818152602001828054611521906119ee565b801561156e5780601f106115435761010080835404028352916020019161156e565b820191906000526020600020905b81548152906001019060200180831161155157829003601f168201915b50505050508152505081526020019060010190611407565b60008054906101000a90046001600160a01b03166001600160a01b031663fb4ab1646040518163ffffffff1660e01b8152600401602060405180830381865afa1580156115d7573d6000803e3d6000fd5b505050506040513d601f19601f820116820180604052508101906115fb9190611ba0565b6001600160a01b0316336001600160a01b03161461162c5760405163f75c676f60e01b815260040160405180910390fd5b6001600160a01b038116600090815260026020526040902060010154600160a01b900460ff1661166f57604051638789d78960e01b815260040160405180910390fd5b6001600160a01b038116600081815260026020526040808220600101805460ff60a01b19169055517f4287f31e2e9e49d47750bbe8bcdc9848644c0566e597ce529738d63b27b7b9929190a250565b6113b160405180608001604052806060815260200160006001600160a01b03168152602001600015158152602001606081525090565b6001600160a01b038116811461170957600080fd5b50565b60008083601f84011261171e57600080fd5b50813567ffffffffffffffff81111561173657600080fd5b60208301915083602082850101111561174e57600080fd5b9250929050565b60008060008060006060868803121561176d57600080fd5b8535611778816116f4565b9450602086013567ffffffffffffffff8082111561179557600080fd5b6117a189838a0161170c565b909650945060408801359150808211156117ba57600080fd5b506117c78882890161170c565b969995985093965092949392505050565b6000602082840312156117ea57600080fd5b81356117f5816116f4565b9392505050565b6000815180845260005b8181101561182257602081850181015186830182015201611806565b506000602082860101526020601f19601f83011685010191505092915050565b600081516080845261185760808501826117fc565b905060018060a01b0360208401511660208501526040830151151560408501526060830151848203606086015261188e82826117fc565b95945050505050565b6020815260006117f56020830184611842565b6000602082840312156118bc57600080fd5b5035919050565b6080815260006118d660808301876117fc565b6001600160a01b0386166020840152841515604084015282810360608401526118ff81856117fc565b979650505050505050565b600060208083016020845280855180835260408601915060408160051b87010192506020870160005b8281101561196157603f1988860301845261194f858351611842565b94509285019290850190600101611933565b5092979650505050505050565b6020815260006117f560208301846117fc565b600060208083016020845280855180835260408601915060408160051b87010192506020870160005b8281101561196157603f198886030184526119c6858351611842565b945092850192908501906001016119aa565b634e487b7160e01b600052604160045260246000fd5b600181811c90821680611a0257607f821691505b602082108103611a2257634e487b7160e01b600052602260045260246000fd5b50919050565b601f821115611a74576000816000526020600020601f850160051c81016020861015611a515750805b601f850160051c820191505b81811015611a7057828155600101611a5d565b5050505b505050565b67ffffffffffffffff831115611a9157611a916119d8565b611aa583611a9f83546119ee565b83611a28565b6000601f841160018114611ad95760008515611ac15750838201355b600019600387901b1c1916600186901b178355611b33565b600083815260209020601f19861690835b82811015611b0a5786850135825560209485019460019092019101611aea565b5086821015611b275760001960f88860031b161c19848701351681555b505060018560011b0183555b5050505050565b634e487b7160e01b600052603260045260246000fd5b81835281816020850137506000828201602090810191909152601f909101601f19169091010190565b604081526000611b8d604083018688611b50565b82810360208401526118ff818587611b50565b600060208284031215611bb257600080fd5b81516117f5816116f4565b815167ffffffffffffffff811115611bd757611bd76119d8565b611beb81611be584546119ee565b84611a28565b602080601f831160018114611c205760008415611c085750858301515b600019600386901b1c1916600185901b178555611a70565b600085815260208120601f198616915b82811015611c4f57888601518255948401946001909101908401611c30565b5085821015611c6d5787850151600019600388901b60f8161c191681555b5050505050600190811b0190555056fea2646970667358221220f55bff473f8cbb42333ff66b64128e04264ffa40feb6bb3188a066c994eb217764736f6c63430008190033",
  "immutableReferences": {},
  "source": "// SPDX-License-Identifier: UNLICENSED\r\npragma solidity ^0.8.25;\r\n\r\nimport \"./Interfaces.sol\";\r\nimport \"./VotechainBase.sol\";\r\n\r\ncontract KPUManager is IKPUManager{\r\n\r\n    error OnlyKpuProvinsi();\r\n    error OnlyKpuKota();\r\n    error KPUProvinsiAlreadyRegistered();\r\n    error KPUProvinsiNotActive();\r\n    error KPUKotaAlreadyRegistered();\r\n    error KPUKotaNotActive();\r\n    error KPUNotFound();\r\n\r\n    IVotechainBase public base;\r\n\r\n    mapping(address => KPUProvinsi) internal _kpuProvinsi;\r\n    mapping(address => KPUKota) internal _kpuKota;\r\n\r\n    KPUProvinsi[] public kpuProvinsiAddressesArray;\r\n    KPUKota[] public kpuKotaAddressesArray;\r\n\r\n    event KPUProvinsiRegistered(address indexed Address, string name, string region);\r\n    event KPUKotaRegistered(address indexed Address, string name, string region);\r\n    event KPUKotaDeactivated(address indexed Address);\r\n    event KPUProvinsiDeactivated(address indexed Address);\r\n    event KPUProvinsiUpdated(address indexed Address, string name, string region);\r\n    event KPUKotaUpdated(address indexed Address, string name, string region);\r\n\r\n    modifier onlyKpuAdmin() {\r\n        if (msg.sender != base.kpuAdmin()) revert OnlyKpuProvinsi();\r\n        _;\r\n    }\r\n\r\n    modifier onlyKpuProvinsi() {\r\n        if (!_kpuProvinsi[msg.sender].isActive) revert OnlyKpuProvinsi();\r\n        _;\r\n    }\r\n\r\n    modifier onlyKpuKota(){\r\n        if (!_kpuKota[msg.sender].isActive) revert OnlyKpuKota();\r\n        _;\r\n    }\r\n\r\n    constructor(address _baseAddress) {\r\n        base = IVotechainBase(_baseAddress);\r\n    }\r\n\r\n    function kpuProvinsi(address addr) external view override returns (KPUProvinsi memory) {\r\n        return _kpuProvinsi[addr];\r\n    }\r\n\r\n    function kpuKota(address addr) external view override returns (KPUKota memory) {\r\n        return _kpuKota[addr];\r\n    }\r\n\r\n    function registerKPUProvinsi(\r\n        address Address,\r\n        string calldata name,\r\n        string calldata region\r\n    ) external override onlyKpuAdmin {\r\n        if (_kpuProvinsi[Address].isActive) revert KPUProvinsiAlreadyRegistered();\r\n\r\n        KPUProvinsi memory newKPU = KPUProvinsi(name, Address, true, region);\r\n        _kpuProvinsi[Address] = newKPU;\r\n        kpuProvinsiAddressesArray.push(newKPU);\r\n\r\n        emit KPUProvinsiRegistered(Address, name, region);\r\n    }\r\n\r\n    function registerKPUKota(\r\n        address Address,\r\n        string calldata name,\r\n        string calldata region\r\n    ) external override onlyKpuProvinsi {\r\n        if (_kpuKota[Address].isActive) revert KPUKotaAlreadyRegistered();\r\n\r\n        KPUKota memory newKPU = KPUKota(name, Address, true, region);\r\n        _kpuKota[Address] = newKPU;\r\n        kpuKotaAddressesArray.push(newKPU);\r\n\r\n        emit KPUKotaRegistered(Address, name, region);\r\n    }\r\n\r\n    function deactivateKPUProvinsi(address Address) external override onlyKpuAdmin {\r\n        if (!_kpuProvinsi[Address].isActive) revert KPUProvinsiNotActive();\r\n        _kpuProvinsi[Address].isActive = false;\r\n        emit KPUProvinsiDeactivated(Address);\r\n    }\r\n\r\n    function deactivateKPUKota(address Address) external override onlyKpuAdmin {\r\n        if (!_kpuKota[Address].isActive) revert KPUKotaNotActive();\r\n        _kpuKota[Address].isActive = false;\r\n        emit KPUKotaDeactivated(Address);\r\n    }\r\n\r\n    // Helper functions for other contracts\r\n    function isKPUKota(address kpuAddress) external view override returns (bool) {\r\n        return _kpuKota[kpuAddress].isActive;\r\n    }\r\n\r\n    function isKPUProvinsi(address kpuAddress) external view override returns (bool) {\r\n        return _kpuProvinsi[kpuAddress].isActive;\r\n    }\r\n\r\n    function getKpuKotaRegion(address kpuAddress) external view override returns (string memory) {\r\n        return _kpuKota[kpuAddress].region;\r\n    }\r\n\r\n    function getAllKPUProvinsi() external view returns (KPUProvinsi[] memory) {\r\n        return kpuProvinsiAddressesArray;\r\n    }\r\n\r\n    function getAllKPUKota() external view returns (KPUKota[] memory) {\r\n        return kpuKotaAddressesArray;\r\n    }\r\n\r\n    function getKpuProvinsiByAddress(address Address) external view returns (KPUProvinsi memory) {\r\n        if (!_kpuProvinsi[Address].isActive) revert KPUProvinsiNotActive();\r\n        return _kpuProvinsi[Address];\r\n    }\r\n\r\n    function getKpuKotaByAddress(address Address) external view returns (KPUKota memory) {\r\n        if (!_kpuKota[Address].isActive) revert KPUKotaNotActive();\r\n        return _kpuKota[Address];\r\n    }\r\n\r\n    function updateKPUProvinsi(\r\n        address Address,\r\n        string calldata name,\r\n        string calldata region\r\n    ) external override onlyKpuProvinsi {\r\n        if (!_kpuProvinsi[Address].isActive) revert KPUProvinsiNotActive();\r\n\r\n        _kpuProvinsi[Address].name = name;\r\n        _kpuProvinsi[Address].region = region;\r\n\r\n        for (uint i = 0; i < kpuProvinsiAddressesArray.length; i++) {\r\n            if (kpuProvinsiAddressesArray[i].Address == Address) {\r\n                kpuProvinsiAddressesArray[i].name = name;\r\n                kpuProvinsiAddressesArray[i].region = region;\r\n                break;\r\n            }\r\n        }\r\n\r\n        emit KPUProvinsiUpdated(Address, name, region);\r\n    }\r\n\r\n    function updateKPUKota(\r\n        address Address,\r\n        string calldata name,\r\n        string calldata region\r\n    ) external override onlyKpuKota {\r\n        if (!_kpuKota[Address].isActive) revert KPUKotaNotActive();\r\n\r\n        _kpuKota[Address].name = name;\r\n        _kpuKota[Address].region = region;\r\n\r\n        // Update in the array too\r\n        for (uint i = 0; i < kpuKotaAddressesArray.length; i++) {\r\n            if (kpuKotaAddressesArray[i].Address == Address) {\r\n                kpuKotaAddressesArray[i].name = name;\r\n                kpuKotaAddressesArray[i].region = region;\r\n                break;\r\n            }\r\n        }\r\n\r\n        emit KPUKotaUpdated(Address, name, region);\r\n    }\r\n}\r\n",
  "sourcePath": "C:\\Users\\bbyas\\Documents\\Kuliah\\Skripsi\\backend\\votechain-contract\\contracts\\KPUManager.sol",
  "compiler": {
    "name": "solc",
    "version": "0.8.25+commit.b61c2a91.Emscripten.clang"
  },
  "schemaVersion": "3.4.16",
  "updatedAt": "2025-05-01T06:45:23.941Z",
  "networkType": "ethereum",
  "devdoc": {
    "kind": "dev",
    "methods": {},
    "version": 1
  },
  "userdoc": {
    "kind": "user",
    "methods": {},
    "version": 1
  }
}