{
  "contractName": "KPUManager",
  "abi": [
    {
      "inputs": [
        {
          "internalType": "address",
          "name": "_baseAddress",
          "type": "address"
        }
      ],
      "stateMutability": "nonpayable",
      "type": "constructor"
    },
    {
      "inputs": [],
      "name": "KPUKotaAlreadyRegistered",
      "type": "error"
    },
    {
      "inputs": [],
      "name": "KPUKotaNotActive",
      "type": "error"
    },
    {
      "inputs": [],
      "name": "KPUProvinsiAlreadyRegistered",
      "type": "error"
    },
    {
      "inputs": [],
      "name": "KPUProvinsiNotActive",
      "type": "error"
    },
    {
      "inputs": [],
      "name": "OnlyKpuKota",
      "type": "error"
    },
    {
      "inputs": [],
      "name": "OnlyKpuProvinsi",
      "type": "error"
    },
    {
      "anonymous": false,
      "inputs": [
        {
          "indexed": true,
          "internalType": "address",
          "name": "Address",
          "type": "address"
        }
      ],
      "name": "KPUKotaDeactivated",
      "type": "event"
    },
    {
      "anonymous": false,
      "inputs": [
        {
          "indexed": true,
          "internalType": "address",
          "name": "Address",
          "type": "address"
        },
        {
          "indexed": false,
          "internalType": "string",
          "name": "name",
          "type": "string"
        },
        {
          "indexed": false,
          "internalType": "string",
          "name": "region",
          "type": "string"
        }
      ],
      "name": "KPUKotaRegistered",
      "type": "event"
    },
    {
      "anonymous": false,
      "inputs": [
        {
          "indexed": true,
          "internalType": "address",
          "name": "Address",
          "type": "address"
        }
      ],
      "name": "KPUProvinsiDeactivated",
      "type": "event"
    },
    {
      "anonymous": false,
      "inputs": [
        {
          "indexed": true,
          "internalType": "address",
          "name": "Address",
          "type": "address"
        },
        {
          "indexed": false,
          "internalType": "string",
          "name": "name",
          "type": "string"
        },
        {
          "indexed": false,
          "internalType": "string",
          "name": "region",
          "type": "string"
        }
      ],
      "name": "KPUProvinsiRegistered",
      "type": "event"
    },
    {
      "inputs": [],
      "name": "base",
      "outputs": [
        {
          "internalType": "contract IVotechainBase",
          "name": "",
          "type": "address"
        }
      ],
      "stateMutability": "view",
      "type": "function",
      "constant": true
    },
    {
      "inputs": [
        {
          "internalType": "uint256",
          "name": "",
          "type": "uint256"
        }
      ],
      "name": "kpuKotaAddressesArray",
      "outputs": [
        {
          "internalType": "string",
          "name": "name",
          "type": "string"
        },
        {
          "internalType": "address",
          "name": "Address",
          "type": "address"
        },
        {
          "internalType": "bool",
          "name": "isActive",
          "type": "bool"
        },
        {
          "internalType": "string",
          "name": "region",
          "type": "string"
        }
      ],
      "stateMutability": "view",
      "type": "function",
      "constant": true
    },
    {
      "inputs": [
        {
          "internalType": "uint256",
          "name": "",
          "type": "uint256"
        }
      ],
      "name": "kpuProvinsiAddressesArray",
      "outputs": [
        {
          "internalType": "string",
          "name": "name",
          "type": "string"
        },
        {
          "internalType": "address",
          "name": "Address",
          "type": "address"
        },
        {
          "internalType": "bool",
          "name": "isActive",
          "type": "bool"
        },
        {
          "internalType": "string",
          "name": "region",
          "type": "string"
        }
      ],
      "stateMutability": "view",
      "type": "function",
      "constant": true
    },
    {
      "inputs": [
        {
          "internalType": "address",
          "name": "addr",
          "type": "address"
        }
      ],
      "name": "kpuProvinsi",
      "outputs": [
        {
          "components": [
            {
              "internalType": "string",
              "name": "name",
              "type": "string"
            },
            {
              "internalType": "address",
              "name": "Address",
              "type": "address"
            },
            {
              "internalType": "bool",
              "name": "isActive",
              "type": "bool"
            },
            {
              "internalType": "string",
              "name": "region",
              "type": "string"
            }
          ],
          "internalType": "struct IKPUManager.KPUProvinsi",
          "name": "",
          "type": "tuple"
        }
      ],
      "stateMutability": "view",
      "type": "function",
      "constant": true
    },
    {
      "inputs": [
        {
          "internalType": "address",
          "name": "addr",
          "type": "address"
        }
      ],
      "name": "kpuKota",
      "outputs": [
        {
          "components": [
            {
              "internalType": "string",
              "name": "name",
              "type": "string"
            },
            {
              "internalType": "address",
              "name": "Address",
              "type": "address"
            },
            {
              "internalType": "bool",
              "name": "isActive",
              "type": "bool"
            },
            {
              "internalType": "string",
              "name": "region",
              "type": "string"
            }
          ],
          "internalType": "struct IKPUManager.KPUKota",
          "name": "",
          "type": "tuple"
        }
      ],
      "stateMutability": "view",
      "type": "function",
      "constant": true
    },
    {
      "inputs": [
        {
          "internalType": "address",
          "name": "Address",
          "type": "address"
        },
        {
          "internalType": "string",
          "name": "name",
          "type": "string"
        },
        {
          "internalType": "string",
          "name": "region",
          "type": "string"
        }
      ],
      "name": "registerKPUProvinsi",
      "outputs": [],
      "stateMutability": "nonpayable",
      "type": "function"
    },
    {
      "inputs": [
        {
          "internalType": "address",
          "name": "Address",
          "type": "address"
        },
        {
          "internalType": "string",
          "name": "name",
          "type": "string"
        },
        {
          "internalType": "string",
          "name": "region",
          "type": "string"
        }
      ],
      "name": "registerKPUKota",
      "outputs": [],
      "stateMutability": "nonpayable",
      "type": "function"
    },
    {
      "inputs": [
        {
          "internalType": "address",
          "name": "Address",
          "type": "address"
        }
      ],
      "name": "deactivateKPUProvinsi",
      "outputs": [],
      "stateMutability": "nonpayable",
      "type": "function"
    },
    {
      "inputs": [
        {
          "internalType": "address",
          "name": "Address",
          "type": "address"
        }
      ],
      "name": "deactivateKPUKota",
      "outputs": [],
      "stateMutability": "nonpayable",
      "type": "function"
    },
    {
      "inputs": [
        {
          "internalType": "address",
          "name": "kpuAddress",
          "type": "address"
        }
      ],
      "name": "isKPUKota",
      "outputs": [
        {
          "internalType": "bool",
          "name": "",
          "type": "bool"
        }
      ],
      "stateMutability": "view",
      "type": "function",
      "constant": true
    },
    {
      "inputs": [
        {
          "internalType": "address",
          "name": "kpuAddress",
          "type": "address"
        }
      ],
      "name": "isKPUProvinsi",
      "outputs": [
        {
          "internalType": "bool",
          "name": "",
          "type": "bool"
        }
      ],
      "stateMutability": "view",
      "type": "function",
      "constant": true
    },
    {
      "inputs": [
        {
          "internalType": "address",
          "name": "kpuAddress",
          "type": "address"
        }
      ],
      "name": "getKpuKotaRegion",
      "outputs": [
        {
          "internalType": "string",
          "name": "",
          "type": "string"
        }
      ],
      "stateMutability": "view",
      "type": "function",
      "constant": true
    },
    {
      "inputs": [],
      "name": "getAllKPUProvinsi",
      "outputs": [
        {
          "components": [
            {
              "internalType": "string",
              "name": "name",
              "type": "string"
            },
            {
              "internalType": "address",
              "name": "Address",
              "type": "address"
            },
            {
              "internalType": "bool",
              "name": "isActive",
              "type": "bool"
            },
            {
              "internalType": "string",
              "name": "region",
              "type": "string"
            }
          ],
          "internalType": "struct IKPUManager.KPUProvinsi[]",
          "name": "",
          "type": "tuple[]"
        }
      ],
      "stateMutability": "view",
      "type": "function",
      "constant": true
    },
    {
      "inputs": [],
      "name": "getAllKPUKota",
      "outputs": [
        {
          "components": [
            {
              "internalType": "string",
              "name": "name",
              "type": "string"
            },
            {
              "internalType": "address",
              "name": "Address",
              "type": "address"
            },
            {
              "internalType": "bool",
              "name": "isActive",
              "type": "bool"
            },
            {
              "internalType": "string",
              "name": "region",
              "type": "string"
            }
          ],
          "internalType": "struct IKPUManager.KPUKota[]",
          "name": "",
          "type": "tuple[]"
        }
      ],
      "stateMutability": "view",
      "type": "function",
      "constant": true
    },
    {
      "inputs": [
        {
          "internalType": "address",
          "name": "Address",
          "type": "address"
        }
      ],
      "name": "getKpuProvinsiByAddress",
      "outputs": [
        {
          "components": [
            {
              "internalType": "string",
              "name": "name",
              "type": "string"
            },
            {
              "internalType": "address",
              "name": "Address",
              "type": "address"
            },
            {
              "internalType": "bool",
              "name": "isActive",
              "type": "bool"
            },
            {
              "internalType": "string",
              "name": "region",
              "type": "string"
            }
          ],
          "internalType": "struct IKPUManager.KPUProvinsi",
          "name": "",
          "type": "tuple"
        }
      ],
      "stateMutability": "view",
      "type": "function",
      "constant": true
    },
    {
      "inputs": [
        {
          "internalType": "address",
          "name": "Address",
          "type": "address"
        }
      ],
      "name": "getKpuKotaByAddress",
      "outputs": [
        {
          "components": [
            {
              "internalType": "string",
              "name": "name",
              "type": "string"
            },
            {
              "internalType": "address",
              "name": "Address",
              "type": "address"
            },
            {
              "internalType": "bool",
              "name": "isActive",
              "type": "bool"
            },
            {
              "internalType": "string",
              "name": "region",
              "type": "string"
            }
          ],
          "internalType": "struct IKPUManager.KPUKota",
          "name": "",
          "type": "tuple"
        }
      ],
      "stateMutability": "view",
      "type": "function",
      "constant": true
    }
  ],
  "bytecode": "0x6080604052348015600f57600080fd5b50604051611889380380611889833981016040819052602c916050565b600080546001600160a01b0319166001600160a01b0392909216919091179055607e565b600060208284031215606157600080fd5b81516001600160a01b0381168114607757600080fd5b9392505050565b6117fc8061008d6000396000f3fe608060405234801561001057600080fd5b50600436106101005760003560e01c806374c8038011610097578063b7a3418e11610066578063b7a3418e1461026b578063cea4146914610280578063df3aae0b14610293578063f9cdd556146102ca57600080fd5b806374c80380146101df57806375a4352f146101ff57806392423815146102455780639424ab901461025857600080fd5b80635001f3b5116100d35780635001f3b51461017957806356d35b51146101a4578063631a4438146101b95780636fee7d58146101cc57600080fd5b8063147d559b146101055780632db33a2f1461012e578063356b0480146101435780634bcb1b0f14610156575b600080fd5b61011861011336600461132c565b6102dd565b60405161012591906113eb565b60405180910390f35b61014161013c366004611447565b610489565b005b61014161015136600461132c565b61076b565b6101696101643660046114ca565b6108a6565b60405161012594939291906114e3565b60005461018c906001600160a01b031681565b6040516001600160a01b039091168152602001610125565b6101ac610a08565b604051610125919061152a565b6101696101c73660046114ca565b610bb4565b6101186101da36600461132c565b610bc4565b6101f26101ed36600461132c565b610c3d565b604051610125919061158e565b61023561020d36600461132c565b6001600160a01b0316600090815260026020526040902060010154600160a01b900460ff1690565b6040519015158152602001610125565b610141610253366004611447565b610ced565b61011861026636600461132c565b610f57565b610273611003565b60405161012591906115a1565b61014161028e36600461132c565b6111a6565b6102356102a136600461132c565b6001600160a01b031660009081526001602081905260409091200154600160a01b900460ff1690565b6101186102d836600461132c565b6112de565b61031360405180608001604052806060815260200160006001600160a01b03168152602001600015158152602001606081525090565b6001600160a01b03821660009081526002602052604090819020815160808101909252805482908290610345906115f8565b80601f0160208091040260200160405190810160405280929190818152602001828054610371906115f8565b80156103be5780601f10610393576101008083540402835291602001916103be565b820191906000526020600020905b8154815290600101906020018083116103a157829003601f168201915b505050918352505060018201546001600160a01b0381166020830152600160a01b900460ff1615156040820152600282018054606090920191610400906115f8565b80601f016020809104026020016040519081016040528092919081815260200182805461042c906115f8565b80156104795780601f1061044e57610100808354040283529160200191610479565b820191906000526020600020905b81548152906001019060200180831161045c57829003601f168201915b5050505050815250509050919050565b60008054906101000a90046001600160a01b03166001600160a01b031663fb4ab1646040518163ffffffff1660e01b8152600401602060405180830381865afa1580156104da573d6000803e3d6000fd5b505050506040513d601f19601f820116820180604052508101906104fe9190611632565b6001600160a01b0316336001600160a01b03161461052f5760405163f75c676f60e01b815260040160405180910390fd5b6001600160a01b03851660009081526001602081905260409091200154600160a01b900460ff161561057457604051636fed5b9960e01b815260040160405180910390fd5b6040805160a06020601f870181900402820181019092526080810185815260009282919088908890819085018382808284376000920191909152505050908252506001600160a01b03881660208083019190915260016040808401919091528051601f870183900483028101830190915285815260609092019190869086908190840183828082843760009201829052509390945250506001600160a01b038916815260016020526040902082519293508392909150819061063690826116b6565b50602082015160018201805460408501511515600160a01b026001600160a81b03199091166001600160a01b03909316929092179190911790556060820151600282019061068490826116b6565b5050600380546001810182556000829052835184935091027fc2575a0e9e593c00f959f8c92f12db2869c3395a3b0502d05e2516446f71f85b019081906106cb90826116b6565b50602082015160018201805460408501511515600160a01b026001600160a81b03199091166001600160a01b03909316929092179190911790556060820151600282019061071990826116b6565b505050856001600160a01b03167fe253ed8255fe5723a22412bf5804ee9034911e408cdbfe8547438f23ef2310358686868660405161075b949392919061179f565b60405180910390a2505050505050565b60008054906101000a90046001600160a01b03166001600160a01b031663fb4ab1646040518163ffffffff1660e01b8152600401602060405180830381865afa1580156107bc573d6000803e3d6000fd5b505050506040513d601f19601f820116820180604052508101906107e09190611632565b6001600160a01b0316336001600160a01b0316146108115760405163f75c676f60e01b815260040160405180910390fd5b6001600160a01b03811660009081526001602081905260409091200154600160a01b900460ff16610855576040516313da1a7160e11b815260040160405180910390fd5b6001600160a01b0381166000818152600160208190526040808320909101805460ff60a01b19169055517f9821f051eb616938dcfef57fac817566f3954f1ed18aa52b2916921cb2bacc699190a250565b600481815481106108b657600080fd5b90600052602060002090600302016000915090508060000180546108d9906115f8565b80601f0160208091040260200160405190810160405280929190818152602001828054610905906115f8565b80156109525780601f1061092757610100808354040283529160200191610952565b820191906000526020600020905b81548152906001019060200180831161093557829003601f168201915b50505050600183015460028401805493946001600160a01b03831694600160a01b90930460ff16935091610985906115f8565b80601f01602080910402602001604051908101604052809291908181526020018280546109b1906115f8565b80156109fe5780601f106109d3576101008083540402835291602001916109fe565b820191906000526020600020905b8154815290600101906020018083116109e157829003601f168201915b5050505050905084565b60606003805480602002602001604051908101604052809291908181526020016000905b82821015610bab5783829060005260206000209060030201604051806080016040529081600082018054610a5f906115f8565b80601f0160208091040260200160405190810160405280929190818152602001828054610a8b906115f8565b8015610ad85780601f10610aad57610100808354040283529160200191610ad8565b820191906000526020600020905b815481529060010190602001808311610abb57829003601f168201915b505050918352505060018201546001600160a01b0381166020830152600160a01b900460ff1615156040820152600282018054606090920191610b1a906115f8565b80601f0160208091040260200160405190810160405280929190818152602001828054610b46906115f8565b8015610b935780601f10610b6857610100808354040283529160200191610b93565b820191906000526020600020905b815481529060010190602001808311610b7657829003601f168201915b50505050508152505081526020019060010190610a2c565b50505050905090565b600381815481106108b657600080fd5b610bfa60405180608001604052806060815260200160006001600160a01b03168152602001600015158152602001606081525090565b6001600160a01b038216600090815260026020526040902060010154600160a01b900460ff1661031357604051638789d78960e01b815260040160405180910390fd5b6001600160a01b038116600090815260026020819052604090912001805460609190610c68906115f8565b80601f0160208091040260200160405190810160405280929190818152602001828054610c94906115f8565b8015610ce15780601f10610cb657610100808354040283529160200191610ce1565b820191906000526020600020905b815481529060010190602001808311610cc457829003601f168201915b50505050509050919050565b3360009081526001602081905260409091200154600160a01b900460ff16610d285760405163f75c676f60e01b815260040160405180910390fd5b6001600160a01b038516600090815260026020526040902060010154600160a01b900460ff1615610d6c576040516327abb51960e11b815260040160405180910390fd5b6040805160a06020601f870181900402820181019092526080810185815260009282919088908890819085018382808284376000920191909152505050908252506001600160a01b03881660208083019190915260016040808401919091528051601f870183900483028101830190915285815260609092019190869086908190840183828082843760009201829052509390945250506001600160a01b0389168152600260205260409020825192935083929091508190610e2e90826116b6565b50602082015160018201805460408501511515600160a01b026001600160a81b03199091166001600160a01b039093169290921791909117905560608201516002820190610e7c90826116b6565b505060048054600181018255600091909152825183925060039091027f8a35acfbc15ff81a39ae7d344fd709f28e8600b4aa8c65c6b64bfe7fe36bd19b01908190610ec790826116b6565b50602082015160018201805460408501511515600160a01b026001600160a81b03199091166001600160a01b039093169290921791909117905560608201516002820190610f1590826116b6565b505050856001600160a01b03167f9c6f19aa0cf3f6a0d4fdbd9269f4a794835bf59c3c7561af88f025740ef3cb778686868660405161075b949392919061179f565b610f8d60405180608001604052806060815260200160006001600160a01b03168152602001600015158152602001606081525090565b6001600160a01b03821660009081526001602081905260409091200154600160a01b900460ff16610fd1576040516313da1a7160e11b815260040160405180910390fd5b6001600160a01b03821660009081526001602052604090819020815160808101909252805482908290610345906115f8565b60606004805480602002602001604051908101604052809291908181526020016000905b82821015610bab578382906000526020600020906003020160405180608001604052908160008201805461105a906115f8565b80601f0160208091040260200160405190810160405280929190818152602001828054611086906115f8565b80156110d35780601f106110a8576101008083540402835291602001916110d3565b820191906000526020600020905b8154815290600101906020018083116110b657829003601f168201915b505050918352505060018201546001600160a01b0381166020830152600160a01b900460ff1615156040820152600282018054606090920191611115906115f8565b80601f0160208091040260200160405190810160405280929190818152602001828054611141906115f8565b801561118e5780601f106111635761010080835404028352916020019161118e565b820191906000526020600020905b81548152906001019060200180831161117157829003601f168201915b50505050508152505081526020019060010190611027565b60008054906101000a90046001600160a01b03166001600160a01b031663fb4ab1646040518163ffffffff1660e01b8152600401602060405180830381865afa1580156111f7573d6000803e3d6000fd5b505050506040513d601f19601f8201168201806040525081019061121b9190611632565b6001600160a01b0316336001600160a01b03161461124c5760405163f75c676f60e01b815260040160405180910390fd5b6001600160a01b038116600090815260026020526040902060010154600160a01b900460ff1661128f57604051638789d78960e01b815260040160405180910390fd5b6001600160a01b038116600081815260026020526040808220600101805460ff60a01b19169055517f4287f31e2e9e49d47750bbe8bcdc9848644c0566e597ce529738d63b27b7b9929190a250565b610fd160405180608001604052806060815260200160006001600160a01b03168152602001600015158152602001606081525090565b6001600160a01b038116811461132957600080fd5b50565b60006020828403121561133e57600080fd5b813561134981611314565b9392505050565b6000815180845260005b818110156113765760208185018101518683018201520161135a565b506000602082860101526020601f19601f83011685010191505092915050565b60008151608084526113ab6080850182611350565b905060018060a01b036020840151166020850152604083015115156040850152606083015184820360608601526113e28282611350565b95945050505050565b6020815260006113496020830184611396565b60008083601f84011261141057600080fd5b50813567ffffffffffffffff81111561142857600080fd5b60208301915083602082850101111561144057600080fd5b9250929050565b60008060008060006060868803121561145f57600080fd5b853561146a81611314565b9450602086013567ffffffffffffffff8082111561148757600080fd5b61149389838a016113fe565b909650945060408801359150808211156114ac57600080fd5b506114b9888289016113fe565b969995985093965092949392505050565b6000602082840312156114dc57600080fd5b5035919050565b6080815260006114f66080830187611350565b6001600160a01b03861660208401528415156040840152828103606084015261151f8185611350565b979650505050505050565b600060208083016020845280855180835260408601915060408160051b87010192506020870160005b8281101561158157603f1988860301845261156f858351611396565b94509285019290850190600101611553565b5092979650505050505050565b6020815260006113496020830184611350565b600060208083016020845280855180835260408601915060408160051b87010192506020870160005b8281101561158157603f198886030184526115e6858351611396565b945092850192908501906001016115ca565b600181811c9082168061160c57607f821691505b60208210810361162c57634e487b7160e01b600052602260045260246000fd5b50919050565b60006020828403121561164457600080fd5b815161134981611314565b634e487b7160e01b600052604160045260246000fd5b601f8211156116b1576000816000526020600020601f850160051c8101602086101561168e5750805b601f850160051c820191505b818110156116ad5782815560010161169a565b5050505b505050565b815167ffffffffffffffff8111156116d0576116d061164f565b6116e4816116de84546115f8565b84611665565b602080601f83116001811461171957600084156117015750858301515b600019600386901b1c1916600185901b1785556116ad565b600085815260208120601f198616915b8281101561174857888601518255948401946001909101908401611729565b50858210156117665787850151600019600388901b60f8161c191681555b5050505050600190811b01905550565b81835281816020850137506000828201602090810191909152601f909101601f19169091010190565b6040815260006117b3604083018688611776565b828103602084015261151f81858761177656fea2646970667358221220508525405c8b998ea0f99b43bfd149783524a4aeeeb6ccf7dc57fb96ef4b66d264736f6c63430008190033",
  "immutableReferences": {},
  "source": "// SPDX-License-Identifier: UNLICENSED\r\npragma solidity ^0.8.25;\r\n\r\nimport \"./Interfaces.sol\";\r\nimport \"./VotechainBase.sol\";\r\n\r\ncontract KPUManager is IKPUManager{\r\n\r\n    error OnlyKpuProvinsi();\r\n    error OnlyKpuKota();\r\n    error KPUProvinsiAlreadyRegistered();\r\n    error KPUProvinsiNotActive();\r\n    error KPUKotaAlreadyRegistered();\r\n    error KPUKotaNotActive();\r\n\r\n    IVotechainBase public base;\r\n\r\n    mapping(address => KPUProvinsi) internal _kpuProvinsi;\r\n    mapping(address => KPUKota) internal _kpuKota;\r\n\r\n    KPUProvinsi[] public kpuProvinsiAddressesArray;\r\n    KPUKota[] public kpuKotaAddressesArray;\r\n\r\n    event KPUProvinsiRegistered(address indexed Address, string name, string region);\r\n    event KPUKotaRegistered(address indexed Address, string name, string region);\r\n    event KPUKotaDeactivated(address indexed Address);\r\n    event KPUProvinsiDeactivated(address indexed Address);\r\n\r\n    modifier onlyKpuAdmin() {\r\n        if (msg.sender != base.kpuAdmin()) revert OnlyKpuProvinsi();\r\n        _;\r\n    }\r\n\r\n    modifier onlyKpuProvinsi() {\r\n        if (!_kpuProvinsi[msg.sender].isActive) revert OnlyKpuProvinsi();\r\n        _;\r\n    }\r\n\r\n    modifier onlyKpuKota(){\r\n        if (!_kpuKota[msg.sender].isActive) revert OnlyKpuKota();\r\n        _;\r\n    }\r\n\r\n    constructor(address _baseAddress) {\r\n        base = IVotechainBase(_baseAddress);\r\n    }\r\n\r\n    function kpuProvinsi(address addr) external view override returns (KPUProvinsi memory) {\r\n        return _kpuProvinsi[addr];\r\n    }\r\n\r\n    function kpuKota(address addr) external view override returns (KPUKota memory) {\r\n        return _kpuKota[addr];\r\n    }\r\n\r\n    function registerKPUProvinsi(\r\n        address Address,\r\n        string calldata name,\r\n        string calldata region\r\n    ) external override onlyKpuAdmin {\r\n        if (_kpuProvinsi[Address].isActive) revert KPUProvinsiAlreadyRegistered();\r\n\r\n        KPUProvinsi memory newKPU = KPUProvinsi(name, Address, true, region);\r\n        _kpuProvinsi[Address] = newKPU;\r\n        kpuProvinsiAddressesArray.push(newKPU);\r\n\r\n        emit KPUProvinsiRegistered(Address, name, region);\r\n    }\r\n\r\n    function registerKPUKota(\r\n        address Address,\r\n        string calldata name,\r\n        string calldata region\r\n    ) external override onlyKpuProvinsi {\r\n        if (_kpuKota[Address].isActive) revert KPUKotaAlreadyRegistered();\r\n\r\n        KPUKota memory newKPU = KPUKota(name, Address, true, region);\r\n        _kpuKota[Address] = newKPU;\r\n        kpuKotaAddressesArray.push(newKPU);\r\n\r\n        emit KPUKotaRegistered(Address, name, region);\r\n    }\r\n\r\n    function deactivateKPUProvinsi(address Address) external override onlyKpuAdmin {\r\n        if (!_kpuProvinsi[Address].isActive) revert KPUProvinsiNotActive();\r\n        _kpuProvinsi[Address].isActive = false;\r\n        emit KPUProvinsiDeactivated(Address);\r\n    }\r\n\r\n    function deactivateKPUKota(address Address) external override onlyKpuAdmin {\r\n        if (!_kpuKota[Address].isActive) revert KPUKotaNotActive();\r\n        _kpuKota[Address].isActive = false;\r\n        emit KPUKotaDeactivated(Address);\r\n    }\r\n\r\n    // Helper functions for other contracts\r\n    function isKPUKota(address kpuAddress) external view override returns (bool) {\r\n        return _kpuKota[kpuAddress].isActive;\r\n    }\r\n\r\n    function isKPUProvinsi(address kpuAddress) external view override returns (bool) {\r\n        return _kpuProvinsi[kpuAddress].isActive;\r\n    }\r\n\r\n    function getKpuKotaRegion(address kpuAddress) external view override returns (string memory) {\r\n        return _kpuKota[kpuAddress].region;\r\n    }\r\n\r\n    function getAllKPUProvinsi() external view returns (KPUProvinsi[] memory) {\r\n        return kpuProvinsiAddressesArray;\r\n    }\r\n\r\n    function getAllKPUKota() external view returns (KPUKota[] memory) {\r\n        return kpuKotaAddressesArray;\r\n    }\r\n\r\n    function getKpuProvinsiByAddress(address Address) external view returns (KPUProvinsi memory) {\r\n        if (!_kpuProvinsi[Address].isActive) revert KPUProvinsiNotActive();\r\n        return _kpuProvinsi[Address];\r\n    }\r\n\r\n    function getKpuKotaByAddress(address Address) external view returns (KPUKota memory) {\r\n        if (!_kpuKota[Address].isActive) revert KPUKotaNotActive();\r\n        return _kpuKota[Address];\r\n    }\r\n}\r\n",
  "sourcePath": "C:\\Users\\bbyas\\Documents\\Kuliah\\Skripsi\\backend\\votechain-contract\\contracts\\KPUManager.sol",
  "compiler": {
    "name": "solc",
    "version": "0.8.25+commit.b61c2a91.Emscripten.clang"
  },
  "schemaVersion": "3.4.16",
  "updatedAt": "2025-04-11T06:23:27.369Z",
  "networkType": "ethereum",
  "devdoc": {
    "kind": "dev",
    "methods": {},
    "version": 1
  },
  "userdoc": {
    "kind": "user",
    "methods": {},
    "version": 1
  }
}