{
  "contractName": "MinimalForwarder",
  "abi": [
    {
      "inputs": [],
      "stateMutability": "nonpayable",
      "type": "constructor"
    },
    {
      "inputs": [],
      "name": "ECDSAInvalidSignature",
      "type": "error"
    },
    {
      "inputs": [
        {
          "internalType": "uint256",
          "name": "length",
          "type": "uint256"
        }
      ],
      "name": "ECDSAInvalidSignatureLength",
      "type": "error"
    },
    {
      "inputs": [
        {
          "internalType": "bytes32",
          "name": "s",
          "type": "bytes32"
        }
      ],
      "name": "ECDSAInvalidSignatureS",
      "type": "error"
    },
    {
      "inputs": [],
      "name": "InvalidShortString",
      "type": "error"
    },
    {
      "inputs": [
        {
          "internalType": "string",
          "name": "str",
          "type": "string"
        }
      ],
      "name": "StringTooLong",
      "type": "error"
    },
    {
      "anonymous": false,
      "inputs": [],
      "name": "EIP712DomainChanged",
      "type": "event"
    },
    {
      "anonymous": false,
      "inputs": [
        {
          "indexed": true,
          "internalType": "address",
          "name": "from",
          "type": "address"
        },
        {
          "indexed": true,
          "internalType": "address",
          "name": "to",
          "type": "address"
        },
        {
          "indexed": false,
          "internalType": "uint256",
          "name": "value",
          "type": "uint256"
        },
        {
          "indexed": false,
          "internalType": "uint256",
          "name": "nonce",
          "type": "uint256"
        },
        {
          "indexed": false,
          "internalType": "bool",
          "name": "success",
          "type": "bool"
        },
        {
          "indexed": false,
          "internalType": "bytes",
          "name": "returnData",
          "type": "bytes"
        }
      ],
      "name": "MetaTransactionExecuted",
      "type": "event"
    },
    {
      "inputs": [],
      "name": "eip712Domain",
      "outputs": [
        {
          "internalType": "bytes1",
          "name": "fields",
          "type": "bytes1"
        },
        {
          "internalType": "string",
          "name": "name",
          "type": "string"
        },
        {
          "internalType": "string",
          "name": "version",
          "type": "string"
        },
        {
          "internalType": "uint256",
          "name": "chainId",
          "type": "uint256"
        },
        {
          "internalType": "address",
          "name": "verifyingContract",
          "type": "address"
        },
        {
          "internalType": "bytes32",
          "name": "salt",
          "type": "bytes32"
        },
        {
          "internalType": "uint256[]",
          "name": "extensions",
          "type": "uint256[]"
        }
      ],
      "stateMutability": "view",
      "type": "function",
      "constant": true
    },
    {
      "stateMutability": "payable",
      "type": "receive",
      "payable": true
    },
    {
      "inputs": [
        {
          "internalType": "address",
          "name": "from",
          "type": "address"
        }
      ],
      "name": "getNonce",
      "outputs": [
        {
          "internalType": "uint256",
          "name": "",
          "type": "uint256"
        }
      ],
      "stateMutability": "view",
      "type": "function",
      "constant": true
    },
    {
      "inputs": [
        {
          "components": [
            {
              "internalType": "address",
              "name": "from",
              "type": "address"
            },
            {
              "internalType": "address",
              "name": "to",
              "type": "address"
            },
            {
              "internalType": "uint256",
              "name": "value",
              "type": "uint256"
            },
            {
              "internalType": "uint256",
              "name": "gas",
              "type": "uint256"
            },
            {
              "internalType": "uint256",
              "name": "nonce",
              "type": "uint256"
            },
            {
              "internalType": "bytes",
              "name": "data",
              "type": "bytes"
            },
            {
              "internalType": "uint256",
              "name": "validUntilTime",
              "type": "uint256"
            }
          ],
          "internalType": "struct MinimalForwarder.ForwardRequest",
          "name": "req",
          "type": "tuple"
        },
        {
          "internalType": "bytes",
          "name": "signature",
          "type": "bytes"
        }
      ],
      "name": "verify",
      "outputs": [
        {
          "internalType": "bool",
          "name": "",
          "type": "bool"
        }
      ],
      "stateMutability": "view",
      "type": "function",
      "constant": true
    },
    {
      "inputs": [
        {
          "components": [
            {
              "internalType": "address",
              "name": "from",
              "type": "address"
            },
            {
              "internalType": "address",
              "name": "to",
              "type": "address"
            },
            {
              "internalType": "uint256",
              "name": "value",
              "type": "uint256"
            },
            {
              "internalType": "uint256",
              "name": "gas",
              "type": "uint256"
            },
            {
              "internalType": "uint256",
              "name": "nonce",
              "type": "uint256"
            },
            {
              "internalType": "bytes",
              "name": "data",
              "type": "bytes"
            },
            {
              "internalType": "uint256",
              "name": "validUntilTime",
              "type": "uint256"
            }
          ],
          "internalType": "struct MinimalForwarder.ForwardRequest",
          "name": "req",
          "type": "tuple"
        },
        {
          "internalType": "bytes",
          "name": "signature",
          "type": "bytes"
        }
      ],
      "name": "execute",
      "outputs": [
        {
          "internalType": "bool",
          "name": "success",
          "type": "bool"
        },
        {
          "internalType": "bytes",
          "name": "returnData",
          "type": "bytes"
        }
      ],
      "stateMutability": "payable",
      "type": "function",
      "payable": true
    },
    {
      "inputs": [
        {
          "components": [
            {
              "internalType": "address",
              "name": "from",
              "type": "address"
            },
            {
              "internalType": "address",
              "name": "to",
              "type": "address"
            },
            {
              "internalType": "uint256",
              "name": "value",
              "type": "uint256"
            },
            {
              "internalType": "uint256",
              "name": "gas",
              "type": "uint256"
            },
            {
              "internalType": "uint256",
              "name": "nonce",
              "type": "uint256"
            },
            {
              "internalType": "bytes",
              "name": "data",
              "type": "bytes"
            },
            {
              "internalType": "uint256",
              "name": "validUntilTime",
              "type": "uint256"
            }
          ],
          "internalType": "struct MinimalForwarder.ForwardRequest[]",
          "name": "reqs",
          "type": "tuple[]"
        },
        {
          "internalType": "bytes[]",
          "name": "signatures",
          "type": "bytes[]"
        }
      ],
      "name": "executeBatch",
      "outputs": [],
      "stateMutability": "payable",
      "type": "function",
      "payable": true
    },
    {
      "inputs": [
        {
          "internalType": "address payable",
          "name": "to",
          "type": "address"
        },
        {
          "internalType": "uint256",
          "name": "amount",
          "type": "uint256"
        }
      ],
      "name": "withdraw",
      "outputs": [],
      "stateMutability": "nonpayable",
      "type": "function"
    }
  ],
  "bytecode": "0x61016060405234801561001157600080fd5b50604080518082018252601081526f26b4b734b6b0b62337b93bb0b93232b960811b60208083019190915282518084019093526005835264302e302e3160d81b908301529061006182600061010b565b6101205261007081600161010b565b61014052815160208084019190912060e052815190820120610100524660a0526100fd60e05161010051604080517f8b73c3c69bb8fe3d512ecc4cf759cc79239f7b179b0ffacaa9a75d522b39400f60208201529081019290925260608201524660808201523060a082015260009060c00160405160208183030381529060405280519060200120905090565b60805250503060c052610358565b6000602083511015610127576101208361013e565b9050610138565b816101328482610226565b5060ff90505b92915050565b600080829050601f81511115610172578260405163305a27a960e01b815260040161016991906102e5565b60405180910390fd5b805161017d82610334565b179392505050565b634e487b7160e01b600052604160045260246000fd5b600181811c908216806101af57607f821691505b6020821081036101cf57634e487b7160e01b600052602260045260246000fd5b50919050565b601f821115610221576000816000526020600020601f850160051c810160208610156101fe5750805b601f850160051c820191505b8181101561021d5782815560010161020a565b5050505b505050565b81516001600160401b0381111561023f5761023f610185565b6102538161024d845461019b565b846101d5565b602080601f83116001811461028857600084156102705750858301515b600019600386901b1c1916600185901b17855561021d565b600085815260208120601f198616915b828110156102b757888601518255948401946001909101908401610298565b50858210156102d55787850151600019600388901b60f8161c191681555b5050505050600190811b01905550565b60006020808352835180602085015260005b81811015610313578581018301518582016040015282016102f7565b506000604082860101526040601f19601f8301168501019250505092915050565b805160208083015191908110156101cf5760001960209190910360031b1b16919050565b60805160a05160c05160e0516101005161012051610140516110496103b2600039600061078301526000610751015260006108830152600061085b015260006107b6015260006107e00152600061080a01526110496000f3fe6080604052600436106100595760003560e01c8063019fe885146100655780632d0335ab1461009a57806344d46c8e146100de57806384b0196e146100ff578063f3fef3a314610127578063fa5cc7291461014957600080fd5b3661006057005b600080fd5b34801561007157600080fd5b50610085610080366004610bbf565b61015c565b60405190151581526020015b60405180910390f35b3480156100a657600080fd5b506100d06100b5366004610c76565b6001600160a01b031660009081526002602052604090205490565b604051908152602001610091565b6100f16100ec366004610bbf565b6102f8565b604051610091929190610cea565b34801561010b57600080fd5b5061011461055d565b6040516100919796959493929190610d0d565b34801561013357600080fd5b50610147610142366004610da6565b6105a3565b005b610147610157366004610e1e565b61062d565b60008061027c84848080601f01602080910402602001604051908101604052809392919081815260200183838082843760009201919091525061027692507fb91ae508e6f0e8e33913dec60d2fdcb39fe037ce56198c70a7927d7cd813fd9691506101cc905060208a018a610c76565b6101dc60408b0160208c01610c76565b60408b013560608c013560808d01356101f860a08f018f610e8a565b604051610206929190610ed1565b6040805191829003822060208301989098526001600160a01b0396871690820152939094166060840152608083019190915260a082015260c08082019290925260e081019290925289013561010082015261012001604051602081830303815290604052805190602001206106ed565b90610720565b90506080850135600260006102946020890189610c76565b6001600160a01b03166001600160a01b03168152602001908152602001600020541480156102df57506102ca6020860186610c76565b6001600160a01b0316816001600160a01b0316145b80156102ef5750428560c0013510155b95945050505050565b6000606061030785858561015c565b6103735760405162461bcd60e51b815260206004820152603260248201527f4d696e696d616c466f727761726465723a207369676e617475726520646f6573604482015271081b9bdd081b585d18da081c995c5d595cdd60721b60648201526084015b60405180910390fd5b428560c0013510156103d15760405162461bcd60e51b815260206004820152602160248201527f4d696e696d616c466f727761726465723a2072657175657374206578706972656044820152601960fa1b606482015260840161036a565b6103e060808601356001610ee1565b600260006103f16020890189610c76565b6001600160a01b03166001600160a01b03168152602001908152602001600020819055508460200160208101906104289190610c76565b6001600160a01b03166060860135604087013561044860a0890189610e8a565b61045560208b018b610c76565b60405160200161046793929190610f02565b60408051601f198184030181529082905261048191610f28565b600060405180830381858888f193505050503d80600081146104bf576040519150601f19603f3d011682016040523d82523d6000602084013e6104c4565b606091505b5090925090506104d9603f6060870135610f44565b5a116104e157fe5b6104f16040860160208701610c76565b6001600160a01b03166105076020870187610c76565b6001600160a01b03167fac3c57bb961e309e0c388acc92cc14ba4265ae1e758ecc815b5ce73790de7ed887604001358860800135868660405161054d9493929190610f66565b60405180910390a3935093915050565b60006060806000806000606061057161074a565b61057961077c565b60408051600080825260208201909252600f60f81b9b939a50919850469750309650945092509050565b3330146105f25760405162461bcd60e51b815260206004820152601b60248201527f4d696e696d616c466f727761726465723a206f6e6c792073656c660000000000604482015260640161036a565b6040516001600160a01b0383169082156108fc029083906000818181858888f19350505050158015610628573d6000803e3d6000fd5b505050565b8281146106865760405162461bcd60e51b815260206004820152602160248201527f4d696e696d616c466f727761726465723a206c656e677468206d69736d6174636044820152600d60fb1b606482015260840161036a565b60005b838110156106e6576106dc8585838181106106a6576106a6610f97565b90506020028101906106b89190610fad565b8484848181106106ca576106ca610f97565b90506020028101906100ec9190610e8a565b5050600101610689565b5050505050565b600061071a6106fa6107a9565b8360405161190160f01b8152600281019290925260228201526042902090565b92915050565b60008060008061073086866108d4565b9250925092506107408282610921565b5090949350505050565b60606107777f000000000000000000000000000000000000000000000000000000000000000060006109de565b905090565b60606107777f000000000000000000000000000000000000000000000000000000000000000060016109de565b6000306001600160a01b037f00000000000000000000000000000000000000000000000000000000000000001614801561080257507f000000000000000000000000000000000000000000000000000000000000000046145b1561082c57507f000000000000000000000000000000000000000000000000000000000000000090565b610777604080517f8b73c3c69bb8fe3d512ecc4cf759cc79239f7b179b0ffacaa9a75d522b39400f60208201527f0000000000000000000000000000000000000000000000000000000000000000918101919091527f000000000000000000000000000000000000000000000000000000000000000060608201524660808201523060a082015260009060c00160405160208183030381529060405280519060200120905090565b6000806000835160410361090e5760208401516040850151606086015160001a61090088828585610a89565b95509550955050505061091a565b50508151600091506002905b9250925092565b600082600381111561093557610935610fc3565b0361093e575050565b600182600381111561095257610952610fc3565b036109705760405163f645eedf60e01b815260040160405180910390fd5b600282600381111561098457610984610fc3565b036109a55760405163fce698f760e01b81526004810182905260240161036a565b60038260038111156109b9576109b9610fc3565b036109da576040516335e2f38360e21b81526004810182905260240161036a565b5050565b606060ff83146109f8576109f183610b58565b905061071a565b818054610a0490610fd9565b80601f0160208091040260200160405190810160405280929190818152602001828054610a3090610fd9565b8015610a7d5780601f10610a5257610100808354040283529160200191610a7d565b820191906000526020600020905b815481529060010190602001808311610a6057829003601f168201915b5050505050905061071a565b600080807f7fffffffffffffffffffffffffffffff5d576e7357a4501ddfe92f46681b20a0841115610ac45750600091506003905082610b4e565b604080516000808252602082018084528a905260ff891692820192909252606081018790526080810186905260019060a0016020604051602081039080840390855afa158015610b18573d6000803e3d6000fd5b5050604051601f1901519150506001600160a01b038116610b4457506000925060019150829050610b4e565b9250600091508190505b9450945094915050565b60606000610b6583610b97565b604080516020808252818301909252919250600091906020820181803683375050509182525060208101929092525090565b600060ff8216601f81111561071a57604051632cd44ac360e21b815260040160405180910390fd5b600080600060408486031215610bd457600080fd5b833567ffffffffffffffff80821115610bec57600080fd5b9085019060e08288031215610c0057600080fd5b90935060208501359080821115610c1657600080fd5b818601915086601f830112610c2a57600080fd5b813581811115610c3957600080fd5b876020828501011115610c4b57600080fd5b6020830194508093505050509250925092565b6001600160a01b0381168114610c7357600080fd5b50565b600060208284031215610c8857600080fd5b8135610c9381610c5e565b9392505050565b60005b83811015610cb5578181015183820152602001610c9d565b50506000910152565b60008151808452610cd6816020860160208601610c9a565b601f01601f19169290920160200192915050565b8215158152604060208201526000610d056040830184610cbe565b949350505050565b60ff60f81b881681526000602060e06020840152610d2e60e084018a610cbe565b8381036040850152610d40818a610cbe565b606085018990526001600160a01b038816608086015260a0850187905284810360c08601528551808252602080880193509091019060005b81811015610d9457835183529284019291840191600101610d78565b50909c9b505050505050505050505050565b60008060408385031215610db957600080fd5b8235610dc481610c5e565b946020939093013593505050565b60008083601f840112610de457600080fd5b50813567ffffffffffffffff811115610dfc57600080fd5b6020830191508360208260051b8501011115610e1757600080fd5b9250929050565b60008060008060408587031215610e3457600080fd5b843567ffffffffffffffff80821115610e4c57600080fd5b610e5888838901610dd2565b90965094506020870135915080821115610e7157600080fd5b50610e7e87828801610dd2565b95989497509550505050565b6000808335601e19843603018112610ea157600080fd5b83018035915067ffffffffffffffff821115610ebc57600080fd5b602001915036819003821315610e1757600080fd5b8183823760009101908152919050565b8082018082111561071a57634e487b7160e01b600052601160045260246000fd5b8284823760609190911b6bffffffffffffffffffffffff19169101908152601401919050565b60008251610f3a818460208701610c9a565b9190910192915050565b600082610f6157634e487b7160e01b600052601260045260246000fd5b500490565b8481528360208201528215156040820152608060608201526000610f8d6080830184610cbe565b9695505050505050565b634e487b7160e01b600052603260045260246000fd5b6000823560de19833603018112610f3a57600080fd5b634e487b7160e01b600052602160045260246000fd5b600181811c90821680610fed57607f821691505b60208210810361100d57634e487b7160e01b600052602260045260246000fd5b5091905056fea26469706673582212202e48cb3963d3d321d426756405fd539addde79760074ac4b003c716126d7e99664736f6c63430008190033",
  "immutableReferences": {
    "2188": [
      {
        "length": 32,
        "start": 2058
      }
    ],
    "2190": [
      {
        "length": 32,
        "start": 2016
      }
    ],
    "2192": [
      {
        "length": 32,
        "start": 1974
      }
    ],
    "2194": [
      {
        "length": 32,
        "start": 2139
      }
    ],
    "2196": [
      {
        "length": 32,
        "start": 2179
      }
    ],
    "2199": [
      {
        "length": 32,
        "start": 1873
      }
    ],
    "2202": [
      {
        "length": 32,
        "start": 1923
      }
    ]
  },
  "source": "// SPDX-License-Identifier: MIT\r\npragma solidity ^0.8.25;\r\n\r\nimport \"@openzeppelin/contracts/utils/cryptography/ECDSA.sol\";\r\nimport \"@openzeppelin/contracts/utils/cryptography/EIP712.sol\";\r\n\r\n/**\r\n * @title MinimalForwarder\r\n * @dev Simple forwarder contract for meta-transactions (gasless transactions)\r\n * This contract allows users to sign meta-transactions that can be executed by relayers\r\n */\r\ncontract MinimalForwarder is EIP712 {\r\n    using ECDSA for bytes32;\r\n\r\n    struct ForwardRequest {\r\n        address from;\r\n        address to;\r\n        uint256 value;\r\n        uint256 gas;\r\n        uint256 nonce;\r\n        bytes data;\r\n        uint256 validUntilTime;\r\n    }\r\n\r\n    bytes32 private constant _TYPEHASH =\r\n    keccak256(\"ForwardRequest(address from,address to,uint256 value,uint256 gas,uint256 nonce,bytes data,uint256 validUntilTime)\");\r\n\r\n    mapping(address => uint256) private _nonces;\r\n\r\n    event MetaTransactionExecuted(\r\n        address indexed from,\r\n        address indexed to,\r\n        uint256 value,\r\n        uint256 nonce,\r\n        bool success,\r\n        bytes returnData\r\n    );\r\n\r\n    constructor() EIP712(\"MinimalForwarder\", \"0.0.1\") {}\r\n\r\n    /**\r\n     * @dev Get the current nonce for an address\r\n     */\r\n    function getNonce(address from) public view returns (uint256) {\r\n        return _nonces[from];\r\n    }\r\n\r\n    /**\r\n     * @dev Verify a forward request signature\r\n     */\r\n    function verify(ForwardRequest calldata req, bytes calldata signature)\r\n    public\r\n    view\r\n    returns (bool)\r\n    {\r\n        address signer = _hashTypedDataV4(\r\n            keccak256(abi.encode(\r\n                _TYPEHASH,\r\n                req.from,\r\n                req.to,\r\n                req.value,\r\n                req.gas,\r\n                req.nonce,\r\n                keccak256(req.data),\r\n                req.validUntilTime\r\n            ))\r\n        ).recover(signature);\r\n\r\n        return _nonces[req.from] == req.nonce &&\r\n        signer == req.from &&\r\n            req.validUntilTime >= block.timestamp;\r\n    }\r\n\r\n    /**\r\n     * @dev Execute a forward request\r\n     */\r\n    function execute(ForwardRequest calldata req, bytes calldata signature)\r\n    public\r\n    payable\r\n    returns (bool success, bytes memory returnData)\r\n    {\r\n        require(verify(req, signature), \"MinimalForwarder: signature does not match request\");\r\n        require(req.validUntilTime >= block.timestamp, \"MinimalForwarder: request expired\");\r\n\r\n        _nonces[req.from] = req.nonce + 1;\r\n\r\n        // Execute the call\r\n        (success, returnData) = req.to.call{gas: req.gas, value: req.value}(\r\n            abi.encodePacked(req.data, req.from)\r\n        );\r\n\r\n        // Validate that the relayer has sent enough gas for the call\r\n        // See https://ronan.eth.link/blog/ethereum-gas-dangers/\r\n        if (gasleft() <= req.gas / 63) {\r\n            // We explicitly trigger invalid opcode to consume all gas and bubble-up the effects, since\r\n            // neither revert or assert consume all gas since Solidity 0.8.0\r\n            // https://docs.soliditylang.org/en/v0.8.0/control-structures.html#panic-via-assert-and-error-via-require\r\n            assembly {\r\n                invalid()\r\n            }\r\n        }\r\n\r\n        emit MetaTransactionExecuted(\r\n            req.from,\r\n            req.to,\r\n            req.value,\r\n            req.nonce,\r\n            success,\r\n            returnData\r\n        );\r\n    }\r\n\r\n    /**\r\n     * @dev Execute multiple forward requests in a single transaction\r\n     */\r\n    function executeBatch(\r\n        ForwardRequest[] calldata reqs,\r\n        bytes[] calldata signatures\r\n    ) external payable {\r\n        require(reqs.length == signatures.length, \"MinimalForwarder: length mismatch\");\r\n\r\n        for (uint256 i = 0; i < reqs.length; i++) {\r\n            execute(reqs[i], signatures[i]);\r\n        }\r\n    }\r\n\r\n    /**\r\n     * @dev Allow the contract to receive Ether\r\n     */\r\n    receive() external payable {}\r\n\r\n    /**\r\n     * @dev Emergency function to withdraw stuck Ether (only if needed)\r\n     */\r\n    function withdraw(address payable to, uint256 amount) external {\r\n        require(msg.sender == address(this), \"MinimalForwarder: only self\");\r\n        to.transfer(amount);\r\n    }\r\n}",
  "sourcePath": "C:\\Users\\bbyas\\Documents\\Kuliah\\Skripsi\\backend\\votechain-contract\\contracts\\MinimalForwarder.sol",
  "compiler": {
    "name": "solc",
    "version": "0.8.25+commit.b61c2a91.Emscripten.clang"
  },
  "schemaVersion": "3.4.16",
  "updatedAt": "2025-06-19T07:26:19.346Z",
  "networkType": "ethereum",
  "devdoc": {
    "details": "Simple forwarder contract for meta-transactions (gasless transactions) This contract allows users to sign meta-transactions that can be executed by relayers",
    "errors": {
      "ECDSAInvalidSignature()": [
        {
          "details": "The signature derives the `address(0)`."
        }
      ],
      "ECDSAInvalidSignatureLength(uint256)": [
        {
          "details": "The signature has an invalid length."
        }
      ],
      "ECDSAInvalidSignatureS(bytes32)": [
        {
          "details": "The signature has an S value that is in the upper half order."
        }
      ]
    },
    "events": {
      "EIP712DomainChanged()": {
        "details": "MAY be emitted to signal that the domain could have changed."
      }
    },
    "kind": "dev",
    "methods": {
      "eip712Domain()": {
        "details": "returns the fields and values that describe the domain separator used by this contract for EIP-712 signature."
      },
      "execute((address,address,uint256,uint256,uint256,bytes,uint256),bytes)": {
        "details": "Execute a forward request"
      },
      "executeBatch((address,address,uint256,uint256,uint256,bytes,uint256)[],bytes[])": {
        "details": "Execute multiple forward requests in a single transaction"
      },
      "getNonce(address)": {
        "details": "Get the current nonce for an address"
      },
      "verify((address,address,uint256,uint256,uint256,bytes,uint256),bytes)": {
        "details": "Verify a forward request signature"
      },
      "withdraw(address,uint256)": {
        "details": "Emergency function to withdraw stuck Ether (only if needed)"
      }
    },
    "title": "MinimalForwarder",
    "version": 1
  },
  "userdoc": {
    "kind": "user",
    "methods": {},
    "version": 1
  }
}