{
  "contractName": "Votechain",
  "abi": [
    {
      "inputs": [],
      "stateMutability": "nonpayable",
      "type": "constructor"
    },
    {
      "inputs": [],
      "name": "AddressAlreadyRegistered",
      "type": "error"
    },
    {
      "inputs": [],
      "name": "AlreadyVoted",
      "type": "error"
    },
    {
      "inputs": [],
      "name": "BranchAlreadyRegistered",
      "type": "error"
    },
    {
      "inputs": [],
      "name": "BranchNotActive",
      "type": "error"
    },
    {
      "inputs": [],
      "name": "CandidateAlreadyExists",
      "type": "error"
    },
    {
      "inputs": [],
      "name": "InvalidCandidate",
      "type": "error"
    },
    {
      "inputs": [],
      "name": "OnlyKpuAdmin",
      "type": "error"
    },
    {
      "inputs": [],
      "name": "OnlyKpuBranch",
      "type": "error"
    },
    {
      "inputs": [],
      "name": "UnauthorizedVoter",
      "type": "error"
    },
    {
      "inputs": [],
      "name": "VoterAlreadyRegistered",
      "type": "error"
    },
    {
      "inputs": [],
      "name": "VoterNotRegistered",
      "type": "error"
    },
    {
      "inputs": [],
      "name": "VotingNotActive",
      "type": "error"
    },
    {
      "anonymous": false,
      "inputs": [
        {
          "indexed": true,
          "internalType": "string",
          "name": "candidateId",
          "type": "string"
        },
        {
          "indexed": false,
          "internalType": "string",
          "name": "name",
          "type": "string"
        }
      ],
      "name": "CandidateAdded",
      "type": "event"
    },
    {
      "anonymous": false,
      "inputs": [
        {
          "indexed": true,
          "internalType": "string",
          "name": "candidateId",
          "type": "string"
        },
        {
          "indexed": false,
          "internalType": "bool",
          "name": "isActive",
          "type": "bool"
        }
      ],
      "name": "CandidateStatusChanged",
      "type": "event"
    },
    {
      "anonymous": false,
      "inputs": [
        {
          "indexed": true,
          "internalType": "address",
          "name": "branchAddress",
          "type": "address"
        }
      ],
      "name": "KPUBranchDeactivated",
      "type": "event"
    },
    {
      "anonymous": false,
      "inputs": [
        {
          "indexed": true,
          "internalType": "address",
          "name": "branchAddress",
          "type": "address"
        },
        {
          "indexed": false,
          "internalType": "string",
          "name": "name",
          "type": "string"
        },
        {
          "indexed": false,
          "internalType": "string",
          "name": "region",
          "type": "string"
        }
      ],
      "name": "KPUBranchRegistered",
      "type": "event"
    },
    {
      "anonymous": false,
      "inputs": [
        {
          "indexed": true,
          "internalType": "string",
          "name": "nik",
          "type": "string"
        },
        {
          "indexed": true,
          "internalType": "string",
          "name": "candidateId",
          "type": "string"
        }
      ],
      "name": "VoteCasted",
      "type": "event"
    },
    {
      "anonymous": false,
      "inputs": [
        {
          "indexed": true,
          "internalType": "string",
          "name": "nik",
          "type": "string"
        },
        {
          "indexed": true,
          "internalType": "address",
          "name": "voterAddress",
          "type": "address"
        },
        {
          "indexed": false,
          "internalType": "string",
          "name": "region",
          "type": "string"
        }
      ],
      "name": "VoterRegistered",
      "type": "event"
    },
    {
      "anonymous": false,
      "inputs": [
        {
          "indexed": false,
          "internalType": "bool",
          "name": "isActive",
          "type": "bool"
        }
      ],
      "name": "VotingStatusChanged",
      "type": "event"
    },
    {
      "inputs": [
        {
          "internalType": "uint256",
          "name": "",
          "type": "uint256"
        }
      ],
      "name": "candidateAddressesArray",
      "outputs": [
        {
          "internalType": "string",
          "name": "id",
          "type": "string"
        },
        {
          "internalType": "string",
          "name": "name",
          "type": "string"
        },
        {
          "internalType": "string",
          "name": "candidateNo",
          "type": "string"
        },
        {
          "internalType": "uint256",
          "name": "voteCount",
          "type": "uint256"
        },
        {
          "internalType": "bool",
          "name": "isActive",
          "type": "bool"
        }
      ],
      "stateMutability": "view",
      "type": "function",
      "constant": true
    },
    {
      "inputs": [
        {
          "internalType": "string",
          "name": "",
          "type": "string"
        }
      ],
      "name": "candidates",
      "outputs": [
        {
          "internalType": "string",
          "name": "id",
          "type": "string"
        },
        {
          "internalType": "string",
          "name": "name",
          "type": "string"
        },
        {
          "internalType": "string",
          "name": "candidateNo",
          "type": "string"
        },
        {
          "internalType": "uint256",
          "name": "voteCount",
          "type": "uint256"
        },
        {
          "internalType": "bool",
          "name": "isActive",
          "type": "bool"
        }
      ],
      "stateMutability": "view",
      "type": "function",
      "constant": true
    },
    {
      "inputs": [],
      "name": "kpuAdmin",
      "outputs": [
        {
          "internalType": "address",
          "name": "",
          "type": "address"
        }
      ],
      "stateMutability": "view",
      "type": "function",
      "constant": true
    },
    {
      "inputs": [
        {
          "internalType": "uint256",
          "name": "",
          "type": "uint256"
        }
      ],
      "name": "kpuBranchAddressesArray",
      "outputs": [
        {
          "internalType": "string",
          "name": "name",
          "type": "string"
        },
        {
          "internalType": "address",
          "name": "branchAddress",
          "type": "address"
        },
        {
          "internalType": "bool",
          "name": "isActive",
          "type": "bool"
        },
        {
          "internalType": "string",
          "name": "region",
          "type": "string"
        }
      ],
      "stateMutability": "view",
      "type": "function",
      "constant": true
    },
    {
      "inputs": [
        {
          "internalType": "address",
          "name": "",
          "type": "address"
        }
      ],
      "name": "kpuBranches",
      "outputs": [
        {
          "internalType": "string",
          "name": "name",
          "type": "string"
        },
        {
          "internalType": "address",
          "name": "branchAddress",
          "type": "address"
        },
        {
          "internalType": "bool",
          "name": "isActive",
          "type": "bool"
        },
        {
          "internalType": "string",
          "name": "region",
          "type": "string"
        }
      ],
      "stateMutability": "view",
      "type": "function",
      "constant": true
    },
    {
      "inputs": [
        {
          "internalType": "uint256",
          "name": "",
          "type": "uint256"
        }
      ],
      "name": "voterAddressesArray",
      "outputs": [
        {
          "internalType": "string",
          "name": "nik",
          "type": "string"
        },
        {
          "internalType": "address",
          "name": "voterAddress",
          "type": "address"
        },
        {
          "internalType": "bool",
          "name": "hasVoted",
          "type": "bool"
        },
        {
          "internalType": "string",
          "name": "region",
          "type": "string"
        },
        {
          "internalType": "bool",
          "name": "isRegistered",
          "type": "bool"
        }
      ],
      "stateMutability": "view",
      "type": "function",
      "constant": true
    },
    {
      "inputs": [
        {
          "internalType": "address",
          "name": "",
          "type": "address"
        }
      ],
      "name": "voterNIKByAddress",
      "outputs": [
        {
          "internalType": "string",
          "name": "",
          "type": "string"
        }
      ],
      "stateMutability": "view",
      "type": "function",
      "constant": true
    },
    {
      "inputs": [
        {
          "internalType": "string",
          "name": "",
          "type": "string"
        }
      ],
      "name": "voters",
      "outputs": [
        {
          "internalType": "string",
          "name": "nik",
          "type": "string"
        },
        {
          "internalType": "address",
          "name": "voterAddress",
          "type": "address"
        },
        {
          "internalType": "bool",
          "name": "hasVoted",
          "type": "bool"
        },
        {
          "internalType": "string",
          "name": "region",
          "type": "string"
        },
        {
          "internalType": "bool",
          "name": "isRegistered",
          "type": "bool"
        }
      ],
      "stateMutability": "view",
      "type": "function",
      "constant": true
    },
    {
      "inputs": [],
      "name": "votingActive",
      "outputs": [
        {
          "internalType": "bool",
          "name": "",
          "type": "bool"
        }
      ],
      "stateMutability": "view",
      "type": "function",
      "constant": true
    },
    {
      "inputs": [
        {
          "internalType": "address",
          "name": "branchAddress",
          "type": "address"
        },
        {
          "internalType": "string",
          "name": "name",
          "type": "string"
        },
        {
          "internalType": "string",
          "name": "region",
          "type": "string"
        }
      ],
      "name": "registerKPUBranch",
      "outputs": [],
      "stateMutability": "nonpayable",
      "type": "function"
    },
    {
      "inputs": [
        {
          "internalType": "address",
          "name": "branchAddress",
          "type": "address"
        }
      ],
      "name": "deactivateKPUBranch",
      "outputs": [],
      "stateMutability": "nonpayable",
      "type": "function"
    },
    {
      "inputs": [
        {
          "internalType": "string",
          "name": "nik",
          "type": "string"
        },
        {
          "internalType": "address",
          "name": "voterAddress",
          "type": "address"
        }
      ],
      "name": "registerVoter",
      "outputs": [],
      "stateMutability": "nonpayable",
      "type": "function"
    },
    {
      "inputs": [
        {
          "internalType": "string",
          "name": "candidateId",
          "type": "string"
        }
      ],
      "name": "vote",
      "outputs": [],
      "stateMutability": "nonpayable",
      "type": "function"
    },
    {
      "inputs": [
        {
          "internalType": "string",
          "name": "candidateId",
          "type": "string"
        },
        {
          "internalType": "string",
          "name": "name",
          "type": "string"
        },
        {
          "internalType": "string",
          "name": "candidateNo",
          "type": "string"
        }
      ],
      "name": "addCandidate",
      "outputs": [],
      "stateMutability": "nonpayable",
      "type": "function"
    },
    {
      "inputs": [
        {
          "internalType": "string",
          "name": "candidateId",
          "type": "string"
        }
      ],
      "name": "toggleCandidateActive",
      "outputs": [],
      "stateMutability": "nonpayable",
      "type": "function"
    },
    {
      "inputs": [
        {
          "internalType": "bool",
          "name": "status",
          "type": "bool"
        }
      ],
      "name": "setVotingStatus",
      "outputs": [],
      "stateMutability": "nonpayable",
      "type": "function"
    },
    {
      "inputs": [
        {
          "internalType": "address",
          "name": "newAdmin",
          "type": "address"
        }
      ],
      "name": "setKpuAdmin",
      "outputs": [],
      "stateMutability": "nonpayable",
      "type": "function"
    },
    {
      "inputs": [],
      "name": "getAllKPUBranches",
      "outputs": [
        {
          "components": [
            {
              "internalType": "string",
              "name": "name",
              "type": "string"
            },
            {
              "internalType": "address",
              "name": "branchAddress",
              "type": "address"
            },
            {
              "internalType": "bool",
              "name": "isActive",
              "type": "bool"
            },
            {
              "internalType": "string",
              "name": "region",
              "type": "string"
            }
          ],
          "internalType": "struct Votechain.KPUBranch[]",
          "name": "",
          "type": "tuple[]"
        }
      ],
      "stateMutability": "view",
      "type": "function",
      "constant": true
    },
    {
      "inputs": [
        {
          "internalType": "address",
          "name": "branchAddress",
          "type": "address"
        }
      ],
      "name": "getBranchByAddress",
      "outputs": [
        {
          "components": [
            {
              "internalType": "string",
              "name": "name",
              "type": "string"
            },
            {
              "internalType": "address",
              "name": "branchAddress",
              "type": "address"
            },
            {
              "internalType": "bool",
              "name": "isActive",
              "type": "bool"
            },
            {
              "internalType": "string",
              "name": "region",
              "type": "string"
            }
          ],
          "internalType": "struct Votechain.KPUBranch",
          "name": "",
          "type": "tuple"
        }
      ],
      "stateMutability": "view",
      "type": "function",
      "constant": true
    },
    {
      "inputs": [],
      "name": "getAllVoter",
      "outputs": [
        {
          "components": [
            {
              "internalType": "string",
              "name": "nik",
              "type": "string"
            },
            {
              "internalType": "address",
              "name": "voterAddress",
              "type": "address"
            },
            {
              "internalType": "bool",
              "name": "hasVoted",
              "type": "bool"
            },
            {
              "internalType": "string",
              "name": "region",
              "type": "string"
            },
            {
              "internalType": "bool",
              "name": "isRegistered",
              "type": "bool"
            }
          ],
          "internalType": "struct Votechain.Voter[]",
          "name": "",
          "type": "tuple[]"
        }
      ],
      "stateMutability": "view",
      "type": "function",
      "constant": true
    },
    {
      "inputs": [
        {
          "internalType": "string",
          "name": "nik",
          "type": "string"
        }
      ],
      "name": "getVoterByNIK",
      "outputs": [
        {
          "components": [
            {
              "internalType": "string",
              "name": "nik",
              "type": "string"
            },
            {
              "internalType": "address",
              "name": "voterAddress",
              "type": "address"
            },
            {
              "internalType": "bool",
              "name": "hasVoted",
              "type": "bool"
            },
            {
              "internalType": "string",
              "name": "region",
              "type": "string"
            },
            {
              "internalType": "bool",
              "name": "isRegistered",
              "type": "bool"
            }
          ],
          "internalType": "struct Votechain.Voter",
          "name": "",
          "type": "tuple"
        }
      ],
      "stateMutability": "view",
      "type": "function",
      "constant": true
    },
    {
      "inputs": [
        {
          "internalType": "address",
          "name": "voterAddress",
          "type": "address"
        }
      ],
      "name": "getVoterByAddress",
      "outputs": [
        {
          "components": [
            {
              "internalType": "string",
              "name": "nik",
              "type": "string"
            },
            {
              "internalType": "address",
              "name": "voterAddress",
              "type": "address"
            },
            {
              "internalType": "bool",
              "name": "hasVoted",
              "type": "bool"
            },
            {
              "internalType": "string",
              "name": "region",
              "type": "string"
            },
            {
              "internalType": "bool",
              "name": "isRegistered",
              "type": "bool"
            }
          ],
          "internalType": "struct Votechain.Voter",
          "name": "",
          "type": "tuple"
        }
      ],
      "stateMutability": "view",
      "type": "function",
      "constant": true
    },
    {
      "inputs": [
        {
          "internalType": "string",
          "name": "region",
          "type": "string"
        }
      ],
      "name": "getVoterByRegion",
      "outputs": [
        {
          "components": [
            {
              "internalType": "string",
              "name": "nik",
              "type": "string"
            },
            {
              "internalType": "address",
              "name": "voterAddress",
              "type": "address"
            },
            {
              "internalType": "bool",
              "name": "hasVoted",
              "type": "bool"
            },
            {
              "internalType": "string",
              "name": "region",
              "type": "string"
            },
            {
              "internalType": "bool",
              "name": "isRegistered",
              "type": "bool"
            }
          ],
          "internalType": "struct Votechain.Voter[]",
          "name": "",
          "type": "tuple[]"
        }
      ],
      "stateMutability": "view",
      "type": "function",
      "constant": true
    },
    {
      "inputs": [
        {
          "internalType": "string",
          "name": "candidateId",
          "type": "string"
        }
      ],
      "name": "getCandidate",
      "outputs": [
        {
          "components": [
            {
              "internalType": "string",
              "name": "id",
              "type": "string"
            },
            {
              "internalType": "string",
              "name": "name",
              "type": "string"
            },
            {
              "internalType": "string",
              "name": "candidateNo",
              "type": "string"
            },
            {
              "internalType": "uint256",
              "name": "voteCount",
              "type": "uint256"
            },
            {
              "internalType": "bool",
              "name": "isActive",
              "type": "bool"
            }
          ],
          "internalType": "struct Votechain.Candidate",
          "name": "",
          "type": "tuple"
        }
      ],
      "stateMutability": "view",
      "type": "function",
      "constant": true
    },
    {
      "inputs": [],
      "name": "getAllCandidates",
      "outputs": [
        {
          "components": [
            {
              "internalType": "string",
              "name": "id",
              "type": "string"
            },
            {
              "internalType": "string",
              "name": "name",
              "type": "string"
            },
            {
              "internalType": "string",
              "name": "candidateNo",
              "type": "string"
            },
            {
              "internalType": "uint256",
              "name": "voteCount",
              "type": "uint256"
            },
            {
              "internalType": "bool",
              "name": "isActive",
              "type": "bool"
            }
          ],
          "internalType": "struct Votechain.Candidate[]",
          "name": "",
          "type": "tuple[]"
        }
      ],
      "stateMutability": "view",
      "type": "function",
      "constant": true
    },
    {
      "inputs": [
        {
          "internalType": "string",
          "name": "candidateNo",
          "type": "string"
        }
      ],
      "name": "getCandidateByNo",
      "outputs": [
        {
          "components": [
            {
              "internalType": "string",
              "name": "id",
              "type": "string"
            },
            {
              "internalType": "string",
              "name": "name",
              "type": "string"
            },
            {
              "internalType": "string",
              "name": "candidateNo",
              "type": "string"
            },
            {
              "internalType": "uint256",
              "name": "voteCount",
              "type": "uint256"
            },
            {
              "internalType": "bool",
              "name": "isActive",
              "type": "bool"
            }
          ],
          "internalType": "struct Votechain.Candidate",
          "name": "",
          "type": "tuple"
        }
      ],
      "stateMutability": "view",
      "type": "function",
      "constant": true
    }
  ],
  "bytecode": "0x6080604052348015600f57600080fd5b50336000806101000a81548173ffffffffffffffffffffffffffffffffffffffff021916908373ffffffffffffffffffffffffffffffffffffffff16021790555061510d8061005f6000396000f3fe608060405234801561001057600080fd5b50600436106101ab576000357c0100000000000000000000000000000000000000000000000000000000900480639df86dc1116100fb578063e0d5343b116100b4578063f276669d1161008e578063f276669d14610524578063f44f4e1414610554578063fb4ab16414610572578063fc36e15b14610590576101ab565b8063e0d5343b14610494578063efe3b01b146104c4578063f0416e5f146104f4576101ab565b80639df86dc1146103a4578063ab165a3e146103c0578063ad71f8dc146103f3578063b0c9b9a01461040f578063c5539cc21461042d578063c7cb520a14610461576101ab565b8063408e2727116101685780634c361435116101425780634c3614351461030457806353fa2e64146103205780637478c9fe1461035457806389c7e39114610370576101ab565b8063408e27271461029a5780634a075de2146102b85780634bdd7585146102d4576101ab565b8063027d8514146101b05780631999a15f146101cc578063243eb6e0146101e85780632a70ecca146102185780632e6997fe1461024857806330503d0614610266575b600080fd5b6101ca60048036038101906101c59190613cc3565b6105ac565b005b6101e660048036038101906101e19190613d58565b610971565b005b61020260048036038101906101fd9190613d58565b610b4e565b60405161020f9190613eed565b60405180910390f35b610232600480360381019061022d9190613d58565b610e13565b60405161023f9190613f9b565b60405180910390f35b610250610ffe565b60405161025d9190614103565b60405180910390f35b610280600480360381019061027b9190614151565b611238565b6040516102919594939291906141e6565b60405180910390f35b6102a2611423565b6040516102af919061424e565b60405180910390f35b6102d260048036038101906102cd9190614269565b611436565b005b6102ee60048036038101906102e991906142c9565b6119b2565b6040516102fb9190613f9b565b60405180910390f35b61031e600480360381019061031991906142c9565b611ca2565b005b61033a60048036038101906103359190614426565b611e4e565b60405161034b95949392919061447e565b60405180910390f35b61036e6004803603810190610369919061450b565b611fe4565b005b61038a60048036038101906103859190614151565b6120bd565b60405161039b95949392919061447e565b60405180910390f35b6103be60048036038101906103b991906142c9565b61224d565b005b6103da60048036038101906103d591906142c9565b612315565b6040516103ea9493929190614538565b60405180910390f35b61040d6004803603810190610408919061458b565b612482565b005b610417612786565b604051610424919061476b565b60405180910390f35b61044760048036038101906104429190614426565b61297a565b6040516104589594939291906141e6565b60405180910390f35b61047b60048036038101906104769190614151565b612b6b565b60405161048b9493929190614538565b60405180910390f35b6104ae60048036038101906104a99190613d58565b612ce8565b6040516104bb91906148cc565b60405180910390f35b6104de60048036038101906104d991906142c9565b61305b565b6040516104eb9190614958565b60405180910390f35b61050e600480360381019061050991906142c9565b6132cf565b60405161051b919061497a565b60405180910390f35b61053e60048036038101906105399190613d58565b61336f565b60405161054b9190613eed565b60405180910390f35b61055c6135ee565b60405161056991906148cc565b60405180910390f35b61057a6137fd565b604051610587919061499c565b60405180910390f35b6105aa60048036038101906105a59190613d58565b613821565b005b60008054906101000a900473ffffffffffffffffffffffffffffffffffffffff1673ffffffffffffffffffffffffffffffffffffffff163373ffffffffffffffffffffffffffffffffffffffff1614610631576040517f8b8958dc00000000000000000000000000000000000000000000000000000000815260040160405180910390fd5b600260008673ffffffffffffffffffffffffffffffffffffffff1673ffffffffffffffffffffffffffffffffffffffff16815260200190815260200160002060010160149054906101000a900460ff16156106b8576040517fd3eede8600000000000000000000000000000000000000000000000000000000815260040160405180910390fd5b6000604051806080016040528086868080601f016020809104026020016040519081016040528093929190818152602001838380828437600081840152601f19601f8201169050808301925050505050505081526020018773ffffffffffffffffffffffffffffffffffffffff16815260200160011515815260200184848080601f016020809104026020016040519081016040528093929190818152602001838380828437600081840152601f19601f82011690508083019250505050505050815250905080600260008873ffffffffffffffffffffffffffffffffffffffff1673ffffffffffffffffffffffffffffffffffffffff16815260200190815260200160002060008201518160000190816107d39190614bc9565b5060208201518160010160006101000a81548173ffffffffffffffffffffffffffffffffffffffff021916908373ffffffffffffffffffffffffffffffffffffffff16021790555060408201518160010160146101000a81548160ff02191690831515021790555060608201518160020190816108509190614bc9565b50905050600581908060018154018082558091505060019003906000526020600020906003020160009091909190915060008201518160000190816108959190614bc9565b5060208201518160010160006101000a81548173ffffffffffffffffffffffffffffffffffffffff021916908373ffffffffffffffffffffffffffffffffffffffff16021790555060408201518160010160146101000a81548160ff02191690831515021790555060608201518160020190816109129190614bc9565b5050508573ffffffffffffffffffffffffffffffffffffffff167fc4e2c95246cc050bddc27763a59824d38df0df18e23f19099623d7e1618790f6868686866040516109619493929190614cc8565b60405180910390a2505050505050565b60008054906101000a900473ffffffffffffffffffffffffffffffffffffffff1673ffffffffffffffffffffffffffffffffffffffff163373ffffffffffffffffffffffffffffffffffffffff16146109f6576040517f8b8958dc00000000000000000000000000000000000000000000000000000000815260040160405180910390fd5b600060018383604051610a0a929190614d33565b90815260200160405180910390206000018054610a26906149e6565b905003610a5f576040517fe66ea08f00000000000000000000000000000000000000000000000000000000815260040160405180910390fd5b60018282604051610a71929190614d33565b908152602001604051809103902060040160009054906101000a900460ff161560018383604051610aa3929190614d33565b908152602001604051809103902060040160006101000a81548160ff0219169083151502179055508181604051610adb929190614d33565b60405180910390207f24a689d3938ff739c48065a7730e43e7433e0e64398d1a1cc828e7ab82913ff760018484604051610b16929190614d33565b908152602001604051809103902060040160009054906101000a900460ff16604051610b42919061424e565b60405180910390a25050565b610b56613b32565b60005b600780549050811015610dda578383604051610b76929190614d7c565b604051809103902060078281548110610b9257610b91614d95565b5b9060005260206000209060050201600201604051610bb09190614e5c565b604051809103902003610dcd5760078181548110610bd157610bd0614d95565b5b90600052602060002090600502016040518060a0016040529081600082018054610bfa906149e6565b80601f0160208091040260200160405190810160405280929190818152602001828054610c26906149e6565b8015610c735780601f10610c4857610100808354040283529160200191610c73565b820191906000526020600020905b815481529060010190602001808311610c5657829003601f168201915b50505050508152602001600182018054610c8c906149e6565b80601f0160208091040260200160405190810160405280929190818152602001828054610cb8906149e6565b8015610d055780601f10610cda57610100808354040283529160200191610d05565b820191906000526020600020905b815481529060010190602001808311610ce857829003601f168201915b50505050508152602001600282018054610d1e906149e6565b80601f0160208091040260200160405190810160405280929190818152602001828054610d4a906149e6565b8015610d975780601f10610d6c57610100808354040283529160200191610d97565b820191906000526020600020905b815481529060010190602001808311610d7a57829003601f168201915b50505050508152602001600382015481526020016004820160009054906101000a900460ff161515151581525050915050610e0d565b8080600101915050610b59565b506040517fe66ea08f00000000000000000000000000000000000000000000000000000000815260040160405180910390fd5b92915050565b610e1b613b63565b60048383604051610e2d929190614d33565b90815260200160405180910390206040518060a0016040529081600082018054610e56906149e6565b80601f0160208091040260200160405190810160405280929190818152602001828054610e82906149e6565b8015610ecf5780601f10610ea457610100808354040283529160200191610ecf565b820191906000526020600020905b815481529060010190602001808311610eb257829003601f168201915b505050505081526020016001820160009054906101000a900473ffffffffffffffffffffffffffffffffffffffff1673ffffffffffffffffffffffffffffffffffffffff1673ffffffffffffffffffffffffffffffffffffffff1681526020016001820160149054906101000a900460ff16151515158152602001600282018054610f59906149e6565b80601f0160208091040260200160405190810160405280929190818152602001828054610f85906149e6565b8015610fd25780601f10610fa757610100808354040283529160200191610fd2565b820191906000526020600020905b815481529060010190602001808311610fb557829003601f168201915b505050505081526020016003820160009054906101000a900460ff161515151581525050905092915050565b60606007805480602002602001604051908101604052809291908181526020016000905b8282101561122f57838290600052602060002090600502016040518060a0016040529081600082018054611055906149e6565b80601f0160208091040260200160405190810160405280929190818152602001828054611081906149e6565b80156110ce5780601f106110a3576101008083540402835291602001916110ce565b820191906000526020600020905b8154815290600101906020018083116110b157829003601f168201915b505050505081526020016001820180546110e7906149e6565b80601f0160208091040260200160405190810160405280929190818152602001828054611113906149e6565b80156111605780601f1061113557610100808354040283529160200191611160565b820191906000526020600020905b81548152906001019060200180831161114357829003601f168201915b50505050508152602001600282018054611179906149e6565b80601f01602080910402602001604051908101604052809291908181526020018280546111a5906149e6565b80156111f25780601f106111c7576101008083540402835291602001916111f2565b820191906000526020600020905b8154815290600101906020018083116111d557829003601f168201915b50505050508152602001600382015481526020016004820160009054906101000a900460ff16151515158152505081526020019060010190611022565b50505050905090565b6007818154811061124857600080fd5b906000526020600020906005020160009150905080600001805461126b906149e6565b80601f0160208091040260200160405190810160405280929190818152602001828054611297906149e6565b80156112e45780601f106112b9576101008083540402835291602001916112e4565b820191906000526020600020905b8154815290600101906020018083116112c757829003601f168201915b5050505050908060010180546112f9906149e6565b80601f0160208091040260200160405190810160405280929190818152602001828054611325906149e6565b80156113725780601f1061134757610100808354040283529160200191611372565b820191906000526020600020905b81548152906001019060200180831161135557829003601f168201915b505050505090806002018054611387906149e6565b80601f01602080910402602001604051908101604052809291908181526020018280546113b3906149e6565b80156114005780601f106113d557610100808354040283529160200191611400565b820191906000526020600020905b8154815290600101906020018083116113e357829003601f168201915b5050505050908060030154908060040160009054906101000a900460ff16905085565b600060149054906101000a900460ff1681565b600260003373ffffffffffffffffffffffffffffffffffffffff1673ffffffffffffffffffffffffffffffffffffffff16815260200190815260200160002060010160149054906101000a900460ff166114bc576040517f72c7057a00000000000000000000000000000000000000000000000000000000815260040160405180910390fd5b600483836040516114ce929190614d33565b908152602001604051809103902060030160009054906101000a900460ff1615611524576040517f59a1ec4700000000000000000000000000000000000000000000000000000000815260040160405180910390fd5b6000600360008373ffffffffffffffffffffffffffffffffffffffff1673ffffffffffffffffffffffffffffffffffffffff1681526020019081526020016000208054611570906149e6565b9050146115a9576040517f2d42c77200000000000000000000000000000000000000000000000000000000815260040160405180910390fd5b60006040518060a0016040528085858080601f016020809104026020016040519081016040528093929190818152602001838380828437600081840152601f19601f8201169050808301925050505050505081526020018373ffffffffffffffffffffffffffffffffffffffff168152602001600015158152602001600260003373ffffffffffffffffffffffffffffffffffffffff1673ffffffffffffffffffffffffffffffffffffffff1681526020019081526020016000206002018054611672906149e6565b80601f016020809104026020016040519081016040528092919081815260200182805461169e906149e6565b80156116eb5780601f106116c0576101008083540402835291602001916116eb565b820191906000526020600020905b8154815290600101906020018083116116ce57829003601f168201915b505050505081526020016001151581525090508060048585604051611711929190614d33565b908152602001604051809103902060008201518160000190816117349190614bc9565b5060208201518160010160006101000a81548173ffffffffffffffffffffffffffffffffffffffff021916908373ffffffffffffffffffffffffffffffffffffffff16021790555060408201518160010160146101000a81548160ff02191690831515021790555060608201518160020190816117b19190614bc9565b5060808201518160030160006101000a81548160ff0219169083151502179055509050508383600360008573ffffffffffffffffffffffffffffffffffffffff1673ffffffffffffffffffffffffffffffffffffffff1681526020019081526020016000209182611823929190614e7e565b50600681908060018154018082558091505060019003906000526020600020906004020160009091909190915060008201518160000190816118659190614bc9565b5060208201518160010160006101000a81548173ffffffffffffffffffffffffffffffffffffffff021916908373ffffffffffffffffffffffffffffffffffffffff16021790555060408201518160010160146101000a81548160ff02191690831515021790555060608201518160020190816118e29190614bc9565b5060808201518160030160006101000a81548160ff02191690831515021790555050508173ffffffffffffffffffffffffffffffffffffffff16848460405161192c929190614d33565b60405180910390207fe8bf381bec3899d7c4d98d7e52cfd45dfe7254b2ceafbb4d6dca1235ed10624d600260003373ffffffffffffffffffffffffffffffffffffffff1673ffffffffffffffffffffffffffffffffffffffff1681526020019081526020016000206002016040516119a49190614fd2565b60405180910390a350505050565b6119ba613b63565b6000600360008473ffffffffffffffffffffffffffffffffffffffff1673ffffffffffffffffffffffffffffffffffffffff1681526020019081526020016000208054611a06906149e6565b80601f0160208091040260200160405190810160405280929190818152602001828054611a32906149e6565b8015611a7f5780601f10611a5457610100808354040283529160200191611a7f565b820191906000526020600020905b815481529060010190602001808311611a6257829003601f168201915b505050505090506000815103611ac1576040517f6f08c58700000000000000000000000000000000000000000000000000000000815260040160405180910390fd5b600481604051611ad19190615025565b90815260200160405180910390206040518060a0016040529081600082018054611afa906149e6565b80601f0160208091040260200160405190810160405280929190818152602001828054611b26906149e6565b8015611b735780601f10611b4857610100808354040283529160200191611b73565b820191906000526020600020905b815481529060010190602001808311611b5657829003601f168201915b505050505081526020016001820160009054906101000a900473ffffffffffffffffffffffffffffffffffffffff1673ffffffffffffffffffffffffffffffffffffffff1673ffffffffffffffffffffffffffffffffffffffff1681526020016001820160149054906101000a900460ff16151515158152602001600282018054611bfd906149e6565b80601f0160208091040260200160405190810160405280929190818152602001828054611c29906149e6565b8015611c765780601f10611c4b57610100808354040283529160200191611c76565b820191906000526020600020905b815481529060010190602001808311611c5957829003601f168201915b505050505081526020016003820160009054906101000a900460ff161515151581525050915050919050565b60008054906101000a900473ffffffffffffffffffffffffffffffffffffffff1673ffffffffffffffffffffffffffffffffffffffff163373ffffffffffffffffffffffffffffffffffffffff1614611d27576040517f8b8958dc00000000000000000000000000000000000000000000000000000000815260040160405180910390fd5b600260008273ffffffffffffffffffffffffffffffffffffffff1673ffffffffffffffffffffffffffffffffffffffff16815260200190815260200160002060010160149054906101000a900460ff16611dad576040517fc75d5c6500000000000000000000000000000000000000000000000000000000815260040160405180910390fd5b6000600260008373ffffffffffffffffffffffffffffffffffffffff1673ffffffffffffffffffffffffffffffffffffffff16815260200190815260200160002060010160146101000a81548160ff0219169083151502179055508073ffffffffffffffffffffffffffffffffffffffff167f3954ed3404fab00c2419751b1587a1f6655215f0dc812ab5ed515d4c2677b2d360405160405180910390a250565b600481805160208101820180518482526020830160208501208183528095505050505050600091509050806000018054611e87906149e6565b80601f0160208091040260200160405190810160405280929190818152602001828054611eb3906149e6565b8015611f005780601f10611ed557610100808354040283529160200191611f00565b820191906000526020600020905b815481529060010190602001808311611ee357829003601f168201915b5050505050908060010160009054906101000a900473ffffffffffffffffffffffffffffffffffffffff16908060010160149054906101000a900460ff1690806002018054611f4e906149e6565b80601f0160208091040260200160405190810160405280929190818152602001828054611f7a906149e6565b8015611fc75780601f10611f9c57610100808354040283529160200191611fc7565b820191906000526020600020905b815481529060010190602001808311611faa57829003601f168201915b5050505050908060030160009054906101000a900460ff16905085565b60008054906101000a900473ffffffffffffffffffffffffffffffffffffffff1673ffffffffffffffffffffffffffffffffffffffff163373ffffffffffffffffffffffffffffffffffffffff1614612069576040517f8b8958dc00000000000000000000000000000000000000000000000000000000815260040160405180910390fd5b80600060146101000a81548160ff0219169083151502179055507f9069a1a16ace751e8690f383e12f87b01e8488ba387e626810bd113fef0417f9816040516120b2919061424e565b60405180910390a150565b600681815481106120cd57600080fd5b90600052602060002090600402016000915090508060000180546120f0906149e6565b80601f016020809104026020016040519081016040528092919081815260200182805461211c906149e6565b80156121695780601f1061213e57610100808354040283529160200191612169565b820191906000526020600020905b81548152906001019060200180831161214c57829003601f168201915b5050505050908060010160009054906101000a900473ffffffffffffffffffffffffffffffffffffffff16908060010160149054906101000a900460ff16908060020180546121b7906149e6565b80601f01602080910402602001604051908101604052809291908181526020018280546121e3906149e6565b80156122305780601f1061220557610100808354040283529160200191612230565b820191906000526020600020905b81548152906001019060200180831161221357829003601f168201915b5050505050908060030160009054906101000a900460ff16905085565b60008054906101000a900473ffffffffffffffffffffffffffffffffffffffff1673ffffffffffffffffffffffffffffffffffffffff163373ffffffffffffffffffffffffffffffffffffffff16146122d2576040517f8b8958dc00000000000000000000000000000000000000000000000000000000815260040160405180910390fd5b806000806101000a81548173ffffffffffffffffffffffffffffffffffffffff021916908373ffffffffffffffffffffffffffffffffffffffff16021790555050565b6002602052806000526040600020600091509050806000018054612338906149e6565b80601f0160208091040260200160405190810160405280929190818152602001828054612364906149e6565b80156123b15780601f10612386576101008083540402835291602001916123b1565b820191906000526020600020905b81548152906001019060200180831161239457829003601f168201915b5050505050908060010160009054906101000a900473ffffffffffffffffffffffffffffffffffffffff16908060010160149054906101000a900460ff16908060020180546123ff906149e6565b80601f016020809104026020016040519081016040528092919081815260200182805461242b906149e6565b80156124785780601f1061244d57610100808354040283529160200191612478565b820191906000526020600020905b81548152906001019060200180831161245b57829003601f168201915b5050505050905084565b60008054906101000a900473ffffffffffffffffffffffffffffffffffffffff1673ffffffffffffffffffffffffffffffffffffffff163373ffffffffffffffffffffffffffffffffffffffff1614612507576040517f8b8958dc00000000000000000000000000000000000000000000000000000000815260040160405180910390fd5b60006040518060a0016040528088888080601f016020809104026020016040519081016040528093929190818152602001838380828437600081840152601f19601f82011690508083019250505050505050815260200186868080601f016020809104026020016040519081016040528093929190818152602001838380828437600081840152601f19601f82011690508083019250505050505050815260200184848080601f016020809104026020016040519081016040528093929190818152602001838380828437600081840152601f19601f820116905080830192505050505050508152602001600081526020016001151581525090508060018888604051612615929190614d33565b908152602001604051809103902060008201518160000190816126389190614bc9565b50602082015181600101908161264e9190614bc9565b5060408201518160020190816126649190614bc9565b506060820151816003015560808201518160040160006101000a81548160ff021916908315150217905550905050600781908060018154018082558091505060019003906000526020600020906005020160009091909190915060008201518160000190816126d39190614bc9565b5060208201518160010190816126e99190614bc9565b5060408201518160020190816126ff9190614bc9565b506060820151816003015560808201518160040160006101000a81548160ff0219169083151502179055505050868660405161273c929190614d33565b60405180910390207f6184463fde61a3e60869da6c5a223163f4b7548f805e17f865da2e8d3828d337868660405161277592919061503c565b60405180910390a250505050505050565b60606005805480602002602001604051908101604052809291908181526020016000905b8282101561297157838290600052602060002090600302016040518060800160405290816000820180546127dd906149e6565b80601f0160208091040260200160405190810160405280929190818152602001828054612809906149e6565b80156128565780601f1061282b57610100808354040283529160200191612856565b820191906000526020600020905b81548152906001019060200180831161283957829003601f168201915b505050505081526020016001820160009054906101000a900473ffffffffffffffffffffffffffffffffffffffff1673ffffffffffffffffffffffffffffffffffffffff1673ffffffffffffffffffffffffffffffffffffffff1681526020016001820160149054906101000a900460ff161515151581526020016002820180546128e0906149e6565b80601f016020809104026020016040519081016040528092919081815260200182805461290c906149e6565b80156129595780601f1061292e57610100808354040283529160200191612959565b820191906000526020600020905b81548152906001019060200180831161293c57829003601f168201915b505050505081525050815260200190600101906127aa565b50505050905090565b6001818051602081018201805184825260208301602085012081835280955050505050506000915090508060000180546129b3906149e6565b80601f01602080910402602001604051908101604052809291908181526020018280546129df906149e6565b8015612a2c5780601f10612a0157610100808354040283529160200191612a2c565b820191906000526020600020905b815481529060010190602001808311612a0f57829003601f168201915b505050505090806001018054612a41906149e6565b80601f0160208091040260200160405190810160405280929190818152602001828054612a6d906149e6565b8015612aba5780601f10612a8f57610100808354040283529160200191612aba565b820191906000526020600020905b815481529060010190602001808311612a9d57829003601f168201915b505050505090806002018054612acf906149e6565b80601f0160208091040260200160405190810160405280929190818152602001828054612afb906149e6565b8015612b485780601f10612b1d57610100808354040283529160200191612b48565b820191906000526020600020905b815481529060010190602001808311612b2b57829003601f168201915b5050505050908060030154908060040160009054906101000a900460ff16905085565b60058181548110612b7b57600080fd5b9060005260206000209060030201600091509050806000018054612b9e906149e6565b80601f0160208091040260200160405190810160405280929190818152602001828054612bca906149e6565b8015612c175780601f10612bec57610100808354040283529160200191612c17565b820191906000526020600020905b815481529060010190602001808311612bfa57829003601f168201915b5050505050908060010160009054906101000a900473ffffffffffffffffffffffffffffffffffffffff16908060010160149054906101000a900460ff1690806002018054612c65906149e6565b80601f0160208091040260200160405190810160405280929190818152602001828054612c91906149e6565b8015612cde5780601f10612cb357610100808354040283529160200191612cde565b820191906000526020600020905b815481529060010190602001808311612cc157829003601f168201915b5050505050905084565b6060600080600090505b600680549050811015612d72578484604051612d0f929190614d7c565b604051809103902060068281548110612d2b57612d2a614d95565b5b9060005260206000209060040201600201604051612d499190614e5c565b604051809103902003612d65578180612d619061508f565b9250505b8080600101915050612cf2565b5060008167ffffffffffffffff811115612d8f57612d8e6142fb565b5b604051908082528060200260200182016040528015612dc857816020015b612db5613b63565b815260200190600190039081612dad5790505b509050600080600090505b60068054905081101561304e578686604051612df0929190614d7c565b604051809103902060068281548110612e0c57612e0b614d95565b5b9060005260206000209060040201600201604051612e2a9190614e5c565b6040518091039020036130415760068181548110612e4b57612e4a614d95565b5b90600052602060002090600402016040518060a0016040529081600082018054612e74906149e6565b80601f0160208091040260200160405190810160405280929190818152602001828054612ea0906149e6565b8015612eed5780601f10612ec257610100808354040283529160200191612eed565b820191906000526020600020905b815481529060010190602001808311612ed057829003601f168201915b505050505081526020016001820160009054906101000a900473ffffffffffffffffffffffffffffffffffffffff1673ffffffffffffffffffffffffffffffffffffffff1673ffffffffffffffffffffffffffffffffffffffff1681526020016001820160149054906101000a900460ff16151515158152602001600282018054612f77906149e6565b80601f0160208091040260200160405190810160405280929190818152602001828054612fa3906149e6565b8015612ff05780601f10612fc557610100808354040283529160200191612ff0565b820191906000526020600020905b815481529060010190602001808311612fd357829003601f168201915b505050505081526020016003820160009054906101000a900460ff16151515158152505083838151811061302757613026614d95565b5b6020026020010181905250818061303d9061508f565b9250505b8080600101915050612dd3565b5081935050505092915050565b613063613bac565b600260008373ffffffffffffffffffffffffffffffffffffffff1673ffffffffffffffffffffffffffffffffffffffff16815260200190815260200160002060010160149054906101000a900460ff166130e9576040517fc75d5c6500000000000000000000000000000000000000000000000000000000815260040160405180910390fd5b600260008373ffffffffffffffffffffffffffffffffffffffff1673ffffffffffffffffffffffffffffffffffffffff168152602001908152602001600020604051806080016040529081600082018054613143906149e6565b80601f016020809104026020016040519081016040528092919081815260200182805461316f906149e6565b80156131bc5780601f10613191576101008083540402835291602001916131bc565b820191906000526020600020905b81548152906001019060200180831161319f57829003601f168201915b505050505081526020016001820160009054906101000a900473ffffffffffffffffffffffffffffffffffffffff1673ffffffffffffffffffffffffffffffffffffffff1673ffffffffffffffffffffffffffffffffffffffff1681526020016001820160149054906101000a900460ff16151515158152602001600282018054613246906149e6565b80601f0160208091040260200160405190810160405280929190818152602001828054613272906149e6565b80156132bf5780601f10613294576101008083540402835291602001916132bf565b820191906000526020600020905b8154815290600101906020018083116132a257829003601f168201915b5050505050815250509050919050565b600360205280600052604060002060009150905080546132ee906149e6565b80601f016020809104026020016040519081016040528092919081815260200182805461331a906149e6565b80156133675780601f1061333c57610100808354040283529160200191613367565b820191906000526020600020905b81548152906001019060200180831161334a57829003601f168201915b505050505081565b613377613b32565b60006001848460405161338b929190614d33565b908152602001604051809103902060000180546133a7906149e6565b9050036133e0576040517fe66ea08f00000000000000000000000000000000000000000000000000000000815260040160405180910390fd5b600183836040516133f2929190614d33565b90815260200160405180910390206040518060a001604052908160008201805461341b906149e6565b80601f0160208091040260200160405190810160405280929190818152602001828054613447906149e6565b80156134945780601f1061346957610100808354040283529160200191613494565b820191906000526020600020905b81548152906001019060200180831161347757829003601f168201915b505050505081526020016001820180546134ad906149e6565b80601f01602080910402602001604051908101604052809291908181526020018280546134d9906149e6565b80156135265780601f106134fb57610100808354040283529160200191613526565b820191906000526020600020905b81548152906001019060200180831161350957829003601f168201915b5050505050815260200160028201805461353f906149e6565b80601f016020809104026020016040519081016040528092919081815260200182805461356b906149e6565b80156135b85780601f1061358d576101008083540402835291602001916135b8565b820191906000526020600020905b81548152906001019060200180831161359b57829003601f168201915b50505050508152602001600382015481526020016004820160009054906101000a900460ff161515151581525050905092915050565b60606006805480602002602001604051908101604052809291908181526020016000905b828210156137f457838290600052602060002090600402016040518060a0016040529081600082018054613645906149e6565b80601f0160208091040260200160405190810160405280929190818152602001828054613671906149e6565b80156136be5780601f10613693576101008083540402835291602001916136be565b820191906000526020600020905b8154815290600101906020018083116136a157829003601f168201915b505050505081526020016001820160009054906101000a900473ffffffffffffffffffffffffffffffffffffffff1673ffffffffffffffffffffffffffffffffffffffff1673ffffffffffffffffffffffffffffffffffffffff1681526020016001820160149054906101000a900460ff16151515158152602001600282018054613748906149e6565b80601f0160208091040260200160405190810160405280929190818152602001828054613774906149e6565b80156137c15780601f10613796576101008083540402835291602001916137c1565b820191906000526020600020905b8154815290600101906020018083116137a457829003601f168201915b505050505081526020016003820160009054906101000a900460ff16151515158152505081526020019060010190613612565b50505050905090565b60008054906101000a900473ffffffffffffffffffffffffffffffffffffffff1681565b600060149054906101000a900460ff16613867576040517f9b8cc47500000000000000000000000000000000000000000000000000000000815260040160405180910390fd5b6000600360003373ffffffffffffffffffffffffffffffffffffffff1673ffffffffffffffffffffffffffffffffffffffff16815260200190815260200160002080546138b3906149e6565b80601f01602080910402602001604051908101604052809291908181526020018280546138df906149e6565b801561392c5780601f106139015761010080835404028352916020019161392c565b820191906000526020600020905b81548152906001019060200180831161390f57829003601f168201915b50505050509050600081510361396e576040517f6f08c58700000000000000000000000000000000000000000000000000000000815260040160405180910390fd5b60006004826040516139809190615025565b908152602001604051809103902090508060010160149054906101000a900460ff16156139d9576040517f7c9a1cf900000000000000000000000000000000000000000000000000000000815260040160405180910390fd5b6000600185856040516139ed929190614d33565b90815260200160405180910390206000018054613a09906149e6565b90501480613a45575060018484604051613a24929190614d33565b908152602001604051809103902060040160009054906101000a900460ff16155b15613a7c576040517fe66ea08f00000000000000000000000000000000000000000000000000000000815260040160405180910390fd5b60018160010160146101000a81548160ff02191690831515021790555060018484604051613aab929190614d33565b90815260200160405180910390206003016000815480929190613acd9061508f565b91905055508383604051613ae2929190614d33565b604051809103902082604051613af89190615025565b60405180910390207f791f7d5f0b0d6e798f239ccca607156ff12f293d6709379301dc1a27e520618160405160405180910390a350505050565b6040518060a00160405280606081526020016060815260200160608152602001600081526020016000151581525090565b6040518060a0016040528060608152602001600073ffffffffffffffffffffffffffffffffffffffff168152602001600015158152602001606081526020016000151581525090565b604051806080016040528060608152602001600073ffffffffffffffffffffffffffffffffffffffff168152602001600015158152602001606081525090565b6000604051905090565b600080fd5b600080fd5b600073ffffffffffffffffffffffffffffffffffffffff82169050919050565b6000613c2b82613c00565b9050919050565b613c3b81613c20565b8114613c4657600080fd5b50565b600081359050613c5881613c32565b92915050565b600080fd5b600080fd5b600080fd5b60008083601f840112613c8357613c82613c5e565b5b8235905067ffffffffffffffff811115613ca057613c9f613c63565b5b602083019150836001820283011115613cbc57613cbb613c68565b5b9250929050565b600080600080600060608688031215613cdf57613cde613bf6565b5b6000613ced88828901613c49565b955050602086013567ffffffffffffffff811115613d0e57613d0d613bfb565b5b613d1a88828901613c6d565b9450945050604086013567ffffffffffffffff811115613d3d57613d3c613bfb565b5b613d4988828901613c6d565b92509250509295509295909350565b60008060208385031215613d6f57613d6e613bf6565b5b600083013567ffffffffffffffff811115613d8d57613d8c613bfb565b5b613d9985828601613c6d565b92509250509250929050565b600081519050919050565b600082825260208201905092915050565b60005b83811015613ddf578082015181840152602081019050613dc4565b60008484015250505050565b6000601f19601f8301169050919050565b6000613e0782613da5565b613e118185613db0565b9350613e21818560208601613dc1565b613e2a81613deb565b840191505092915050565b6000819050919050565b613e4881613e35565b82525050565b60008115159050919050565b613e6381613e4e565b82525050565b600060a0830160008301518482036000860152613e868282613dfc565b91505060208301518482036020860152613ea08282613dfc565b91505060408301518482036040860152613eba8282613dfc565b9150506060830151613ecf6060860182613e3f565b506080830151613ee26080860182613e5a565b508091505092915050565b60006020820190508181036000830152613f078184613e69565b905092915050565b613f1881613c20565b82525050565b600060a0830160008301518482036000860152613f3b8282613dfc565b9150506020830151613f506020860182613f0f565b506040830151613f636040860182613e5a565b5060608301518482036060860152613f7b8282613dfc565b9150506080830151613f906080860182613e5a565b508091505092915050565b60006020820190508181036000830152613fb58184613f1e565b905092915050565b600081519050919050565b600082825260208201905092915050565b6000819050602082019050919050565b600060a08301600083015184820360008601526140068282613dfc565b915050602083015184820360208601526140208282613dfc565b9150506040830151848203604086015261403a8282613dfc565b915050606083015161404f6060860182613e3f565b5060808301516140626080860182613e5a565b508091505092915050565b60006140798383613fe9565b905092915050565b6000602082019050919050565b600061409982613fbd565b6140a38185613fc8565b9350836020820285016140b585613fd9565b8060005b858110156140f157848403895281516140d2858261406d565b94506140dd83614081565b925060208a019950506001810190506140b9565b50829750879550505050505092915050565b6000602082019050818103600083015261411d818461408e565b905092915050565b61412e81613e35565b811461413957600080fd5b50565b60008135905061414b81614125565b92915050565b60006020828403121561416757614166613bf6565b5b60006141758482850161413c565b91505092915050565b600082825260208201905092915050565b600061419a82613da5565b6141a4818561417e565b93506141b4818560208601613dc1565b6141bd81613deb565b840191505092915050565b6141d181613e35565b82525050565b6141e081613e4e565b82525050565b600060a0820190508181036000830152614200818861418f565b90508181036020830152614214818761418f565b90508181036040830152614228818661418f565b905061423760608301856141c8565b61424460808301846141d7565b9695505050505050565b600060208201905061426360008301846141d7565b92915050565b60008060006040848603121561428257614281613bf6565b5b600084013567ffffffffffffffff8111156142a05761429f613bfb565b5b6142ac86828701613c6d565b935093505060206142bf86828701613c49565b9150509250925092565b6000602082840312156142df576142de613bf6565b5b60006142ed84828501613c49565b91505092915050565b600080fd5b7f4e487b7100000000000000000000000000000000000000000000000000000000600052604160045260246000fd5b61433382613deb565b810181811067ffffffffffffffff82111715614352576143516142fb565b5b80604052505050565b6000614365613bec565b9050614371828261432a565b919050565b600067ffffffffffffffff821115614391576143906142fb565b5b61439a82613deb565b9050602081019050919050565b82818337600083830152505050565b60006143c96143c484614376565b61435b565b9050828152602081018484840111156143e5576143e46142f6565b5b6143f08482856143a7565b509392505050565b600082601f83011261440d5761440c613c5e565b5b813561441d8482602086016143b6565b91505092915050565b60006020828403121561443c5761443b613bf6565b5b600082013567ffffffffffffffff81111561445a57614459613bfb565b5b614466848285016143f8565b91505092915050565b61447881613c20565b82525050565b600060a0820190508181036000830152614498818861418f565b90506144a7602083018761446f565b6144b460408301866141d7565b81810360608301526144c6818561418f565b90506144d560808301846141d7565b9695505050505050565b6144e881613e4e565b81146144f357600080fd5b50565b600081359050614505816144df565b92915050565b60006020828403121561452157614520613bf6565b5b600061452f848285016144f6565b91505092915050565b60006080820190508181036000830152614552818761418f565b9050614561602083018661446f565b61456e60408301856141d7565b8181036060830152614580818461418f565b905095945050505050565b600080600080600080606087890312156145a8576145a7613bf6565b5b600087013567ffffffffffffffff8111156145c6576145c5613bfb565b5b6145d289828a01613c6d565b9650965050602087013567ffffffffffffffff8111156145f5576145f4613bfb565b5b61460189828a01613c6d565b9450945050604087013567ffffffffffffffff81111561462457614623613bfb565b5b61463089828a01613c6d565b92509250509295509295509295565b600081519050919050565b600082825260208201905092915050565b6000819050602082019050919050565b600060808301600083015184820360008601526146888282613dfc565b915050602083015161469d6020860182613f0f565b5060408301516146b06040860182613e5a565b50606083015184820360608601526146c88282613dfc565b9150508091505092915050565b60006146e1838361466b565b905092915050565b6000602082019050919050565b60006147018261463f565b61470b818561464a565b93508360208202850161471d8561465b565b8060005b85811015614759578484038952815161473a85826146d5565b9450614745836146e9565b925060208a01995050600181019050614721565b50829750879550505050505092915050565b6000602082019050818103600083015261478581846146f6565b905092915050565b600081519050919050565b600082825260208201905092915050565b6000819050602082019050919050565b600060a08301600083015184820360008601526147d68282613dfc565b91505060208301516147eb6020860182613f0f565b5060408301516147fe6040860182613e5a565b50606083015184820360608601526148168282613dfc565b915050608083015161482b6080860182613e5a565b508091505092915050565b600061484283836147b9565b905092915050565b6000602082019050919050565b60006148628261478d565b61486c8185614798565b93508360208202850161487e856147a9565b8060005b858110156148ba578484038952815161489b8582614836565b94506148a68361484a565b925060208a01995050600181019050614882565b50829750879550505050505092915050565b600060208201905081810360008301526148e68184614857565b905092915050565b6000608083016000830151848203600086015261490b8282613dfc565b91505060208301516149206020860182613f0f565b5060408301516149336040860182613e5a565b506060830151848203606086015261494b8282613dfc565b9150508091505092915050565b6000602082019050818103600083015261497281846148ee565b905092915050565b60006020820190508181036000830152614994818461418f565b905092915050565b60006020820190506149b1600083018461446f565b92915050565b7f4e487b7100000000000000000000000000000000000000000000000000000000600052602260045260246000fd5b600060028204905060018216806149fe57607f821691505b602082108103614a1157614a106149b7565b5b50919050565b60008190508160005260206000209050919050565b60006020601f8301049050919050565b60008160020a8302905092915050565b600060088302614a7c7fffffffffffffffffffffffffffffffffffffffffffffffffffffffffffffffff82614a3c565b614a868683614a3c565b95508019841693508086168417925050509392505050565b6000819050919050565b6000614ac3614abe614ab984613e35565b614a9e565b613e35565b9050919050565b6000819050919050565b614add83614aa8565b614af1614ae982614aca565b848454614a4c565b825550505050565b600090565b614b06614af9565b614b11818484614ad4565b505050565b5b81811015614b3557614b2a600082614afe565b600181019050614b17565b5050565b601f821115614b7a57614b4b81614a17565b614b5484614a2c565b81016020851015614b63578190505b614b77614b6f85614a2c565b830182614b16565b50505b505050565b60008160020a8304905092915050565b6000614ba060001984600802614b7f565b1980831691505092915050565b6000614bb98383614b8f565b9150826002028217905092915050565b614bd282613da5565b67ffffffffffffffff811115614beb57614bea6142fb565b5b614bf582546149e6565b614c00828285614b39565b600060209050601f831160018114614c335760008415614c21578287015190505b614c2b8582614bad565b865550614c93565b601f198416614c4186614a17565b60005b82811015614c6957848901518255600182019150602085019450602081019050614c44565b86831015614c865784890151614c82601f891682614b8f565b8355505b6001600288020188555050505b505050505050565b6000614ca7838561417e565b9350614cb48385846143a7565b614cbd83613deb565b840190509392505050565b60006040820190508181036000830152614ce3818688614c9b565b90508181036020830152614cf8818486614c9b565b905095945050505050565b600081905092915050565b6000614d1a8385614d03565b9350614d278385846143a7565b82840190509392505050565b6000614d40828486614d0e565b91508190509392505050565b600081905092915050565b6000614d638385614d4c565b9350614d708385846143a7565b82840190509392505050565b6000614d89828486614d57565b91508190509392505050565b7f4e487b7100000000000000000000000000000000000000000000000000000000600052603260045260246000fd5b60008190508160005260206000209050919050565b60008154614de6816149e6565b614df08186614d4c565b94506001821660008114614e0b5760018114614e2057614e53565b60ff1983168652811515820286019350614e53565b614e2985614dc4565b60005b83811015614e4b57815481890152600182019150602081019050614e2c565b838801955050505b50505092915050565b6000614e688284614dd9565b915081905092915050565b600082905092915050565b614e888383614e73565b67ffffffffffffffff811115614ea157614ea06142fb565b5b614eab82546149e6565b614eb6828285614b39565b6000601f831160018114614ee55760008415614ed3578287013590505b614edd8582614bad565b865550614f45565b601f198416614ef386614a17565b60005b82811015614f1b57848901358255600182019150602085019450602081019050614ef6565b86831015614f385784890135614f34601f891682614b8f565b8355505b6001600288020188555050505b50505050505050565b60008154614f5b816149e6565b614f65818661417e565b94506001821660008114614f805760018114614f9657614fc9565b60ff198316865281151560200286019350614fc9565b614f9f85614a17565b60005b83811015614fc157815481890152600182019150602081019050614fa2565b808801955050505b50505092915050565b60006020820190508181036000830152614fec8184614f4e565b905092915050565b6000614fff82613da5565b6150098185614d03565b9350615019818560208601613dc1565b80840191505092915050565b60006150318284614ff4565b915081905092915050565b60006020820190508181036000830152615057818486614c9b565b90509392505050565b7f4e487b7100000000000000000000000000000000000000000000000000000000600052601160045260246000fd5b600061509a82613e35565b91507fffffffffffffffffffffffffffffffffffffffffffffffffffffffffffffffff82036150cc576150cb615060565b5b60018201905091905056fea2646970667358221220b91d2efe009f199e7d7ce31c1dfdef29e0d4b2a09f61b127b79dff7802e82b8e64736f6c63430008190033",
  "immutableReferences": {},
  "source": "// SPDX-License-Identifier: UNLICENSED\r\npragma solidity ^0.8.25;\r\n\r\ncontract Votechain {\r\n    error OnlyKpuAdmin();\r\n    error OnlyKpuBranch();\r\n    error VotingNotActive();\r\n    error BranchAlreadyRegistered();\r\n    error BranchNotActive();\r\n    error VoterAlreadyRegistered();\r\n    error AddressAlreadyRegistered();\r\n    error VoterNotRegistered();\r\n    error AlreadyVoted();\r\n    error InvalidCandidate();\r\n    error UnauthorizedVoter();\r\n    error CandidateAlreadyExists();\r\n\r\n    struct KPUBranch {\r\n        string name;\r\n        address branchAddress;\r\n        bool isActive;\r\n        string region;\r\n    }\r\n\r\n    struct Voter {\r\n        string nik;\r\n        address voterAddress;\r\n        bool hasVoted;\r\n        string region;\r\n        bool isRegistered;\r\n    }\r\n\r\n    struct Candidate {\r\n        string id;\r\n        string name;\r\n        string candidateNo;\r\n        uint256 voteCount;\r\n        bool isActive;\r\n    }\r\n\r\n    address public kpuAdmin;\r\n    bool public votingActive;\r\n\r\n    mapping(string => Candidate) public candidates;\r\n    mapping(address => KPUBranch) public kpuBranches;\r\n    mapping(address => string) public voterNIKByAddress;\r\n    mapping(string => Voter) public voters;\r\n\r\n    KPUBranch[] public kpuBranchAddressesArray;\r\n    Voter[] public voterAddressesArray;\r\n    Candidate[] public candidateAddressesArray;\r\n\r\n    event KPUBranchRegistered(address indexed branchAddress, string name, string region);\r\n    event KPUBranchDeactivated(address indexed branchAddress);\r\n    event VoterRegistered(string indexed nik, address indexed voterAddress, string region);\r\n    event VoteCasted(string indexed nik, string indexed candidateId);\r\n    event CandidateAdded(string indexed candidateId, string name);\r\n    event CandidateStatusChanged(string indexed candidateId, bool isActive);\r\n    event VotingStatusChanged(bool isActive);\r\n\r\n    modifier onlyKpuAdmin() {\r\n        if (msg.sender != kpuAdmin) revert OnlyKpuAdmin();\r\n        _;\r\n    }\r\n\r\n    modifier onlyKpuBranch() {\r\n        if (!kpuBranches[msg.sender].isActive) revert OnlyKpuBranch();\r\n        _;\r\n    }\r\n\r\n    modifier votingIsActive() {\r\n        if (!votingActive) revert VotingNotActive();\r\n        _;\r\n    }\r\n\r\n    constructor() {\r\n        kpuAdmin = msg.sender;\r\n    }\r\n\r\n    function registerKPUBranch(\r\n        address branchAddress,\r\n        string calldata name,\r\n        string calldata region\r\n    ) external onlyKpuAdmin {\r\n        if (kpuBranches[branchAddress].isActive) revert BranchAlreadyRegistered();\r\n\r\n        KPUBranch memory newBranch = KPUBranch(name, branchAddress, true, region);\r\n        kpuBranches[branchAddress] = newBranch;\r\n        kpuBranchAddressesArray.push(newBranch);\r\n\r\n        emit KPUBranchRegistered(branchAddress, name, region);\r\n    }\r\n\r\n    function deactivateKPUBranch(address branchAddress) external onlyKpuAdmin {\r\n        if (!kpuBranches[branchAddress].isActive) revert BranchNotActive();\r\n        kpuBranches[branchAddress].isActive = false;\r\n        emit KPUBranchDeactivated(branchAddress);\r\n    }\r\n\r\n    function registerVoter(\r\n        string calldata nik,\r\n        address voterAddress\r\n    ) external onlyKpuBranch {\r\n        if (voters[nik].isRegistered) revert VoterAlreadyRegistered();\r\n        if (bytes(voterNIKByAddress[voterAddress]).length != 0) revert AddressAlreadyRegistered();\r\n        Voter memory newVoter = Voter({\r\n            nik: nik,\r\n            voterAddress: voterAddress,\r\n            hasVoted: false,\r\n            region: kpuBranches[msg.sender].region,\r\n            isRegistered: true\r\n        });\r\n\r\n        voters[nik] = newVoter;\r\n        voterNIKByAddress[voterAddress] = nik;\r\n        voterAddressesArray.push(newVoter);\r\n\r\n        emit VoterRegistered(nik, voterAddress, kpuBranches[msg.sender].region);\r\n    }\r\n\r\n    function vote(string calldata candidateId) external votingIsActive {\r\n        string memory nik = voterNIKByAddress[msg.sender];\r\n        if (bytes(nik).length == 0) revert VoterNotRegistered();\r\n\r\n        Voter storage voter = voters[nik];\r\n        if (voter.hasVoted) revert AlreadyVoted();\r\n        if (bytes(candidates[candidateId].id).length == 0 || !candidates[candidateId].isActive)\r\n            revert InvalidCandidate();\r\n\r\n        voter.hasVoted = true;\r\n        candidates[candidateId].voteCount++;\r\n\r\n        emit VoteCasted(nik, candidateId);\r\n    }\r\n\r\n    function addCandidate(string calldata candidateId, string calldata name, string calldata candidateNo) external onlyKpuAdmin {\r\n        Candidate memory newCandidate = Candidate({\r\n            id: candidateId,\r\n            name: name,\r\n            candidateNo: candidateNo,\r\n            voteCount: 0,\r\n            isActive: true\r\n        });\r\n        candidates[candidateId] = newCandidate;\r\n        candidateAddressesArray.push(newCandidate);\r\n\r\n        emit CandidateAdded(candidateId, name);\r\n    }\r\n\r\n    function toggleCandidateActive(string calldata candidateId) external onlyKpuAdmin {\r\n        if (bytes(candidates[candidateId].id).length == 0) revert InvalidCandidate();\r\n        candidates[candidateId].isActive = !candidates[candidateId].isActive;\r\n        emit CandidateStatusChanged(candidateId, candidates[candidateId].isActive);\r\n    }\r\n\r\n    function setVotingStatus(bool status) external onlyKpuAdmin {\r\n        votingActive = status;\r\n        emit VotingStatusChanged(status);\r\n    }\r\n\r\n    function setKpuAdmin(address newAdmin) external onlyKpuAdmin {\r\n        kpuAdmin = newAdmin;\r\n    }\r\n\r\n    function getAllKPUBranches() external view returns (KPUBranch[] memory) {\r\n        return kpuBranchAddressesArray;\r\n    }\r\n\r\n    function getBranchByAddress(address branchAddress) external view returns (KPUBranch memory) {\r\n        if (!kpuBranches[branchAddress].isActive) revert BranchNotActive();\r\n        return kpuBranches[branchAddress];\r\n    }\r\n\r\n    function getAllVoter() external view returns (Voter[] memory) {\r\n        return voterAddressesArray;\r\n    }\r\n\r\n    function getVoterByNIK(string calldata nik) external view returns (Voter memory) {\r\n        return voters[nik];\r\n    }\r\n\r\n    function getVoterByAddress(address voterAddress) external view returns (Voter memory) {\r\n        string memory nik = voterNIKByAddress[voterAddress];\r\n        if (bytes(nik).length == 0) revert VoterNotRegistered();\r\n        return voters[nik];\r\n    }\r\n\r\n    function getVoterByRegion(string calldata region) external view returns (Voter[] memory) {\r\n        uint256 count;\r\n        for (uint256 i = 0; i < voterAddressesArray.length; i++) {\r\n            if (keccak256(bytes(voterAddressesArray[i].region)) == keccak256(bytes(region))) {\r\n                count++;\r\n            }\r\n        }\r\n\r\n        Voter[] memory regionVoters = new Voter[](count);\r\n        uint256 index;\r\n        for (uint256 i = 0; i < voterAddressesArray.length; i++) {\r\n            if (keccak256(bytes(voterAddressesArray[i].region)) == keccak256(bytes(region))) {\r\n                regionVoters[index] = voterAddressesArray[i];\r\n                index++;\r\n            }\r\n        }\r\n        return regionVoters;\r\n    }\r\n\r\n    function getCandidate(string calldata candidateId) external view returns (Candidate memory) {\r\n        if (bytes(candidates[candidateId].id).length == 0) revert InvalidCandidate();\r\n        return candidates[candidateId];\r\n    }\r\n\r\n    function getAllCandidates() external view returns (Candidate[] memory) {\r\n        return candidateAddressesArray;\r\n    }\r\n\r\n    function getCandidateByNo(string calldata candidateNo) external view returns (Candidate memory) {\r\n        for (uint i = 0; i < candidateAddressesArray.length; i++) {\r\n            if (keccak256(bytes(candidateAddressesArray[i].candidateNo)) == keccak256(bytes(candidateNo))) {\r\n                return candidateAddressesArray[i];\r\n            }\r\n        }\r\n        revert InvalidCandidate();\r\n    }\r\n\r\n}",
  "sourcePath": "C:\\Users\\bbyas\\Documents\\Kuliah\\Skripsi\\backend\\votechain-contract\\contracts\\Votechain.sol",
  "compiler": {
    "name": "solc",
    "version": "0.8.25+commit.b61c2a91.Emscripten.clang"
  },
  "schemaVersion": "3.4.16",
  "updatedAt": "2025-04-04T10:50:36.497Z",
  "networkType": "ethereum",
  "devdoc": {
    "kind": "dev",
    "methods": {},
    "version": 1
  },
  "userdoc": {
    "kind": "user",
    "methods": {},
    "version": 1
  }
}