{
  "contractName": "VotechainBase",
  "abi": [
    {
      "inputs": [],
      "stateMutability": "nonpayable",
      "type": "constructor"
    },
    {
      "inputs": [],
      "name": "OnlyKpuAdmin",
      "type": "error"
    },
    {
      "inputs": [],
      "name": "VotingNotActive",
      "type": "error"
    },
    {
      "anonymous": false,
      "inputs": [
        {
          "indexed": false,
          "internalType": "bool",
          "name": "isActive",
          "type": "bool"
        }
      ],
      "name": "VotingStatusChanged",
      "type": "event"
    },
    {
      "inputs": [],
      "name": "kpuAdmin",
      "outputs": [
        {
          "internalType": "address",
          "name": "",
          "type": "address"
        }
      ],
      "stateMutability": "view",
      "type": "function",
      "constant": true
    },
    {
      "inputs": [],
      "name": "votingActive",
      "outputs": [
        {
          "internalType": "bool",
          "name": "",
          "type": "bool"
        }
      ],
      "stateMutability": "view",
      "type": "function",
      "constant": true
    },
    {
      "inputs": [
        {
          "internalType": "bool",
          "name": "status",
          "type": "bool"
        }
      ],
      "name": "setVotingStatus",
      "outputs": [],
      "stateMutability": "nonpayable",
      "type": "function"
    },
    {
      "inputs": [
        {
          "internalType": "address",
          "name": "newAdmin",
          "type": "address"
        }
      ],
      "name": "setKpuAdmin",
      "outputs": [],
      "stateMutability": "nonpayable",
      "type": "function"
    }
  ],
  "bytecode": "0x6080604052348015600f57600080fd5b50600080546001600160a01b03191633179055610225806100316000396000f3fe608060405234801561001057600080fd5b506004361061004c5760003560e01c8063408e2727146100515780637478c9fe1461007a5780639df86dc11461008f578063fb4ab164146100a2575b600080fd5b60005461006590600160a01b900460ff1681565b60405190151581526020015b60405180910390f35b61008d61008836600461019d565b6100cd565b005b61008d61009d3660046101c6565b610150565b6000546100b5906001600160a01b031681565b6040516001600160a01b039091168152602001610071565b6000546001600160a01b031633146100f8576040516322e2563760e21b815260040160405180910390fd5b60008054821515600160a01b0260ff60a01b199091161790556040517f9069a1a16ace751e8690f383e12f87b01e8488ba387e626810bd113fef0417f99061014590831515815260200190565b60405180910390a150565b6000546001600160a01b0316331461017b576040516322e2563760e21b815260040160405180910390fd5b600080546001600160a01b0319166001600160a01b0392909216919091179055565b6000602082840312156101af57600080fd5b813580151581146101bf57600080fd5b9392505050565b6000602082840312156101d857600080fd5b81356001600160a01b03811681146101bf57600080fdfea264697066735822122014468ca234ae1043181f59d1e2f42a23114d796ded0bee833f6ef3689986c8ba64736f6c63430008190033",
  "immutableReferences": {},
  "source": "// SPDX-License-Identifier: UNLICENSED\r\npragma solidity ^0.8.25;\r\n\r\nimport \"./Interfaces.sol\";\r\n\r\ncontract VotechainBase is IVotechainBase {\r\n    error OnlyKpuAdmin();\r\n    error VotingNotActive();\r\n\r\n    address public override kpuAdmin;\r\n    bool public override votingActive;\r\n\r\n    event VotingStatusChanged(bool isActive);\r\n\r\n    modifier onlyKpuAdmin() {\r\n        if (msg.sender != kpuAdmin) revert OnlyKpuAdmin();\r\n        _;\r\n    }\r\n\r\n    modifier votingIsActive() {\r\n        if (!votingActive) revert VotingNotActive();\r\n        _;\r\n    }\r\n\r\n    constructor(){\r\n        kpuAdmin = msg.sender;\r\n    }\r\n\r\n    function setVotingStatus(bool status) external override onlyKpuAdmin {\r\n        votingActive = status;\r\n        emit VotingStatusChanged(status);\r\n    }\r\n\r\n    function setKpuAdmin(address newAdmin) external override onlyKpuAdmin {\r\n        kpuAdmin = newAdmin;\r\n    }\r\n\r\n\r\n\r\n\r\n}\r\n",
  "sourcePath": "C:\\Users\\bbyas\\Documents\\Kuliah\\Skripsi\\backend\\votechain-contract\\contracts\\VotechainBase.sol",
  "compiler": {
    "name": "solc",
    "version": "0.8.25+commit.b61c2a91.Emscripten.clang"
  },
  "schemaVersion": "3.4.16",
  "updatedAt": "2025-04-11T06:23:27.363Z",
  "networkType": "ethereum",
  "devdoc": {
    "kind": "dev",
    "methods": {},
    "version": 1
  },
  "userdoc": {
    "kind": "user",
    "methods": {},
    "version": 1
  }
}