{
  "contractName": "VoterManager",
  "abi": [
    {
      "inputs": [
        {
          "internalType": "address",
          "name": "_baseAddress",
          "type": "address"
        },
        {
          "internalType": "address",
          "name": "_kpuManagerAddress",
          "type": "address"
        }
      ],
      "stateMutability": "nonpayable",
      "type": "constructor"
    },
    {
      "inputs": [],
      "name": "AddressAlreadyRegistered",
      "type": "error"
    },
    {
      "inputs": [],
      "name": "AlreadyVoted",
      "type": "error"
    },
    {
      "inputs": [],
      "name": "UnauthorizedKPU",
      "type": "error"
    },
    {
      "inputs": [],
      "name": "VoterAlreadyRegistered",
      "type": "error"
    },
    {
      "inputs": [],
      "name": "VoterNotRegistered",
      "type": "error"
    },
    {
      "anonymous": false,
      "inputs": [
        {
          "indexed": true,
          "internalType": "string",
          "name": "nik",
          "type": "string"
        },
        {
          "indexed": true,
          "internalType": "address",
          "name": "voterAddress",
          "type": "address"
        },
        {
          "indexed": false,
          "internalType": "string",
          "name": "region",
          "type": "string"
        }
      ],
      "name": "VoterRegistered",
      "type": "event"
    },
    {
      "inputs": [
        {
          "internalType": "address",
          "name": "",
          "type": "address"
        }
      ],
      "name": "_voterNIKByAddresses",
      "outputs": [
        {
          "internalType": "string",
          "name": "",
          "type": "string"
        }
      ],
      "stateMutability": "view",
      "type": "function",
      "constant": true
    },
    {
      "inputs": [
        {
          "internalType": "string",
          "name": "",
          "type": "string"
        }
      ],
      "name": "_voterss",
      "outputs": [
        {
          "internalType": "string",
          "name": "nik",
          "type": "string"
        },
        {
          "internalType": "address",
          "name": "voterAddress",
          "type": "address"
        },
        {
          "internalType": "bool",
          "name": "hasVoted",
          "type": "bool"
        },
        {
          "internalType": "string",
          "name": "region",
          "type": "string"
        },
        {
          "internalType": "bool",
          "name": "isRegistered",
          "type": "bool"
        }
      ],
      "stateMutability": "view",
      "type": "function",
      "constant": true
    },
    {
      "inputs": [],
      "name": "base",
      "outputs": [
        {
          "internalType": "contract IVotechainBase",
          "name": "",
          "type": "address"
        }
      ],
      "stateMutability": "view",
      "type": "function",
      "constant": true
    },
    {
      "inputs": [],
      "name": "kpuManager",
      "outputs": [
        {
          "internalType": "contract IKPUManager",
          "name": "",
          "type": "address"
        }
      ],
      "stateMutability": "view",
      "type": "function",
      "constant": true
    },
    {
      "inputs": [
        {
          "internalType": "uint256",
          "name": "",
          "type": "uint256"
        }
      ],
      "name": "voterAddressesArray",
      "outputs": [
        {
          "internalType": "string",
          "name": "nik",
          "type": "string"
        },
        {
          "internalType": "address",
          "name": "voterAddress",
          "type": "address"
        },
        {
          "internalType": "bool",
          "name": "hasVoted",
          "type": "bool"
        },
        {
          "internalType": "string",
          "name": "region",
          "type": "string"
        },
        {
          "internalType": "bool",
          "name": "isRegistered",
          "type": "bool"
        }
      ],
      "stateMutability": "view",
      "type": "function",
      "constant": true
    },
    {
      "inputs": [
        {
          "internalType": "address",
          "name": "voter",
          "type": "address"
        }
      ],
      "name": "voterNIKByAddress",
      "outputs": [
        {
          "internalType": "string",
          "name": "",
          "type": "string"
        }
      ],
      "stateMutability": "view",
      "type": "function",
      "constant": true
    },
    {
      "inputs": [
        {
          "internalType": "string",
          "name": "nik",
          "type": "string"
        }
      ],
      "name": "voters",
      "outputs": [
        {
          "components": [
            {
              "internalType": "string",
              "name": "nik",
              "type": "string"
            },
            {
              "internalType": "address",
              "name": "voterAddress",
              "type": "address"
            },
            {
              "internalType": "bool",
              "name": "hasVoted",
              "type": "bool"
            },
            {
              "internalType": "string",
              "name": "region",
              "type": "string"
            },
            {
              "internalType": "bool",
              "name": "isRegistered",
              "type": "bool"
            }
          ],
          "internalType": "struct IVoterManager.Voter",
          "name": "",
          "type": "tuple"
        }
      ],
      "stateMutability": "view",
      "type": "function",
      "constant": true
    },
    {
      "inputs": [
        {
          "internalType": "string",
          "name": "nik",
          "type": "string"
        },
        {
          "internalType": "address",
          "name": "voterAddress",
          "type": "address"
        }
      ],
      "name": "registerVoter",
      "outputs": [],
      "stateMutability": "nonpayable",
      "type": "function"
    },
    {
      "inputs": [
        {
          "internalType": "address",
          "name": "voterAddress",
          "type": "address"
        }
      ],
      "name": "markVoted",
      "outputs": [
        {
          "internalType": "bool",
          "name": "",
          "type": "bool"
        }
      ],
      "stateMutability": "nonpayable",
      "type": "function"
    },
    {
      "inputs": [
        {
          "internalType": "address",
          "name": "voterAddress",
          "type": "address"
        }
      ],
      "name": "getVoterNikByAddress",
      "outputs": [
        {
          "internalType": "string",
          "name": "",
          "type": "string"
        }
      ],
      "stateMutability": "view",
      "type": "function",
      "constant": true
    },
    {
      "inputs": [
        {
          "internalType": "address",
          "name": "voterAddress",
          "type": "address"
        }
      ],
      "name": "getVoterByAddress",
      "outputs": [
        {
          "components": [
            {
              "internalType": "string",
              "name": "nik",
              "type": "string"
            },
            {
              "internalType": "address",
              "name": "voterAddress",
              "type": "address"
            },
            {
              "internalType": "bool",
              "name": "hasVoted",
              "type": "bool"
            },
            {
              "internalType": "string",
              "name": "region",
              "type": "string"
            },
            {
              "internalType": "bool",
              "name": "isRegistered",
              "type": "bool"
            }
          ],
          "internalType": "struct IVoterManager.Voter",
          "name": "",
          "type": "tuple"
        }
      ],
      "stateMutability": "view",
      "type": "function",
      "constant": true
    },
    {
      "inputs": [],
      "name": "getAllVoter",
      "outputs": [
        {
          "components": [
            {
              "internalType": "string",
              "name": "nik",
              "type": "string"
            },
            {
              "internalType": "address",
              "name": "voterAddress",
              "type": "address"
            },
            {
              "internalType": "bool",
              "name": "hasVoted",
              "type": "bool"
            },
            {
              "internalType": "string",
              "name": "region",
              "type": "string"
            },
            {
              "internalType": "bool",
              "name": "isRegistered",
              "type": "bool"
            }
          ],
          "internalType": "struct IVoterManager.Voter[]",
          "name": "",
          "type": "tuple[]"
        }
      ],
      "stateMutability": "view",
      "type": "function",
      "constant": true
    },
    {
      "inputs": [
        {
          "internalType": "string",
          "name": "nik",
          "type": "string"
        }
      ],
      "name": "getVoterByNIK",
      "outputs": [
        {
          "components": [
            {
              "internalType": "string",
              "name": "nik",
              "type": "string"
            },
            {
              "internalType": "address",
              "name": "voterAddress",
              "type": "address"
            },
            {
              "internalType": "bool",
              "name": "hasVoted",
              "type": "bool"
            },
            {
              "internalType": "string",
              "name": "region",
              "type": "string"
            },
            {
              "internalType": "bool",
              "name": "isRegistered",
              "type": "bool"
            }
          ],
          "internalType": "struct IVoterManager.Voter",
          "name": "",
          "type": "tuple"
        }
      ],
      "stateMutability": "view",
      "type": "function",
      "constant": true
    },
    {
      "inputs": [
        {
          "internalType": "string",
          "name": "region",
          "type": "string"
        }
      ],
      "name": "getVoterByRegion",
      "outputs": [
        {
          "components": [
            {
              "internalType": "string",
              "name": "nik",
              "type": "string"
            },
            {
              "internalType": "address",
              "name": "voterAddress",
              "type": "address"
            },
            {
              "internalType": "bool",
              "name": "hasVoted",
              "type": "bool"
            },
            {
              "internalType": "string",
              "name": "region",
              "type": "string"
            },
            {
              "internalType": "bool",
              "name": "isRegistered",
              "type": "bool"
            }
          ],
          "internalType": "struct IVoterManager.Voter[]",
          "name": "",
          "type": "tuple[]"
        }
      ],
      "stateMutability": "view",
      "type": "function",
      "constant": true
    }
  ],
  "bytecode": "0x6080604052348015600f57600080fd5b50604051611b2f380380611b2f833981016040819052602c916077565b600080546001600160a01b039384166001600160a01b0319918216179091556001805492909316911617905560a5565b80516001600160a01b0381168114607257600080fd5b919050565b60008060408385031215608957600080fd5b609083605c565b9150609c60208401605c565b90509250929050565b611a7b806100b46000396000f3fe608060405234801561001057600080fd5b50600436106100ea5760003560e01c806353fa2e641161008c578063a8fd0cfa11610066578063a8fd0cfa146101fb578063e0d5343b1461021e578063f0416e5f1461023e578063f44f4e141461025157600080fd5b806353fa2e64146101c257806389c7e391146101d557806395016313146101e857600080fd5b80634a075de2116100c85780634a075de2146101675780634bdd75851461017c5780635001f3b51461018f5780635130298f146101a257600080fd5b80632a70ecca146100ef57806334d1d2f2146101185780634079479214610143575b600080fd5b6101026100fd366004611355565b610259565b60405161010f919061144c565b60405180910390f35b60015461012b906001600160a01b031681565b6040516001600160a01b03909116815260200161010f565b6101566101513660046114d5565b610458565b60405161010f959493929190611555565b61017a6101753660046115c2565b6105b6565b005b61010261018a366004611616565b61097b565b60005461012b906001600160a01b031681565b6101b56101b0366004611616565b610a7a565b60405161010f9190611631565b6101026101d0366004611355565b610b4a565b6101566101e3366004611644565b610b79565b6101b56101f6366004611616565b610bac565b61020e610209366004611616565b610c46565b604051901515815260200161010f565b61023161022c366004611355565b610d7d565b60405161010f919061165d565b6101b561024c366004611616565b6110a2565b61023161114e565b6040805160a0810182526060808252600060208301819052928201839052808201526080810191909152600383836040516102959291906116c1565b9081526040519081900360200190206003015460ff166102c857604051636f08c58760e01b815260040160405180910390fd5b600383836040516102da9291906116c1565b90815260200160405180910390206040518060a0016040529081600082018054610303906116d1565b80601f016020809104026020016040519081016040528092919081815260200182805461032f906116d1565b801561037c5780601f106103515761010080835404028352916020019161037c565b820191906000526020600020905b81548152906001019060200180831161035f57829003601f168201915b505050918352505060018201546001600160a01b0381166020830152600160a01b900460ff16151560408201526002820180546060909201916103be906116d1565b80601f01602080910402602001604051908101604052809291908181526020018280546103ea906116d1565b80156104375780601f1061040c57610100808354040283529160200191610437565b820191906000526020600020905b81548152906001019060200180831161041a57829003601f168201915b50505091835250506003919091015460ff1615156020909101529392505050565b805160208183018101805160038252928201919093012091528054819061047e906116d1565b80601f01602080910402602001604051908101604052809291908181526020018280546104aa906116d1565b80156104f75780601f106104cc576101008083540402835291602001916104f7565b820191906000526020600020905b8154815290600101906020018083116104da57829003601f168201915b50505050600183015460028401805493946001600160a01b03831694600160a01b90930460ff1693509161052a906116d1565b80601f0160208091040260200160405190810160405280929190818152602001828054610556906116d1565b80156105a35780601f10610578576101008083540402835291602001916105a3565b820191906000526020600020905b81548152906001019060200180831161058657829003601f168201915b5050506003909301549192505060ff1685565b6001546040516375a4352f60e01b81523360048201526001600160a01b03909116906375a4352f90602401602060405180830381865afa1580156105fe573d6000803e3d6000fd5b505050506040513d601f19601f82011682018060405250810190610622919061170b565b61063f576040516334ae4d1f60e21b815260040160405180910390fd5b600383836040516106519291906116c1565b9081526040519081900360200190206003015460ff1615610685576040516359a1ec4760e01b815260040160405180910390fd5b6001600160a01b038116600090815260026020526040902080546106a8906116d1565b1590506106c8576040516316a163b960e11b815260040160405180910390fd5b60015460405162e9900760e71b81523360048201526000916001600160a01b0316906374c8038090602401600060405180830381865afa158015610710573d6000803e3d6000fd5b505050506040513d6000823e601f3d908101601f19168201604052610738919081019061172d565b905060006040518060a0016040528086868080601f01602080910402602001604051908101604052809392919081815260200183838082843760009201829052509385525050506001600160a01b03861660208301526040808301919091526060820185905260016080909201919091525190915081906003906107bf90889088906116c1565b908152604051908190036020019020815181906107dc90826117f5565b50602082015160018201805460408501511515600160a01b026001600160a81b03199091166001600160a01b03909316929092179190911790556060820151600282019061082a90826117f5565b50608091909101516003909101805460ff19169115159190911790556001600160a01b03831660009081526002602052604090206108698587836118b5565b5060048054600181018255600082905282518392919091027f8a35acfbc15ff81a39ae7d344fd709f28e8600b4aa8c65c6b64bfe7fe36bd19b019081906108b090826117f5565b50602082015160018201805460408501511515600160a01b026001600160a81b03199091166001600160a01b0390931692909217919091179055606082015160028201906108fe90826117f5565b50608091909101516003909101805460ff19169115159190911790556040516001600160a01b0384169061093590879087906116c1565b60405180910390207fe8bf381bec3899d7c4d98d7e52cfd45dfe7254b2ceafbb4d6dca1235ed10624d8460405161096c9190611631565b60405180910390a35050505050565b6040805160a08101825260608082526000602083018190529282018390528082015260808101919091526001600160a01b038216600090815260026020526040812080546109c8906116d1565b80601f01602080910402602001604051908101604052809291908181526020018280546109f4906116d1565b8015610a415780601f10610a1657610100808354040283529160200191610a41565b820191906000526020600020905b815481529060010190602001808311610a2457829003601f168201915b505050505090508051600003610a6a57604051636f08c58760e01b815260040160405180910390fd5b6003816040516102da9190611976565b6001600160a01b038116600090815260026020526040812080546060929190610aa2906116d1565b80601f0160208091040260200160405190810160405280929190818152602001828054610ace906116d1565b8015610b1b5780601f10610af057610100808354040283529160200191610b1b565b820191906000526020600020905b815481529060010190602001808311610afe57829003601f168201915b505050505090508051600003610b4457604051636f08c58760e01b815260040160405180910390fd5b92915050565b6040805160a08101825260608082526000602083018190529282018390528082015260808101919091526102c8565b60048181548110610b8957600080fd5b906000526020600020906004020160009150905080600001805461047e906116d1565b60026020526000908152604090208054610bc5906116d1565b80601f0160208091040260200160405190810160405280929190818152602001828054610bf1906116d1565b8015610c3e5780601f10610c1357610100808354040283529160200191610c3e565b820191906000526020600020905b815481529060010190602001808311610c2157829003601f168201915b505050505081565b6001600160a01b03811660009081526002602052604081208054829190610c6c906116d1565b80601f0160208091040260200160405190810160405280929190818152602001828054610c98906116d1565b8015610ce55780601f10610cba57610100808354040283529160200191610ce5565b820191906000526020600020905b815481529060010190602001808311610cc857829003601f168201915b505050505090508051600003610d0e57604051636f08c58760e01b815260040160405180910390fd5b6000600382604051610d209190611976565b908152604051908190036020019020600181015490915060ff600160a01b9091041615610d6057604051637c9a1cf960e01b815260040160405180910390fd5b6001908101805460ff60a01b1916600160a01b1790559392505050565b60606000805b600454811015610df9578484604051610d9d9291906116c1565b604051809103902060048281548110610db857610db8611992565b9060005260206000209060040201600201604051610dd691906119a8565b604051809103902003610df15781610ded81611a1e565b9250505b600101610d83565b5060008167ffffffffffffffff811115610e1557610e15611466565b604051908082528060200260200182016040528015610e7057816020015b6040805160a0810182526060808252600060208301819052928201839052808201526080810191909152815260200190600190039081610e335790505b5090506000805b600454811015611097578686604051610e919291906116c1565b604051809103902060048281548110610eac57610eac611992565b9060005260206000209060040201600201604051610eca91906119a8565b60405180910390200361108f5760048181548110610eea57610eea611992565b90600052602060002090600402016040518060a0016040529081600082018054610f13906116d1565b80601f0160208091040260200160405190810160405280929190818152602001828054610f3f906116d1565b8015610f8c5780601f10610f6157610100808354040283529160200191610f8c565b820191906000526020600020905b815481529060010190602001808311610f6f57829003601f168201915b505050918352505060018201546001600160a01b0381166020830152600160a01b900460ff1615156040820152600282018054606090920191610fce906116d1565b80601f0160208091040260200160405190810160405280929190818152602001828054610ffa906116d1565b80156110475780601f1061101c57610100808354040283529160200191611047565b820191906000526020600020905b81548152906001019060200180831161102a57829003601f168201915b50505091835250506003919091015460ff161515602090910152835184908490811061107557611075611992565b6020026020010181905250818061108b90611a1e565b9250505b600101610e77565b509095945050505050565b6001600160a01b03811660009081526002602052604090208054606091906110c9906116d1565b80601f01602080910402602001604051908101604052809291908181526020018280546110f5906116d1565b80156111425780601f1061111757610100808354040283529160200191611142565b820191906000526020600020905b81548152906001019060200180831161112557829003601f168201915b50505050509050919050565b60606004805480602002602001604051908101604052809291908181526020016000905b8282101561130357838290600052602060002090600402016040518060a00160405290816000820180546111a5906116d1565b80601f01602080910402602001604051908101604052809291908181526020018280546111d1906116d1565b801561121e5780601f106111f35761010080835404028352916020019161121e565b820191906000526020600020905b81548152906001019060200180831161120157829003601f168201915b505050918352505060018201546001600160a01b0381166020830152600160a01b900460ff1615156040820152600282018054606090920191611260906116d1565b80601f016020809104026020016040519081016040528092919081815260200182805461128c906116d1565b80156112d95780601f106112ae576101008083540402835291602001916112d9565b820191906000526020600020905b8154815290600101906020018083116112bc57829003601f168201915b50505091835250506003919091015460ff1615156020918201529082526001929092019101611172565b50505050905090565b60008083601f84011261131e57600080fd5b50813567ffffffffffffffff81111561133657600080fd5b60208301915083602082850101111561134e57600080fd5b9250929050565b6000806020838503121561136857600080fd5b823567ffffffffffffffff81111561137f57600080fd5b61138b8582860161130c565b90969095509350505050565b60005b838110156113b257818101518382015260200161139a565b50506000910152565b600081518084526113d3816020860160208601611397565b601f01601f19169290920160200192915050565b6000815160a084526113fc60a08501826113bb565b905060018060a01b0360208401511660208501526040830151151560408501526060830151848203606086015261143382826113bb565b9150506080830151151560808501528091505092915050565b60208152600061145f60208301846113e7565b9392505050565b634e487b7160e01b600052604160045260246000fd5b604051601f8201601f1916810167ffffffffffffffff811182821017156114a5576114a5611466565b604052919050565b600067ffffffffffffffff8211156114c7576114c7611466565b50601f01601f191660200190565b6000602082840312156114e757600080fd5b813567ffffffffffffffff8111156114fe57600080fd5b8201601f8101841361150f57600080fd5b803561152261151d826114ad565b61147c565b81815285602083850101111561153757600080fd5b81602084016020830137600091810160200191909152949350505050565b60a08152600061156860a08301886113bb565b6001600160a01b03871660208401528515156040840152828103606084015261159181866113bb565b91505082151560808301529695505050505050565b80356001600160a01b03811681146115bd57600080fd5b919050565b6000806000604084860312156115d757600080fd5b833567ffffffffffffffff8111156115ee57600080fd5b6115fa8682870161130c565b909450925061160d9050602085016115a6565b90509250925092565b60006020828403121561162857600080fd5b61145f826115a6565b60208152600061145f60208301846113bb565b60006020828403121561165657600080fd5b5035919050565b600060208083016020845280855180835260408601915060408160051b87010192506020870160005b828110156116b457603f198886030184526116a28583516113e7565b94509285019290850190600101611686565b5092979650505050505050565b8183823760009101908152919050565b600181811c908216806116e557607f821691505b60208210810361170557634e487b7160e01b600052602260045260246000fd5b50919050565b60006020828403121561171d57600080fd5b8151801515811461145f57600080fd5b60006020828403121561173f57600080fd5b815167ffffffffffffffff81111561175657600080fd5b8201601f8101841361176757600080fd5b805161177561151d826114ad565b81815285602083850101111561178a57600080fd5b61179b826020830160208601611397565b95945050505050565b601f8211156117f0576000816000526020600020601f850160051c810160208610156117cd5750805b601f850160051c820191505b818110156117ec578281556001016117d9565b5050505b505050565b815167ffffffffffffffff81111561180f5761180f611466565b6118238161181d84546116d1565b846117a4565b602080601f83116001811461185857600084156118405750858301515b600019600386901b1c1916600185901b1785556117ec565b600085815260208120601f198616915b8281101561188757888601518255948401946001909101908401611868565b50858210156118a55787850151600019600388901b60f8161c191681555b5050505050600190811b01905550565b67ffffffffffffffff8311156118cd576118cd611466565b6118e1836118db83546116d1565b836117a4565b6000601f84116001811461191557600085156118fd5750838201355b600019600387901b1c1916600186901b17835561196f565b600083815260209020601f19861690835b828110156119465786850135825560209485019460019092019101611926565b50868210156119635760001960f88860031b161c19848701351681555b505060018560011b0183555b5050505050565b60008251611988818460208701611397565b9190910192915050565b634e487b7160e01b600052603260045260246000fd5b60008083546119b6816116d1565b600182811680156119ce57600181146119e357611a12565b60ff1984168752821515830287019450611a12565b8760005260208060002060005b85811015611a095781548a8201529084019082016119f0565b50505082870194505b50929695505050505050565b600060018201611a3e57634e487b7160e01b600052601160045260246000fd5b506001019056fea2646970667358221220a88d4ffa2b05369f403d8274197d63527838a332c14b738dcece373e8b8cdc7864736f6c63430008190033",
  "immutableReferences": {},
  "source": "// SPDX-License-Identifier: UNLICENSED\r\npragma solidity ^0.8.25;\r\n\r\nimport \"./Interfaces.sol\";\r\n\r\ncontract VoterManager is IVoterManager {\r\n    error VoterAlreadyRegistered();\r\n    error AddressAlreadyRegistered();\r\n    error VoterNotRegistered();\r\n    error AlreadyVoted();\r\n    error UnauthorizedKPU();\r\n\r\n    IVotechainBase public base;\r\n    IKPUManager public kpuManager;\r\n\r\n    mapping(address => string) public _voterNIKByAddresses;\r\n    mapping(string => Voter) public _voterss;\r\n    Voter[] public voterAddressesArray;\r\n\r\n    event VoterRegistered(string indexed nik, address indexed voterAddress, string region);\r\n\r\n    constructor(address _baseAddress, address _kpuManagerAddress) {\r\n        base = IVotechainBase(_baseAddress);\r\n        kpuManager = IKPUManager(_kpuManagerAddress);\r\n    }\r\n\r\n    function voterNIKByAddress(address voter) external view returns (string memory) {\r\n        return _voterNIKByAddresses[voter];\r\n    }\r\n\r\n    function voters(string calldata nik) external view returns (Voter memory) {\r\n        return _voterss[nik];\r\n    }\r\n\r\n    modifier onlyKpuKota() {\r\n        if (!kpuManager.isKPUKota(msg.sender)) revert UnauthorizedKPU();\r\n        _;\r\n    }\r\n\r\n    function registerVoter(\r\n        string calldata nik,\r\n        address voterAddress\r\n    ) external override onlyKpuKota {\r\n        if (_voterss[nik].isRegistered) revert VoterAlreadyRegistered();\r\n        if (bytes(_voterNIKByAddresses[voterAddress]).length != 0) revert AddressAlreadyRegistered();\r\n\r\n        string memory region = kpuManager.getKpuKotaRegion(msg.sender);\r\n\r\n        Voter memory newVoter = Voter({\r\n            nik: nik,\r\n            voterAddress: voterAddress,\r\n            hasVoted: false,\r\n            region: region,\r\n            isRegistered: true\r\n        });\r\n\r\n        _voterss[nik] = newVoter;\r\n        _voterNIKByAddresses[voterAddress] = nik;\r\n        voterAddressesArray.push(newVoter);\r\n\r\n        emit VoterRegistered(nik, voterAddress, region);\r\n    }\r\n\r\n    function markVoted(address voterAddress) external override returns (bool) {\r\n        string memory nik = _voterNIKByAddresses[voterAddress];\r\n        if (bytes(nik).length == 0) revert VoterNotRegistered();\r\n\r\n        Voter storage voter = _voterss[nik];\r\n        if (voter.hasVoted) revert AlreadyVoted();\r\n\r\n        voter.hasVoted = true;\r\n        return true;\r\n    }\r\n\r\n    function getVoterNikByAddress(address voterAddress) external view override returns (string memory) {\r\n        string memory nik = _voterNIKByAddresses[voterAddress];\r\n        if (bytes(nik).length == 0) revert VoterNotRegistered();\r\n        return nik;\r\n    }\r\n\r\n    function getVoterByAddress(address voterAddress) external view override returns (Voter memory) {\r\n        string memory nik = _voterNIKByAddresses[voterAddress];\r\n        if (bytes(nik).length == 0) revert VoterNotRegistered();\r\n        return _voterss[nik];\r\n    }\r\n\r\n    function getAllVoter() external view returns (Voter[] memory) {\r\n        return voterAddressesArray;\r\n    }\r\n\r\n    function getVoterByNIK(string calldata nik) external view returns (Voter memory) {\r\n        if (!_voterss[nik].isRegistered) revert VoterNotRegistered();\r\n        return _voterss[nik];\r\n    }\r\n\r\n    function getVoterByRegion(string calldata region) external view returns (Voter[] memory) {\r\n        uint256 count;\r\n        for (uint256 i = 0; i < voterAddressesArray.length; i++) {\r\n            if (keccak256(bytes(voterAddressesArray[i].region)) == keccak256(bytes(region))) {\r\n                count++;\r\n            }\r\n        }\r\n\r\n        Voter[] memory regionVoters = new Voter[](count);\r\n        uint256 index;\r\n        for (uint256 i = 0; i < voterAddressesArray.length; i++) {\r\n            if (keccak256(bytes(voterAddressesArray[i].region)) == keccak256(bytes(region))) {\r\n                regionVoters[index] = voterAddressesArray[i];\r\n                index++;\r\n            }\r\n        }\r\n        return regionVoters;\r\n    }\r\n}\r\n",
  "sourcePath": "C:\\Users\\bbyas\\Documents\\Kuliah\\Skripsi\\backend\\votechain-contract\\contracts\\VoterManager.sol",
  "compiler": {
    "name": "solc",
    "version": "0.8.25+commit.b61c2a91.Emscripten.clang"
  },
  "schemaVersion": "3.4.16",
  "updatedAt": "2025-04-24T06:36:44.717Z",
  "networkType": "ethereum",
  "devdoc": {
    "kind": "dev",
    "methods": {},
    "version": 1
  },
  "userdoc": {
    "kind": "user",
    "methods": {},
    "version": 1
  }
}