{
  "contractName": "Votechain",
  "abi": [
    {
      "inputs": [],
      "stateMutability": "nonpayable",
      "type": "constructor"
    },
    {
      "inputs": [],
      "name": "AddressAlreadyRegistered",
      "type": "error"
    },
    {
      "inputs": [],
      "name": "AlreadyVoted",
      "type": "error"
    },
    {
      "inputs": [],
      "name": "BranchAlreadyRegistered",
      "type": "error"
    },
    {
      "inputs": [],
      "name": "BranchNotActive",
      "type": "error"
    },
    {
      "inputs": [],
      "name": "InvalidCandidate",
      "type": "error"
    },
    {
      "inputs": [],
      "name": "OnlyKpuAdmin",
      "type": "error"
    },
    {
      "inputs": [],
      "name": "OnlyKpuBranch",
      "type": "error"
    },
    {
      "inputs": [],
      "name": "UnauthorizedVoter",
      "type": "error"
    },
    {
      "inputs": [],
      "name": "VoterAlreadyRegistered",
      "type": "error"
    },
    {
      "inputs": [],
      "name": "VoterNotRegistered",
      "type": "error"
    },
    {
      "inputs": [],
      "name": "VotingNotActive",
      "type": "error"
    },
    {
      "anonymous": false,
      "inputs": [
        {
          "indexed": true,
          "internalType": "uint256",
          "name": "candidateId",
          "type": "uint256"
        },
        {
          "indexed": false,
          "internalType": "string",
          "name": "name",
          "type": "string"
        }
      ],
      "name": "CandidateAdded",
      "type": "event"
    },
    {
      "anonymous": false,
      "inputs": [
        {
          "indexed": true,
          "internalType": "uint256",
          "name": "candidateId",
          "type": "uint256"
        },
        {
          "indexed": false,
          "internalType": "bool",
          "name": "isActive",
          "type": "bool"
        }
      ],
      "name": "CandidateStatusChanged",
      "type": "event"
    },
    {
      "anonymous": false,
      "inputs": [
        {
          "indexed": true,
          "internalType": "address",
          "name": "branchAddress",
          "type": "address"
        }
      ],
      "name": "KPUBranchDeactivated",
      "type": "event"
    },
    {
      "anonymous": false,
      "inputs": [
        {
          "indexed": true,
          "internalType": "address",
          "name": "branchAddress",
          "type": "address"
        },
        {
          "indexed": false,
          "internalType": "string",
          "name": "name",
          "type": "string"
        },
        {
          "indexed": false,
          "internalType": "string",
          "name": "region",
          "type": "string"
        }
      ],
      "name": "KPUBranchRegistered",
      "type": "event"
    },
    {
      "anonymous": false,
      "inputs": [
        {
          "indexed": true,
          "internalType": "string",
          "name": "nik",
          "type": "string"
        },
        {
          "indexed": true,
          "internalType": "uint256",
          "name": "candidateId",
          "type": "uint256"
        }
      ],
      "name": "VoteCasted",
      "type": "event"
    },
    {
      "anonymous": false,
      "inputs": [
        {
          "indexed": true,
          "internalType": "string",
          "name": "nik",
          "type": "string"
        },
        {
          "indexed": true,
          "internalType": "address",
          "name": "voterAddress",
          "type": "address"
        },
        {
          "indexed": false,
          "internalType": "string",
          "name": "region",
          "type": "string"
        }
      ],
      "name": "VoterRegistered",
      "type": "event"
    },
    {
      "anonymous": false,
      "inputs": [
        {
          "indexed": false,
          "internalType": "bool",
          "name": "isActive",
          "type": "bool"
        }
      ],
      "name": "VotingStatusChanged",
      "type": "event"
    },
    {
      "inputs": [],
      "name": "candidateCount",
      "outputs": [
        {
          "internalType": "uint256",
          "name": "",
          "type": "uint256"
        }
      ],
      "stateMutability": "view",
      "type": "function",
      "constant": true
    },
    {
      "inputs": [
        {
          "internalType": "uint256",
          "name": "",
          "type": "uint256"
        }
      ],
      "name": "candidates",
      "outputs": [
        {
          "internalType": "string",
          "name": "name",
          "type": "string"
        },
        {
          "internalType": "uint256",
          "name": "voteCount",
          "type": "uint256"
        },
        {
          "internalType": "bool",
          "name": "isActive",
          "type": "bool"
        }
      ],
      "stateMutability": "view",
      "type": "function",
      "constant": true
    },
    {
      "inputs": [],
      "name": "kpuAdmin",
      "outputs": [
        {
          "internalType": "address",
          "name": "",
          "type": "address"
        }
      ],
      "stateMutability": "view",
      "type": "function",
      "constant": true
    },
    {
      "inputs": [
        {
          "internalType": "uint256",
          "name": "",
          "type": "uint256"
        }
      ],
      "name": "kpuBranchAddresses",
      "outputs": [
        {
          "internalType": "string",
          "name": "name",
          "type": "string"
        },
        {
          "internalType": "address",
          "name": "branchAddress",
          "type": "address"
        },
        {
          "internalType": "bool",
          "name": "isActive",
          "type": "bool"
        },
        {
          "internalType": "string",
          "name": "region",
          "type": "string"
        }
      ],
      "stateMutability": "view",
      "type": "function",
      "constant": true
    },
    {
      "inputs": [
        {
          "internalType": "address",
          "name": "",
          "type": "address"
        }
      ],
      "name": "kpuBranches",
      "outputs": [
        {
          "internalType": "string",
          "name": "name",
          "type": "string"
        },
        {
          "internalType": "address",
          "name": "branchAddress",
          "type": "address"
        },
        {
          "internalType": "bool",
          "name": "isActive",
          "type": "bool"
        },
        {
          "internalType": "string",
          "name": "region",
          "type": "string"
        }
      ],
      "stateMutability": "view",
      "type": "function",
      "constant": true
    },
    {
      "inputs": [
        {
          "internalType": "uint256",
          "name": "",
          "type": "uint256"
        }
      ],
      "name": "voterAddresses",
      "outputs": [
        {
          "internalType": "string",
          "name": "nik",
          "type": "string"
        },
        {
          "internalType": "address",
          "name": "voterAddress",
          "type": "address"
        },
        {
          "internalType": "bool",
          "name": "hasVoted",
          "type": "bool"
        },
        {
          "internalType": "string",
          "name": "region",
          "type": "string"
        },
        {
          "internalType": "bool",
          "name": "isRegistered",
          "type": "bool"
        }
      ],
      "stateMutability": "view",
      "type": "function",
      "constant": true
    },
    {
      "inputs": [
        {
          "internalType": "address",
          "name": "",
          "type": "address"
        }
      ],
      "name": "voterNIKByAddress",
      "outputs": [
        {
          "internalType": "string",
          "name": "",
          "type": "string"
        }
      ],
      "stateMutability": "view",
      "type": "function",
      "constant": true
    },
    {
      "inputs": [
        {
          "internalType": "string",
          "name": "",
          "type": "string"
        }
      ],
      "name": "voters",
      "outputs": [
        {
          "internalType": "string",
          "name": "nik",
          "type": "string"
        },
        {
          "internalType": "address",
          "name": "voterAddress",
          "type": "address"
        },
        {
          "internalType": "bool",
          "name": "hasVoted",
          "type": "bool"
        },
        {
          "internalType": "string",
          "name": "region",
          "type": "string"
        },
        {
          "internalType": "bool",
          "name": "isRegistered",
          "type": "bool"
        }
      ],
      "stateMutability": "view",
      "type": "function",
      "constant": true
    },
    {
      "inputs": [],
      "name": "votingActive",
      "outputs": [
        {
          "internalType": "bool",
          "name": "",
          "type": "bool"
        }
      ],
      "stateMutability": "view",
      "type": "function",
      "constant": true
    },
    {
      "inputs": [
        {
          "internalType": "address",
          "name": "branchAddress",
          "type": "address"
        },
        {
          "internalType": "string",
          "name": "name",
          "type": "string"
        },
        {
          "internalType": "string",
          "name": "region",
          "type": "string"
        }
      ],
      "name": "registerKPUBranch",
      "outputs": [],
      "stateMutability": "nonpayable",
      "type": "function"
    },
    {
      "inputs": [
        {
          "internalType": "address",
          "name": "branchAddress",
          "type": "address"
        }
      ],
      "name": "deactivateKPUBranch",
      "outputs": [],
      "stateMutability": "nonpayable",
      "type": "function"
    },
    {
      "inputs": [
        {
          "internalType": "string",
          "name": "nik",
          "type": "string"
        },
        {
          "internalType": "address",
          "name": "voterAddress",
          "type": "address"
        }
      ],
      "name": "registerVoter",
      "outputs": [],
      "stateMutability": "nonpayable",
      "type": "function"
    },
    {
      "inputs": [
        {
          "internalType": "uint256",
          "name": "candidateId",
          "type": "uint256"
        }
      ],
      "name": "vote",
      "outputs": [],
      "stateMutability": "nonpayable",
      "type": "function"
    },
    {
      "inputs": [
        {
          "internalType": "string",
          "name": "name",
          "type": "string"
        }
      ],
      "name": "addCandidate",
      "outputs": [],
      "stateMutability": "nonpayable",
      "type": "function"
    },
    {
      "inputs": [
        {
          "internalType": "uint256",
          "name": "candidateId",
          "type": "uint256"
        }
      ],
      "name": "toggleCandidateActive",
      "outputs": [],
      "stateMutability": "nonpayable",
      "type": "function"
    },
    {
      "inputs": [
        {
          "internalType": "bool",
          "name": "status",
          "type": "bool"
        }
      ],
      "name": "setVotingStatus",
      "outputs": [],
      "stateMutability": "nonpayable",
      "type": "function"
    },
    {
      "inputs": [
        {
          "internalType": "address",
          "name": "newAdmin",
          "type": "address"
        }
      ],
      "name": "setKpuAdmin",
      "outputs": [],
      "stateMutability": "nonpayable",
      "type": "function"
    },
    {
      "inputs": [],
      "name": "getAllKPUBranches",
      "outputs": [
        {
          "components": [
            {
              "internalType": "string",
              "name": "name",
              "type": "string"
            },
            {
              "internalType": "address",
              "name": "branchAddress",
              "type": "address"
            },
            {
              "internalType": "bool",
              "name": "isActive",
              "type": "bool"
            },
            {
              "internalType": "string",
              "name": "region",
              "type": "string"
            }
          ],
          "internalType": "struct Votechain.KPUBranch[]",
          "name": "",
          "type": "tuple[]"
        }
      ],
      "stateMutability": "view",
      "type": "function",
      "constant": true
    },
    {
      "inputs": [
        {
          "internalType": "address",
          "name": "branchAddress",
          "type": "address"
        }
      ],
      "name": "getBranchByAddress",
      "outputs": [
        {
          "components": [
            {
              "internalType": "string",
              "name": "name",
              "type": "string"
            },
            {
              "internalType": "address",
              "name": "branchAddress",
              "type": "address"
            },
            {
              "internalType": "bool",
              "name": "isActive",
              "type": "bool"
            },
            {
              "internalType": "string",
              "name": "region",
              "type": "string"
            }
          ],
          "internalType": "struct Votechain.KPUBranch",
          "name": "",
          "type": "tuple"
        }
      ],
      "stateMutability": "view",
      "type": "function",
      "constant": true
    },
    {
      "inputs": [],
      "name": "getAllVoter",
      "outputs": [
        {
          "components": [
            {
              "internalType": "string",
              "name": "nik",
              "type": "string"
            },
            {
              "internalType": "address",
              "name": "voterAddress",
              "type": "address"
            },
            {
              "internalType": "bool",
              "name": "hasVoted",
              "type": "bool"
            },
            {
              "internalType": "string",
              "name": "region",
              "type": "string"
            },
            {
              "internalType": "bool",
              "name": "isRegistered",
              "type": "bool"
            }
          ],
          "internalType": "struct Votechain.Voter[]",
          "name": "",
          "type": "tuple[]"
        }
      ],
      "stateMutability": "view",
      "type": "function",
      "constant": true
    },
    {
      "inputs": [
        {
          "internalType": "string",
          "name": "nik",
          "type": "string"
        }
      ],
      "name": "getVoterByNIK",
      "outputs": [
        {
          "components": [
            {
              "internalType": "string",
              "name": "nik",
              "type": "string"
            },
            {
              "internalType": "address",
              "name": "voterAddress",
              "type": "address"
            },
            {
              "internalType": "bool",
              "name": "hasVoted",
              "type": "bool"
            },
            {
              "internalType": "string",
              "name": "region",
              "type": "string"
            },
            {
              "internalType": "bool",
              "name": "isRegistered",
              "type": "bool"
            }
          ],
          "internalType": "struct Votechain.Voter",
          "name": "",
          "type": "tuple"
        }
      ],
      "stateMutability": "view",
      "type": "function",
      "constant": true
    },
    {
      "inputs": [
        {
          "internalType": "address",
          "name": "voterAddress",
          "type": "address"
        }
      ],
      "name": "getVoterByAddress",
      "outputs": [
        {
          "components": [
            {
              "internalType": "string",
              "name": "nik",
              "type": "string"
            },
            {
              "internalType": "address",
              "name": "voterAddress",
              "type": "address"
            },
            {
              "internalType": "bool",
              "name": "hasVoted",
              "type": "bool"
            },
            {
              "internalType": "string",
              "name": "region",
              "type": "string"
            },
            {
              "internalType": "bool",
              "name": "isRegistered",
              "type": "bool"
            }
          ],
          "internalType": "struct Votechain.Voter",
          "name": "",
          "type": "tuple"
        }
      ],
      "stateMutability": "view",
      "type": "function",
      "constant": true
    },
    {
      "inputs": [
        {
          "internalType": "string",
          "name": "region",
          "type": "string"
        }
      ],
      "name": "getVoterByRegion",
      "outputs": [
        {
          "components": [
            {
              "internalType": "string",
              "name": "nik",
              "type": "string"
            },
            {
              "internalType": "address",
              "name": "voterAddress",
              "type": "address"
            },
            {
              "internalType": "bool",
              "name": "hasVoted",
              "type": "bool"
            },
            {
              "internalType": "string",
              "name": "region",
              "type": "string"
            },
            {
              "internalType": "bool",
              "name": "isRegistered",
              "type": "bool"
            }
          ],
          "internalType": "struct Votechain.Voter[]",
          "name": "",
          "type": "tuple[]"
        }
      ],
      "stateMutability": "view",
      "type": "function",
      "constant": true
    },
    {
      "inputs": [
        {
          "internalType": "uint256",
          "name": "candidateId",
          "type": "uint256"
        }
      ],
      "name": "getCandidate",
      "outputs": [
        {
          "components": [
            {
              "internalType": "string",
              "name": "name",
              "type": "string"
            },
            {
              "internalType": "uint256",
              "name": "voteCount",
              "type": "uint256"
            },
            {
              "internalType": "bool",
              "name": "isActive",
              "type": "bool"
            }
          ],
          "internalType": "struct Votechain.Candidate",
          "name": "",
          "type": "tuple"
        }
      ],
      "stateMutability": "view",
      "type": "function",
      "constant": true
    },
    {
      "inputs": [],
      "name": "getAllCandidates",
      "outputs": [
        {
          "components": [
            {
              "internalType": "string",
              "name": "name",
              "type": "string"
            },
            {
              "internalType": "uint256",
              "name": "voteCount",
              "type": "uint256"
            },
            {
              "internalType": "bool",
              "name": "isActive",
              "type": "bool"
            }
          ],
          "internalType": "struct Votechain.Candidate[]",
          "name": "",
          "type": "tuple[]"
        }
      ],
      "stateMutability": "view",
      "type": "function",
      "constant": true
    }
  ],
  "bytecode": "0x6080604052348015600f57600080fd5b50336000806101000a81548173ffffffffffffffffffffffffffffffffffffffff021916908373ffffffffffffffffffffffffffffffffffffffff1602179055506147368061005f6000396000f3fe608060405234801561001057600080fd5b5060043610610190576000357c01000000000000000000000000000000000000000000000000000000009004806353fa2e64116100fb578063b0c9b9a0116100b4578063efe3b01b1161008e578063efe3b01b146104ad578063f0416e5f146104dd578063f44f4e141461050d578063fb4ab1641461052b57610190565b8063b0c9b9a01461042b578063dd0e237314610449578063e0d5343b1461047d57610190565b806353fa2e64146103525780637478c9fe146103865780639df86dc1146103a2578063a9a981a3146103be578063ab165a3e146103dc578063b07bab991461040f57610190565b806335b8e8201161014d57806335b8e82014610280578063408e2727146102b0578063462e91ec146102ce5780634a075de2146102ea5780634bdd7585146103065780634c3614351461033657610190565b80630121b93f14610195578063027d8514146101b157806304abffb5146101cd5780632a70ecca146102005780632e6997fe146102305780633477ee2e1461024e575b600080fd5b6101af60048036038101906101aa9190613356565b610549565b005b6101cb60048036038101906101c69190613446565b610805565b005b6101e760048036038101906101e29190613356565b610d61565b6040516101f79493929190613595565b60405180910390f35b61021a600480360381019061021591906135e8565b610ede565b604051610227919061371a565b60405180910390f35b6102386110c9565b604051610245919061385d565b60405180910390f35b61026860048036038101906102639190613356565b61124f565b6040516102779392919061388e565b60405180910390f35b61029a60048036038101906102959190613356565b61130e565b6040516102a7919061391c565b60405180910390f35b6102b8611439565b6040516102c5919061393e565b60405180910390f35b6102e860048036038101906102e391906135e8565b61144c565b005b61030460048036038101906102ff9190613959565b6115e4565b005b610320600480360381019061031b91906139b9565b611b60565b60405161032d919061371a565b60405180910390f35b610350600480360381019061034b91906139b9565b611e50565b005b61036c60048036038101906103679190613b16565b611ffc565b60405161037d959493929190613b5f565b60405180910390f35b6103a0600480360381019061039b9190613bec565b612192565b005b6103bc60048036038101906103b791906139b9565b61226b565b005b6103c6612333565b6040516103d39190613c19565b60405180910390f35b6103f660048036038101906103f191906139b9565b612339565b6040516104069493929190613595565b60405180910390f35b61042960048036038101906104249190613356565b6124a6565b005b610433612622565b6040516104409190613d60565b60405180910390f35b610463600480360381019061045e9190613356565b612816565b604051610474959493929190613b5f565b60405180910390f35b610497600480360381019061049291906135e8565b6129a6565b6040516104a49190613ec1565b60405180910390f35b6104c760048036038101906104c291906139b9565b612d19565b6040516104d49190613f4d565b60405180910390f35b6104f760048036038101906104f291906139b9565b612f8d565b6040516105049190613f6f565b60405180910390f35b61051561302d565b6040516105229190613ec1565b60405180910390f35b61053361323c565b6040516105409190613f91565b60405180910390f35b600060149054906101000a900460ff1661058f576040517f9b8cc47500000000000000000000000000000000000000000000000000000000815260040160405180910390fd5b6000600560003373ffffffffffffffffffffffffffffffffffffffff1673ffffffffffffffffffffffffffffffffffffffff16815260200190815260200160002080546105db90613fdb565b80601f016020809104026020016040519081016040528092919081815260200182805461060790613fdb565b80156106545780601f1061062957610100808354040283529160200191610654565b820191906000526020600020905b81548152906001019060200180831161063757829003601f168201915b505050505090506000815103610696576040517f6f08c58700000000000000000000000000000000000000000000000000000000815260040160405180910390fd5b60006003826040516106a89190614048565b908152602001604051809103902090508060010160149054906101000a900460ff1615610701576040517f7c9a1cf900000000000000000000000000000000000000000000000000000000815260040160405180910390fd5b6000831480610711575060015483115b8061073d57506004600084815260200190815260200160002060020160009054906101000a900460ff16155b15610774576040517fe66ea08f00000000000000000000000000000000000000000000000000000000815260040160405180910390fd5b60018160010160146101000a81548160ff0219169083151502179055506004600084815260200190815260200160002060010160008154809291906107b89061408e565b919050555082826040516107cc9190614048565b60405180910390207ffef5593509c07a56349ed6186376be2d0864f40445c320bd3ea7f81c5e1de00d60405160405180910390a3505050565b60008054906101000a900473ffffffffffffffffffffffffffffffffffffffff1673ffffffffffffffffffffffffffffffffffffffff163373ffffffffffffffffffffffffffffffffffffffff161461088a576040517f8b8958dc00000000000000000000000000000000000000000000000000000000815260040160405180910390fd5b600260008673ffffffffffffffffffffffffffffffffffffffff1673ffffffffffffffffffffffffffffffffffffffff16815260200190815260200160002060010160149054906101000a900460ff1615610911576040517fd3eede8600000000000000000000000000000000000000000000000000000000815260040160405180910390fd5b604051806080016040528085858080601f016020809104026020016040519081016040528093929190818152602001838380828437600081840152601f19601f8201169050808301925050505050505081526020018673ffffffffffffffffffffffffffffffffffffffff16815260200160011515815260200183838080601f016020809104026020016040519081016040528093929190818152602001838380828437600081840152601f19601f82011690508083019250505050505050815250600260008773ffffffffffffffffffffffffffffffffffffffff1673ffffffffffffffffffffffffffffffffffffffff1681526020019081526020016000206000820151816000019081610a279190614288565b5060208201518160010160006101000a81548173ffffffffffffffffffffffffffffffffffffffff021916908373ffffffffffffffffffffffffffffffffffffffff16021790555060408201518160010160146101000a81548160ff0219169083151502179055506060820151816002019081610aa49190614288565b509050506000604051806080016040528086868080601f016020809104026020016040519081016040528093929190818152602001838380828437600081840152601f19601f8201169050808301925050505050505081526020018773ffffffffffffffffffffffffffffffffffffffff16815260200160011515815260200184848080601f016020809104026020016040519081016040528093929190818152602001838380828437600081840152601f19601f82011690508083019250505050505050815250905080600260008873ffffffffffffffffffffffffffffffffffffffff1673ffffffffffffffffffffffffffffffffffffffff1681526020019081526020016000206000820151816000019081610bc39190614288565b5060208201518160010160006101000a81548173ffffffffffffffffffffffffffffffffffffffff021916908373ffffffffffffffffffffffffffffffffffffffff16021790555060408201518160010160146101000a81548160ff0219169083151502179055506060820151816002019081610c409190614288565b5090505060068190806001815401808255809150506001900390600052602060002090600302016000909190919091506000820151816000019081610c859190614288565b5060208201518160010160006101000a81548173ffffffffffffffffffffffffffffffffffffffff021916908373ffffffffffffffffffffffffffffffffffffffff16021790555060408201518160010160146101000a81548160ff0219169083151502179055506060820151816002019081610d029190614288565b5050508573ffffffffffffffffffffffffffffffffffffffff167fc4e2c95246cc050bddc27763a59824d38df0df18e23f19099623d7e1618790f686868686604051610d519493929190614387565b60405180910390a2505050505050565b60068181548110610d7157600080fd5b9060005260206000209060030201600091509050806000018054610d9490613fdb565b80601f0160208091040260200160405190810160405280929190818152602001828054610dc090613fdb565b8015610e0d5780601f10610de257610100808354040283529160200191610e0d565b820191906000526020600020905b815481529060010190602001808311610df057829003601f168201915b5050505050908060010160009054906101000a900473ffffffffffffffffffffffffffffffffffffffff16908060010160149054906101000a900460ff1690806002018054610e5b90613fdb565b80601f0160208091040260200160405190810160405280929190818152602001828054610e8790613fdb565b8015610ed45780601f10610ea957610100808354040283529160200191610ed4565b820191906000526020600020905b815481529060010190602001808311610eb757829003601f168201915b5050505050905084565b610ee6613260565b60038383604051610ef89291906143e7565b90815260200160405180910390206040518060a0016040529081600082018054610f2190613fdb565b80601f0160208091040260200160405190810160405280929190818152602001828054610f4d90613fdb565b8015610f9a5780601f10610f6f57610100808354040283529160200191610f9a565b820191906000526020600020905b815481529060010190602001808311610f7d57829003601f168201915b505050505081526020016001820160009054906101000a900473ffffffffffffffffffffffffffffffffffffffff1673ffffffffffffffffffffffffffffffffffffffff1673ffffffffffffffffffffffffffffffffffffffff1681526020016001820160149054906101000a900460ff1615151515815260200160028201805461102490613fdb565b80601f016020809104026020016040519081016040528092919081815260200182805461105090613fdb565b801561109d5780601f106110725761010080835404028352916020019161109d565b820191906000526020600020905b81548152906001019060200180831161108057829003601f168201915b505050505081526020016003820160009054906101000a900460ff161515151581525050905092915050565b6060600060015467ffffffffffffffff8111156110e9576110e86139eb565b5b60405190808252806020026020018201604052801561112257816020015b61110f6132a9565b8152602001906001900390816111075790505b5090506000600190505b6001548111611247576004600082815260200190815260200160002060405180606001604052908160008201805461116390613fdb565b80601f016020809104026020016040519081016040528092919081815260200182805461118f90613fdb565b80156111dc5780601f106111b1576101008083540402835291602001916111dc565b820191906000526020600020905b8154815290600101906020018083116111bf57829003601f168201915b50505050508152602001600182015481526020016002820160009054906101000a900460ff161515151581525050826001836112189190614400565b8151811061122957611228614434565b5b6020026020010181905250808061123f9061408e565b91505061112c565b508091505090565b600460205280600052604060002060009150905080600001805461127290613fdb565b80601f016020809104026020016040519081016040528092919081815260200182805461129e90613fdb565b80156112eb5780601f106112c0576101008083540402835291602001916112eb565b820191906000526020600020905b8154815290600101906020018083116112ce57829003601f168201915b5050505050908060010154908060020160009054906101000a900460ff16905083565b6113166132a9565b6000821480611326575060015482115b1561135d576040517fe66ea08f00000000000000000000000000000000000000000000000000000000815260040160405180910390fd5b6004600083815260200190815260200160002060405180606001604052908160008201805461138b90613fdb565b80601f01602080910402602001604051908101604052809291908181526020018280546113b790613fdb565b80156114045780601f106113d957610100808354040283529160200191611404565b820191906000526020600020905b8154815290600101906020018083116113e757829003601f168201915b50505050508152602001600182015481526020016002820160009054906101000a900460ff1615151515815250509050919050565b600060149054906101000a900460ff1681565b60008054906101000a900473ffffffffffffffffffffffffffffffffffffffff1673ffffffffffffffffffffffffffffffffffffffff163373ffffffffffffffffffffffffffffffffffffffff16146114d1576040517f8b8958dc00000000000000000000000000000000000000000000000000000000815260040160405180910390fd5b600160008154809291906114e49061408e565b9190505550604051806060016040528083838080601f016020809104026020016040519081016040528093929190818152602001838380828437600081840152601f19601f820116905080830192505050505050508152602001600081526020016001151581525060046000600154815260200190815260200160002060008201518160000190816115769190614288565b506020820151816001015560408201518160020160006101000a81548160ff0219169083151502179055509050506001547fe83b2a43e7e82d975c8a0a6d2f045153c869e111136a34d1889ab7b598e396a383836040516115d8929190614463565b60405180910390a25050565b600260003373ffffffffffffffffffffffffffffffffffffffff1673ffffffffffffffffffffffffffffffffffffffff16815260200190815260200160002060010160149054906101000a900460ff1661166a576040517f72c7057a00000000000000000000000000000000000000000000000000000000815260040160405180910390fd5b6003838360405161167c9291906143e7565b908152602001604051809103902060030160009054906101000a900460ff16156116d2576040517f59a1ec4700000000000000000000000000000000000000000000000000000000815260040160405180910390fd5b6000600560008373ffffffffffffffffffffffffffffffffffffffff1673ffffffffffffffffffffffffffffffffffffffff168152602001908152602001600020805461171e90613fdb565b905014611757576040517f2d42c77200000000000000000000000000000000000000000000000000000000815260040160405180910390fd5b60006040518060a0016040528085858080601f016020809104026020016040519081016040528093929190818152602001838380828437600081840152601f19601f8201169050808301925050505050505081526020018373ffffffffffffffffffffffffffffffffffffffff168152602001600015158152602001600260003373ffffffffffffffffffffffffffffffffffffffff1673ffffffffffffffffffffffffffffffffffffffff168152602001908152602001600020600201805461182090613fdb565b80601f016020809104026020016040519081016040528092919081815260200182805461184c90613fdb565b80156118995780601f1061186e57610100808354040283529160200191611899565b820191906000526020600020905b81548152906001019060200180831161187c57829003601f168201915b5050505050815260200160011515815250905080600385856040516118bf9291906143e7565b908152602001604051809103902060008201518160000190816118e29190614288565b5060208201518160010160006101000a81548173ffffffffffffffffffffffffffffffffffffffff021916908373ffffffffffffffffffffffffffffffffffffffff16021790555060408201518160010160146101000a81548160ff021916908315150217905550606082015181600201908161195f9190614288565b5060808201518160030160006101000a81548160ff0219169083151502179055509050508383600560008573ffffffffffffffffffffffffffffffffffffffff1673ffffffffffffffffffffffffffffffffffffffff16815260200190815260200160002091826119d1929190614492565b5060078190806001815401808255809150506001900390600052602060002090600402016000909190919091506000820151816000019081611a139190614288565b5060208201518160010160006101000a81548173ffffffffffffffffffffffffffffffffffffffff021916908373ffffffffffffffffffffffffffffffffffffffff16021790555060408201518160010160146101000a81548160ff0219169083151502179055506060820151816002019081611a909190614288565b5060808201518160030160006101000a81548160ff02191690831515021790555050508173ffffffffffffffffffffffffffffffffffffffff168484604051611ada9291906143e7565b60405180910390207fe8bf381bec3899d7c4d98d7e52cfd45dfe7254b2ceafbb4d6dca1235ed10624d600260003373ffffffffffffffffffffffffffffffffffffffff1673ffffffffffffffffffffffffffffffffffffffff168152602001908152602001600020600201604051611b5291906145e6565b60405180910390a350505050565b611b68613260565b6000600560008473ffffffffffffffffffffffffffffffffffffffff1673ffffffffffffffffffffffffffffffffffffffff1681526020019081526020016000208054611bb490613fdb565b80601f0160208091040260200160405190810160405280929190818152602001828054611be090613fdb565b8015611c2d5780601f10611c0257610100808354040283529160200191611c2d565b820191906000526020600020905b815481529060010190602001808311611c1057829003601f168201915b505050505090506000815103611c6f576040517f6f08c58700000000000000000000000000000000000000000000000000000000815260040160405180910390fd5b600381604051611c7f9190614048565b90815260200160405180910390206040518060a0016040529081600082018054611ca890613fdb565b80601f0160208091040260200160405190810160405280929190818152602001828054611cd490613fdb565b8015611d215780601f10611cf657610100808354040283529160200191611d21565b820191906000526020600020905b815481529060010190602001808311611d0457829003601f168201915b505050505081526020016001820160009054906101000a900473ffffffffffffffffffffffffffffffffffffffff1673ffffffffffffffffffffffffffffffffffffffff1673ffffffffffffffffffffffffffffffffffffffff1681526020016001820160149054906101000a900460ff16151515158152602001600282018054611dab90613fdb565b80601f0160208091040260200160405190810160405280929190818152602001828054611dd790613fdb565b8015611e245780601f10611df957610100808354040283529160200191611e24565b820191906000526020600020905b815481529060010190602001808311611e0757829003601f168201915b505050505081526020016003820160009054906101000a900460ff161515151581525050915050919050565b60008054906101000a900473ffffffffffffffffffffffffffffffffffffffff1673ffffffffffffffffffffffffffffffffffffffff163373ffffffffffffffffffffffffffffffffffffffff1614611ed5576040517f8b8958dc00000000000000000000000000000000000000000000000000000000815260040160405180910390fd5b600260008273ffffffffffffffffffffffffffffffffffffffff1673ffffffffffffffffffffffffffffffffffffffff16815260200190815260200160002060010160149054906101000a900460ff16611f5b576040517fc75d5c6500000000000000000000000000000000000000000000000000000000815260040160405180910390fd5b6000600260008373ffffffffffffffffffffffffffffffffffffffff1673ffffffffffffffffffffffffffffffffffffffff16815260200190815260200160002060010160146101000a81548160ff0219169083151502179055508073ffffffffffffffffffffffffffffffffffffffff167f3954ed3404fab00c2419751b1587a1f6655215f0dc812ab5ed515d4c2677b2d360405160405180910390a250565b60038180516020810182018051848252602083016020850120818352809550505050505060009150905080600001805461203590613fdb565b80601f016020809104026020016040519081016040528092919081815260200182805461206190613fdb565b80156120ae5780601f10612083576101008083540402835291602001916120ae565b820191906000526020600020905b81548152906001019060200180831161209157829003601f168201915b5050505050908060010160009054906101000a900473ffffffffffffffffffffffffffffffffffffffff16908060010160149054906101000a900460ff16908060020180546120fc90613fdb565b80601f016020809104026020016040519081016040528092919081815260200182805461212890613fdb565b80156121755780601f1061214a57610100808354040283529160200191612175565b820191906000526020600020905b81548152906001019060200180831161215857829003601f168201915b5050505050908060030160009054906101000a900460ff16905085565b60008054906101000a900473ffffffffffffffffffffffffffffffffffffffff1673ffffffffffffffffffffffffffffffffffffffff163373ffffffffffffffffffffffffffffffffffffffff1614612217576040517f8b8958dc00000000000000000000000000000000000000000000000000000000815260040160405180910390fd5b80600060146101000a81548160ff0219169083151502179055507f9069a1a16ace751e8690f383e12f87b01e8488ba387e626810bd113fef0417f981604051612260919061393e565b60405180910390a150565b60008054906101000a900473ffffffffffffffffffffffffffffffffffffffff1673ffffffffffffffffffffffffffffffffffffffff163373ffffffffffffffffffffffffffffffffffffffff16146122f0576040517f8b8958dc00000000000000000000000000000000000000000000000000000000815260040160405180910390fd5b806000806101000a81548173ffffffffffffffffffffffffffffffffffffffff021916908373ffffffffffffffffffffffffffffffffffffffff16021790555050565b60015481565b600260205280600052604060002060009150905080600001805461235c90613fdb565b80601f016020809104026020016040519081016040528092919081815260200182805461238890613fdb565b80156123d55780601f106123aa576101008083540402835291602001916123d5565b820191906000526020600020905b8154815290600101906020018083116123b857829003601f168201915b5050505050908060010160009054906101000a900473ffffffffffffffffffffffffffffffffffffffff16908060010160149054906101000a900460ff169080600201805461242390613fdb565b80601f016020809104026020016040519081016040528092919081815260200182805461244f90613fdb565b801561249c5780601f106124715761010080835404028352916020019161249c565b820191906000526020600020905b81548152906001019060200180831161247f57829003601f168201915b5050505050905084565b60008054906101000a900473ffffffffffffffffffffffffffffffffffffffff1673ffffffffffffffffffffffffffffffffffffffff163373ffffffffffffffffffffffffffffffffffffffff161461252b576040517f8b8958dc00000000000000000000000000000000000000000000000000000000815260040160405180910390fd5b600081148061253b575060015481115b15612572576040517fe66ea08f00000000000000000000000000000000000000000000000000000000815260040160405180910390fd5b6004600082815260200190815260200160002060020160009054906101000a900460ff16156004600083815260200190815260200160002060020160006101000a81548160ff021916908315150217905550807f07a9fd7fc1368910c1b62e58319c10b4ba034e9e4d58aa2ef36e9283fc2c5f976004600084815260200190815260200160002060020160009054906101000a900460ff16604051612617919061393e565b60405180910390a250565b60606006805480602002602001604051908101604052809291908181526020016000905b8282101561280d578382906000526020600020906003020160405180608001604052908160008201805461267990613fdb565b80601f01602080910402602001604051908101604052809291908181526020018280546126a590613fdb565b80156126f25780601f106126c7576101008083540402835291602001916126f2565b820191906000526020600020905b8154815290600101906020018083116126d557829003601f168201915b505050505081526020016001820160009054906101000a900473ffffffffffffffffffffffffffffffffffffffff1673ffffffffffffffffffffffffffffffffffffffff1673ffffffffffffffffffffffffffffffffffffffff1681526020016001820160149054906101000a900460ff1615151515815260200160028201805461277c90613fdb565b80601f01602080910402602001604051908101604052809291908181526020018280546127a890613fdb565b80156127f55780601f106127ca576101008083540402835291602001916127f5565b820191906000526020600020905b8154815290600101906020018083116127d857829003601f168201915b50505050508152505081526020019060010190612646565b50505050905090565b6007818154811061282657600080fd5b906000526020600020906004020160009150905080600001805461284990613fdb565b80601f016020809104026020016040519081016040528092919081815260200182805461287590613fdb565b80156128c25780601f10612897576101008083540402835291602001916128c2565b820191906000526020600020905b8154815290600101906020018083116128a557829003601f168201915b5050505050908060010160009054906101000a900473ffffffffffffffffffffffffffffffffffffffff16908060010160149054906101000a900460ff169080600201805461291090613fdb565b80601f016020809104026020016040519081016040528092919081815260200182805461293c90613fdb565b80156129895780601f1061295e57610100808354040283529160200191612989565b820191906000526020600020905b81548152906001019060200180831161296c57829003601f168201915b5050505050908060030160009054906101000a900460ff16905085565b6060600080600090505b600780549050811015612a305784846040516129cd929190614638565b6040518091039020600782815481106129e9576129e8614434565b5b9060005260206000209060040201600201604051612a0791906146e9565b604051809103902003612a23578180612a1f9061408e565b9250505b80806001019150506129b0565b5060008167ffffffffffffffff811115612a4d57612a4c6139eb565b5b604051908082528060200260200182016040528015612a8657816020015b612a73613260565b815260200190600190039081612a6b5790505b509050600080600090505b600780549050811015612d0c578686604051612aae929190614638565b604051809103902060078281548110612aca57612ac9614434565b5b9060005260206000209060040201600201604051612ae891906146e9565b604051809103902003612cff5760078181548110612b0957612b08614434565b5b90600052602060002090600402016040518060a0016040529081600082018054612b3290613fdb565b80601f0160208091040260200160405190810160405280929190818152602001828054612b5e90613fdb565b8015612bab5780601f10612b8057610100808354040283529160200191612bab565b820191906000526020600020905b815481529060010190602001808311612b8e57829003601f168201915b505050505081526020016001820160009054906101000a900473ffffffffffffffffffffffffffffffffffffffff1673ffffffffffffffffffffffffffffffffffffffff1673ffffffffffffffffffffffffffffffffffffffff1681526020016001820160149054906101000a900460ff16151515158152602001600282018054612c3590613fdb565b80601f0160208091040260200160405190810160405280929190818152602001828054612c6190613fdb565b8015612cae5780601f10612c8357610100808354040283529160200191612cae565b820191906000526020600020905b815481529060010190602001808311612c9157829003601f168201915b505050505081526020016003820160009054906101000a900460ff161515151581525050838381518110612ce557612ce4614434565b5b60200260200101819052508180612cfb9061408e565b9250505b8080600101915050612a91565b5081935050505092915050565b612d216132cc565b600260008373ffffffffffffffffffffffffffffffffffffffff1673ffffffffffffffffffffffffffffffffffffffff16815260200190815260200160002060010160149054906101000a900460ff16612da7576040517fc75d5c6500000000000000000000000000000000000000000000000000000000815260040160405180910390fd5b600260008373ffffffffffffffffffffffffffffffffffffffff1673ffffffffffffffffffffffffffffffffffffffff168152602001908152602001600020604051806080016040529081600082018054612e0190613fdb565b80601f0160208091040260200160405190810160405280929190818152602001828054612e2d90613fdb565b8015612e7a5780601f10612e4f57610100808354040283529160200191612e7a565b820191906000526020600020905b815481529060010190602001808311612e5d57829003601f168201915b505050505081526020016001820160009054906101000a900473ffffffffffffffffffffffffffffffffffffffff1673ffffffffffffffffffffffffffffffffffffffff1673ffffffffffffffffffffffffffffffffffffffff1681526020016001820160149054906101000a900460ff16151515158152602001600282018054612f0490613fdb565b80601f0160208091040260200160405190810160405280929190818152602001828054612f3090613fdb565b8015612f7d5780601f10612f5257610100808354040283529160200191612f7d565b820191906000526020600020905b815481529060010190602001808311612f6057829003601f168201915b5050505050815250509050919050565b60056020528060005260406000206000915090508054612fac90613fdb565b80601f0160208091040260200160405190810160405280929190818152602001828054612fd890613fdb565b80156130255780601f10612ffa57610100808354040283529160200191613025565b820191906000526020600020905b81548152906001019060200180831161300857829003601f168201915b505050505081565b60606007805480602002602001604051908101604052809291908181526020016000905b8282101561323357838290600052602060002090600402016040518060a001604052908160008201805461308490613fdb565b80601f01602080910402602001604051908101604052809291908181526020018280546130b090613fdb565b80156130fd5780601f106130d2576101008083540402835291602001916130fd565b820191906000526020600020905b8154815290600101906020018083116130e057829003601f168201915b505050505081526020016001820160009054906101000a900473ffffffffffffffffffffffffffffffffffffffff1673ffffffffffffffffffffffffffffffffffffffff1673ffffffffffffffffffffffffffffffffffffffff1681526020016001820160149054906101000a900460ff1615151515815260200160028201805461318790613fdb565b80601f01602080910402602001604051908101604052809291908181526020018280546131b390613fdb565b80156132005780601f106131d557610100808354040283529160200191613200565b820191906000526020600020905b8154815290600101906020018083116131e357829003601f168201915b505050505081526020016003820160009054906101000a900460ff16151515158152505081526020019060010190613051565b50505050905090565b60008054906101000a900473ffffffffffffffffffffffffffffffffffffffff1681565b6040518060a0016040528060608152602001600073ffffffffffffffffffffffffffffffffffffffff168152602001600015158152602001606081526020016000151581525090565b604051806060016040528060608152602001600081526020016000151581525090565b604051806080016040528060608152602001600073ffffffffffffffffffffffffffffffffffffffff168152602001600015158152602001606081525090565b6000604051905090565b600080fd5b600080fd5b6000819050919050565b61333381613320565b811461333e57600080fd5b50565b6000813590506133508161332a565b92915050565b60006020828403121561336c5761336b613316565b5b600061337a84828501613341565b91505092915050565b600073ffffffffffffffffffffffffffffffffffffffff82169050919050565b60006133ae82613383565b9050919050565b6133be816133a3565b81146133c957600080fd5b50565b6000813590506133db816133b5565b92915050565b600080fd5b600080fd5b600080fd5b60008083601f840112613406576134056133e1565b5b8235905067ffffffffffffffff811115613423576134226133e6565b5b60208301915083600182028301111561343f5761343e6133eb565b5b9250929050565b60008060008060006060868803121561346257613461613316565b5b6000613470888289016133cc565b955050602086013567ffffffffffffffff8111156134915761349061331b565b5b61349d888289016133f0565b9450945050604086013567ffffffffffffffff8111156134c0576134bf61331b565b5b6134cc888289016133f0565b92509250509295509295909350565b600081519050919050565b600082825260208201905092915050565b60005b838110156135155780820151818401526020810190506134fa565b60008484015250505050565b6000601f19601f8301169050919050565b600061353d826134db565b61354781856134e6565b93506135578185602086016134f7565b61356081613521565b840191505092915050565b613574816133a3565b82525050565b60008115159050919050565b61358f8161357a565b82525050565b600060808201905081810360008301526135af8187613532565b90506135be602083018661356b565b6135cb6040830185613586565b81810360608301526135dd8184613532565b905095945050505050565b600080602083850312156135ff576135fe613316565b5b600083013567ffffffffffffffff81111561361d5761361c61331b565b5b613629858286016133f0565b92509250509250929050565b600082825260208201905092915050565b6000613651826134db565b61365b8185613635565b935061366b8185602086016134f7565b61367481613521565b840191505092915050565b613688816133a3565b82525050565b6136978161357a565b82525050565b600060a08301600083015184820360008601526136ba8282613646565b91505060208301516136cf602086018261367f565b5060408301516136e2604086018261368e565b50606083015184820360608601526136fa8282613646565b915050608083015161370f608086018261368e565b508091505092915050565b60006020820190508181036000830152613734818461369d565b905092915050565b600081519050919050565b600082825260208201905092915050565b6000819050602082019050919050565b61377181613320565b82525050565b600060608301600083015184820360008601526137948282613646565b91505060208301516137a96020860182613768565b5060408301516137bc604086018261368e565b508091505092915050565b60006137d38383613777565b905092915050565b6000602082019050919050565b60006137f38261373c565b6137fd8185613747565b93508360208202850161380f85613758565b8060005b8581101561384b578484038952815161382c85826137c7565b9450613837836137db565b925060208a01995050600181019050613813565b50829750879550505050505092915050565b6000602082019050818103600083015261387781846137e8565b905092915050565b61388881613320565b82525050565b600060608201905081810360008301526138a88186613532565b90506138b7602083018561387f565b6138c46040830184613586565b949350505050565b600060608301600083015184820360008601526138e98282613646565b91505060208301516138fe6020860182613768565b506040830151613911604086018261368e565b508091505092915050565b6000602082019050818103600083015261393681846138cc565b905092915050565b60006020820190506139536000830184613586565b92915050565b60008060006040848603121561397257613971613316565b5b600084013567ffffffffffffffff8111156139905761398f61331b565b5b61399c868287016133f0565b935093505060206139af868287016133cc565b9150509250925092565b6000602082840312156139cf576139ce613316565b5b60006139dd848285016133cc565b91505092915050565b600080fd5b7f4e487b7100000000000000000000000000000000000000000000000000000000600052604160045260246000fd5b613a2382613521565b810181811067ffffffffffffffff82111715613a4257613a416139eb565b5b80604052505050565b6000613a5561330c565b9050613a618282613a1a565b919050565b600067ffffffffffffffff821115613a8157613a806139eb565b5b613a8a82613521565b9050602081019050919050565b82818337600083830152505050565b6000613ab9613ab484613a66565b613a4b565b905082815260208101848484011115613ad557613ad46139e6565b5b613ae0848285613a97565b509392505050565b600082601f830112613afd57613afc6133e1565b5b8135613b0d848260208601613aa6565b91505092915050565b600060208284031215613b2c57613b2b613316565b5b600082013567ffffffffffffffff811115613b4a57613b4961331b565b5b613b5684828501613ae8565b91505092915050565b600060a0820190508181036000830152613b798188613532565b9050613b88602083018761356b565b613b956040830186613586565b8181036060830152613ba78185613532565b9050613bb66080830184613586565b9695505050505050565b613bc98161357a565b8114613bd457600080fd5b50565b600081359050613be681613bc0565b92915050565b600060208284031215613c0257613c01613316565b5b6000613c1084828501613bd7565b91505092915050565b6000602082019050613c2e600083018461387f565b92915050565b600081519050919050565b600082825260208201905092915050565b6000819050602082019050919050565b60006080830160008301518482036000860152613c7d8282613646565b9150506020830151613c92602086018261367f565b506040830151613ca5604086018261368e565b5060608301518482036060860152613cbd8282613646565b9150508091505092915050565b6000613cd68383613c60565b905092915050565b6000602082019050919050565b6000613cf682613c34565b613d008185613c3f565b935083602082028501613d1285613c50565b8060005b85811015613d4e5784840389528151613d2f8582613cca565b9450613d3a83613cde565b925060208a01995050600181019050613d16565b50829750879550505050505092915050565b60006020820190508181036000830152613d7a8184613ceb565b905092915050565b600081519050919050565b600082825260208201905092915050565b6000819050602082019050919050565b600060a0830160008301518482036000860152613dcb8282613646565b9150506020830151613de0602086018261367f565b506040830151613df3604086018261368e565b5060608301518482036060860152613e0b8282613646565b9150506080830151613e20608086018261368e565b508091505092915050565b6000613e378383613dae565b905092915050565b6000602082019050919050565b6000613e5782613d82565b613e618185613d8d565b935083602082028501613e7385613d9e565b8060005b85811015613eaf5784840389528151613e908582613e2b565b9450613e9b83613e3f565b925060208a01995050600181019050613e77565b50829750879550505050505092915050565b60006020820190508181036000830152613edb8184613e4c565b905092915050565b60006080830160008301518482036000860152613f008282613646565b9150506020830151613f15602086018261367f565b506040830151613f28604086018261368e565b5060608301518482036060860152613f408282613646565b9150508091505092915050565b60006020820190508181036000830152613f678184613ee3565b905092915050565b60006020820190508181036000830152613f898184613532565b905092915050565b6000602082019050613fa6600083018461356b565b92915050565b7f4e487b7100000000000000000000000000000000000000000000000000000000600052602260045260246000fd5b60006002820490506001821680613ff357607f821691505b60208210810361400657614005613fac565b5b50919050565b600081905092915050565b6000614022826134db565b61402c818561400c565b935061403c8185602086016134f7565b80840191505092915050565b60006140548284614017565b915081905092915050565b7f4e487b7100000000000000000000000000000000000000000000000000000000600052601160045260246000fd5b600061409982613320565b91507fffffffffffffffffffffffffffffffffffffffffffffffffffffffffffffffff82036140cb576140ca61405f565b5b600182019050919050565b60008190508160005260206000209050919050565b60006020601f8301049050919050565b60008160020a8302905092915050565b60006008830261413b7fffffffffffffffffffffffffffffffffffffffffffffffffffffffffffffffff826140fb565b61414586836140fb565b95508019841693508086168417925050509392505050565b6000819050919050565b600061418261417d61417884613320565b61415d565b613320565b9050919050565b6000819050919050565b61419c83614167565b6141b06141a882614189565b84845461410b565b825550505050565b600090565b6141c56141b8565b6141d0818484614193565b505050565b5b818110156141f4576141e96000826141bd565b6001810190506141d6565b5050565b601f8211156142395761420a816140d6565b614213846140eb565b81016020851015614222578190505b61423661422e856140eb565b8301826141d5565b50505b505050565b60008160020a8304905092915050565b600061425f6000198460080261423e565b1980831691505092915050565b6000614278838361424e565b9150826002028217905092915050565b614291826134db565b67ffffffffffffffff8111156142aa576142a96139eb565b5b6142b48254613fdb565b6142bf8282856141f8565b600060209050601f8311600181146142f257600084156142e0578287015190505b6142ea858261426c565b865550614352565b601f198416614300866140d6565b60005b8281101561432857848901518255600182019150602085019450602081019050614303565b868310156143455784890151614341601f89168261424e565b8355505b6001600288020188555050505b505050505050565b600061436683856134e6565b9350614373838584613a97565b61437c83613521565b840190509392505050565b600060408201905081810360008301526143a281868861435a565b905081810360208301526143b781848661435a565b905095945050505050565b60006143ce838561400c565b93506143db838584613a97565b82840190509392505050565b60006143f48284866143c2565b91508190509392505050565b600061440b82613320565b915061441683613320565b925082820390508181111561442e5761442d61405f565b5b92915050565b7f4e487b7100000000000000000000000000000000000000000000000000000000600052603260045260246000fd5b6000602082019050818103600083015261447e81848661435a565b90509392505050565b600082905092915050565b61449c8383614487565b67ffffffffffffffff8111156144b5576144b46139eb565b5b6144bf8254613fdb565b6144ca8282856141f8565b6000601f8311600181146144f957600084156144e7578287013590505b6144f1858261426c565b865550614559565b601f198416614507866140d6565b60005b8281101561452f5784890135825560018201915060208501945060208101905061450a565b8683101561454c5784890135614548601f89168261424e565b8355505b6001600288020188555050505b50505050505050565b6000815461456f81613fdb565b61457981866134e6565b9450600182166000811461459457600181146145aa576145dd565b60ff1983168652811515602002860193506145dd565b6145b3856140d6565b60005b838110156145d5578154818901526001820191506020810190506145b6565b808801955050505b50505092915050565b600060208201905081810360008301526146008184614562565b905092915050565b600081905092915050565b600061461f8385614608565b935061462c838584613a97565b82840190509392505050565b6000614645828486614613565b91508190509392505050565b60008190508160005260206000209050919050565b6000815461467381613fdb565b61467d8186614608565b9450600182166000811461469857600181146146ad576146e0565b60ff19831686528115158202860193506146e0565b6146b685614651565b60005b838110156146d8578154818901526001820191506020810190506146b9565b838801955050505b50505092915050565b60006146f58284614666565b91508190509291505056fea264697066735822122035960d34d01aa791efca5b7e66ddd492f23ed19aa6909421a5945d6cc2dc6f6164736f6c63430008190033",
  "immutableReferences": {},
  "source": "// SPDX-License-Identifier: UNLICENSED\r\npragma solidity ^0.8.25;\r\n\r\ncontract Votechain {\r\n    error OnlyKpuAdmin();\r\n    error OnlyKpuBranch();\r\n    error VotingNotActive();\r\n    error BranchAlreadyRegistered();\r\n    error BranchNotActive();\r\n    error VoterAlreadyRegistered();\r\n    error AddressAlreadyRegistered();\r\n    error VoterNotRegistered();\r\n    error AlreadyVoted();\r\n    error InvalidCandidate();\r\n    error UnauthorizedVoter();\r\n\r\n    struct KPUBranch {\r\n        string name;\r\n        address branchAddress;\r\n        bool isActive;\r\n        string region;\r\n    }\r\n\r\n    struct Voter {\r\n        string nik;\r\n        address voterAddress;\r\n        bool hasVoted;\r\n        string region;\r\n        bool isRegistered;\r\n    }\r\n\r\n    struct Candidate {\r\n        string name;\r\n        uint256 voteCount;\r\n        bool isActive;\r\n    }\r\n\r\n    address public kpuAdmin;\r\n    bool public votingActive;\r\n    uint256 public candidateCount;\r\n\r\n    mapping(address => KPUBranch) public kpuBranches;\r\n    mapping(string => Voter) public voters;\r\n    mapping(uint256 => Candidate) public candidates;\r\n    mapping(address => string) public voterNIKByAddress;\r\n\r\n    KPUBranch[] public kpuBranchAddresses;\r\n    Voter[] public voterAddresses;\r\n\r\n    event KPUBranchRegistered(address indexed branchAddress, string name, string region);\r\n    event KPUBranchDeactivated(address indexed branchAddress);\r\n    event VoterRegistered(string indexed nik, address indexed voterAddress, string region);\r\n    event VoteCasted(string indexed nik, uint256 indexed candidateId);\r\n    event CandidateAdded(uint256 indexed candidateId, string name);\r\n    event CandidateStatusChanged(uint256 indexed candidateId, bool isActive);\r\n    event VotingStatusChanged(bool isActive);\r\n\r\n    modifier onlyKpuAdmin() {\r\n        if (msg.sender != kpuAdmin) revert OnlyKpuAdmin();\r\n        _;\r\n    }\r\n\r\n    modifier onlyKpuBranch() {\r\n        if (!kpuBranches[msg.sender].isActive) revert OnlyKpuBranch();\r\n        _;\r\n    }\r\n\r\n    modifier votingIsActive() {\r\n        if (!votingActive) revert VotingNotActive();\r\n        _;\r\n    }\r\n\r\n    constructor() {\r\n        kpuAdmin = msg.sender;\r\n    }\r\n\r\n    function registerKPUBranch(\r\n        address branchAddress,\r\n        string calldata name,\r\n        string calldata region\r\n    ) external onlyKpuAdmin {\r\n        if (kpuBranches[branchAddress].isActive) revert BranchAlreadyRegistered();\r\n\r\n        kpuBranches[branchAddress] = KPUBranch(\r\n            name,\r\n            branchAddress,\r\n            true,\r\n            region\r\n        );\r\n\r\n        KPUBranch memory newBranch = KPUBranch(name, branchAddress, true, region);\r\n        kpuBranches[branchAddress] = newBranch;\r\n        kpuBranchAddresses.push(newBranch);\r\n\r\n        emit KPUBranchRegistered(branchAddress, name, region);\r\n    }\r\n\r\n    function deactivateKPUBranch(address branchAddress) external onlyKpuAdmin {\r\n        if (!kpuBranches[branchAddress].isActive) revert BranchNotActive();\r\n        kpuBranches[branchAddress].isActive = false;\r\n        emit KPUBranchDeactivated(branchAddress);\r\n    }\r\n\r\n    function registerVoter(\r\n        string calldata nik,\r\n        address voterAddress\r\n    ) external onlyKpuBranch {\r\n        if (voters[nik].isRegistered) revert VoterAlreadyRegistered();\r\n        if (bytes(voterNIKByAddress[voterAddress]).length != 0) revert AddressAlreadyRegistered();\r\n        Voter memory newVoter = Voter({\r\n            nik: nik,\r\n            voterAddress: voterAddress,\r\n            hasVoted: false,\r\n            region: kpuBranches[msg.sender].region,\r\n            isRegistered: true\r\n        });\r\n\r\n        voters[nik] = newVoter;\r\n        voterNIKByAddress[voterAddress] = nik;\r\n        voterAddresses.push(newVoter);\r\n\r\n        emit VoterRegistered(nik, voterAddress, kpuBranches[msg.sender].region);\r\n    }\r\n\r\n    function vote(uint256 candidateId) external votingIsActive {\r\n        string memory nik = voterNIKByAddress[msg.sender];\r\n        if (bytes(nik).length == 0) revert VoterNotRegistered();\r\n\r\n        Voter storage voter = voters[nik];\r\n        if (voter.hasVoted) revert AlreadyVoted();\r\n        if (candidateId == 0 || candidateId > candidateCount || !candidates[candidateId].isActive)\r\n            revert InvalidCandidate();\r\n\r\n        voter.hasVoted = true;\r\n        candidates[candidateId].voteCount++;\r\n\r\n        emit VoteCasted(nik, candidateId);\r\n    }\r\n\r\n    function addCandidate(string calldata name) external onlyKpuAdmin {\r\n        candidateCount++;\r\n        candidates[candidateCount] = Candidate(name, 0, true);\r\n        emit CandidateAdded(candidateCount, name);\r\n    }\r\n\r\n    function toggleCandidateActive(uint256 candidateId) external onlyKpuAdmin {\r\n        if (candidateId == 0 || candidateId > candidateCount) revert InvalidCandidate();\r\n        candidates[candidateId].isActive = !candidates[candidateId].isActive;\r\n        emit CandidateStatusChanged(candidateId, candidates[candidateId].isActive);\r\n    }\r\n\r\n    function setVotingStatus(bool status) external onlyKpuAdmin {\r\n        votingActive = status;\r\n        emit VotingStatusChanged(status);\r\n    }\r\n\r\n    function setKpuAdmin(address newAdmin) external onlyKpuAdmin {\r\n        kpuAdmin = newAdmin;\r\n    }\r\n\r\n    function getAllKPUBranches() external view returns (KPUBranch[] memory) {\r\n        return kpuBranchAddresses;\r\n    }\r\n\r\n    function getBranchByAddress(address branchAddress) external view returns (KPUBranch memory) {\r\n        if (!kpuBranches[branchAddress].isActive) revert BranchNotActive();\r\n        return kpuBranches[branchAddress];\r\n    }\r\n\r\n    function getAllVoter() external view returns (Voter[] memory) {\r\n        return voterAddresses;\r\n    }\r\n\r\n    function getVoterByNIK(string calldata nik) external view returns (Voter memory) {\r\n        return voters[nik];\r\n    }\r\n\r\n    function getVoterByAddress(address voterAddress) external view returns (Voter memory) {\r\n        string memory nik = voterNIKByAddress[voterAddress];\r\n        if (bytes(nik).length == 0) revert VoterNotRegistered();\r\n        return voters[nik];\r\n    }\r\n\r\n    function getVoterByRegion(string calldata region) external view returns (Voter[] memory) {\r\n        uint256 count;\r\n        for (uint256 i = 0; i < voterAddresses.length; i++) {\r\n            if (keccak256(bytes(voterAddresses[i].region)) == keccak256(bytes(region))) {\r\n                count++;\r\n            }\r\n        }\r\n\r\n        Voter[] memory regionVoters = new Voter[](count);\r\n        uint256 index;\r\n        for (uint256 i = 0; i < voterAddresses.length; i++) {\r\n            if (keccak256(bytes(voterAddresses[i].region)) == keccak256(bytes(region))) {\r\n                regionVoters[index] = voterAddresses[i];\r\n                index++;\r\n            }\r\n        }\r\n        return regionVoters;\r\n    }\r\n\r\n    function getCandidate(uint256 candidateId) external view returns (Candidate memory) {\r\n        if (candidateId == 0 || candidateId > candidateCount) revert InvalidCandidate();\r\n        return candidates[candidateId];\r\n    }\r\n\r\n    function getAllCandidates() external view returns (Candidate[] memory) {\r\n        Candidate[] memory allCandidates = new Candidate[](candidateCount);\r\n        for (uint256 i = 1; i <= candidateCount; i++) {\r\n            allCandidates[i-1] = candidates[i];\r\n        }\r\n        return allCandidates;\r\n    }\r\n}",
  "sourcePath": "C:\\Users\\bbyas\\Documents\\Kuliah\\Skripsi\\backend\\votechain-contract\\contracts\\Votechain.sol",
  "compiler": {
    "name": "solc",
    "version": "0.8.25+commit.b61c2a91.Emscripten.clang"
  },
  "schemaVersion": "3.4.16",
  "updatedAt": "2025-02-27T06:32:48.894Z",
  "networkType": "ethereum",
  "devdoc": {
    "kind": "dev",
    "methods": {},
    "version": 1
  },
  "userdoc": {
    "kind": "user",
    "methods": {},
    "version": 1
  }
}