{
  "contractName": "Votechain",
  "abi": [
    {
      "inputs": [
        {
          "internalType": "address",
          "name": "_baseAddress",
          "type": "address"
        },
        {
          "internalType": "address",
          "name": "_kpuManagerAddress",
          "type": "address"
        },
        {
          "internalType": "address",
          "name": "_voterManagerAddress",
          "type": "address"
        },
        {
          "internalType": "address",
          "name": "_electionManagerAddress",
          "type": "address"
        }
      ],
      "stateMutability": "nonpayable",
      "type": "constructor"
    },
    {
      "inputs": [],
      "name": "AlreadyVoted",
      "type": "error"
    },
    {
      "inputs": [],
      "name": "InvalidElection",
      "type": "error"
    },
    {
      "inputs": [],
      "name": "VoterNotRegistered",
      "type": "error"
    },
    {
      "inputs": [],
      "name": "VotingNotActive",
      "type": "error"
    },
    {
      "inputs": [],
      "name": "base",
      "outputs": [
        {
          "internalType": "contract IVotechainBase",
          "name": "",
          "type": "address"
        }
      ],
      "stateMutability": "view",
      "type": "function",
      "constant": true
    },
    {
      "inputs": [],
      "name": "electionManager",
      "outputs": [
        {
          "internalType": "contract IElectionManager",
          "name": "",
          "type": "address"
        }
      ],
      "stateMutability": "view",
      "type": "function",
      "constant": true
    },
    {
      "inputs": [],
      "name": "kpuManager",
      "outputs": [
        {
          "internalType": "contract IKPUManager",
          "name": "",
          "type": "address"
        }
      ],
      "stateMutability": "view",
      "type": "function",
      "constant": true
    },
    {
      "inputs": [],
      "name": "voterManager",
      "outputs": [
        {
          "internalType": "contract IVoterManager",
          "name": "",
          "type": "address"
        }
      ],
      "stateMutability": "view",
      "type": "function",
      "constant": true
    },
    {
      "inputs": [
        {
          "internalType": "string",
          "name": "electionId",
          "type": "string"
        }
      ],
      "name": "vote",
      "outputs": [],
      "stateMutability": "nonpayable",
      "type": "function"
    },
    {
      "inputs": [
        {
          "internalType": "address",
          "name": "Address",
          "type": "address"
        },
        {
          "internalType": "string",
          "name": "name",
          "type": "string"
        },
        {
          "internalType": "string",
          "name": "region",
          "type": "string"
        }
      ],
      "name": "registerKPUProvinsi",
      "outputs": [],
      "stateMutability": "nonpayable",
      "type": "function"
    },
    {
      "inputs": [
        {
          "internalType": "address",
          "name": "Address",
          "type": "address"
        },
        {
          "internalType": "string",
          "name": "name",
          "type": "string"
        },
        {
          "internalType": "string",
          "name": "region",
          "type": "string"
        }
      ],
      "name": "registerKPUKota",
      "outputs": [],
      "stateMutability": "nonpayable",
      "type": "function"
    },
    {
      "inputs": [
        {
          "internalType": "string",
          "name": "nik",
          "type": "string"
        },
        {
          "internalType": "address",
          "name": "voterAddress",
          "type": "address"
        }
      ],
      "name": "registerVoter",
      "outputs": [],
      "stateMutability": "nonpayable",
      "type": "function"
    },
    {
      "inputs": [
        {
          "internalType": "string",
          "name": "electionId",
          "type": "string"
        },
        {
          "internalType": "string",
          "name": "electionName",
          "type": "string"
        },
        {
          "internalType": "string",
          "name": "electionNo",
          "type": "string"
        }
      ],
      "name": "addElection",
      "outputs": [],
      "stateMutability": "nonpayable",
      "type": "function"
    },
    {
      "inputs": [
        {
          "internalType": "string",
          "name": "electionId",
          "type": "string"
        }
      ],
      "name": "toggleElectionActive",
      "outputs": [],
      "stateMutability": "nonpayable",
      "type": "function"
    },
    {
      "inputs": [
        {
          "internalType": "bool",
          "name": "status",
          "type": "bool"
        }
      ],
      "name": "setVotingStatus",
      "outputs": [],
      "stateMutability": "nonpayable",
      "type": "function"
    },
    {
      "inputs": [
        {
          "internalType": "address",
          "name": "newAdmin",
          "type": "address"
        }
      ],
      "name": "setKpuAdmin",
      "outputs": [],
      "stateMutability": "nonpayable",
      "type": "function"
    }
  ],
  "bytecode": "0x608060405234801561001057600080fd5b50604051610cdf380380610cdf83398101604081905261002f9161009e565b600080546001600160a01b039586166001600160a01b03199182161790915560018054948616948216949094179093556002805492851692841692909217909155600380549190931691161790556100f2565b80516001600160a01b038116811461009957600080fd5b919050565b600080600080608085870312156100b457600080fd5b6100bd85610082565b93506100cb60208601610082565b92506100d960408601610082565b91506100e760608601610082565b905092959194509250565b610bde806101016000396000f3fe608060405234801561001057600080fd5b50600436106100b45760003560e01c80637da32949116100715780637da3294914610149578063924238151461015c5780639df86dc11461016f578063db5dfdd714610182578063fc36e15b14610195578063fd1c6e61146101a857600080fd5b80632db33a2f146100b957806334d1d2f2146100ce5780634a075de2146100fd5780635001f3b51461011057806365910a4f146101235780637478c9fe14610136575b600080fd5b6100cc6100c736600461067f565b6101bb565b005b6001546100e1906001600160a01b031681565b6040516001600160a01b03909116815260200160405180910390f35b6100cc61010b366004610702565b61022c565b6000546100e1906001600160a01b031681565b6002546100e1906001600160a01b031681565b6100cc610144366004610767565b610297565b6003546100e1906001600160a01b031681565b6100cc61016a36600461067f565b6102fa565b6100cc61017d36600461078b565b610332565b6100cc6101903660046107a8565b610364565b6100cc6101a33660046107a8565b6103cc565b6100cc6101b63660046107ea565b6105aa565b600154604051632db33a2f60e01b81526001600160a01b0390911690632db33a2f906101f390889088908890889088906004016108ad565b600060405180830381600087803b15801561020d57600080fd5b505af1158015610221573d6000803e3d6000fd5b505050505050505050565b600254604051632503aef160e11b81526001600160a01b0390911690634a075de290610260908690869086906004016108f1565b600060405180830381600087803b15801561027a57600080fd5b505af115801561028e573d6000803e3d6000fd5b50505050505050565b600054604051633a3c64ff60e11b815282151560048201526001600160a01b0390911690637478c9fe906024015b600060405180830381600087803b1580156102df57600080fd5b505af11580156102f3573d6000803e3d6000fd5b5050505050565b600154604051639242381560e01b81526001600160a01b03909116906392423815906101f390889088908890889088906004016108ad565b600054604051639df86dc160e01b81526001600160a01b03838116600483015290911690639df86dc1906024016102c5565b60035460405163db5dfdd760e01b81526001600160a01b039091169063db5dfdd790610396908590859060040161091d565b600060405180830381600087803b1580156103b057600080fd5b505af11580156103c4573d6000803e3d6000fd5b505050505050565b60008054906101000a90046001600160a01b03166001600160a01b031663408e27276040518163ffffffff1660e01b8152600401602060405180830381865afa15801561041d573d6000803e3d6000fd5b505050506040513d601f19601f820116820180604052508101906104419190610949565b61045e57604051639b8cc47560e01b815260040160405180910390fd5b600254604051634bdd758560e01b81523360048201526001600160a01b0390911690634bdd758590602401600060405180830381865afa9250505080156104c757506040513d6000823e601f3d908101601f191682016040526104c49190810190610a51565b60015b6104e457604051636f08c58760e01b815260040160405180910390fd5b80604001511561050757604051637c9a1cf960e01b815260040160405180910390fd5b60025460405163547e867d60e11b81523360048201526001600160a01b039091169063a8fd0cfa906024016020604051808303816000875af1158015610551573d6000803e3d6000fd5b505050506040513d601f19601f820116820180604052508101906105759190610949565b50600354815160405163e8d5940d60e01b81526001600160a01b039092169163e8d5940d916102609187918791600401610b19565b60035460405163fd1c6e6160e01b81526001600160a01b039091169063fd1c6e61906105e490899089908990899089908990600401610b5f565b600060405180830381600087803b1580156105fe57600080fd5b505af1158015610612573d6000803e3d6000fd5b50505050505050505050565b6001600160a01b038116811461063357600080fd5b50565b60008083601f84011261064857600080fd5b50813567ffffffffffffffff81111561066057600080fd5b60208301915083602082850101111561067857600080fd5b9250929050565b60008060008060006060868803121561069757600080fd5b85356106a28161061e565b9450602086013567ffffffffffffffff808211156106bf57600080fd5b6106cb89838a01610636565b909650945060408801359150808211156106e457600080fd5b506106f188828901610636565b969995985093965092949392505050565b60008060006040848603121561071757600080fd5b833567ffffffffffffffff81111561072e57600080fd5b61073a86828701610636565b909450925050602084013561074e8161061e565b809150509250925092565b801515811461063357600080fd5b60006020828403121561077957600080fd5b813561078481610759565b9392505050565b60006020828403121561079d57600080fd5b81356107848161061e565b600080602083850312156107bb57600080fd5b823567ffffffffffffffff8111156107d257600080fd5b6107de85828601610636565b90969095509350505050565b6000806000806000806060878903121561080357600080fd5b863567ffffffffffffffff8082111561081b57600080fd5b6108278a838b01610636565b9098509650602089013591508082111561084057600080fd5b61084c8a838b01610636565b9096509450604089013591508082111561086557600080fd5b5061087289828a01610636565b979a9699509497509295939492505050565b81835281816020850137506000828201602090810191909152601f909101601f19169091010190565b6001600160a01b03861681526060602082018190526000906108d29083018688610884565b82810360408401526108e5818587610884565b98975050505050505050565b604081526000610905604083018587610884565b905060018060a01b0383166020830152949350505050565b602081526000610931602083018486610884565b949350505050565b805161094481610759565b919050565b60006020828403121561095b57600080fd5b815161078481610759565b634e487b7160e01b600052604160045260246000fd5b60405160a0810167ffffffffffffffff8111828210171561099f5761099f610966565b60405290565b60005b838110156109c05781810151838201526020016109a8565b50506000910152565b600082601f8301126109da57600080fd5b815167ffffffffffffffff808211156109f5576109f5610966565b604051601f8301601f19908116603f01168101908282118183101715610a1d57610a1d610966565b81604052838152866020858801011115610a3657600080fd5b610a478460208301602089016109a5565b9695505050505050565b600060208284031215610a6357600080fd5b815167ffffffffffffffff80821115610a7b57600080fd5b9083019060a08286031215610a8f57600080fd5b610a9761097c565b825182811115610aa657600080fd5b610ab2878286016109c9565b8252506020830151610ac38161061e565b60208201526040830151610ad681610759565b6040820152606083015182811115610aed57600080fd5b610af9878286016109c9565b606083015250610b0b60808401610939565b608082015295945050505050565b604081526000610b2d604083018587610884565b82810360208401528351808252610b4b8160208401602088016109a5565b601f01601f19160160200195945050505050565b606081526000610b7360608301888a610884565b8281036020840152610b86818789610884565b90508281036040840152610b9b818587610884565b999850505050505050505056fea2646970667358221220438fae16f83b8d09c9a59602531b151fd9b6ec41caf2dadc406515254525771764736f6c63430008190033",
  "immutableReferences": {},
  "source": "// SPDX-License-Identifier: UNLICENSED\r\npragma solidity ^0.8.25;\r\n\r\nimport \"./Interfaces.sol\";\r\n\r\ncontract Votechain {\r\n    error VoterNotRegistered();\r\n    error AlreadyVoted();\r\n    error InvalidElection();\r\n    error VotingNotActive();\r\n\r\n    IVotechainBase public base;\r\n    IKPUManager public kpuManager;\r\n    IVoterManager public voterManager;\r\n    IElectionManager public electionManager;\r\n\r\n    constructor(\r\n        address _baseAddress,\r\n        address _kpuManagerAddress,\r\n        address _voterManagerAddress,\r\n        address _electionManagerAddress\r\n    ) {\r\n        base = IVotechainBase(_baseAddress);\r\n        kpuManager = IKPUManager(_kpuManagerAddress);\r\n        voterManager = IVoterManager(_voterManagerAddress);\r\n        electionManager = IElectionManager(_electionManagerAddress);\r\n    }\r\n\r\n    // Public-facing function to cast votes\r\n    function vote(string calldata electionId) external {\r\n        if (!base.votingActive()) revert VotingNotActive();\r\n\r\n        try voterManager.getVoterByAddress(msg.sender) returns (IVoterManager.Voter memory voter) {\r\n            if (voter.hasVoted) revert AlreadyVoted();\r\n\r\n            voterManager.markVoted(msg.sender);\r\n\r\n            electionManager.vote(electionId, voter.nik);\r\n        } catch {\r\n            revert VoterNotRegistered();\r\n        }\r\n    }\r\n\r\n    function registerKPUProvinsi(\r\n        address Address,\r\n        string calldata name,\r\n        string calldata region\r\n    ) external {\r\n        kpuManager.registerKPUProvinsi(Address, name, region);\r\n    }\r\n\r\n    function registerKPUKota(\r\n        address Address,\r\n        string calldata name,\r\n        string calldata region\r\n    ) external {\r\n        kpuManager.registerKPUKota(Address, name, region);\r\n    }\r\n\r\n    function registerVoter(\r\n        string calldata nik,\r\n        address voterAddress\r\n    ) external {\r\n        voterManager.registerVoter(nik, voterAddress);\r\n    }\r\n\r\n    function addElection(\r\n        string calldata electionId,\r\n        string calldata electionName,\r\n        string calldata electionNo\r\n    ) external {\r\n        electionManager.addElection(electionId, electionName, electionNo);\r\n    }\r\n\r\n    function toggleElectionActive(string calldata electionId) external {\r\n        electionManager.toggleElectionActive(electionId);\r\n    }\r\n\r\n    function setVotingStatus(bool status) external {\r\n        base.setVotingStatus(status);\r\n    }\r\n\r\n    function setKpuAdmin(address newAdmin) external {\r\n        base.setKpuAdmin(newAdmin);\r\n    }\r\n\r\n}",
  "sourcePath": "C:\\Users\\bbyas\\Documents\\Kuliah\\Skripsi\\backend\\votechain-contract\\contracts\\Votechain.sol",
  "compiler": {
    "name": "solc",
    "version": "0.8.25+commit.b61c2a91.Emscripten.clang"
  },
  "schemaVersion": "3.4.16",
  "updatedAt": "2025-04-11T06:23:27.400Z",
  "networkType": "ethereum",
  "devdoc": {
    "kind": "dev",
    "methods": {},
    "version": 1
  },
  "userdoc": {
    "kind": "user",
    "methods": {},
    "version": 1
  }
}