{
  "contractName": "Votechain",
  "abi": [
    {
      "inputs": [
        {
          "internalType": "address",
          "name": "_baseAddress",
          "type": "address"
        },
        {
          "internalType": "address",
          "name": "_kpuManagerAddress",
          "type": "address"
        },
        {
          "internalType": "address",
          "name": "_voterManagerAddress",
          "type": "address"
        },
        {
          "internalType": "address",
          "name": "_electionManagerAddress",
          "type": "address"
        }
      ],
      "stateMutability": "nonpayable",
      "type": "constructor"
    },
    {
      "inputs": [],
      "name": "AlreadyVoted",
      "type": "error"
    },
    {
      "inputs": [],
      "name": "InvalidElection",
      "type": "error"
    },
    {
      "inputs": [],
      "name": "VoterNotRegistered",
      "type": "error"
    },
    {
      "inputs": [],
      "name": "VotingNotActive",
      "type": "error"
    },
    {
      "inputs": [],
      "name": "base",
      "outputs": [
        {
          "internalType": "contract IVotechainBase",
          "name": "",
          "type": "address"
        }
      ],
      "stateMutability": "view",
      "type": "function",
      "constant": true
    },
    {
      "inputs": [],
      "name": "electionManager",
      "outputs": [
        {
          "internalType": "contract IElectionManager",
          "name": "",
          "type": "address"
        }
      ],
      "stateMutability": "view",
      "type": "function",
      "constant": true
    },
    {
      "inputs": [],
      "name": "kpuManager",
      "outputs": [
        {
          "internalType": "contract IKPUManager",
          "name": "",
          "type": "address"
        }
      ],
      "stateMutability": "view",
      "type": "function",
      "constant": true
    },
    {
      "inputs": [],
      "name": "voterManager",
      "outputs": [
        {
          "internalType": "contract IVoterManager",
          "name": "",
          "type": "address"
        }
      ],
      "stateMutability": "view",
      "type": "function",
      "constant": true
    },
    {
      "inputs": [
        {
          "internalType": "string",
          "name": "electionId",
          "type": "string"
        },
        {
          "internalType": "string",
          "name": "electionNo",
          "type": "string"
        }
      ],
      "name": "vote",
      "outputs": [],
      "stateMutability": "nonpayable",
      "type": "function"
    },
    {
      "inputs": [
        {
          "internalType": "address",
          "name": "Address",
          "type": "address"
        },
        {
          "internalType": "string",
          "name": "name",
          "type": "string"
        },
        {
          "internalType": "string",
          "name": "region",
          "type": "string"
        }
      ],
      "name": "registerKPUProvinsi",
      "outputs": [],
      "stateMutability": "nonpayable",
      "type": "function"
    },
    {
      "inputs": [
        {
          "internalType": "address",
          "name": "Address",
          "type": "address"
        },
        {
          "internalType": "string",
          "name": "name",
          "type": "string"
        },
        {
          "internalType": "string",
          "name": "region",
          "type": "string"
        }
      ],
      "name": "registerKPUKota",
      "outputs": [],
      "stateMutability": "nonpayable",
      "type": "function"
    },
    {
      "inputs": [
        {
          "internalType": "string",
          "name": "nik",
          "type": "string"
        },
        {
          "internalType": "address",
          "name": "voterAddress",
          "type": "address"
        }
      ],
      "name": "registerVoter",
      "outputs": [],
      "stateMutability": "nonpayable",
      "type": "function"
    },
    {
      "inputs": [
        {
          "internalType": "string",
          "name": "electionId",
          "type": "string"
        },
        {
          "internalType": "string",
          "name": "electionNo",
          "type": "string"
        }
      ],
      "name": "addElection",
      "outputs": [],
      "stateMutability": "nonpayable",
      "type": "function"
    },
    {
      "inputs": [
        {
          "internalType": "string",
          "name": "electionId",
          "type": "string"
        },
        {
          "internalType": "string",
          "name": "electionNo",
          "type": "string"
        }
      ],
      "name": "toggleElectionActive",
      "outputs": [],
      "stateMutability": "nonpayable",
      "type": "function"
    },
    {
      "inputs": [
        {
          "internalType": "bool",
          "name": "status",
          "type": "bool"
        }
      ],
      "name": "setVotingStatus",
      "outputs": [],
      "stateMutability": "nonpayable",
      "type": "function"
    },
    {
      "inputs": [
        {
          "internalType": "address",
          "name": "newAdmin",
          "type": "address"
        }
      ],
      "name": "setKpuAdmin",
      "outputs": [],
      "stateMutability": "nonpayable",
      "type": "function"
    },
    {
      "inputs": [
        {
          "internalType": "address",
          "name": "Address",
          "type": "address"
        },
        {
          "internalType": "string",
          "name": "name",
          "type": "string"
        },
        {
          "internalType": "string",
          "name": "region",
          "type": "string"
        }
      ],
      "name": "updateKPUProvinsi",
      "outputs": [],
      "stateMutability": "nonpayable",
      "type": "function"
    },
    {
      "inputs": [
        {
          "internalType": "address",
          "name": "Address",
          "type": "address"
        },
        {
          "internalType": "string",
          "name": "name",
          "type": "string"
        },
        {
          "internalType": "string",
          "name": "region",
          "type": "string"
        }
      ],
      "name": "updateKPUKota",
      "outputs": [],
      "stateMutability": "nonpayable",
      "type": "function"
    }
  ],
  "bytecode": "0x608060405234801561001057600080fd5b50604051610ceb380380610ceb83398101604081905261002f9161009e565b600080546001600160a01b039586166001600160a01b03199182161790915560018054948616948216949094179093556002805492851692841692909217909155600380549190931691161790556100f2565b80516001600160a01b038116811461009957600080fd5b919050565b600080600080608085870312156100b457600080fd5b6100bd85610082565b93506100cb60208601610082565b92506100d960408601610082565b91506100e760608601610082565b905092959194509250565b610bea806101016000396000f3fe608060405234801561001057600080fd5b50600436106100ea5760003560e01c80637478c9fe1161008c57806395b799071161006657806395b79907146101cb5780639df86dc1146101de578063a9d93bf0146101f1578063e8d5940d1461020457600080fd5b80637478c9fe146101925780637da32949146101a557806392423815146101b857600080fd5b80634a075de2116100c85780634a075de2146101465780634da1b97a146101595780635001f3b51461016c57806365910a4f1461017f57600080fd5b806302819b99146100ef5780632db33a2f1461010457806334d1d2f214610117575b600080fd5b6101026100fd366004610717565b610217565b005b610102610112366004610717565b610288565b60015461012a906001600160a01b031681565b6040516001600160a01b03909116815260200160405180910390f35b61010261015436600461079a565b6102c0565b610102610167366004610717565b61032b565b60005461012a906001600160a01b031681565b60025461012a906001600160a01b031681565b6101026101a03660046107ff565b610363565b60035461012a906001600160a01b031681565b6101026101c6366004610717565b6103c6565b6101026101d9366004610823565b6103fe565b6101026101ec36600461088f565b61046c565b6101026101ff366004610823565b61049e565b610102610212366004610823565b6104d4565b6001546040516302819b9960e01b81526001600160a01b03909116906302819b999061024f90889088908890889088906004016108d5565b600060405180830381600087803b15801561026957600080fd5b505af115801561027d573d6000803e3d6000fd5b505050505050505050565b600154604051632db33a2f60e01b81526001600160a01b0390911690632db33a2f9061024f90889088908890889088906004016108d5565b600254604051632503aef160e11b81526001600160a01b0390911690634a075de2906102f490869086908690600401610919565b600060405180830381600087803b15801561030e57600080fd5b505af1158015610322573d6000803e3d6000fd5b50505050505050565b6001546040516326d0dcbd60e11b81526001600160a01b0390911690634da1b97a9061024f90889088908890889088906004016108d5565b600054604051633a3c64ff60e11b815282151560048201526001600160a01b0390911690637478c9fe906024015b600060405180830381600087803b1580156103ab57600080fd5b505af11580156103bf573d6000803e3d6000fd5b5050505050565b600154604051639242381560e01b81526001600160a01b039091169063924238159061024f90889088908890889088906004016108d5565b6003546040516395b7990760e01b81526001600160a01b03909116906395b7990790610434908790879087908790600401610945565b600060405180830381600087803b15801561044e57600080fd5b505af1158015610462573d6000803e3d6000fd5b5050505050505050565b600054604051639df86dc160e01b81526001600160a01b03838116600483015290911690639df86dc190602401610391565b600354604051630a9d93bf60e41b81526001600160a01b039091169063a9d93bf090610434908790879087908790600401610945565b60008054906101000a90046001600160a01b03166001600160a01b031663408e27276040518163ffffffff1660e01b8152600401602060405180830381865afa158015610525573d6000803e3d6000fd5b505050506040513d601f19601f820116820180604052508101906105499190610987565b61056657604051639b8cc47560e01b815260040160405180910390fd5b600254604051634bdd758560e01b81523360048201526001600160a01b0390911690634bdd758590602401600060405180830381865afa9250505080156105cf57506040513d6000823e601f3d908101601f191682016040526105cc9190810190610a8f565b60015b6105ec57604051636f08c58760e01b815260040160405180910390fd5b80604001511561060f57604051637c9a1cf960e01b815260040160405180910390fd5b60025460405163547e867d60e11b81523360048201526001600160a01b039091169063a8fd0cfa906024016020604051808303816000875af1158015610659573d6000803e3d6000fd5b505050506040513d601f19601f8201168201806040525081019061067d9190610987565b5060035481516040516395f59fe160e01b81526001600160a01b03909216916395f59fe19161024f918991899189918991600401610b57565b6001600160a01b03811681146106cb57600080fd5b50565b60008083601f8401126106e057600080fd5b50813567ffffffffffffffff8111156106f857600080fd5b60208301915083602082850101111561071057600080fd5b9250929050565b60008060008060006060868803121561072f57600080fd5b853561073a816106b6565b9450602086013567ffffffffffffffff8082111561075757600080fd5b61076389838a016106ce565b9096509450604088013591508082111561077c57600080fd5b50610789888289016106ce565b969995985093965092949392505050565b6000806000604084860312156107af57600080fd5b833567ffffffffffffffff8111156107c657600080fd5b6107d2868287016106ce565b90945092505060208401356107e6816106b6565b809150509250925092565b80151581146106cb57600080fd5b60006020828403121561081157600080fd5b813561081c816107f1565b9392505050565b6000806000806040858703121561083957600080fd5b843567ffffffffffffffff8082111561085157600080fd5b61085d888389016106ce565b9096509450602087013591508082111561087657600080fd5b50610883878288016106ce565b95989497509550505050565b6000602082840312156108a157600080fd5b813561081c816106b6565b81835281816020850137506000828201602090810191909152601f909101601f19169091010190565b6001600160a01b03861681526060602082018190526000906108fa90830186886108ac565b828103604084015261090d8185876108ac565b98975050505050505050565b60408152600061092d6040830185876108ac565b905060018060a01b0383166020830152949350505050565b6040815260006109596040830186886108ac565b828103602084015261096c8185876108ac565b979650505050505050565b8051610982816107f1565b919050565b60006020828403121561099957600080fd5b815161081c816107f1565b634e487b7160e01b600052604160045260246000fd5b60405160a0810167ffffffffffffffff811182821017156109dd576109dd6109a4565b60405290565b60005b838110156109fe5781810151838201526020016109e6565b50506000910152565b600082601f830112610a1857600080fd5b815167ffffffffffffffff80821115610a3357610a336109a4565b604051601f8301601f19908116603f01168101908282118183101715610a5b57610a5b6109a4565b81604052838152866020858801011115610a7457600080fd5b610a858460208301602089016109e3565b9695505050505050565b600060208284031215610aa157600080fd5b815167ffffffffffffffff80821115610ab957600080fd5b9083019060a08286031215610acd57600080fd5b610ad56109ba565b825182811115610ae457600080fd5b610af087828601610a07565b8252506020830151610b01816106b6565b60208201526040830151610b14816107f1565b6040820152606083015182811115610b2b57600080fd5b610b3787828601610a07565b606083015250610b4960808401610977565b608082015295945050505050565b606081526000610b6b6060830187896108ac565b8281036020840152610b7e8186886108ac565b905082810360408401528351808252610b9e8160208401602088016109e3565b601f01601f19160160200197965050505050505056fea2646970667358221220997a7c2e7245e4415b1b06b019c4cd430b44ffea73bf1816a19ba4427145caf764736f6c63430008190033",
  "immutableReferences": {},
  "source": "// SPDX-License-Identifier: UNLICENSED\r\npragma solidity ^0.8.25;\r\n\r\nimport \"./Interfaces.sol\";\r\n\r\ncontract Votechain {\r\n    error VoterNotRegistered();\r\n    error AlreadyVoted();\r\n    error InvalidElection();\r\n    error VotingNotActive();\r\n\r\n    IVotechainBase public base;\r\n    IKPUManager public kpuManager;\r\n    IVoterManager public voterManager;\r\n    IElectionManager public electionManager;\r\n\r\n    constructor(\r\n        address _baseAddress,\r\n        address _kpuManagerAddress,\r\n        address _voterManagerAddress,\r\n        address _electionManagerAddress\r\n    ) {\r\n        base = IVotechainBase(_baseAddress);\r\n        kpuManager = IKPUManager(_kpuManagerAddress);\r\n        voterManager = IVoterManager(_voterManagerAddress);\r\n        electionManager = IElectionManager(_electionManagerAddress);\r\n    }\r\n\r\n    // Public-facing function to cast votes\r\n    function vote(string calldata electionId, string calldata electionNo) external {\r\n        if (!base.votingActive()) revert VotingNotActive();\r\n\r\n        try voterManager.getVoterByAddress(msg.sender) returns (IVoterManager.Voter memory voter) {\r\n            if (voter.hasVoted) revert AlreadyVoted();\r\n\r\n            voterManager.markVoted(msg.sender);\r\n\r\n            electionManager.vote(electionId, electionNo, voter.nik);\r\n        } catch {\r\n            revert VoterNotRegistered();\r\n        }\r\n    }\r\n\r\n    function registerKPUProvinsi(\r\n        address Address,\r\n        string calldata name,\r\n        string calldata region\r\n    ) external {\r\n        kpuManager.registerKPUProvinsi(Address, name, region);\r\n    }\r\n\r\n    function registerKPUKota(\r\n        address Address,\r\n        string calldata name,\r\n        string calldata region\r\n    ) external {\r\n        kpuManager.registerKPUKota(Address, name, region);\r\n    }\r\n\r\n    function registerVoter(\r\n        string calldata nik,\r\n        address voterAddress\r\n    ) external {\r\n        voterManager.registerVoter(nik, voterAddress);\r\n    }\r\n\r\n    function addElection(\r\n        string calldata electionId,\r\n\r\n        string calldata electionNo\r\n    ) external {\r\n        electionManager.addElection(electionId, electionNo);\r\n    }\r\n\r\n    function toggleElectionActive(string calldata electionId, string calldata electionNo) external {\r\n        electionManager.toggleElectionActive(electionId, electionNo);\r\n    }\r\n\r\n    function setVotingStatus(bool status) external {\r\n        base.setVotingStatus(status);\r\n    }\r\n\r\n    function setKpuAdmin(address newAdmin) external {\r\n        base.setKpuAdmin(newAdmin);\r\n    }\r\n\r\n    function updateKPUProvinsi(\r\n        address Address,\r\n        string calldata name,\r\n        string calldata region\r\n    ) external {\r\n        kpuManager.updateKPUProvinsi(Address, name, region);\r\n    }\r\n\r\n    function updateKPUKota(\r\n        address Address,\r\n        string calldata name,\r\n        string calldata region\r\n    ) external {\r\n        kpuManager.updateKPUKota(Address, name, region);\r\n    }\r\n\r\n}",
  "sourcePath": "C:\\Users\\bbyas\\Documents\\Kuliah\\Skripsi\\backend\\votechain-contract\\contracts\\Votechain.sol",
  "compiler": {
    "name": "solc",
    "version": "0.8.25+commit.b61c2a91.Emscripten.clang"
  },
  "schemaVersion": "3.4.16",
  "updatedAt": "2025-05-01T06:45:23.969Z",
  "networkType": "ethereum",
  "devdoc": {
    "kind": "dev",
    "methods": {},
    "version": 1
  },
  "userdoc": {
    "kind": "user",
    "methods": {},
    "version": 1
  }
}