{
  "contractName": "Votechain",
  "abi": [
    {
      "inputs": [
        {
          "internalType": "address",
          "name": "_baseAddress",
          "type": "address"
        },
        {
          "internalType": "address",
          "name": "_kpuManagerAddress",
          "type": "address"
        },
        {
          "internalType": "address",
          "name": "_voterManagerAddress",
          "type": "address"
        },
        {
          "internalType": "address",
          "name": "_electionManagerAddress",
          "type": "address"
        },
        {
          "internalType": "address[]",
          "name": "trustedForwarders",
          "type": "address[]"
        }
      ],
      "stateMutability": "nonpayable",
      "type": "constructor"
    },
    {
      "inputs": [],
      "name": "AlreadyVoted",
      "type": "error"
    },
    {
      "inputs": [],
      "name": "InvalidElection",
      "type": "error"
    },
    {
      "inputs": [],
      "name": "VoterNotRegistered",
      "type": "error"
    },
    {
      "inputs": [],
      "name": "VotingNotActive",
      "type": "error"
    },
    {
      "anonymous": false,
      "inputs": [
        {
          "indexed": true,
          "internalType": "address",
          "name": "forwarder",
          "type": "address"
        }
      ],
      "name": "TrustedForwarderAdded",
      "type": "event"
    },
    {
      "anonymous": false,
      "inputs": [
        {
          "indexed": true,
          "internalType": "address",
          "name": "forwarder",
          "type": "address"
        }
      ],
      "name": "TrustedForwarderRemoved",
      "type": "event"
    },
    {
      "inputs": [],
      "name": "base",
      "outputs": [
        {
          "internalType": "contract IVotechainBase",
          "name": "",
          "type": "address"
        }
      ],
      "stateMutability": "view",
      "type": "function",
      "constant": true
    },
    {
      "inputs": [],
      "name": "electionManager",
      "outputs": [
        {
          "internalType": "contract IElectionManager",
          "name": "",
          "type": "address"
        }
      ],
      "stateMutability": "view",
      "type": "function",
      "constant": true
    },
    {
      "inputs": [],
      "name": "getTrustedForwarders",
      "outputs": [
        {
          "internalType": "address[]",
          "name": "",
          "type": "address[]"
        }
      ],
      "stateMutability": "view",
      "type": "function",
      "constant": true
    },
    {
      "inputs": [
        {
          "internalType": "address",
          "name": "forwarder",
          "type": "address"
        }
      ],
      "name": "isTrustedForwarder",
      "outputs": [
        {
          "internalType": "bool",
          "name": "",
          "type": "bool"
        }
      ],
      "stateMutability": "view",
      "type": "function",
      "constant": true
    },
    {
      "inputs": [],
      "name": "kpuManager",
      "outputs": [
        {
          "internalType": "contract IKPUManager",
          "name": "",
          "type": "address"
        }
      ],
      "stateMutability": "view",
      "type": "function",
      "constant": true
    },
    {
      "inputs": [],
      "name": "voterManager",
      "outputs": [
        {
          "internalType": "contract IVoterManager",
          "name": "",
          "type": "address"
        }
      ],
      "stateMutability": "view",
      "type": "function",
      "constant": true
    },
    {
      "inputs": [
        {
          "internalType": "string",
          "name": "electionId",
          "type": "string"
        },
        {
          "internalType": "string",
          "name": "electionNo",
          "type": "string"
        }
      ],
      "name": "vote",
      "outputs": [],
      "stateMutability": "nonpayable",
      "type": "function"
    },
    {
      "inputs": [
        {
          "internalType": "address",
          "name": "Address",
          "type": "address"
        },
        {
          "internalType": "string",
          "name": "name",
          "type": "string"
        },
        {
          "internalType": "string",
          "name": "region",
          "type": "string"
        }
      ],
      "name": "registerKPUProvinsi",
      "outputs": [],
      "stateMutability": "nonpayable",
      "type": "function"
    },
    {
      "inputs": [
        {
          "internalType": "address",
          "name": "Address",
          "type": "address"
        },
        {
          "internalType": "string",
          "name": "name",
          "type": "string"
        },
        {
          "internalType": "string",
          "name": "region",
          "type": "string"
        }
      ],
      "name": "registerKPUKota",
      "outputs": [],
      "stateMutability": "nonpayable",
      "type": "function"
    },
    {
      "inputs": [
        {
          "internalType": "string",
          "name": "nik",
          "type": "string"
        },
        {
          "internalType": "address",
          "name": "voterAddress",
          "type": "address"
        }
      ],
      "name": "registerVoter",
      "outputs": [],
      "stateMutability": "nonpayable",
      "type": "function"
    },
    {
      "inputs": [
        {
          "internalType": "string",
          "name": "electionId",
          "type": "string"
        },
        {
          "internalType": "string",
          "name": "electionNo",
          "type": "string"
        }
      ],
      "name": "addElection",
      "outputs": [],
      "stateMutability": "nonpayable",
      "type": "function"
    },
    {
      "inputs": [
        {
          "internalType": "string",
          "name": "electionId",
          "type": "string"
        },
        {
          "internalType": "string",
          "name": "electionNo",
          "type": "string"
        }
      ],
      "name": "toggleElectionActive",
      "outputs": [],
      "stateMutability": "nonpayable",
      "type": "function"
    },
    {
      "inputs": [
        {
          "internalType": "bool",
          "name": "status",
          "type": "bool"
        }
      ],
      "name": "setVotingStatus",
      "outputs": [],
      "stateMutability": "nonpayable",
      "type": "function"
    },
    {
      "inputs": [
        {
          "internalType": "address",
          "name": "newAdmin",
          "type": "address"
        }
      ],
      "name": "setKpuAdmin",
      "outputs": [],
      "stateMutability": "nonpayable",
      "type": "function"
    },
    {
      "inputs": [
        {
          "internalType": "address",
          "name": "Address",
          "type": "address"
        },
        {
          "internalType": "string",
          "name": "name",
          "type": "string"
        },
        {
          "internalType": "string",
          "name": "region",
          "type": "string"
        }
      ],
      "name": "updateKPUProvinsi",
      "outputs": [],
      "stateMutability": "nonpayable",
      "type": "function"
    },
    {
      "inputs": [
        {
          "internalType": "address",
          "name": "Address",
          "type": "address"
        },
        {
          "internalType": "string",
          "name": "name",
          "type": "string"
        },
        {
          "internalType": "string",
          "name": "region",
          "type": "string"
        }
      ],
      "name": "updateKPUKota",
      "outputs": [],
      "stateMutability": "nonpayable",
      "type": "function"
    },
    {
      "inputs": [
        {
          "internalType": "address",
          "name": "forwarder",
          "type": "address"
        }
      ],
      "name": "addTrustedForwarder",
      "outputs": [],
      "stateMutability": "nonpayable",
      "type": "function"
    },
    {
      "inputs": [
        {
          "internalType": "address",
          "name": "forwarder",
          "type": "address"
        }
      ],
      "name": "removeTrustedForwarder",
      "outputs": [],
      "stateMutability": "nonpayable",
      "type": "function"
    }
  ],
  "bytecode": "0x608060405234801561001057600080fd5b506040516114d33803806114d383398101604081905261002f916101a0565b8060005b815181101561006c57610064828281518110610051576100516102aa565b60200260200101516100c260201b60201c565b600101610033565b5050600280546001600160a01b039687166001600160a01b0319918216179091556003805495871695821695909517909455506004805492851692841692909217909155600580549190931691161790556102c0565b6001600160a01b03811660009081526020819052604090205460ff1661016b576001600160a01b038116600081815260208190526040808220805460ff19166001908117909155805480820182559083527fb10e2d527612073b26eecdfd717e6a320cf44b4afac2b0732d9fcbe2b7fa0cf60180546001600160a01b03191684179055517f3ef8564460ada92419608d823c014975d98f8104d7d1e68c222967ac6814cd979190a25b50565b80516001600160a01b038116811461018557600080fd5b919050565b634e487b7160e01b600052604160045260246000fd5b600080600080600060a086880312156101b857600080fd5b6101c18661016e565b945060206101d081880161016e565b94506101de6040880161016e565b93506101ec6060880161016e565b60808801519093506001600160401b038082111561020957600080fd5b818901915089601f83011261021d57600080fd5b81518181111561022f5761022f61018a565b8060051b604051601f19603f830116810181811085821117156102545761025461018a565b60405291825284820192508381018501918c83111561027257600080fd5b938501935b82851015610297576102888561016e565b84529385019392850192610277565b8096505050505050509295509295909350565b634e487b7160e01b600052603260045260246000fd5b611204806102cf6000396000f3fe608060405234801561001057600080fd5b50600436106101165760003560e01c806365910a4f116100a257806395b799071161007157806395b799071461025a5780639df86dc11461026d578063a9d93bf014610280578063e8d5940d14610293578063ff7196c8146102a657600080fd5b806365910a4f1461020e5780637478c9fe146102215780637da3294914610234578063924238151461024757600080fd5b80633751d89c116100e95780633751d89c146101865780634a075de2146101995780634da1b97a146101ac5780635001f3b5146101bf578063572b6c05146101d257600080fd5b806302819b991461011b57806326d00668146101305780632db33a2f1461014357806334d1d2f214610156575b600080fd5b61012e610129366004610c74565b6102bb565b005b61012e61013e366004610cf7565b61032c565b61012e610151366004610c74565b610407565b600354610169906001600160a01b031681565b6040516001600160a01b0390911681526020015b60405180910390f35b61012e610194366004610cf7565b61043f565b61012e6101a7366004610d1b565b610517565b61012e6101ba366004610c74565b610581565b600254610169906001600160a01b031681565b6101fe6101e0366004610cf7565b6001600160a01b031660009081526020819052604090205460ff1690565b604051901515815260200161017d565b600454610169906001600160a01b031681565b61012e61022f366004610d80565b6105b9565b600554610169906001600160a01b031681565b61012e610255366004610c74565b61061c565b61012e610268366004610d9d565b610654565b61012e61027b366004610cf7565b6106c2565b61012e61028e366004610d9d565b6106f4565b61012e6102a1366004610d9d565b61072a565b6102ae61095c565b60405161017d9190610e09565b6003546040516302819b9960e01b81526001600160a01b03909116906302819b99906102f39088908890889088908890600401610e7f565b600060405180830381600087803b15801561030d57600080fd5b505af1158015610321573d6000803e3d6000fd5b505050505050505050565b60025460408051633ed2ac5960e21b815290516001600160a01b0390921691639df86dc191839163fb4ab164916004808201926020929091908290030181865afa15801561037e573d6000803e3d6000fd5b505050506040513d601f19601f820116820180604052508101906103a29190610ec3565b6040516001600160e01b031960e084901b1681526001600160a01b039091166004820152602401600060405180830381600087803b1580156103e357600080fd5b505af11580156103f7573d6000803e3d6000fd5b50505050610404816109be565b50565b600354604051632db33a2f60e01b81526001600160a01b0390911690632db33a2f906102f39088908890889088908890600401610e7f565b60025460408051633ed2ac5960e21b815290516001600160a01b0390921691639df86dc191839163fb4ab164916004808201926020929091908290030181865afa158015610491573d6000803e3d6000fd5b505050506040513d601f19601f820116820180604052508101906104b59190610ec3565b6040516001600160e01b031960e084901b1681526001600160a01b039091166004820152602401600060405180830381600087803b1580156104f657600080fd5b505af115801561050a573d6000803e3d6000fd5b5050505061040481610a69565b60048054604051632503aef160e11b81526001600160a01b0390911691634a075de29161054a9187918791879101610ee0565b600060405180830381600087803b15801561056457600080fd5b505af1158015610578573d6000803e3d6000fd5b50505050505050565b6003546040516326d0dcbd60e11b81526001600160a01b0390911690634da1b97a906102f39088908890889088908890600401610e7f565b600254604051633a3c64ff60e11b815282151560048201526001600160a01b0390911690637478c9fe906024015b600060405180830381600087803b15801561060157600080fd5b505af1158015610615573d6000803e3d6000fd5b5050505050565b600354604051639242381560e01b81526001600160a01b03909116906392423815906102f39088908890889088908890600401610e7f565b6005546040516395b7990760e01b81526001600160a01b03909116906395b799079061068a908790879087908790600401610f0c565b600060405180830381600087803b1580156106a457600080fd5b505af11580156106b8573d6000803e3d6000fd5b5050505050505050565b600254604051639df86dc160e01b81526001600160a01b03838116600483015290911690639df86dc1906024016105e7565b600554604051630a9d93bf60e41b81526001600160a01b039091169063a9d93bf09061068a908790879087908790600401610f0c565b600260009054906101000a90046001600160a01b03166001600160a01b031663408e27276040518163ffffffff1660e01b8152600401602060405180830381865afa15801561077d573d6000803e3d6000fd5b505050506040513d601f19601f820116820180604052508101906107a19190610f4e565b6107be57604051639b8cc47560e01b815260040160405180910390fd5b60006107c8610bdd565b60048054604051634bdd758560e01b81526001600160a01b03808516938201939093529293501690634bdd758590602401600060405180830381865afa92505050801561083757506040513d6000823e601f3d908101601f191682016040526108349190810190611056565b60015b61085457604051636f08c58760e01b815260040160405180910390fd5b80604001511561087757604051637c9a1cf960e01b815260040160405180910390fd5b6004805460405163547e867d60e11b81526001600160a01b038581169382019390935291169063a8fd0cfa906024016020604051808303816000875af11580156108c5573d6000803e3d6000fd5b505050506040513d601f19601f820116820180604052508101906108e99190610f4e565b5060055481516040516395f59fe160e01b81526001600160a01b03909216916395f59fe191610922918a918a918a918a9160040161111e565b600060405180830381600087803b15801561093c57600080fd5b505af1158015610950573d6000803e3d6000fd5b50505050505050505050565b606060018054806020026020016040519081016040528092919081815260200182805480156109b457602002820191906000526020600020905b81546001600160a01b03168152600190910190602001808311610996575b5050505050905090565b6001600160a01b03811660009081526020819052604090205460ff16610404576001600160a01b038116600081815260208190526040808220805460ff19166001908117909155805480820182559083527fb10e2d527612073b26eecdfd717e6a320cf44b4afac2b0732d9fcbe2b7fa0cf60180546001600160a01b03191684179055517f3ef8564460ada92419608d823c014975d98f8104d7d1e68c222967ac6814cd979190a250565b6001600160a01b03811660009081526020819052604090205460ff1615610404576001600160a01b0381166000908152602081905260408120805460ff191690555b600154811015610ba557816001600160a01b031660018281548110610ad257610ad261117b565b6000918252602090912001546001600160a01b031603610b9d5760018054610afb908290611191565b81548110610b0b57610b0b61117b565b600091825260209091200154600180546001600160a01b039092169183908110610b3757610b3761117b565b9060005260206000200160006101000a8154816001600160a01b0302191690836001600160a01b031602179055506001805480610b7657610b766111b8565b600082815260209020810160001990810180546001600160a01b0319169055019055610ba5565b600101610aab565b506040516001600160a01b038216907fd2d636efcad0cea42e170256f4c5d8b1cd81e47b855557edaf44014e6cc4cee690600090a250565b6000610be7610bec565b905090565b3360009081526020819052604081205460ff1615610c11575060131936013560601c90565b503390565b6001600160a01b038116811461040457600080fd5b60008083601f840112610c3d57600080fd5b50813567ffffffffffffffff811115610c5557600080fd5b602083019150836020828501011115610c6d57600080fd5b9250929050565b600080600080600060608688031215610c8c57600080fd5b8535610c9781610c16565b9450602086013567ffffffffffffffff80821115610cb457600080fd5b610cc089838a01610c2b565b90965094506040880135915080821115610cd957600080fd5b50610ce688828901610c2b565b969995985093965092949392505050565b600060208284031215610d0957600080fd5b8135610d1481610c16565b9392505050565b600080600060408486031215610d3057600080fd5b833567ffffffffffffffff811115610d4757600080fd5b610d5386828701610c2b565b9094509250506020840135610d6781610c16565b809150509250925092565b801515811461040457600080fd5b600060208284031215610d9257600080fd5b8135610d1481610d72565b60008060008060408587031215610db357600080fd5b843567ffffffffffffffff80821115610dcb57600080fd5b610dd788838901610c2b565b90965094506020870135915080821115610df057600080fd5b50610dfd87828801610c2b565b95989497509550505050565b6020808252825182820181905260009190848201906040850190845b81811015610e4a5783516001600160a01b031683529284019291840191600101610e25565b50909695505050505050565b81835281816020850137506000828201602090810191909152601f909101601f19169091010190565b6001600160a01b0386168152606060208201819052600090610ea49083018688610e56565b8281036040840152610eb7818587610e56565b98975050505050505050565b600060208284031215610ed557600080fd5b8151610d1481610c16565b604081526000610ef4604083018587610e56565b905060018060a01b0383166020830152949350505050565b604081526000610f20604083018688610e56565b8281036020840152610f33818587610e56565b979650505050505050565b8051610f4981610d72565b919050565b600060208284031215610f6057600080fd5b8151610d1481610d72565b634e487b7160e01b600052604160045260246000fd5b60405160a0810167ffffffffffffffff81118282101715610fa457610fa4610f6b565b60405290565b60005b83811015610fc5578181015183820152602001610fad565b50506000910152565b600082601f830112610fdf57600080fd5b815167ffffffffffffffff80821115610ffa57610ffa610f6b565b604051601f8301601f19908116603f0116810190828211818310171561102257611022610f6b565b8160405283815286602085880101111561103b57600080fd5b61104c846020830160208901610faa565b9695505050505050565b60006020828403121561106857600080fd5b815167ffffffffffffffff8082111561108057600080fd5b9083019060a0828603121561109457600080fd5b61109c610f81565b8251828111156110ab57600080fd5b6110b787828601610fce565b82525060208301516110c881610c16565b602082015260408301516110db81610d72565b60408201526060830151828111156110f257600080fd5b6110fe87828601610fce565b60608301525061111060808401610f3e565b608082015295945050505050565b606081526000611132606083018789610e56565b8281036020840152611145818688610e56565b905082810360408401528351808252611165816020840160208801610faa565b601f01601f191601602001979650505050505050565b634e487b7160e01b600052603260045260246000fd5b818103818111156111b257634e487b7160e01b600052601160045260246000fd5b92915050565b634e487b7160e01b600052603160045260246000fdfea264697066735822122066b85df38102b9ec376a327636fbc6ca6b6e6f7d766d95c110b0c0a69afab56864736f6c63430008190033",
  "immutableReferences": {},
  "source": "// SPDX-License-Identifier: UNLICENSED\r\npragma solidity ^0.8.25;\r\n\r\nimport \"./Interfaces.sol\";\r\nimport \"./Context.sol\";\r\n\r\ncontract Votechain is MultiERC2771Context {\r\n    error VoterNotRegistered();\r\n    error AlreadyVoted();\r\n    error InvalidElection();\r\n    error VotingNotActive();\r\n\r\n    IVotechainBase public base;\r\n    IKPUManager public kpuManager;\r\n    IVoterManager public voterManager;\r\n    IElectionManager public electionManager;\r\n\r\n    constructor(\r\n        address _baseAddress,\r\n        address _kpuManagerAddress,\r\n        address _voterManagerAddress,\r\n        address _electionManagerAddress,\r\n        address[] memory trustedForwarders\r\n    ) MultiERC2771Context(trustedForwarders) {\r\n        base = IVotechainBase(_baseAddress);\r\n        kpuManager = IKPUManager(_kpuManagerAddress);\r\n        voterManager = IVoterManager(_voterManagerAddress);\r\n        electionManager = IElectionManager(_electionManagerAddress);\r\n    }\r\n\r\n    // Public-facing function to cast votes (now gasless)\r\n    function vote(string calldata electionId, string calldata electionNo) external {\r\n        if (!base.votingActive()) revert VotingNotActive();\r\n\r\n        address sender = _msgSender(); // Use _msgSender() instead of msg.sender\r\n\r\n        try voterManager.getVoterByAddress(sender) returns (IVoterManager.Voter memory voter) {\r\n            if (voter.hasVoted) revert AlreadyVoted();\r\n\r\n            voterManager.markVoted(sender);\r\n\r\n            electionManager.vote(electionId, electionNo, voter.nik);\r\n        } catch {\r\n            revert VoterNotRegistered();\r\n        }\r\n    }\r\n\r\n    function registerKPUProvinsi(\r\n        address Address,\r\n        string calldata name,\r\n        string calldata region\r\n    ) external {\r\n        kpuManager.registerKPUProvinsi(Address, name, region);\r\n    }\r\n\r\n    function registerKPUKota(\r\n        address Address,\r\n        string calldata name,\r\n        string calldata region\r\n    ) external {\r\n        kpuManager.registerKPUKota(Address, name, region);\r\n    }\r\n\r\n    function registerVoter(\r\n        string calldata nik,\r\n        address voterAddress\r\n    ) external {\r\n        voterManager.registerVoter(nik, voterAddress);\r\n    }\r\n\r\n    function addElection(\r\n        string calldata electionId,\r\n        string calldata electionNo\r\n    ) external {\r\n        electionManager.addElection(electionId, electionNo);\r\n    }\r\n\r\n    function toggleElectionActive(string calldata electionId, string calldata electionNo) external {\r\n        electionManager.toggleElectionActive(electionId, electionNo);\r\n    }\r\n\r\n    function setVotingStatus(bool status) external {\r\n        base.setVotingStatus(status);\r\n    }\r\n\r\n    function setKpuAdmin(address newAdmin) external {\r\n        base.setKpuAdmin(newAdmin);\r\n    }\r\n\r\n    function updateKPUProvinsi(\r\n        address Address,\r\n        string calldata name,\r\n        string calldata region\r\n    ) external {\r\n        kpuManager.updateKPUProvinsi(Address, name, region);\r\n    }\r\n\r\n    function updateKPUKota(\r\n        address Address,\r\n        string calldata name,\r\n        string calldata region\r\n    ) external {\r\n        kpuManager.updateKPUKota(Address, name, region);\r\n    }\r\n\r\n    /**\r\n     * @dev Add a trusted forwarder for gasless transactions (admin only)\r\n     */\r\n    function addTrustedForwarder(address forwarder) external {\r\n        // This should be restricted to admin, but since we don't have direct access\r\n        // to the admin check here, we'll rely on the base contract\r\n        base.setKpuAdmin(base.kpuAdmin()); // This will revert if not admin\r\n        _addTrustedForwarder(forwarder);\r\n    }\r\n\r\n    /**\r\n     * @dev Remove a trusted forwarder (admin only)\r\n     */\r\n    function removeTrustedForwarder(address forwarder) external {\r\n        // This should be restricted to admin\r\n        base.setKpuAdmin(base.kpuAdmin()); // This will revert if not admin\r\n        _removeTrustedForwarder(forwarder);\r\n    }\r\n\r\n    /**\r\n     * @dev Override to use the correct _msgSender implementation\r\n     */\r\n    function _msgSender() internal view override returns (address) {\r\n        return MultiERC2771Context._msgSender();\r\n    }\r\n\r\n    /**\r\n     * @dev Override to use the correct _msgData implementation\r\n     */\r\n    function _msgData() internal view override returns (bytes calldata) {\r\n        return MultiERC2771Context._msgData();\r\n    }\r\n}",
  "sourcePath": "C:\\Users\\bbyas\\Documents\\Kuliah\\Skripsi\\backend\\votechain-contract\\contracts\\Votechain.sol",
  "compiler": {
    "name": "solc",
    "version": "0.8.25+commit.b61c2a91.Emscripten.clang"
  },
  "schemaVersion": "3.4.16",
  "updatedAt": "2025-06-19T07:26:19.425Z",
  "networkType": "ethereum",
  "devdoc": {
    "kind": "dev",
    "methods": {
      "addTrustedForwarder(address)": {
        "details": "Add a trusted forwarder for gasless transactions (admin only)"
      },
      "removeTrustedForwarder(address)": {
        "details": "Remove a trusted forwarder (admin only)"
      }
    },
    "version": 1
  },
  "userdoc": {
    "kind": "user",
    "methods": {},
    "version": 1
  }
}