{
  "contractName": "Votechain",
  "abi": [
    {
      "inputs": [],
      "stateMutability": "nonpayable",
      "type": "constructor"
    },
    {
      "inputs": [],
      "name": "AddressAlreadyRegistered",
      "type": "error"
    },
    {
      "inputs": [],
      "name": "AlreadyVoted",
      "type": "error"
    },
    {
      "inputs": [],
      "name": "BranchAlreadyRegistered",
      "type": "error"
    },
    {
      "inputs": [],
      "name": "BranchNotActive",
      "type": "error"
    },
    {
      "inputs": [],
      "name": "CandidateAlreadyExists",
      "type": "error"
    },
    {
      "inputs": [],
      "name": "InvalidCandidate",
      "type": "error"
    },
    {
      "inputs": [],
      "name": "OnlyKpuAdmin",
      "type": "error"
    },
    {
      "inputs": [],
      "name": "OnlyKpuBranch",
      "type": "error"
    },
    {
      "inputs": [],
      "name": "UnauthorizedVoter",
      "type": "error"
    },
    {
      "inputs": [],
      "name": "VoterAlreadyRegistered",
      "type": "error"
    },
    {
      "inputs": [],
      "name": "VoterNotRegistered",
      "type": "error"
    },
    {
      "inputs": [],
      "name": "VotingNotActive",
      "type": "error"
    },
    {
      "anonymous": false,
      "inputs": [
        {
          "indexed": true,
          "internalType": "string",
          "name": "candidateId",
          "type": "string"
        },
        {
          "indexed": false,
          "internalType": "string",
          "name": "name",
          "type": "string"
        }
      ],
      "name": "CandidateAdded",
      "type": "event"
    },
    {
      "anonymous": false,
      "inputs": [
        {
          "indexed": true,
          "internalType": "string",
          "name": "candidateId",
          "type": "string"
        },
        {
          "indexed": false,
          "internalType": "bool",
          "name": "isActive",
          "type": "bool"
        }
      ],
      "name": "CandidateStatusChanged",
      "type": "event"
    },
    {
      "anonymous": false,
      "inputs": [
        {
          "indexed": true,
          "internalType": "address",
          "name": "branchAddress",
          "type": "address"
        }
      ],
      "name": "KPUBranchDeactivated",
      "type": "event"
    },
    {
      "anonymous": false,
      "inputs": [
        {
          "indexed": true,
          "internalType": "address",
          "name": "branchAddress",
          "type": "address"
        },
        {
          "indexed": false,
          "internalType": "string",
          "name": "name",
          "type": "string"
        },
        {
          "indexed": false,
          "internalType": "string",
          "name": "region",
          "type": "string"
        }
      ],
      "name": "KPUBranchRegistered",
      "type": "event"
    },
    {
      "anonymous": false,
      "inputs": [
        {
          "indexed": true,
          "internalType": "string",
          "name": "nik",
          "type": "string"
        },
        {
          "indexed": true,
          "internalType": "string",
          "name": "candidateId",
          "type": "string"
        }
      ],
      "name": "VoteCasted",
      "type": "event"
    },
    {
      "anonymous": false,
      "inputs": [
        {
          "indexed": true,
          "internalType": "string",
          "name": "nik",
          "type": "string"
        },
        {
          "indexed": true,
          "internalType": "address",
          "name": "voterAddress",
          "type": "address"
        },
        {
          "indexed": false,
          "internalType": "string",
          "name": "region",
          "type": "string"
        }
      ],
      "name": "VoterRegistered",
      "type": "event"
    },
    {
      "anonymous": false,
      "inputs": [
        {
          "indexed": false,
          "internalType": "bool",
          "name": "isActive",
          "type": "bool"
        }
      ],
      "name": "VotingStatusChanged",
      "type": "event"
    },
    {
      "inputs": [
        {
          "internalType": "uint256",
          "name": "",
          "type": "uint256"
        }
      ],
      "name": "candidateAddressesArray",
      "outputs": [
        {
          "internalType": "string",
          "name": "id",
          "type": "string"
        },
        {
          "internalType": "string",
          "name": "name",
          "type": "string"
        },
        {
          "internalType": "uint256",
          "name": "candidateNo",
          "type": "uint256"
        },
        {
          "internalType": "uint256",
          "name": "voteCount",
          "type": "uint256"
        },
        {
          "internalType": "bool",
          "name": "isActive",
          "type": "bool"
        }
      ],
      "stateMutability": "view",
      "type": "function",
      "constant": true
    },
    {
      "inputs": [
        {
          "internalType": "string",
          "name": "",
          "type": "string"
        }
      ],
      "name": "candidates",
      "outputs": [
        {
          "internalType": "string",
          "name": "id",
          "type": "string"
        },
        {
          "internalType": "string",
          "name": "name",
          "type": "string"
        },
        {
          "internalType": "uint256",
          "name": "candidateNo",
          "type": "uint256"
        },
        {
          "internalType": "uint256",
          "name": "voteCount",
          "type": "uint256"
        },
        {
          "internalType": "bool",
          "name": "isActive",
          "type": "bool"
        }
      ],
      "stateMutability": "view",
      "type": "function",
      "constant": true
    },
    {
      "inputs": [],
      "name": "kpuAdmin",
      "outputs": [
        {
          "internalType": "address",
          "name": "",
          "type": "address"
        }
      ],
      "stateMutability": "view",
      "type": "function",
      "constant": true
    },
    {
      "inputs": [
        {
          "internalType": "uint256",
          "name": "",
          "type": "uint256"
        }
      ],
      "name": "kpuBranchAddressesArray",
      "outputs": [
        {
          "internalType": "string",
          "name": "name",
          "type": "string"
        },
        {
          "internalType": "address",
          "name": "branchAddress",
          "type": "address"
        },
        {
          "internalType": "bool",
          "name": "isActive",
          "type": "bool"
        },
        {
          "internalType": "string",
          "name": "region",
          "type": "string"
        }
      ],
      "stateMutability": "view",
      "type": "function",
      "constant": true
    },
    {
      "inputs": [
        {
          "internalType": "address",
          "name": "",
          "type": "address"
        }
      ],
      "name": "kpuBranches",
      "outputs": [
        {
          "internalType": "string",
          "name": "name",
          "type": "string"
        },
        {
          "internalType": "address",
          "name": "branchAddress",
          "type": "address"
        },
        {
          "internalType": "bool",
          "name": "isActive",
          "type": "bool"
        },
        {
          "internalType": "string",
          "name": "region",
          "type": "string"
        }
      ],
      "stateMutability": "view",
      "type": "function",
      "constant": true
    },
    {
      "inputs": [
        {
          "internalType": "uint256",
          "name": "",
          "type": "uint256"
        }
      ],
      "name": "voterAddressesArray",
      "outputs": [
        {
          "internalType": "string",
          "name": "nik",
          "type": "string"
        },
        {
          "internalType": "address",
          "name": "voterAddress",
          "type": "address"
        },
        {
          "internalType": "bool",
          "name": "hasVoted",
          "type": "bool"
        },
        {
          "internalType": "string",
          "name": "region",
          "type": "string"
        },
        {
          "internalType": "bool",
          "name": "isRegistered",
          "type": "bool"
        }
      ],
      "stateMutability": "view",
      "type": "function",
      "constant": true
    },
    {
      "inputs": [
        {
          "internalType": "address",
          "name": "",
          "type": "address"
        }
      ],
      "name": "voterNIKByAddress",
      "outputs": [
        {
          "internalType": "string",
          "name": "",
          "type": "string"
        }
      ],
      "stateMutability": "view",
      "type": "function",
      "constant": true
    },
    {
      "inputs": [
        {
          "internalType": "string",
          "name": "",
          "type": "string"
        }
      ],
      "name": "voters",
      "outputs": [
        {
          "internalType": "string",
          "name": "nik",
          "type": "string"
        },
        {
          "internalType": "address",
          "name": "voterAddress",
          "type": "address"
        },
        {
          "internalType": "bool",
          "name": "hasVoted",
          "type": "bool"
        },
        {
          "internalType": "string",
          "name": "region",
          "type": "string"
        },
        {
          "internalType": "bool",
          "name": "isRegistered",
          "type": "bool"
        }
      ],
      "stateMutability": "view",
      "type": "function",
      "constant": true
    },
    {
      "inputs": [],
      "name": "votingActive",
      "outputs": [
        {
          "internalType": "bool",
          "name": "",
          "type": "bool"
        }
      ],
      "stateMutability": "view",
      "type": "function",
      "constant": true
    },
    {
      "inputs": [
        {
          "internalType": "address",
          "name": "branchAddress",
          "type": "address"
        },
        {
          "internalType": "string",
          "name": "name",
          "type": "string"
        },
        {
          "internalType": "string",
          "name": "region",
          "type": "string"
        }
      ],
      "name": "registerKPUBranch",
      "outputs": [],
      "stateMutability": "nonpayable",
      "type": "function"
    },
    {
      "inputs": [
        {
          "internalType": "address",
          "name": "branchAddress",
          "type": "address"
        }
      ],
      "name": "deactivateKPUBranch",
      "outputs": [],
      "stateMutability": "nonpayable",
      "type": "function"
    },
    {
      "inputs": [
        {
          "internalType": "string",
          "name": "nik",
          "type": "string"
        },
        {
          "internalType": "address",
          "name": "voterAddress",
          "type": "address"
        }
      ],
      "name": "registerVoter",
      "outputs": [],
      "stateMutability": "nonpayable",
      "type": "function"
    },
    {
      "inputs": [
        {
          "internalType": "string",
          "name": "candidateId",
          "type": "string"
        }
      ],
      "name": "vote",
      "outputs": [],
      "stateMutability": "nonpayable",
      "type": "function"
    },
    {
      "inputs": [
        {
          "internalType": "string",
          "name": "candidateId",
          "type": "string"
        },
        {
          "internalType": "string",
          "name": "name",
          "type": "string"
        },
        {
          "internalType": "uint256",
          "name": "candidateNo",
          "type": "uint256"
        }
      ],
      "name": "addCandidate",
      "outputs": [],
      "stateMutability": "nonpayable",
      "type": "function"
    },
    {
      "inputs": [
        {
          "internalType": "string",
          "name": "candidateId",
          "type": "string"
        }
      ],
      "name": "toggleCandidateActive",
      "outputs": [],
      "stateMutability": "nonpayable",
      "type": "function"
    },
    {
      "inputs": [
        {
          "internalType": "bool",
          "name": "status",
          "type": "bool"
        }
      ],
      "name": "setVotingStatus",
      "outputs": [],
      "stateMutability": "nonpayable",
      "type": "function"
    },
    {
      "inputs": [
        {
          "internalType": "address",
          "name": "newAdmin",
          "type": "address"
        }
      ],
      "name": "setKpuAdmin",
      "outputs": [],
      "stateMutability": "nonpayable",
      "type": "function"
    },
    {
      "inputs": [],
      "name": "getAllKPUBranches",
      "outputs": [
        {
          "components": [
            {
              "internalType": "string",
              "name": "name",
              "type": "string"
            },
            {
              "internalType": "address",
              "name": "branchAddress",
              "type": "address"
            },
            {
              "internalType": "bool",
              "name": "isActive",
              "type": "bool"
            },
            {
              "internalType": "string",
              "name": "region",
              "type": "string"
            }
          ],
          "internalType": "struct Votechain.KPUBranch[]",
          "name": "",
          "type": "tuple[]"
        }
      ],
      "stateMutability": "view",
      "type": "function",
      "constant": true
    },
    {
      "inputs": [
        {
          "internalType": "address",
          "name": "branchAddress",
          "type": "address"
        }
      ],
      "name": "getBranchByAddress",
      "outputs": [
        {
          "components": [
            {
              "internalType": "string",
              "name": "name",
              "type": "string"
            },
            {
              "internalType": "address",
              "name": "branchAddress",
              "type": "address"
            },
            {
              "internalType": "bool",
              "name": "isActive",
              "type": "bool"
            },
            {
              "internalType": "string",
              "name": "region",
              "type": "string"
            }
          ],
          "internalType": "struct Votechain.KPUBranch",
          "name": "",
          "type": "tuple"
        }
      ],
      "stateMutability": "view",
      "type": "function",
      "constant": true
    },
    {
      "inputs": [],
      "name": "getAllVoter",
      "outputs": [
        {
          "components": [
            {
              "internalType": "string",
              "name": "nik",
              "type": "string"
            },
            {
              "internalType": "address",
              "name": "voterAddress",
              "type": "address"
            },
            {
              "internalType": "bool",
              "name": "hasVoted",
              "type": "bool"
            },
            {
              "internalType": "string",
              "name": "region",
              "type": "string"
            },
            {
              "internalType": "bool",
              "name": "isRegistered",
              "type": "bool"
            }
          ],
          "internalType": "struct Votechain.Voter[]",
          "name": "",
          "type": "tuple[]"
        }
      ],
      "stateMutability": "view",
      "type": "function",
      "constant": true
    },
    {
      "inputs": [
        {
          "internalType": "string",
          "name": "nik",
          "type": "string"
        }
      ],
      "name": "getVoterByNIK",
      "outputs": [
        {
          "components": [
            {
              "internalType": "string",
              "name": "nik",
              "type": "string"
            },
            {
              "internalType": "address",
              "name": "voterAddress",
              "type": "address"
            },
            {
              "internalType": "bool",
              "name": "hasVoted",
              "type": "bool"
            },
            {
              "internalType": "string",
              "name": "region",
              "type": "string"
            },
            {
              "internalType": "bool",
              "name": "isRegistered",
              "type": "bool"
            }
          ],
          "internalType": "struct Votechain.Voter",
          "name": "",
          "type": "tuple"
        }
      ],
      "stateMutability": "view",
      "type": "function",
      "constant": true
    },
    {
      "inputs": [
        {
          "internalType": "address",
          "name": "voterAddress",
          "type": "address"
        }
      ],
      "name": "getVoterByAddress",
      "outputs": [
        {
          "components": [
            {
              "internalType": "string",
              "name": "nik",
              "type": "string"
            },
            {
              "internalType": "address",
              "name": "voterAddress",
              "type": "address"
            },
            {
              "internalType": "bool",
              "name": "hasVoted",
              "type": "bool"
            },
            {
              "internalType": "string",
              "name": "region",
              "type": "string"
            },
            {
              "internalType": "bool",
              "name": "isRegistered",
              "type": "bool"
            }
          ],
          "internalType": "struct Votechain.Voter",
          "name": "",
          "type": "tuple"
        }
      ],
      "stateMutability": "view",
      "type": "function",
      "constant": true
    },
    {
      "inputs": [
        {
          "internalType": "string",
          "name": "region",
          "type": "string"
        }
      ],
      "name": "getVoterByRegion",
      "outputs": [
        {
          "components": [
            {
              "internalType": "string",
              "name": "nik",
              "type": "string"
            },
            {
              "internalType": "address",
              "name": "voterAddress",
              "type": "address"
            },
            {
              "internalType": "bool",
              "name": "hasVoted",
              "type": "bool"
            },
            {
              "internalType": "string",
              "name": "region",
              "type": "string"
            },
            {
              "internalType": "bool",
              "name": "isRegistered",
              "type": "bool"
            }
          ],
          "internalType": "struct Votechain.Voter[]",
          "name": "",
          "type": "tuple[]"
        }
      ],
      "stateMutability": "view",
      "type": "function",
      "constant": true
    },
    {
      "inputs": [
        {
          "internalType": "string",
          "name": "candidateId",
          "type": "string"
        }
      ],
      "name": "getCandidate",
      "outputs": [
        {
          "components": [
            {
              "internalType": "string",
              "name": "id",
              "type": "string"
            },
            {
              "internalType": "string",
              "name": "name",
              "type": "string"
            },
            {
              "internalType": "uint256",
              "name": "candidateNo",
              "type": "uint256"
            },
            {
              "internalType": "uint256",
              "name": "voteCount",
              "type": "uint256"
            },
            {
              "internalType": "bool",
              "name": "isActive",
              "type": "bool"
            }
          ],
          "internalType": "struct Votechain.Candidate",
          "name": "",
          "type": "tuple"
        }
      ],
      "stateMutability": "view",
      "type": "function",
      "constant": true
    },
    {
      "inputs": [],
      "name": "getAllCandidates",
      "outputs": [
        {
          "components": [
            {
              "internalType": "string",
              "name": "id",
              "type": "string"
            },
            {
              "internalType": "string",
              "name": "name",
              "type": "string"
            },
            {
              "internalType": "uint256",
              "name": "candidateNo",
              "type": "uint256"
            },
            {
              "internalType": "uint256",
              "name": "voteCount",
              "type": "uint256"
            },
            {
              "internalType": "bool",
              "name": "isActive",
              "type": "bool"
            }
          ],
          "internalType": "struct Votechain.Candidate[]",
          "name": "",
          "type": "tuple[]"
        }
      ],
      "stateMutability": "view",
      "type": "function",
      "constant": true
    },
    {
      "inputs": [
        {
          "internalType": "uint256",
          "name": "candidateNo",
          "type": "uint256"
        }
      ],
      "name": "getCandidateByNo",
      "outputs": [
        {
          "components": [
            {
              "internalType": "string",
              "name": "id",
              "type": "string"
            },
            {
              "internalType": "string",
              "name": "name",
              "type": "string"
            },
            {
              "internalType": "uint256",
              "name": "candidateNo",
              "type": "uint256"
            },
            {
              "internalType": "uint256",
              "name": "voteCount",
              "type": "uint256"
            },
            {
              "internalType": "bool",
              "name": "isActive",
              "type": "bool"
            }
          ],
          "internalType": "struct Votechain.Candidate",
          "name": "",
          "type": "tuple"
        }
      ],
      "stateMutability": "view",
      "type": "function",
      "constant": true
    }
  ],
  "bytecode": "0x6080604052348015600f57600080fd5b50336000806101000a81548173ffffffffffffffffffffffffffffffffffffffff021916908373ffffffffffffffffffffffffffffffffffffffff160217905550614e118061005f6000396000f3fe608060405234801561001057600080fd5b50600436106101ab576000357c0100000000000000000000000000000000000000000000000000000000900480639df86dc1116100fb578063e0d5343b116100b4578063f276669d1161008e578063f276669d14610524578063f44f4e1414610554578063fb4ab16414610572578063fc36e15b14610590576101ab565b8063e0d5343b14610494578063efe3b01b146104c4578063f0416e5f146104f4576101ab565b80639df86dc114610390578063ab165a3e146103ac578063aca7ecc4146103df578063b0c9b9a01461040f578063c5539cc21461042d578063c7cb520a14610461576101ab565b8063408e2727116101685780634c361435116101425780634c361435146102f057806353fa2e641461030c5780637478c9fe1461034057806389c7e3911461035c576101ab565b8063408e2727146102865780634a075de2146102a45780634bdd7585146102c0576101ab565b8063027d8514146101b05780631999a15f146101cc5780632a70ecca146101e85780632e6997fe1461021857806330503d06146102365780633ca09fdf1461026a575b600080fd5b6101ca60048036038101906101c591906139fb565b6105ac565b005b6101e660048036038101906101e19190613a90565b610971565b005b61020260048036038101906101fd9190613a90565b610b4e565b60405161020f9190613c14565b60405180910390f35b610220610d39565b60405161022d9190613d8e565b60405180910390f35b610250600480360381019061024b9190613ddc565b610eeb565b604051610261959493929190613e71565b60405180910390f35b610284600480360381019061027f9190613ed2565b61104e565b005b61028e61135e565b60405161029b9190613f67565b60405180910390f35b6102be60048036038101906102b99190613f82565b611371565b005b6102da60048036038101906102d59190613fe2565b6118ed565b6040516102e79190613c14565b60405180910390f35b61030a60048036038101906103059190613fe2565b611bdd565b005b6103266004803603810190610321919061413f565b611d89565b604051610337959493929190614197565b60405180910390f35b61035a60048036038101906103559190614224565b611f1f565b005b61037660048036038101906103719190613ddc565b611ff8565b604051610387959493929190614197565b60405180910390f35b6103aa60048036038101906103a59190613fe2565b612188565b005b6103c660048036038101906103c19190613fe2565b612250565b6040516103d69493929190614251565b60405180910390f35b6103f960048036038101906103f49190613ddc565b6123bd565b6040516104069190614321565b60405180910390f35b6104176125ce565b604051610424919061446f565b60405180910390f35b6104476004803603810190610442919061413f565b6127c2565b604051610458959493929190613e71565b60405180910390f35b61047b60048036038101906104769190613ddc565b61292b565b60405161048b9493929190614251565b60405180910390f35b6104ae60048036038101906104a99190613a90565b612aa8565b6040516104bb91906145d0565b60405180910390f35b6104de60048036038101906104d99190613fe2565b612e1b565b6040516104eb919061465c565b60405180910390f35b61050e60048036038101906105099190613fe2565b61308f565b60405161051b919061467e565b60405180910390f35b61053e60048036038101906105399190613a90565b61312f565b60405161054b9190614321565b60405180910390f35b61055c613326565b60405161056991906145d0565b60405180910390f35b61057a613535565b60405161058791906146a0565b60405180910390f35b6105aa60048036038101906105a59190613a90565b613559565b005b60008054906101000a900473ffffffffffffffffffffffffffffffffffffffff1673ffffffffffffffffffffffffffffffffffffffff163373ffffffffffffffffffffffffffffffffffffffff1614610631576040517f8b8958dc00000000000000000000000000000000000000000000000000000000815260040160405180910390fd5b600260008673ffffffffffffffffffffffffffffffffffffffff1673ffffffffffffffffffffffffffffffffffffffff16815260200190815260200160002060010160149054906101000a900460ff16156106b8576040517fd3eede8600000000000000000000000000000000000000000000000000000000815260040160405180910390fd5b6000604051806080016040528086868080601f016020809104026020016040519081016040528093929190818152602001838380828437600081840152601f19601f8201169050808301925050505050505081526020018773ffffffffffffffffffffffffffffffffffffffff16815260200160011515815260200184848080601f016020809104026020016040519081016040528093929190818152602001838380828437600081840152601f19601f82011690508083019250505050505050815250905080600260008873ffffffffffffffffffffffffffffffffffffffff1673ffffffffffffffffffffffffffffffffffffffff16815260200190815260200160002060008201518160000190816107d391906148cd565b5060208201518160010160006101000a81548173ffffffffffffffffffffffffffffffffffffffff021916908373ffffffffffffffffffffffffffffffffffffffff16021790555060408201518160010160146101000a81548160ff021916908315150217905550606082015181600201908161085091906148cd565b509050506005819080600181540180825580915050600190039060005260206000209060030201600090919091909150600082015181600001908161089591906148cd565b5060208201518160010160006101000a81548173ffffffffffffffffffffffffffffffffffffffff021916908373ffffffffffffffffffffffffffffffffffffffff16021790555060408201518160010160146101000a81548160ff021916908315150217905550606082015181600201908161091291906148cd565b5050508573ffffffffffffffffffffffffffffffffffffffff167fc4e2c95246cc050bddc27763a59824d38df0df18e23f19099623d7e1618790f68686868660405161096194939291906149cc565b60405180910390a2505050505050565b60008054906101000a900473ffffffffffffffffffffffffffffffffffffffff1673ffffffffffffffffffffffffffffffffffffffff163373ffffffffffffffffffffffffffffffffffffffff16146109f6576040517f8b8958dc00000000000000000000000000000000000000000000000000000000815260040160405180910390fd5b600060018383604051610a0a929190614a37565b90815260200160405180910390206000018054610a26906146ea565b905003610a5f576040517fe66ea08f00000000000000000000000000000000000000000000000000000000815260040160405180910390fd5b60018282604051610a71929190614a37565b908152602001604051809103902060040160009054906101000a900460ff161560018383604051610aa3929190614a37565b908152602001604051809103902060040160006101000a81548160ff0219169083151502179055508181604051610adb929190614a37565b60405180910390207f24a689d3938ff739c48065a7730e43e7433e0e64398d1a1cc828e7ab82913ff760018484604051610b16929190614a37565b908152602001604051809103902060040160009054906101000a900460ff16604051610b429190613f67565b60405180910390a25050565b610b5661386a565b60048383604051610b68929190614a37565b90815260200160405180910390206040518060a0016040529081600082018054610b91906146ea565b80601f0160208091040260200160405190810160405280929190818152602001828054610bbd906146ea565b8015610c0a5780601f10610bdf57610100808354040283529160200191610c0a565b820191906000526020600020905b815481529060010190602001808311610bed57829003601f168201915b505050505081526020016001820160009054906101000a900473ffffffffffffffffffffffffffffffffffffffff1673ffffffffffffffffffffffffffffffffffffffff1673ffffffffffffffffffffffffffffffffffffffff1681526020016001820160149054906101000a900460ff16151515158152602001600282018054610c94906146ea565b80601f0160208091040260200160405190810160405280929190818152602001828054610cc0906146ea565b8015610d0d5780601f10610ce257610100808354040283529160200191610d0d565b820191906000526020600020905b815481529060010190602001808311610cf057829003601f168201915b505050505081526020016003820160009054906101000a900460ff161515151581525050905092915050565b60606007805480602002602001604051908101604052809291908181526020016000905b82821015610ee257838290600052602060002090600502016040518060a0016040529081600082018054610d90906146ea565b80601f0160208091040260200160405190810160405280929190818152602001828054610dbc906146ea565b8015610e095780601f10610dde57610100808354040283529160200191610e09565b820191906000526020600020905b815481529060010190602001808311610dec57829003601f168201915b50505050508152602001600182018054610e22906146ea565b80601f0160208091040260200160405190810160405280929190818152602001828054610e4e906146ea565b8015610e9b5780601f10610e7057610100808354040283529160200191610e9b565b820191906000526020600020905b815481529060010190602001808311610e7e57829003601f168201915b5050505050815260200160028201548152602001600382015481526020016004820160009054906101000a900460ff16151515158152505081526020019060010190610d5d565b50505050905090565b60078181548110610efb57600080fd5b9060005260206000209060050201600091509050806000018054610f1e906146ea565b80601f0160208091040260200160405190810160405280929190818152602001828054610f4a906146ea565b8015610f975780601f10610f6c57610100808354040283529160200191610f97565b820191906000526020600020905b815481529060010190602001808311610f7a57829003601f168201915b505050505090806001018054610fac906146ea565b80601f0160208091040260200160405190810160405280929190818152602001828054610fd8906146ea565b80156110255780601f10610ffa57610100808354040283529160200191611025565b820191906000526020600020905b81548152906001019060200180831161100857829003601f168201915b5050505050908060020154908060030154908060040160009054906101000a900460ff16905085565b60008054906101000a900473ffffffffffffffffffffffffffffffffffffffff1673ffffffffffffffffffffffffffffffffffffffff163373ffffffffffffffffffffffffffffffffffffffff16146110d3576040517f8b8958dc00000000000000000000000000000000000000000000000000000000815260040160405180910390fd5b6000600186866040516110e7929190614a37565b90815260200160405180910390206000018054611103906146ea565b90501461113c576040517ff638326500000000000000000000000000000000000000000000000000000000815260040160405180910390fd5b60006040518060a0016040528087878080601f016020809104026020016040519081016040528093929190818152602001838380828437600081840152601f19601f82011690508083019250505050505050815260200185858080601f016020809104026020016040519081016040528093929190818152602001838380828437600081840152601f19601f820116905080830192505050505050508152602001838152602001600081526020016001151581525090508060018787604051611206929190614a37565b9081526020016040518091039020600082015181600001908161122991906148cd565b50602082015181600101908161123f91906148cd565b50604082015181600201556060820151816003015560808201518160040160006101000a81548160ff021916908315150217905550905050600781908060018154018082558091505060019003906000526020600020906005020160009091909190915060008201518160000190816112b891906148cd565b5060208201518160010190816112ce91906148cd565b50604082015181600201556060820151816003015560808201518160040160006101000a81548160ff02191690831515021790555050508585604051611315929190614a37565b60405180910390207f6184463fde61a3e60869da6c5a223163f4b7548f805e17f865da2e8d3828d337858560405161134e929190614a50565b60405180910390a2505050505050565b600060149054906101000a900460ff1681565b600260003373ffffffffffffffffffffffffffffffffffffffff1673ffffffffffffffffffffffffffffffffffffffff16815260200190815260200160002060010160149054906101000a900460ff166113f7576040517f72c7057a00000000000000000000000000000000000000000000000000000000815260040160405180910390fd5b60048383604051611409929190614a37565b908152602001604051809103902060030160009054906101000a900460ff161561145f576040517f59a1ec4700000000000000000000000000000000000000000000000000000000815260040160405180910390fd5b6000600360008373ffffffffffffffffffffffffffffffffffffffff1673ffffffffffffffffffffffffffffffffffffffff16815260200190815260200160002080546114ab906146ea565b9050146114e4576040517f2d42c77200000000000000000000000000000000000000000000000000000000815260040160405180910390fd5b60006040518060a0016040528085858080601f016020809104026020016040519081016040528093929190818152602001838380828437600081840152601f19601f8201169050808301925050505050505081526020018373ffffffffffffffffffffffffffffffffffffffff168152602001600015158152602001600260003373ffffffffffffffffffffffffffffffffffffffff1673ffffffffffffffffffffffffffffffffffffffff16815260200190815260200160002060020180546115ad906146ea565b80601f01602080910402602001604051908101604052809291908181526020018280546115d9906146ea565b80156116265780601f106115fb57610100808354040283529160200191611626565b820191906000526020600020905b81548152906001019060200180831161160957829003601f168201915b50505050508152602001600115158152509050806004858560405161164c929190614a37565b9081526020016040518091039020600082015181600001908161166f91906148cd565b5060208201518160010160006101000a81548173ffffffffffffffffffffffffffffffffffffffff021916908373ffffffffffffffffffffffffffffffffffffffff16021790555060408201518160010160146101000a81548160ff02191690831515021790555060608201518160020190816116ec91906148cd565b5060808201518160030160006101000a81548160ff0219169083151502179055509050508383600360008573ffffffffffffffffffffffffffffffffffffffff1673ffffffffffffffffffffffffffffffffffffffff168152602001908152602001600020918261175e929190614a7f565b50600681908060018154018082558091505060019003906000526020600020906004020160009091909190915060008201518160000190816117a091906148cd565b5060208201518160010160006101000a81548173ffffffffffffffffffffffffffffffffffffffff021916908373ffffffffffffffffffffffffffffffffffffffff16021790555060408201518160010160146101000a81548160ff021916908315150217905550606082015181600201908161181d91906148cd565b5060808201518160030160006101000a81548160ff02191690831515021790555050508173ffffffffffffffffffffffffffffffffffffffff168484604051611867929190614a37565b60405180910390207fe8bf381bec3899d7c4d98d7e52cfd45dfe7254b2ceafbb4d6dca1235ed10624d600260003373ffffffffffffffffffffffffffffffffffffffff1673ffffffffffffffffffffffffffffffffffffffff1681526020019081526020016000206002016040516118df9190614bd3565b60405180910390a350505050565b6118f561386a565b6000600360008473ffffffffffffffffffffffffffffffffffffffff1673ffffffffffffffffffffffffffffffffffffffff1681526020019081526020016000208054611941906146ea565b80601f016020809104026020016040519081016040528092919081815260200182805461196d906146ea565b80156119ba5780601f1061198f576101008083540402835291602001916119ba565b820191906000526020600020905b81548152906001019060200180831161199d57829003601f168201915b5050505050905060008151036119fc576040517f6f08c58700000000000000000000000000000000000000000000000000000000815260040160405180910390fd5b600481604051611a0c9190614c26565b90815260200160405180910390206040518060a0016040529081600082018054611a35906146ea565b80601f0160208091040260200160405190810160405280929190818152602001828054611a61906146ea565b8015611aae5780601f10611a8357610100808354040283529160200191611aae565b820191906000526020600020905b815481529060010190602001808311611a9157829003601f168201915b505050505081526020016001820160009054906101000a900473ffffffffffffffffffffffffffffffffffffffff1673ffffffffffffffffffffffffffffffffffffffff1673ffffffffffffffffffffffffffffffffffffffff1681526020016001820160149054906101000a900460ff16151515158152602001600282018054611b38906146ea565b80601f0160208091040260200160405190810160405280929190818152602001828054611b64906146ea565b8015611bb15780601f10611b8657610100808354040283529160200191611bb1565b820191906000526020600020905b815481529060010190602001808311611b9457829003601f168201915b505050505081526020016003820160009054906101000a900460ff161515151581525050915050919050565b60008054906101000a900473ffffffffffffffffffffffffffffffffffffffff1673ffffffffffffffffffffffffffffffffffffffff163373ffffffffffffffffffffffffffffffffffffffff1614611c62576040517f8b8958dc00000000000000000000000000000000000000000000000000000000815260040160405180910390fd5b600260008273ffffffffffffffffffffffffffffffffffffffff1673ffffffffffffffffffffffffffffffffffffffff16815260200190815260200160002060010160149054906101000a900460ff16611ce8576040517fc75d5c6500000000000000000000000000000000000000000000000000000000815260040160405180910390fd5b6000600260008373ffffffffffffffffffffffffffffffffffffffff1673ffffffffffffffffffffffffffffffffffffffff16815260200190815260200160002060010160146101000a81548160ff0219169083151502179055508073ffffffffffffffffffffffffffffffffffffffff167f3954ed3404fab00c2419751b1587a1f6655215f0dc812ab5ed515d4c2677b2d360405160405180910390a250565b600481805160208101820180518482526020830160208501208183528095505050505050600091509050806000018054611dc2906146ea565b80601f0160208091040260200160405190810160405280929190818152602001828054611dee906146ea565b8015611e3b5780601f10611e1057610100808354040283529160200191611e3b565b820191906000526020600020905b815481529060010190602001808311611e1e57829003601f168201915b5050505050908060010160009054906101000a900473ffffffffffffffffffffffffffffffffffffffff16908060010160149054906101000a900460ff1690806002018054611e89906146ea565b80601f0160208091040260200160405190810160405280929190818152602001828054611eb5906146ea565b8015611f025780601f10611ed757610100808354040283529160200191611f02565b820191906000526020600020905b815481529060010190602001808311611ee557829003601f168201915b5050505050908060030160009054906101000a900460ff16905085565b60008054906101000a900473ffffffffffffffffffffffffffffffffffffffff1673ffffffffffffffffffffffffffffffffffffffff163373ffffffffffffffffffffffffffffffffffffffff1614611fa4576040517f8b8958dc00000000000000000000000000000000000000000000000000000000815260040160405180910390fd5b80600060146101000a81548160ff0219169083151502179055507f9069a1a16ace751e8690f383e12f87b01e8488ba387e626810bd113fef0417f981604051611fed9190613f67565b60405180910390a150565b6006818154811061200857600080fd5b906000526020600020906004020160009150905080600001805461202b906146ea565b80601f0160208091040260200160405190810160405280929190818152602001828054612057906146ea565b80156120a45780601f10612079576101008083540402835291602001916120a4565b820191906000526020600020905b81548152906001019060200180831161208757829003601f168201915b5050505050908060010160009054906101000a900473ffffffffffffffffffffffffffffffffffffffff16908060010160149054906101000a900460ff16908060020180546120f2906146ea565b80601f016020809104026020016040519081016040528092919081815260200182805461211e906146ea565b801561216b5780601f106121405761010080835404028352916020019161216b565b820191906000526020600020905b81548152906001019060200180831161214e57829003601f168201915b5050505050908060030160009054906101000a900460ff16905085565b60008054906101000a900473ffffffffffffffffffffffffffffffffffffffff1673ffffffffffffffffffffffffffffffffffffffff163373ffffffffffffffffffffffffffffffffffffffff161461220d576040517f8b8958dc00000000000000000000000000000000000000000000000000000000815260040160405180910390fd5b806000806101000a81548173ffffffffffffffffffffffffffffffffffffffff021916908373ffffffffffffffffffffffffffffffffffffffff16021790555050565b6002602052806000526040600020600091509050806000018054612273906146ea565b80601f016020809104026020016040519081016040528092919081815260200182805461229f906146ea565b80156122ec5780601f106122c1576101008083540402835291602001916122ec565b820191906000526020600020905b8154815290600101906020018083116122cf57829003601f168201915b5050505050908060010160009054906101000a900473ffffffffffffffffffffffffffffffffffffffff16908060010160149054906101000a900460ff169080600201805461233a906146ea565b80601f0160208091040260200160405190810160405280929190818152602001828054612366906146ea565b80156123b35780601f10612388576101008083540402835291602001916123b3565b820191906000526020600020905b81548152906001019060200180831161239657829003601f168201915b5050505050905084565b6123c56138b3565b60005b6007805490508110156125965782600782815481106123ea576123e9614c3d565b5b90600052602060002090600502016002015403612589576007818154811061241557612414614c3d565b5b90600052602060002090600502016040518060a001604052908160008201805461243e906146ea565b80601f016020809104026020016040519081016040528092919081815260200182805461246a906146ea565b80156124b75780601f1061248c576101008083540402835291602001916124b7565b820191906000526020600020905b81548152906001019060200180831161249a57829003601f168201915b505050505081526020016001820180546124d0906146ea565b80601f01602080910402602001604051908101604052809291908181526020018280546124fc906146ea565b80156125495780601f1061251e57610100808354040283529160200191612549565b820191906000526020600020905b81548152906001019060200180831161252c57829003601f168201915b5050505050815260200160028201548152602001600382015481526020016004820160009054906101000a900460ff1615151515815250509150506125c9565b80806001019150506123c8565b506040517fe66ea08f00000000000000000000000000000000000000000000000000000000815260040160405180910390fd5b919050565b60606005805480602002602001604051908101604052809291908181526020016000905b828210156127b95783829060005260206000209060030201604051806080016040529081600082018054612625906146ea565b80601f0160208091040260200160405190810160405280929190818152602001828054612651906146ea565b801561269e5780601f106126735761010080835404028352916020019161269e565b820191906000526020600020905b81548152906001019060200180831161268157829003601f168201915b505050505081526020016001820160009054906101000a900473ffffffffffffffffffffffffffffffffffffffff1673ffffffffffffffffffffffffffffffffffffffff1673ffffffffffffffffffffffffffffffffffffffff1681526020016001820160149054906101000a900460ff16151515158152602001600282018054612728906146ea565b80601f0160208091040260200160405190810160405280929190818152602001828054612754906146ea565b80156127a15780601f10612776576101008083540402835291602001916127a1565b820191906000526020600020905b81548152906001019060200180831161278457829003601f168201915b505050505081525050815260200190600101906125f2565b50505050905090565b6001818051602081018201805184825260208301602085012081835280955050505050506000915090508060000180546127fb906146ea565b80601f0160208091040260200160405190810160405280929190818152602001828054612827906146ea565b80156128745780601f1061284957610100808354040283529160200191612874565b820191906000526020600020905b81548152906001019060200180831161285757829003601f168201915b505050505090806001018054612889906146ea565b80601f01602080910402602001604051908101604052809291908181526020018280546128b5906146ea565b80156129025780601f106128d757610100808354040283529160200191612902565b820191906000526020600020905b8154815290600101906020018083116128e557829003601f168201915b5050505050908060020154908060030154908060040160009054906101000a900460ff16905085565b6005818154811061293b57600080fd5b906000526020600020906003020160009150905080600001805461295e906146ea565b80601f016020809104026020016040519081016040528092919081815260200182805461298a906146ea565b80156129d75780601f106129ac576101008083540402835291602001916129d7565b820191906000526020600020905b8154815290600101906020018083116129ba57829003601f168201915b5050505050908060010160009054906101000a900473ffffffffffffffffffffffffffffffffffffffff16908060010160149054906101000a900460ff1690806002018054612a25906146ea565b80601f0160208091040260200160405190810160405280929190818152602001828054612a51906146ea565b8015612a9e5780601f10612a7357610100808354040283529160200191612a9e565b820191906000526020600020905b815481529060010190602001808311612a8157829003601f168201915b5050505050905084565b6060600080600090505b600680549050811015612b32578484604051612acf929190614c9c565b604051809103902060068281548110612aeb57612aea614c3d565b5b9060005260206000209060040201600201604051612b099190614d4d565b604051809103902003612b25578180612b2190614d93565b9250505b8080600101915050612ab2565b5060008167ffffffffffffffff811115612b4f57612b4e614014565b5b604051908082528060200260200182016040528015612b8857816020015b612b7561386a565b815260200190600190039081612b6d5790505b509050600080600090505b600680549050811015612e0e578686604051612bb0929190614c9c565b604051809103902060068281548110612bcc57612bcb614c3d565b5b9060005260206000209060040201600201604051612bea9190614d4d565b604051809103902003612e015760068181548110612c0b57612c0a614c3d565b5b90600052602060002090600402016040518060a0016040529081600082018054612c34906146ea565b80601f0160208091040260200160405190810160405280929190818152602001828054612c60906146ea565b8015612cad5780601f10612c8257610100808354040283529160200191612cad565b820191906000526020600020905b815481529060010190602001808311612c9057829003601f168201915b505050505081526020016001820160009054906101000a900473ffffffffffffffffffffffffffffffffffffffff1673ffffffffffffffffffffffffffffffffffffffff1673ffffffffffffffffffffffffffffffffffffffff1681526020016001820160149054906101000a900460ff16151515158152602001600282018054612d37906146ea565b80601f0160208091040260200160405190810160405280929190818152602001828054612d63906146ea565b8015612db05780601f10612d8557610100808354040283529160200191612db0565b820191906000526020600020905b815481529060010190602001808311612d9357829003601f168201915b505050505081526020016003820160009054906101000a900460ff161515151581525050838381518110612de757612de6614c3d565b5b60200260200101819052508180612dfd90614d93565b9250505b8080600101915050612b93565b5081935050505092915050565b612e236138e4565b600260008373ffffffffffffffffffffffffffffffffffffffff1673ffffffffffffffffffffffffffffffffffffffff16815260200190815260200160002060010160149054906101000a900460ff16612ea9576040517fc75d5c6500000000000000000000000000000000000000000000000000000000815260040160405180910390fd5b600260008373ffffffffffffffffffffffffffffffffffffffff1673ffffffffffffffffffffffffffffffffffffffff168152602001908152602001600020604051806080016040529081600082018054612f03906146ea565b80601f0160208091040260200160405190810160405280929190818152602001828054612f2f906146ea565b8015612f7c5780601f10612f5157610100808354040283529160200191612f7c565b820191906000526020600020905b815481529060010190602001808311612f5f57829003601f168201915b505050505081526020016001820160009054906101000a900473ffffffffffffffffffffffffffffffffffffffff1673ffffffffffffffffffffffffffffffffffffffff1673ffffffffffffffffffffffffffffffffffffffff1681526020016001820160149054906101000a900460ff16151515158152602001600282018054613006906146ea565b80601f0160208091040260200160405190810160405280929190818152602001828054613032906146ea565b801561307f5780601f106130545761010080835404028352916020019161307f565b820191906000526020600020905b81548152906001019060200180831161306257829003601f168201915b5050505050815250509050919050565b600360205280600052604060002060009150905080546130ae906146ea565b80601f01602080910402602001604051908101604052809291908181526020018280546130da906146ea565b80156131275780601f106130fc57610100808354040283529160200191613127565b820191906000526020600020905b81548152906001019060200180831161310a57829003601f168201915b505050505081565b6131376138b3565b60006001848460405161314b929190614a37565b90815260200160405180910390206000018054613167906146ea565b9050036131a0576040517fe66ea08f00000000000000000000000000000000000000000000000000000000815260040160405180910390fd5b600183836040516131b2929190614a37565b90815260200160405180910390206040518060a00160405290816000820180546131db906146ea565b80601f0160208091040260200160405190810160405280929190818152602001828054613207906146ea565b80156132545780601f1061322957610100808354040283529160200191613254565b820191906000526020600020905b81548152906001019060200180831161323757829003601f168201915b5050505050815260200160018201805461326d906146ea565b80601f0160208091040260200160405190810160405280929190818152602001828054613299906146ea565b80156132e65780601f106132bb576101008083540402835291602001916132e6565b820191906000526020600020905b8154815290600101906020018083116132c957829003601f168201915b5050505050815260200160028201548152602001600382015481526020016004820160009054906101000a900460ff161515151581525050905092915050565b60606006805480602002602001604051908101604052809291908181526020016000905b8282101561352c57838290600052602060002090600402016040518060a001604052908160008201805461337d906146ea565b80601f01602080910402602001604051908101604052809291908181526020018280546133a9906146ea565b80156133f65780601f106133cb576101008083540402835291602001916133f6565b820191906000526020600020905b8154815290600101906020018083116133d957829003601f168201915b505050505081526020016001820160009054906101000a900473ffffffffffffffffffffffffffffffffffffffff1673ffffffffffffffffffffffffffffffffffffffff1673ffffffffffffffffffffffffffffffffffffffff1681526020016001820160149054906101000a900460ff16151515158152602001600282018054613480906146ea565b80601f01602080910402602001604051908101604052809291908181526020018280546134ac906146ea565b80156134f95780601f106134ce576101008083540402835291602001916134f9565b820191906000526020600020905b8154815290600101906020018083116134dc57829003601f168201915b505050505081526020016003820160009054906101000a900460ff1615151515815250508152602001906001019061334a565b50505050905090565b60008054906101000a900473ffffffffffffffffffffffffffffffffffffffff1681565b600060149054906101000a900460ff1661359f576040517f9b8cc47500000000000000000000000000000000000000000000000000000000815260040160405180910390fd5b6000600360003373ffffffffffffffffffffffffffffffffffffffff1673ffffffffffffffffffffffffffffffffffffffff16815260200190815260200160002080546135eb906146ea565b80601f0160208091040260200160405190810160405280929190818152602001828054613617906146ea565b80156136645780601f1061363957610100808354040283529160200191613664565b820191906000526020600020905b81548152906001019060200180831161364757829003601f168201915b5050505050905060008151036136a6576040517f6f08c58700000000000000000000000000000000000000000000000000000000815260040160405180910390fd5b60006004826040516136b89190614c26565b908152602001604051809103902090508060010160149054906101000a900460ff1615613711576040517f7c9a1cf900000000000000000000000000000000000000000000000000000000815260040160405180910390fd5b600060018585604051613725929190614a37565b90815260200160405180910390206000018054613741906146ea565b9050148061377d57506001848460405161375c929190614a37565b908152602001604051809103902060040160009054906101000a900460ff16155b156137b4576040517fe66ea08f00000000000000000000000000000000000000000000000000000000815260040160405180910390fd5b60018160010160146101000a81548160ff021916908315150217905550600184846040516137e3929190614a37565b9081526020016040518091039020600301600081548092919061380590614d93565b9190505550838360405161381a929190614a37565b6040518091039020826040516138309190614c26565b60405180910390207f791f7d5f0b0d6e798f239ccca607156ff12f293d6709379301dc1a27e520618160405160405180910390a350505050565b6040518060a0016040528060608152602001600073ffffffffffffffffffffffffffffffffffffffff168152602001600015158152602001606081526020016000151581525090565b6040518060a00160405280606081526020016060815260200160008152602001600081526020016000151581525090565b604051806080016040528060608152602001600073ffffffffffffffffffffffffffffffffffffffff168152602001600015158152602001606081525090565b6000604051905090565b600080fd5b600080fd5b600073ffffffffffffffffffffffffffffffffffffffff82169050919050565b600061396382613938565b9050919050565b61397381613958565b811461397e57600080fd5b50565b6000813590506139908161396a565b92915050565b600080fd5b600080fd5b600080fd5b60008083601f8401126139bb576139ba613996565b5b8235905067ffffffffffffffff8111156139d8576139d761399b565b5b6020830191508360018202830111156139f4576139f36139a0565b5b9250929050565b600080600080600060608688031215613a1757613a1661392e565b5b6000613a2588828901613981565b955050602086013567ffffffffffffffff811115613a4657613a45613933565b5b613a52888289016139a5565b9450945050604086013567ffffffffffffffff811115613a7557613a74613933565b5b613a81888289016139a5565b92509250509295509295909350565b60008060208385031215613aa757613aa661392e565b5b600083013567ffffffffffffffff811115613ac557613ac4613933565b5b613ad1858286016139a5565b92509250509250929050565b600081519050919050565b600082825260208201905092915050565b60005b83811015613b17578082015181840152602081019050613afc565b60008484015250505050565b6000601f19601f8301169050919050565b6000613b3f82613add565b613b498185613ae8565b9350613b59818560208601613af9565b613b6281613b23565b840191505092915050565b613b7681613958565b82525050565b60008115159050919050565b613b9181613b7c565b82525050565b600060a0830160008301518482036000860152613bb48282613b34565b9150506020830151613bc96020860182613b6d565b506040830151613bdc6040860182613b88565b5060608301518482036060860152613bf48282613b34565b9150506080830151613c096080860182613b88565b508091505092915050565b60006020820190508181036000830152613c2e8184613b97565b905092915050565b600081519050919050565b600082825260208201905092915050565b6000819050602082019050919050565b6000819050919050565b613c7581613c62565b82525050565b600060a0830160008301518482036000860152613c988282613b34565b91505060208301518482036020860152613cb28282613b34565b9150506040830151613cc76040860182613c6c565b506060830151613cda6060860182613c6c565b506080830151613ced6080860182613b88565b508091505092915050565b6000613d048383613c7b565b905092915050565b6000602082019050919050565b6000613d2482613c36565b613d2e8185613c41565b935083602082028501613d4085613c52565b8060005b85811015613d7c5784840389528151613d5d8582613cf8565b9450613d6883613d0c565b925060208a01995050600181019050613d44565b50829750879550505050505092915050565b60006020820190508181036000830152613da88184613d19565b905092915050565b613db981613c62565b8114613dc457600080fd5b50565b600081359050613dd681613db0565b92915050565b600060208284031215613df257613df161392e565b5b6000613e0084828501613dc7565b91505092915050565b600082825260208201905092915050565b6000613e2582613add565b613e2f8185613e09565b9350613e3f818560208601613af9565b613e4881613b23565b840191505092915050565b613e5c81613c62565b82525050565b613e6b81613b7c565b82525050565b600060a0820190508181036000830152613e8b8188613e1a565b90508181036020830152613e9f8187613e1a565b9050613eae6040830186613e53565b613ebb6060830185613e53565b613ec86080830184613e62565b9695505050505050565b600080600080600060608688031215613eee57613eed61392e565b5b600086013567ffffffffffffffff811115613f0c57613f0b613933565b5b613f18888289016139a5565b9550955050602086013567ffffffffffffffff811115613f3b57613f3a613933565b5b613f47888289016139a5565b93509350506040613f5a88828901613dc7565b9150509295509295909350565b6000602082019050613f7c6000830184613e62565b92915050565b600080600060408486031215613f9b57613f9a61392e565b5b600084013567ffffffffffffffff811115613fb957613fb8613933565b5b613fc5868287016139a5565b93509350506020613fd886828701613981565b9150509250925092565b600060208284031215613ff857613ff761392e565b5b600061400684828501613981565b91505092915050565b600080fd5b7f4e487b7100000000000000000000000000000000000000000000000000000000600052604160045260246000fd5b61404c82613b23565b810181811067ffffffffffffffff8211171561406b5761406a614014565b5b80604052505050565b600061407e613924565b905061408a8282614043565b919050565b600067ffffffffffffffff8211156140aa576140a9614014565b5b6140b382613b23565b9050602081019050919050565b82818337600083830152505050565b60006140e26140dd8461408f565b614074565b9050828152602081018484840111156140fe576140fd61400f565b5b6141098482856140c0565b509392505050565b600082601f83011261412657614125613996565b5b81356141368482602086016140cf565b91505092915050565b6000602082840312156141555761415461392e565b5b600082013567ffffffffffffffff81111561417357614172613933565b5b61417f84828501614111565b91505092915050565b61419181613958565b82525050565b600060a08201905081810360008301526141b18188613e1a565b90506141c06020830187614188565b6141cd6040830186613e62565b81810360608301526141df8185613e1a565b90506141ee6080830184613e62565b9695505050505050565b61420181613b7c565b811461420c57600080fd5b50565b60008135905061421e816141f8565b92915050565b60006020828403121561423a5761423961392e565b5b60006142488482850161420f565b91505092915050565b6000608082019050818103600083015261426b8187613e1a565b905061427a6020830186614188565b6142876040830185613e62565b81810360608301526142998184613e1a565b905095945050505050565b600060a08301600083015184820360008601526142c18282613b34565b915050602083015184820360208601526142db8282613b34565b91505060408301516142f06040860182613c6c565b5060608301516143036060860182613c6c565b5060808301516143166080860182613b88565b508091505092915050565b6000602082019050818103600083015261433b81846142a4565b905092915050565b600081519050919050565b600082825260208201905092915050565b6000819050602082019050919050565b6000608083016000830151848203600086015261438c8282613b34565b91505060208301516143a16020860182613b6d565b5060408301516143b46040860182613b88565b50606083015184820360608601526143cc8282613b34565b9150508091505092915050565b60006143e5838361436f565b905092915050565b6000602082019050919050565b600061440582614343565b61440f818561434e565b9350836020820285016144218561435f565b8060005b8581101561445d578484038952815161443e85826143d9565b9450614449836143ed565b925060208a01995050600181019050614425565b50829750879550505050505092915050565b6000602082019050818103600083015261448981846143fa565b905092915050565b600081519050919050565b600082825260208201905092915050565b6000819050602082019050919050565b600060a08301600083015184820360008601526144da8282613b34565b91505060208301516144ef6020860182613b6d565b5060408301516145026040860182613b88565b506060830151848203606086015261451a8282613b34565b915050608083015161452f6080860182613b88565b508091505092915050565b600061454683836144bd565b905092915050565b6000602082019050919050565b600061456682614491565b614570818561449c565b935083602082028501614582856144ad565b8060005b858110156145be578484038952815161459f858261453a565b94506145aa8361454e565b925060208a01995050600181019050614586565b50829750879550505050505092915050565b600060208201905081810360008301526145ea818461455b565b905092915050565b6000608083016000830151848203600086015261460f8282613b34565b91505060208301516146246020860182613b6d565b5060408301516146376040860182613b88565b506060830151848203606086015261464f8282613b34565b9150508091505092915050565b6000602082019050818103600083015261467681846145f2565b905092915050565b600060208201905081810360008301526146988184613e1a565b905092915050565b60006020820190506146b56000830184614188565b92915050565b7f4e487b7100000000000000000000000000000000000000000000000000000000600052602260045260246000fd5b6000600282049050600182168061470257607f821691505b602082108103614715576147146146bb565b5b50919050565b60008190508160005260206000209050919050565b60006020601f8301049050919050565b60008160020a8302905092915050565b6000600883026147807fffffffffffffffffffffffffffffffffffffffffffffffffffffffffffffffff82614740565b61478a8683614740565b95508019841693508086168417925050509392505050565b6000819050919050565b60006147c76147c26147bd84613c62565b6147a2565b613c62565b9050919050565b6000819050919050565b6147e1836147ac565b6147f56147ed826147ce565b848454614750565b825550505050565b600090565b61480a6147fd565b6148158184846147d8565b505050565b5b818110156148395761482e600082614802565b60018101905061481b565b5050565b601f82111561487e5761484f8161471b565b61485884614730565b81016020851015614867578190505b61487b61487385614730565b83018261481a565b50505b505050565b60008160020a8304905092915050565b60006148a460001984600802614883565b1980831691505092915050565b60006148bd8383614893565b9150826002028217905092915050565b6148d682613add565b67ffffffffffffffff8111156148ef576148ee614014565b5b6148f982546146ea565b61490482828561483d565b600060209050601f8311600181146149375760008415614925578287015190505b61492f85826148b1565b865550614997565b601f1984166149458661471b565b60005b8281101561496d57848901518255600182019150602085019450602081019050614948565b8683101561498a5784890151614986601f891682614893565b8355505b6001600288020188555050505b505050505050565b60006149ab8385613e09565b93506149b88385846140c0565b6149c183613b23565b840190509392505050565b600060408201905081810360008301526149e781868861499f565b905081810360208301526149fc81848661499f565b905095945050505050565b600081905092915050565b6000614a1e8385614a07565b9350614a2b8385846140c0565b82840190509392505050565b6000614a44828486614a12565b91508190509392505050565b60006020820190508181036000830152614a6b81848661499f565b90509392505050565b600082905092915050565b614a898383614a74565b67ffffffffffffffff811115614aa257614aa1614014565b5b614aac82546146ea565b614ab782828561483d565b6000601f831160018114614ae65760008415614ad4578287013590505b614ade85826148b1565b865550614b46565b601f198416614af48661471b565b60005b82811015614b1c57848901358255600182019150602085019450602081019050614af7565b86831015614b395784890135614b35601f891682614893565b8355505b6001600288020188555050505b50505050505050565b60008154614b5c816146ea565b614b668186613e09565b94506001821660008114614b815760018114614b9757614bca565b60ff198316865281151560200286019350614bca565b614ba08561471b565b60005b83811015614bc257815481890152600182019150602081019050614ba3565b808801955050505b50505092915050565b60006020820190508181036000830152614bed8184614b4f565b905092915050565b6000614c0082613add565b614c0a8185614a07565b9350614c1a818560208601613af9565b80840191505092915050565b6000614c328284614bf5565b915081905092915050565b7f4e487b7100000000000000000000000000000000000000000000000000000000600052603260045260246000fd5b600081905092915050565b6000614c838385614c6c565b9350614c908385846140c0565b82840190509392505050565b6000614ca9828486614c77565b91508190509392505050565b60008190508160005260206000209050919050565b60008154614cd7816146ea565b614ce18186614c6c565b94506001821660008114614cfc5760018114614d1157614d44565b60ff1983168652811515820286019350614d44565b614d1a85614cb5565b60005b83811015614d3c57815481890152600182019150602081019050614d1d565b838801955050505b50505092915050565b6000614d598284614cca565b915081905092915050565b7f4e487b7100000000000000000000000000000000000000000000000000000000600052601160045260246000fd5b6000614d9e82613c62565b91507fffffffffffffffffffffffffffffffffffffffffffffffffffffffffffffffff8203614dd057614dcf614d64565b5b60018201905091905056fea26469706673582212207fc5eb73d0113d63f5dd08ea6dc2caabf4e230654b26ee6177100cb0b7645c8364736f6c63430008190033",
  "immutableReferences": {},
  "source": "// SPDX-License-Identifier: UNLICENSED\r\npragma solidity ^0.8.25;\r\n\r\ncontract Votechain {\r\n    error OnlyKpuAdmin();\r\n    error OnlyKpuBranch();\r\n    error VotingNotActive();\r\n    error BranchAlreadyRegistered();\r\n    error BranchNotActive();\r\n    error VoterAlreadyRegistered();\r\n    error AddressAlreadyRegistered();\r\n    error VoterNotRegistered();\r\n    error AlreadyVoted();\r\n    error InvalidCandidate();\r\n    error UnauthorizedVoter();\r\n    error CandidateAlreadyExists();\r\n\r\n    struct KPUBranch {\r\n        string name;\r\n        address branchAddress;\r\n        bool isActive;\r\n        string region;\r\n    }\r\n\r\n    struct Voter {\r\n        string nik;\r\n        address voterAddress;\r\n        bool hasVoted;\r\n        string region;\r\n        bool isRegistered;\r\n    }\r\n\r\n    struct Candidate {\r\n        string id; // UUID as a string\r\n        string name;\r\n        uint candidateNo;\r\n        uint256 voteCount;\r\n        bool isActive;\r\n    }\r\n\r\n    address public kpuAdmin;\r\n    bool public votingActive;\r\n\r\n    mapping(string => Candidate) public candidates; // Mapping from UUID to Candidate\r\n    mapping(address => KPUBranch) public kpuBranches;\r\n    mapping(address => string) public voterNIKByAddress;\r\n    mapping(string => Voter) public voters;\r\n\r\n    KPUBranch[] public kpuBranchAddressesArray;\r\n    Voter[] public voterAddressesArray;\r\n    Candidate[] public candidateAddressesArray;\r\n\r\n    event KPUBranchRegistered(address indexed branchAddress, string name, string region);\r\n    event KPUBranchDeactivated(address indexed branchAddress);\r\n    event VoterRegistered(string indexed nik, address indexed voterAddress, string region);\r\n    event VoteCasted(string indexed nik, string indexed candidateId);\r\n    event CandidateAdded(string indexed candidateId, string name);\r\n    event CandidateStatusChanged(string indexed candidateId, bool isActive);\r\n    event VotingStatusChanged(bool isActive);\r\n\r\n    modifier onlyKpuAdmin() {\r\n        if (msg.sender != kpuAdmin) revert OnlyKpuAdmin();\r\n        _;\r\n    }\r\n\r\n    modifier onlyKpuBranch() {\r\n        if (!kpuBranches[msg.sender].isActive) revert OnlyKpuBranch();\r\n        _;\r\n    }\r\n\r\n    modifier votingIsActive() {\r\n        if (!votingActive) revert VotingNotActive();\r\n        _;\r\n    }\r\n\r\n    constructor() {\r\n        kpuAdmin = msg.sender;\r\n    }\r\n\r\n    function registerKPUBranch(\r\n        address branchAddress,\r\n        string calldata name,\r\n        string calldata region\r\n    ) external onlyKpuAdmin {\r\n        if (kpuBranches[branchAddress].isActive) revert BranchAlreadyRegistered();\r\n\r\n        KPUBranch memory newBranch = KPUBranch(name, branchAddress, true, region);\r\n        kpuBranches[branchAddress] = newBranch;\r\n        kpuBranchAddressesArray.push(newBranch);\r\n\r\n        emit KPUBranchRegistered(branchAddress, name, region);\r\n    }\r\n\r\n    function deactivateKPUBranch(address branchAddress) external onlyKpuAdmin {\r\n        if (!kpuBranches[branchAddress].isActive) revert BranchNotActive();\r\n        kpuBranches[branchAddress].isActive = false;\r\n        emit KPUBranchDeactivated(branchAddress);\r\n    }\r\n\r\n    function registerVoter(\r\n        string calldata nik,\r\n        address voterAddress\r\n    ) external onlyKpuBranch {\r\n        if (voters[nik].isRegistered) revert VoterAlreadyRegistered();\r\n        if (bytes(voterNIKByAddress[voterAddress]).length != 0) revert AddressAlreadyRegistered();\r\n        Voter memory newVoter = Voter({\r\n            nik: nik,\r\n            voterAddress: voterAddress,\r\n            hasVoted: false,\r\n            region: kpuBranches[msg.sender].region,\r\n            isRegistered: true\r\n        });\r\n\r\n        voters[nik] = newVoter;\r\n        voterNIKByAddress[voterAddress] = nik;\r\n        voterAddressesArray.push(newVoter);\r\n\r\n        emit VoterRegistered(nik, voterAddress, kpuBranches[msg.sender].region);\r\n    }\r\n\r\n    function vote(string calldata candidateId) external votingIsActive {\r\n        string memory nik = voterNIKByAddress[msg.sender];\r\n        if (bytes(nik).length == 0) revert VoterNotRegistered();\r\n\r\n        Voter storage voter = voters[nik];\r\n        if (voter.hasVoted) revert AlreadyVoted();\r\n        if (bytes(candidates[candidateId].id).length == 0 || !candidates[candidateId].isActive)\r\n            revert InvalidCandidate();\r\n\r\n        voter.hasVoted = true;\r\n        candidates[candidateId].voteCount++;\r\n\r\n        emit VoteCasted(nik, candidateId);\r\n    }\r\n\r\n    function addCandidate(string calldata candidateId, string calldata name, uint candidateNo) external onlyKpuAdmin {\r\n        if (bytes(candidates[candidateId].id).length != 0) revert CandidateAlreadyExists();\r\n\r\n        Candidate memory newCandidate = Candidate({\r\n            id: candidateId,\r\n            name: name,\r\n            candidateNo: candidateNo,\r\n            voteCount: 0,\r\n            isActive: true\r\n        });\r\n        candidates[candidateId] = newCandidate;\r\n        candidateAddressesArray.push(newCandidate);\r\n\r\n        emit CandidateAdded(candidateId, name);\r\n    }\r\n\r\n    function toggleCandidateActive(string calldata candidateId) external onlyKpuAdmin {\r\n        if (bytes(candidates[candidateId].id).length == 0) revert InvalidCandidate();\r\n        candidates[candidateId].isActive = !candidates[candidateId].isActive;\r\n        emit CandidateStatusChanged(candidateId, candidates[candidateId].isActive);\r\n    }\r\n\r\n    function setVotingStatus(bool status) external onlyKpuAdmin {\r\n        votingActive = status;\r\n        emit VotingStatusChanged(status);\r\n    }\r\n\r\n    function setKpuAdmin(address newAdmin) external onlyKpuAdmin {\r\n        kpuAdmin = newAdmin;\r\n    }\r\n\r\n    function getAllKPUBranches() external view returns (KPUBranch[] memory) {\r\n        return kpuBranchAddressesArray;\r\n    }\r\n\r\n    function getBranchByAddress(address branchAddress) external view returns (KPUBranch memory) {\r\n        if (!kpuBranches[branchAddress].isActive) revert BranchNotActive();\r\n        return kpuBranches[branchAddress];\r\n    }\r\n\r\n    function getAllVoter() external view returns (Voter[] memory) {\r\n        return voterAddressesArray;\r\n    }\r\n\r\n    function getVoterByNIK(string calldata nik) external view returns (Voter memory) {\r\n        return voters[nik];\r\n    }\r\n\r\n    function getVoterByAddress(address voterAddress) external view returns (Voter memory) {\r\n        string memory nik = voterNIKByAddress[voterAddress];\r\n        if (bytes(nik).length == 0) revert VoterNotRegistered();\r\n        return voters[nik];\r\n    }\r\n\r\n    function getVoterByRegion(string calldata region) external view returns (Voter[] memory) {\r\n        uint256 count;\r\n        for (uint256 i = 0; i < voterAddressesArray.length; i++) {\r\n            if (keccak256(bytes(voterAddressesArray[i].region)) == keccak256(bytes(region))) {\r\n                count++;\r\n            }\r\n        }\r\n\r\n        Voter[] memory regionVoters = new Voter[](count);\r\n        uint256 index;\r\n        for (uint256 i = 0; i < voterAddressesArray.length; i++) {\r\n            if (keccak256(bytes(voterAddressesArray[i].region)) == keccak256(bytes(region))) {\r\n                regionVoters[index] = voterAddressesArray[i];\r\n                index++;\r\n            }\r\n        }\r\n        return regionVoters;\r\n    }\r\n\r\n    function getCandidate(string calldata candidateId) external view returns (Candidate memory) {\r\n        if (bytes(candidates[candidateId].id).length == 0) revert InvalidCandidate();\r\n        return candidates[candidateId];\r\n    }\r\n\r\n    function getAllCandidates() external view returns (Candidate[] memory) {\r\n        return candidateAddressesArray;\r\n    }\r\n\r\n    function getCandidateByNo(uint candidateNo) external view returns (Candidate memory) {\r\n        for (uint i = 0; i < candidateAddressesArray.length; i++) {\r\n            if (candidateAddressesArray[i].candidateNo == candidateNo) {\r\n                return candidateAddressesArray[i];\r\n            }\r\n        }\r\n        revert InvalidCandidate();\r\n    }\r\n\r\n}",
  "sourcePath": "C:\\Users\\bbyas\\Documents\\Kuliah\\Skripsi\\backend\\votechain-contract\\contracts\\Votechain.sol",
  "compiler": {
    "name": "solc",
    "version": "0.8.25+commit.b61c2a91.Emscripten.clang"
  },
  "schemaVersion": "3.4.16",
  "updatedAt": "2025-03-05T07:47:07.094Z",
  "networkType": "ethereum",
  "devdoc": {
    "kind": "dev",
    "methods": {},
    "version": 1
  },
  "userdoc": {
    "kind": "user",
    "methods": {},
    "version": 1
  }
}