{
  "contractName": "VotechainBase",
  "abi": [
    {
      "inputs": [
        {
          "internalType": "address[]",
          "name": "trustedForwarders",
          "type": "address[]"
        }
      ],
      "stateMutability": "nonpayable",
      "type": "constructor"
    },
    {
      "inputs": [],
      "name": "OnlyKpuAdmin",
      "type": "error"
    },
    {
      "inputs": [],
      "name": "VotingNotActive",
      "type": "error"
    },
    {
      "anonymous": false,
      "inputs": [
        {
          "indexed": true,
          "internalType": "address",
          "name": "forwarder",
          "type": "address"
        }
      ],
      "name": "TrustedForwarderAdded",
      "type": "event"
    },
    {
      "anonymous": false,
      "inputs": [
        {
          "indexed": true,
          "internalType": "address",
          "name": "forwarder",
          "type": "address"
        }
      ],
      "name": "TrustedForwarderRemoved",
      "type": "event"
    },
    {
      "anonymous": false,
      "inputs": [
        {
          "indexed": true,
          "internalType": "address",
          "name": "forwarder",
          "type": "address"
        },
        {
          "indexed": false,
          "internalType": "bool",
          "name": "trusted",
          "type": "bool"
        }
      ],
      "name": "TrustedForwarderUpdated",
      "type": "event"
    },
    {
      "anonymous": false,
      "inputs": [
        {
          "indexed": false,
          "internalType": "bool",
          "name": "isActive",
          "type": "bool"
        }
      ],
      "name": "VotingStatusChanged",
      "type": "event"
    },
    {
      "inputs": [],
      "name": "getTrustedForwarders",
      "outputs": [
        {
          "internalType": "address[]",
          "name": "",
          "type": "address[]"
        }
      ],
      "stateMutability": "view",
      "type": "function",
      "constant": true
    },
    {
      "inputs": [
        {
          "internalType": "address",
          "name": "forwarder",
          "type": "address"
        }
      ],
      "name": "isTrustedForwarder",
      "outputs": [
        {
          "internalType": "bool",
          "name": "",
          "type": "bool"
        }
      ],
      "stateMutability": "view",
      "type": "function",
      "constant": true
    },
    {
      "inputs": [],
      "name": "kpuAdmin",
      "outputs": [
        {
          "internalType": "address",
          "name": "",
          "type": "address"
        }
      ],
      "stateMutability": "view",
      "type": "function",
      "constant": true
    },
    {
      "inputs": [],
      "name": "votingActive",
      "outputs": [
        {
          "internalType": "bool",
          "name": "",
          "type": "bool"
        }
      ],
      "stateMutability": "view",
      "type": "function",
      "constant": true
    },
    {
      "inputs": [
        {
          "internalType": "bool",
          "name": "status",
          "type": "bool"
        }
      ],
      "name": "setVotingStatus",
      "outputs": [],
      "stateMutability": "nonpayable",
      "type": "function"
    },
    {
      "inputs": [
        {
          "internalType": "address",
          "name": "newAdmin",
          "type": "address"
        }
      ],
      "name": "setKpuAdmin",
      "outputs": [],
      "stateMutability": "nonpayable",
      "type": "function"
    },
    {
      "inputs": [
        {
          "internalType": "address",
          "name": "forwarder",
          "type": "address"
        }
      ],
      "name": "addTrustedForwarder",
      "outputs": [],
      "stateMutability": "nonpayable",
      "type": "function"
    },
    {
      "inputs": [
        {
          "internalType": "address",
          "name": "forwarder",
          "type": "address"
        }
      ],
      "name": "removeTrustedForwarder",
      "outputs": [],
      "stateMutability": "nonpayable",
      "type": "function"
    }
  ],
  "bytecode": "0x608060405234801561001057600080fd5b5060405161096a38038061096a83398101604081905261002f916101b4565b8060005b815181101561006c5761006482828151811061005157610051610278565b602002602001015161009d60201b60201c565b600101610033565b506100779050610149565b600280546001600160a01b0319166001600160a01b03929092169190911790555061028e565b6001600160a01b03811660009081526020819052604090205460ff16610146576001600160a01b038116600081815260208190526040808220805460ff19166001908117909155805480820182559083527fb10e2d527612073b26eecdfd717e6a320cf44b4afac2b0732d9fcbe2b7fa0cf60180546001600160a01b03191684179055517f3ef8564460ada92419608d823c014975d98f8104d7d1e68c222967ac6814cd979190a25b50565b6000610153610158565b905090565b3360009081526020819052604081205460ff161561017d575060131936013560601c90565b503390565b634e487b7160e01b600052604160045260246000fd5b80516001600160a01b03811681146101af57600080fd5b919050565b600060208083850312156101c757600080fd5b82516001600160401b03808211156101de57600080fd5b818501915085601f8301126101f257600080fd5b81518181111561020457610204610182565b8060051b604051601f19603f8301168101818110858211171561022957610229610182565b60405291825284820192508381018501918883111561024757600080fd5b938501935b8285101561026c5761025d85610198565b8452938501939285019261024c565b98975050505050505050565b634e487b7160e01b600052603260045260246000fd5b6106cd8061029d6000396000f3fe608060405234801561001057600080fd5b50600436106100885760003560e01c80637478c9fe1161005b5780637478c9fe1461010a5780639df86dc11461011d578063fb4ab16414610130578063ff7196c81461015b57600080fd5b806326d006681461008d5780633751d89c146100a2578063408e2727146100b5578063572b6c05146100de575b600080fd5b6100a061009b3660046105a5565b610170565b005b6100a06100b03660046105a5565b6101b7565b6002546100c990600160a01b900460ff1681565b60405190151581526020015b60405180910390f35b6100c96100ec3660046105a5565b6001600160a01b031660009081526020819052604090205460ff1690565b6100a06101183660046105d5565b6101fb565b6100a061012b3660046105a5565b61028e565b600254610143906001600160a01b031681565b6040516001600160a01b0390911681526020016100d5565b6101636102eb565b6040516100d591906105f7565b6002546001600160a01b031661018461034d565b6001600160a01b0316146101ab576040516322e2563760e21b815260040160405180910390fd5b6101b48161035c565b50565b6002546001600160a01b03166101cb61034d565b6001600160a01b0316146101f2576040516322e2563760e21b815260040160405180910390fd5b6101b481610407565b6002546001600160a01b031661020f61034d565b6001600160a01b031614610236576040516322e2563760e21b815260040160405180910390fd5b60028054821515600160a01b0260ff60a01b199091161790556040517f9069a1a16ace751e8690f383e12f87b01e8488ba387e626810bd113fef0417f99061028390831515815260200190565b60405180910390a150565b6002546001600160a01b03166102a261034d565b6001600160a01b0316146102c9576040516322e2563760e21b815260040160405180910390fd5b600280546001600160a01b0319166001600160a01b0392909216919091179055565b6060600180548060200260200160405190810160405280929190818152602001828054801561034357602002820191906000526020600020905b81546001600160a01b03168152600190910190602001808311610325575b5050505050905090565b600061035761057b565b905090565b6001600160a01b03811660009081526020819052604090205460ff166101b4576001600160a01b038116600081815260208190526040808220805460ff19166001908117909155805480820182559083527fb10e2d527612073b26eecdfd717e6a320cf44b4afac2b0732d9fcbe2b7fa0cf60180546001600160a01b03191684179055517f3ef8564460ada92419608d823c014975d98f8104d7d1e68c222967ac6814cd979190a250565b6001600160a01b03811660009081526020819052604090205460ff16156101b4576001600160a01b0381166000908152602081905260408120805460ff191690555b60015481101561054357816001600160a01b03166001828154811061047057610470610644565b6000918252602090912001546001600160a01b03160361053b576001805461049990829061065a565b815481106104a9576104a9610644565b600091825260209091200154600180546001600160a01b0390921691839081106104d5576104d5610644565b9060005260206000200160006101000a8154816001600160a01b0302191690836001600160a01b03160217905550600180548061051457610514610681565b600082815260209020810160001990810180546001600160a01b0319169055019055610543565b600101610449565b506040516001600160a01b038216907fd2d636efcad0cea42e170256f4c5d8b1cd81e47b855557edaf44014e6cc4cee690600090a250565b3360009081526020819052604081205460ff16156105a0575060131936013560601c90565b503390565b6000602082840312156105b757600080fd5b81356001600160a01b03811681146105ce57600080fd5b9392505050565b6000602082840312156105e757600080fd5b813580151581146105ce57600080fd5b6020808252825182820181905260009190848201906040850190845b818110156106385783516001600160a01b031683529284019291840191600101610613565b50909695505050505050565b634e487b7160e01b600052603260045260246000fd5b8181038181111561067b57634e487b7160e01b600052601160045260246000fd5b92915050565b634e487b7160e01b600052603160045260246000fdfea2646970667358221220dc8410ca84741d78c382e08759113b4f17011f6cd87a81eb2694c6d0f40db38564736f6c63430008190033",
  "immutableReferences": {},
  "source": "// SPDX-License-Identifier: UNLICENSED\r\npragma solidity ^0.8.25;\r\n\r\nimport \"./Interfaces.sol\";\r\nimport \"./Context.sol\";\r\n\r\ncontract VotechainBase is IVotechainBase, MultiERC2771Context {\r\n    error OnlyKpuAdmin();\r\n    error VotingNotActive();\r\n\r\n    address public override kpuAdmin;\r\n    bool public override votingActive;\r\n\r\n    event VotingStatusChanged(bool isActive);\r\n    event TrustedForwarderUpdated(address indexed forwarder, bool trusted);\r\n\r\n    modifier onlyKpuAdmin() {\r\n        if (_msgSender() != kpuAdmin) revert OnlyKpuAdmin();\r\n        _;\r\n    }\r\n\r\n    modifier votingIsActive() {\r\n        if (!votingActive) revert VotingNotActive();\r\n        _;\r\n    }\r\n\r\n    constructor(address[] memory trustedForwarders) MultiERC2771Context(trustedForwarders) {\r\n        kpuAdmin = _msgSender();\r\n    }\r\n\r\n    function setVotingStatus(bool status) external override onlyKpuAdmin {\r\n        votingActive = status;\r\n        emit VotingStatusChanged(status);\r\n    }\r\n\r\n    function setKpuAdmin(address newAdmin) external override onlyKpuAdmin {\r\n        kpuAdmin = newAdmin;\r\n    }\r\n\r\n    /**\r\n     * @dev Add a trusted forwarder for gasless transactions\r\n     * @param forwarder Address of the forwarder to trust\r\n     */\r\n    function addTrustedForwarder(address forwarder) external onlyKpuAdmin {\r\n        _addTrustedForwarder(forwarder);\r\n    }\r\n\r\n    /**\r\n     * @dev Remove a trusted forwarder\r\n     * @param forwarder Address of the forwarder to remove\r\n     */\r\n    function removeTrustedForwarder(address forwarder) external onlyKpuAdmin {\r\n        _removeTrustedForwarder(forwarder);\r\n    }\r\n\r\n    /**\r\n     * @dev Override to use the correct _msgSender implementation\r\n     */\r\n    function _msgSender() internal view override returns (address) {\r\n        return MultiERC2771Context._msgSender();\r\n    }\r\n\r\n    /**\r\n     * @dev Override to use the correct _msgData implementation\r\n     */\r\n    function _msgData() internal view override returns (bytes calldata) {\r\n        return MultiERC2771Context._msgData();\r\n    }\r\n}",
  "sourcePath": "C:\\Users\\bbyas\\Documents\\Kuliah\\Skripsi\\backend\\votechain-contract\\contracts\\VotechainBase.sol",
  "compiler": {
    "name": "solc",
    "version": "0.8.25+commit.b61c2a91.Emscripten.clang"
  },
  "schemaVersion": "3.4.16",
  "updatedAt": "2025-06-19T07:26:19.357Z",
  "networkType": "ethereum",
  "devdoc": {
    "kind": "dev",
    "methods": {
      "addTrustedForwarder(address)": {
        "details": "Add a trusted forwarder for gasless transactions",
        "params": {
          "forwarder": "Address of the forwarder to trust"
        }
      },
      "removeTrustedForwarder(address)": {
        "details": "Remove a trusted forwarder",
        "params": {
          "forwarder": "Address of the forwarder to remove"
        }
      }
    },
    "version": 1
  },
  "userdoc": {
    "kind": "user",
    "methods": {},
    "version": 1
  }
}