{
  "contractName": "VoterManager",
  "abi": [
    {
      "inputs": [
        {
          "internalType": "address",
          "name": "_baseAddress",
          "type": "address"
        },
        {
          "internalType": "address",
          "name": "_kpuManagerAddress",
          "type": "address"
        },
        {
          "internalType": "address[]",
          "name": "trustedForwarders",
          "type": "address[]"
        }
      ],
      "stateMutability": "nonpayable",
      "type": "constructor"
    },
    {
      "inputs": [],
      "name": "AddressAlreadyRegistered",
      "type": "error"
    },
    {
      "inputs": [],
      "name": "AlreadyVoted",
      "type": "error"
    },
    {
      "inputs": [],
      "name": "UnauthorizedKPU",
      "type": "error"
    },
    {
      "inputs": [],
      "name": "VoterAlreadyRegistered",
      "type": "error"
    },
    {
      "inputs": [],
      "name": "VoterNotRegistered",
      "type": "error"
    },
    {
      "anonymous": false,
      "inputs": [
        {
          "indexed": true,
          "internalType": "address",
          "name": "forwarder",
          "type": "address"
        }
      ],
      "name": "TrustedForwarderAdded",
      "type": "event"
    },
    {
      "anonymous": false,
      "inputs": [
        {
          "indexed": true,
          "internalType": "address",
          "name": "forwarder",
          "type": "address"
        }
      ],
      "name": "TrustedForwarderRemoved",
      "type": "event"
    },
    {
      "anonymous": false,
      "inputs": [
        {
          "indexed": true,
          "internalType": "address",
          "name": "voterAddress",
          "type": "address"
        },
        {
          "indexed": true,
          "internalType": "string",
          "name": "nik",
          "type": "string"
        }
      ],
      "name": "VoterMarkedAsVoted",
      "type": "event"
    },
    {
      "anonymous": false,
      "inputs": [
        {
          "indexed": true,
          "internalType": "string",
          "name": "nik",
          "type": "string"
        },
        {
          "indexed": true,
          "internalType": "address",
          "name": "voterAddress",
          "type": "address"
        },
        {
          "indexed": false,
          "internalType": "string",
          "name": "region",
          "type": "string"
        }
      ],
      "name": "VoterRegistered",
      "type": "event"
    },
    {
      "inputs": [
        {
          "internalType": "address",
          "name": "",
          "type": "address"
        }
      ],
      "name": "_voterNIKByAddresses",
      "outputs": [
        {
          "internalType": "string",
          "name": "",
          "type": "string"
        }
      ],
      "stateMutability": "view",
      "type": "function",
      "constant": true
    },
    {
      "inputs": [
        {
          "internalType": "string",
          "name": "",
          "type": "string"
        }
      ],
      "name": "_voterss",
      "outputs": [
        {
          "internalType": "string",
          "name": "nik",
          "type": "string"
        },
        {
          "internalType": "address",
          "name": "voterAddress",
          "type": "address"
        },
        {
          "internalType": "bool",
          "name": "hasVoted",
          "type": "bool"
        },
        {
          "internalType": "string",
          "name": "region",
          "type": "string"
        },
        {
          "internalType": "bool",
          "name": "isRegistered",
          "type": "bool"
        }
      ],
      "stateMutability": "view",
      "type": "function",
      "constant": true
    },
    {
      "inputs": [],
      "name": "base",
      "outputs": [
        {
          "internalType": "contract IVotechainBase",
          "name": "",
          "type": "address"
        }
      ],
      "stateMutability": "view",
      "type": "function",
      "constant": true
    },
    {
      "inputs": [],
      "name": "getTrustedForwarders",
      "outputs": [
        {
          "internalType": "address[]",
          "name": "",
          "type": "address[]"
        }
      ],
      "stateMutability": "view",
      "type": "function",
      "constant": true
    },
    {
      "inputs": [
        {
          "internalType": "address",
          "name": "forwarder",
          "type": "address"
        }
      ],
      "name": "isTrustedForwarder",
      "outputs": [
        {
          "internalType": "bool",
          "name": "",
          "type": "bool"
        }
      ],
      "stateMutability": "view",
      "type": "function",
      "constant": true
    },
    {
      "inputs": [],
      "name": "kpuManager",
      "outputs": [
        {
          "internalType": "contract IKPUManager",
          "name": "",
          "type": "address"
        }
      ],
      "stateMutability": "view",
      "type": "function",
      "constant": true
    },
    {
      "inputs": [
        {
          "internalType": "uint256",
          "name": "",
          "type": "uint256"
        }
      ],
      "name": "voterAddressesArray",
      "outputs": [
        {
          "internalType": "string",
          "name": "nik",
          "type": "string"
        },
        {
          "internalType": "address",
          "name": "voterAddress",
          "type": "address"
        },
        {
          "internalType": "bool",
          "name": "hasVoted",
          "type": "bool"
        },
        {
          "internalType": "string",
          "name": "region",
          "type": "string"
        },
        {
          "internalType": "bool",
          "name": "isRegistered",
          "type": "bool"
        }
      ],
      "stateMutability": "view",
      "type": "function",
      "constant": true
    },
    {
      "inputs": [
        {
          "internalType": "address",
          "name": "voter",
          "type": "address"
        }
      ],
      "name": "voterNIKByAddress",
      "outputs": [
        {
          "internalType": "string",
          "name": "",
          "type": "string"
        }
      ],
      "stateMutability": "view",
      "type": "function",
      "constant": true
    },
    {
      "inputs": [
        {
          "internalType": "string",
          "name": "nik",
          "type": "string"
        }
      ],
      "name": "voters",
      "outputs": [
        {
          "components": [
            {
              "internalType": "string",
              "name": "nik",
              "type": "string"
            },
            {
              "internalType": "address",
              "name": "voterAddress",
              "type": "address"
            },
            {
              "internalType": "bool",
              "name": "hasVoted",
              "type": "bool"
            },
            {
              "internalType": "string",
              "name": "region",
              "type": "string"
            },
            {
              "internalType": "bool",
              "name": "isRegistered",
              "type": "bool"
            }
          ],
          "internalType": "struct IVoterManager.Voter",
          "name": "",
          "type": "tuple"
        }
      ],
      "stateMutability": "view",
      "type": "function",
      "constant": true
    },
    {
      "inputs": [
        {
          "internalType": "string",
          "name": "nik",
          "type": "string"
        },
        {
          "internalType": "address",
          "name": "voterAddress",
          "type": "address"
        }
      ],
      "name": "registerVoter",
      "outputs": [],
      "stateMutability": "nonpayable",
      "type": "function"
    },
    {
      "inputs": [
        {
          "internalType": "address",
          "name": "voterAddress",
          "type": "address"
        }
      ],
      "name": "markVoted",
      "outputs": [
        {
          "internalType": "bool",
          "name": "",
          "type": "bool"
        }
      ],
      "stateMutability": "nonpayable",
      "type": "function"
    },
    {
      "inputs": [
        {
          "internalType": "address",
          "name": "voterAddress",
          "type": "address"
        }
      ],
      "name": "getVoterNikByAddress",
      "outputs": [
        {
          "internalType": "string",
          "name": "",
          "type": "string"
        }
      ],
      "stateMutability": "view",
      "type": "function",
      "constant": true
    },
    {
      "inputs": [
        {
          "internalType": "address",
          "name": "voterAddress",
          "type": "address"
        }
      ],
      "name": "getVoterByAddress",
      "outputs": [
        {
          "components": [
            {
              "internalType": "string",
              "name": "nik",
              "type": "string"
            },
            {
              "internalType": "address",
              "name": "voterAddress",
              "type": "address"
            },
            {
              "internalType": "bool",
              "name": "hasVoted",
              "type": "bool"
            },
            {
              "internalType": "string",
              "name": "region",
              "type": "string"
            },
            {
              "internalType": "bool",
              "name": "isRegistered",
              "type": "bool"
            }
          ],
          "internalType": "struct IVoterManager.Voter",
          "name": "",
          "type": "tuple"
        }
      ],
      "stateMutability": "view",
      "type": "function",
      "constant": true
    },
    {
      "inputs": [],
      "name": "getAllVoter",
      "outputs": [
        {
          "components": [
            {
              "internalType": "string",
              "name": "nik",
              "type": "string"
            },
            {
              "internalType": "address",
              "name": "voterAddress",
              "type": "address"
            },
            {
              "internalType": "bool",
              "name": "hasVoted",
              "type": "bool"
            },
            {
              "internalType": "string",
              "name": "region",
              "type": "string"
            },
            {
              "internalType": "bool",
              "name": "isRegistered",
              "type": "bool"
            }
          ],
          "internalType": "struct IVoterManager.Voter[]",
          "name": "",
          "type": "tuple[]"
        }
      ],
      "stateMutability": "view",
      "type": "function",
      "constant": true
    },
    {
      "inputs": [
        {
          "internalType": "string",
          "name": "nik",
          "type": "string"
        }
      ],
      "name": "getVoterByNIK",
      "outputs": [
        {
          "components": [
            {
              "internalType": "string",
              "name": "nik",
              "type": "string"
            },
            {
              "internalType": "address",
              "name": "voterAddress",
              "type": "address"
            },
            {
              "internalType": "bool",
              "name": "hasVoted",
              "type": "bool"
            },
            {
              "internalType": "string",
              "name": "region",
              "type": "string"
            },
            {
              "internalType": "bool",
              "name": "isRegistered",
              "type": "bool"
            }
          ],
          "internalType": "struct IVoterManager.Voter",
          "name": "",
          "type": "tuple"
        }
      ],
      "stateMutability": "view",
      "type": "function",
      "constant": true
    },
    {
      "inputs": [
        {
          "internalType": "string",
          "name": "region",
          "type": "string"
        }
      ],
      "name": "getVoterByRegion",
      "outputs": [
        {
          "components": [
            {
              "internalType": "string",
              "name": "nik",
              "type": "string"
            },
            {
              "internalType": "address",
              "name": "voterAddress",
              "type": "address"
            },
            {
              "internalType": "bool",
              "name": "hasVoted",
              "type": "bool"
            },
            {
              "internalType": "string",
              "name": "region",
              "type": "string"
            },
            {
              "internalType": "bool",
              "name": "isRegistered",
              "type": "bool"
            }
          ],
          "internalType": "struct IVoterManager.Voter[]",
          "name": "",
          "type": "tuple[]"
        }
      ],
      "stateMutability": "view",
      "type": "function",
      "constant": true
    },
    {
      "inputs": [
        {
          "internalType": "address",
          "name": "forwarder",
          "type": "address"
        }
      ],
      "name": "addTrustedForwarder",
      "outputs": [],
      "stateMutability": "nonpayable",
      "type": "function"
    },
    {
      "inputs": [
        {
          "internalType": "address",
          "name": "forwarder",
          "type": "address"
        }
      ],
      "name": "removeTrustedForwarder",
      "outputs": [],
      "stateMutability": "nonpayable",
      "type": "function"
    }
  ],
  "bytecode": "0x608060405234801561001057600080fd5b506040516124ec3803806124ec83398101604081905261002f91610182565b8060005b815181101561006c576100648282815181106100515761005161026a565b60200260200101516100a460201b60201c565b600101610033565b5050600280546001600160a01b039485166001600160a01b031991821617909155600380549390941692169190911790915550610280565b6001600160a01b03811660009081526020819052604090205460ff1661014d576001600160a01b038116600081815260208190526040808220805460ff19166001908117909155805480820182559083527fb10e2d527612073b26eecdfd717e6a320cf44b4afac2b0732d9fcbe2b7fa0cf60180546001600160a01b03191684179055517f3ef8564460ada92419608d823c014975d98f8104d7d1e68c222967ac6814cd979190a25b50565b80516001600160a01b038116811461016757600080fd5b919050565b634e487b7160e01b600052604160045260246000fd5b60008060006060848603121561019757600080fd5b6101a084610150565b925060206101af818601610150565b60408601519093506001600160401b03808211156101cc57600080fd5b818701915087601f8301126101e057600080fd5b8151818111156101f2576101f261016c565b8060051b604051601f19603f830116810181811085821117156102175761021761016c565b60405291825284820192508381018501918a83111561023557600080fd5b938501935b8285101561025a5761024b85610150565b8452938501939285019261023a565b8096505050505050509250925092565b634e487b7160e01b600052603260045260246000fd5b61225d8061028f6000396000f3fe608060405234801561001057600080fd5b50600436106101165760003560e01c806353fa2e64116100a2578063a8fd0cfa11610071578063a8fd0cfa14610289578063e0d5343b1461029c578063f0416e5f146102bc578063f44f4e14146102cf578063ff7196c8146102d757600080fd5b806353fa2e6414610214578063572b6c051461022757806389c7e39114610263578063950163131461027657600080fd5b806340794792116100e957806340794792146101975780634a075de2146101bb5780634bdd7585146101ce5780635001f3b5146101e15780635130298f146101f457600080fd5b806326d006681461011b5780632a70ecca1461013057806334d1d2f2146101595780633751d89c14610184575b600080fd5b61012e610129366004611a6a565b6102ec565b005b61014361013e366004611ad7565b6103a7565b6040516101509190611bce565b60405180910390f35b60035461016c906001600160a01b031681565b6040516001600160a01b039091168152602001610150565b61012e610192366004611a6a565b6105a8565b6101aa6101a5366004611c50565b610660565b604051610150959493929190611cd0565b61012e6101c9366004611d21565b6107be565b6101436101dc366004611a6a565b610bb0565b60025461016c906001600160a01b031681565b610207610202366004611a6a565b610e2d565b6040516101509190611d78565b610143610222366004611ad7565b610ef7565b610253610235366004611a6a565b6001600160a01b031660009081526020819052604090205460ff1690565b6040519015158152602001610150565b6101aa610271366004611d8b565b610f26565b610207610284366004611a6a565b610f59565b610253610297366004611a6a565b610ff3565b6102af6102aa366004611ad7565b61120c565b6040516101509190611da4565b6102076102ca366004611a6a565b611531565b6102af6115dd565b6102df61179b565b6040516101509190611e08565b600260009054906101000a90046001600160a01b03166001600160a01b031663fb4ab1646040518163ffffffff1660e01b8152600401602060405180830381865afa15801561033f573d6000803e3d6000fd5b505050506040513d601f19601f820116820180604052508101906103639190611e55565b6001600160a01b03166103746117fd565b6001600160a01b03161461039b576040516334ae4d1f60e21b815260040160405180910390fd5b6103a48161180c565b50565b6040805160a0810182526060808252600060208301819052928201839052808201526080810191909152600583836040516103e3929190611e72565b9081526040519081900360200190206003015460ff1661041657604051636f08c58760e01b815260040160405180910390fd5b60058383604051610428929190611e72565b90815260200160405180910390206040518060a001604052908160008201805461045190611e82565b80601f016020809104026020016040519081016040528092919081815260200182805461047d90611e82565b80156104ca5780601f1061049f576101008083540402835291602001916104ca565b820191906000526020600020905b8154815290600101906020018083116104ad57829003601f168201915b505050918352505060018201546001600160a01b0381166020830152600160a01b900460ff161515604082015260028201805460609092019161050c90611e82565b80601f016020809104026020016040519081016040528092919081815260200182805461053890611e82565b80156105855780601f1061055a57610100808354040283529160200191610585565b820191906000526020600020905b81548152906001019060200180831161056857829003601f168201915b50505091835250506003919091015460ff16151560209091015290505b92915050565b600260009054906101000a90046001600160a01b03166001600160a01b031663fb4ab1646040518163ffffffff1660e01b8152600401602060405180830381865afa1580156105fb573d6000803e3d6000fd5b505050506040513d601f19601f8201168201806040525081019061061f9190611e55565b6001600160a01b03166106306117fd565b6001600160a01b031614610657576040516334ae4d1f60e21b815260040160405180910390fd5b6103a4816118b7565b805160208183018101805160058252928201919093012091528054819061068690611e82565b80601f01602080910402602001604051908101604052809291908181526020018280546106b290611e82565b80156106ff5780601f106106d4576101008083540402835291602001916106ff565b820191906000526020600020905b8154815290600101906020018083116106e257829003601f168201915b50505050600183015460028401805493946001600160a01b03831694600160a01b90930460ff1693509161073290611e82565b80601f016020809104026020016040519081016040528092919081815260200182805461075e90611e82565b80156107ab5780601f10610780576101008083540402835291602001916107ab565b820191906000526020600020905b81548152906001019060200180831161078e57829003601f168201915b5050506003909301549192505060ff1685565b6003546001600160a01b03166375a4352f6107d76117fd565b6040516001600160e01b031960e084901b1681526001600160a01b039091166004820152602401602060405180830381865afa15801561081b573d6000803e3d6000fd5b505050506040513d601f19601f8201168201806040525081019061083f9190611ebc565b61085c576040516334ae4d1f60e21b815260040160405180910390fd5b6005838360405161086e929190611e72565b9081526040519081900360200190206003015460ff16156108a2576040516359a1ec4760e01b815260040160405180910390fd5b6001600160a01b038116600090815260046020526040902080546108c590611e82565b1590506108e5576040516316a163b960e11b815260040160405180910390fd5b6003546000906001600160a01b03166374c803806109016117fd565b6040516001600160e01b031960e084901b1681526001600160a01b039091166004820152602401600060405180830381865afa158015610945573d6000803e3d6000fd5b505050506040513d6000823e601f3d908101601f1916820160405261096d9190810190611ede565b905060006040518060a0016040528086868080601f01602080910402602001604051908101604052809392919081815260200183838082843760009201829052509385525050506001600160a01b03861660208301526040808301919091526060820185905260016080909201919091525190915081906005906109f49088908890611e72565b90815260405190819003602001902081518190610a119082611fa6565b50602082015160018201805460408501511515600160a01b026001600160a81b03199091166001600160a01b039093169290921791909117905560608201516002820190610a5f9082611fa6565b50608091909101516003909101805460ff19169115159190911790556001600160a01b0383166000908152600460205260409020610a9e858783612066565b5060068054600181018255600091909152815182916004027ff652222313e28459528d920b65115c16c04f3efc82aaedc97be59f3f377c0d3f01908190610ae59082611fa6565b50602082015160018201805460408501511515600160a01b026001600160a81b03199091166001600160a01b039093169290921791909117905560608201516002820190610b339082611fa6565b50608091909101516003909101805460ff19169115159190911790556040516001600160a01b03841690610b6a9087908790611e72565b60405180910390207fe8bf381bec3899d7c4d98d7e52cfd45dfe7254b2ceafbb4d6dca1235ed10624d84604051610ba19190611d78565b60405180910390a35050505050565b6040805160a08101825260608082526000602083018190529282018390528082015260808101919091526001600160a01b03821660009081526004602052604081208054610bfd90611e82565b80601f0160208091040260200160405190810160405280929190818152602001828054610c2990611e82565b8015610c765780601f10610c4b57610100808354040283529160200191610c76565b820191906000526020600020905b815481529060010190602001808311610c5957829003601f168201915b505050505090508051600003610c9f57604051636f08c58760e01b815260040160405180910390fd5b600581604051610caf9190612127565b90815260200160405180910390206040518060a0016040529081600082018054610cd890611e82565b80601f0160208091040260200160405190810160405280929190818152602001828054610d0490611e82565b8015610d515780601f10610d2657610100808354040283529160200191610d51565b820191906000526020600020905b815481529060010190602001808311610d3457829003601f168201915b505050918352505060018201546001600160a01b0381166020830152600160a01b900460ff1615156040820152600282018054606090920191610d9390611e82565b80601f0160208091040260200160405190810160405280929190818152602001828054610dbf90611e82565b8015610e0c5780601f10610de157610100808354040283529160200191610e0c565b820191906000526020600020905b815481529060010190602001808311610def57829003601f168201915b50505091835250506003919091015460ff1615156020909101529392505050565b6001600160a01b038116600090815260046020526040812080546060929190610e5590611e82565b80601f0160208091040260200160405190810160405280929190818152602001828054610e8190611e82565b8015610ece5780601f10610ea357610100808354040283529160200191610ece565b820191906000526020600020905b815481529060010190602001808311610eb157829003601f168201915b5050505050905080516000036105a257604051636f08c58760e01b815260040160405180910390fd5b6040805160a0810182526060808252600060208301819052928201839052808201526080810191909152610416565b60068181548110610f3657600080fd5b906000526020600020906004020160009150905080600001805461068690611e82565b60046020526000908152604090208054610f7290611e82565b80601f0160208091040260200160405190810160405280929190818152602001828054610f9e90611e82565b8015610feb5780601f10610fc057610100808354040283529160200191610feb565b820191906000526020600020905b815481529060010190602001808311610fce57829003601f168201915b505050505081565b6001600160a01b0381166000908152600460205260408120805482919061101990611e82565b80601f016020809104026020016040519081016040528092919081815260200182805461104590611e82565b80156110925780601f1061106757610100808354040283529160200191611092565b820191906000526020600020905b81548152906001019060200180831161107557829003601f168201915b5050505050905080516000036110bb57604051636f08c58760e01b815260040160405180910390fd5b60006005826040516110cd9190612127565b908152604051908190036020019020600181015490915060ff600160a01b909104161561110d57604051637c9a1cf960e01b815260040160405180910390fd5b60018101805460ff60a01b1916600160a01b17905560005b6006548110156111b857846001600160a01b03166006828154811061114c5761114c612143565b60009182526020909120600160049092020101546001600160a01b0316036111b05760016006828154811061118357611183612143565b906000526020600020906004020160010160146101000a81548160ff0219169083151502179055506111b8565b600101611125565b50816040516111c79190612127565b604051908190038120906001600160a01b038616907f0fb9ead1818c2619f3a46edf10c990f58864d0fbb5079852d10131189c66ead190600090a35060019392505050565b60606000805b60065481101561128857848460405161122c929190611e72565b60405180910390206006828154811061124757611247612143565b90600052602060002090600402016002016040516112659190612159565b604051809103902003611280578161127c816121e5565b9250505b600101611212565b5060008167ffffffffffffffff8111156112a4576112a4611be1565b6040519080825280602002602001820160405280156112ff57816020015b6040805160a08101825260608082526000602083018190529282018390528082015260808101919091528152602001906001900390816112c25790505b5090506000805b600654811015611526578686604051611320929190611e72565b60405180910390206006828154811061133b5761133b612143565b90600052602060002090600402016002016040516113599190612159565b60405180910390200361151e576006818154811061137957611379612143565b90600052602060002090600402016040518060a00160405290816000820180546113a290611e82565b80601f01602080910402602001604051908101604052809291908181526020018280546113ce90611e82565b801561141b5780601f106113f05761010080835404028352916020019161141b565b820191906000526020600020905b8154815290600101906020018083116113fe57829003601f168201915b505050918352505060018201546001600160a01b0381166020830152600160a01b900460ff161515604082015260028201805460609092019161145d90611e82565b80601f016020809104026020016040519081016040528092919081815260200182805461148990611e82565b80156114d65780601f106114ab576101008083540402835291602001916114d6565b820191906000526020600020905b8154815290600101906020018083116114b957829003601f168201915b50505091835250506003919091015460ff161515602090910152835184908490811061150457611504612143565b6020026020010181905250818061151a906121e5565b9250505b600101611306565b509095945050505050565b6001600160a01b038116600090815260046020526040902080546060919061155890611e82565b80601f016020809104026020016040519081016040528092919081815260200182805461158490611e82565b80156115d15780601f106115a6576101008083540402835291602001916115d1565b820191906000526020600020905b8154815290600101906020018083116115b457829003601f168201915b50505050509050919050565b60606006805480602002602001604051908101604052809291908181526020016000905b8282101561179257838290600052602060002090600402016040518060a001604052908160008201805461163490611e82565b80601f016020809104026020016040519081016040528092919081815260200182805461166090611e82565b80156116ad5780601f10611682576101008083540402835291602001916116ad565b820191906000526020600020905b81548152906001019060200180831161169057829003601f168201915b505050918352505060018201546001600160a01b0381166020830152600160a01b900460ff16151560408201526002820180546060909201916116ef90611e82565b80601f016020809104026020016040519081016040528092919081815260200182805461171b90611e82565b80156117685780601f1061173d57610100808354040283529160200191611768565b820191906000526020600020905b81548152906001019060200180831161174b57829003601f168201915b50505091835250506003919091015460ff1615156020918201529082526001929092019101611601565b50505050905090565b606060018054806020026020016040519081016040528092919081815260200182805480156117f357602002820191906000526020600020905b81546001600160a01b031681526001909101906020018083116117d5575b5050505050905090565b6000611807611a2b565b905090565b6001600160a01b03811660009081526020819052604090205460ff166103a4576001600160a01b038116600081815260208190526040808220805460ff19166001908117909155805480820182559083527fb10e2d527612073b26eecdfd717e6a320cf44b4afac2b0732d9fcbe2b7fa0cf60180546001600160a01b03191684179055517f3ef8564460ada92419608d823c014975d98f8104d7d1e68c222967ac6814cd979190a250565b6001600160a01b03811660009081526020819052604090205460ff16156103a4576001600160a01b0381166000908152602081905260408120805460ff191690555b6001548110156119f357816001600160a01b03166001828154811061192057611920612143565b6000918252602090912001546001600160a01b0316036119eb57600180546119499082906121fe565b8154811061195957611959612143565b600091825260209091200154600180546001600160a01b03909216918390811061198557611985612143565b9060005260206000200160006101000a8154816001600160a01b0302191690836001600160a01b0316021790555060018054806119c4576119c4612211565b600082815260209020810160001990810180546001600160a01b03191690550190556119f3565b6001016118f9565b506040516001600160a01b038216907fd2d636efcad0cea42e170256f4c5d8b1cd81e47b855557edaf44014e6cc4cee690600090a250565b3360009081526020819052604081205460ff1615611a50575060131936013560601c90565b503390565b6001600160a01b03811681146103a457600080fd5b600060208284031215611a7c57600080fd5b8135611a8781611a55565b9392505050565b60008083601f840112611aa057600080fd5b50813567ffffffffffffffff811115611ab857600080fd5b602083019150836020828501011115611ad057600080fd5b9250929050565b60008060208385031215611aea57600080fd5b823567ffffffffffffffff811115611b0157600080fd5b611b0d85828601611a8e565b90969095509350505050565b60005b83811015611b34578181015183820152602001611b1c565b50506000910152565b60008151808452611b55816020860160208601611b19565b601f01601f19169290920160200192915050565b6000815160a08452611b7e60a0850182611b3d565b905060018060a01b03602084015116602085015260408301511515604085015260608301518482036060860152611bb58282611b3d565b9150506080830151151560808501528091505092915050565b602081526000611a876020830184611b69565b634e487b7160e01b600052604160045260246000fd5b604051601f8201601f1916810167ffffffffffffffff81118282101715611c2057611c20611be1565b604052919050565b600067ffffffffffffffff821115611c4257611c42611be1565b50601f01601f191660200190565b600060208284031215611c6257600080fd5b813567ffffffffffffffff811115611c7957600080fd5b8201601f81018413611c8a57600080fd5b8035611c9d611c9882611c28565b611bf7565b818152856020838501011115611cb257600080fd5b81602084016020830137600091810160200191909152949350505050565b60a081526000611ce360a0830188611b3d565b6001600160a01b038716602084015285151560408401528281036060840152611d0c8186611b3d565b91505082151560808301529695505050505050565b600080600060408486031215611d3657600080fd5b833567ffffffffffffffff811115611d4d57600080fd5b611d5986828701611a8e565b9094509250506020840135611d6d81611a55565b809150509250925092565b602081526000611a876020830184611b3d565b600060208284031215611d9d57600080fd5b5035919050565b600060208083016020845280855180835260408601915060408160051b87010192506020870160005b82811015611dfb57603f19888603018452611de9858351611b69565b94509285019290850190600101611dcd565b5092979650505050505050565b6020808252825182820181905260009190848201906040850190845b81811015611e495783516001600160a01b031683529284019291840191600101611e24565b50909695505050505050565b600060208284031215611e6757600080fd5b8151611a8781611a55565b8183823760009101908152919050565b600181811c90821680611e9657607f821691505b602082108103611eb657634e487b7160e01b600052602260045260246000fd5b50919050565b600060208284031215611ece57600080fd5b81518015158114611a8757600080fd5b600060208284031215611ef057600080fd5b815167ffffffffffffffff811115611f0757600080fd5b8201601f81018413611f1857600080fd5b8051611f26611c9882611c28565b818152856020838501011115611f3b57600080fd5b611f4c826020830160208601611b19565b95945050505050565b601f821115611fa1576000816000526020600020601f850160051c81016020861015611f7e5750805b601f850160051c820191505b81811015611f9d57828155600101611f8a565b5050505b505050565b815167ffffffffffffffff811115611fc057611fc0611be1565b611fd481611fce8454611e82565b84611f55565b602080601f8311600181146120095760008415611ff15750858301515b600019600386901b1c1916600185901b178555611f9d565b600085815260208120601f198616915b8281101561203857888601518255948401946001909101908401612019565b50858210156120565787850151600019600388901b60f8161c191681555b5050505050600190811b01905550565b67ffffffffffffffff83111561207e5761207e611be1565b6120928361208c8354611e82565b83611f55565b6000601f8411600181146120c657600085156120ae5750838201355b600019600387901b1c1916600186901b178355612120565b600083815260209020601f19861690835b828110156120f757868501358255602094850194600190920191016120d7565b50868210156121145760001960f88860031b161c19848701351681555b505060018560011b0183555b5050505050565b60008251612139818460208701611b19565b9190910192915050565b634e487b7160e01b600052603260045260246000fd5b600080835461216781611e82565b6001828116801561217f5760018114612194576121c3565b60ff19841687528215158302870194506121c3565b8760005260208060002060005b858110156121ba5781548a8201529084019082016121a1565b50505082870194505b50929695505050505050565b634e487b7160e01b600052601160045260246000fd5b6000600182016121f7576121f76121cf565b5060010190565b818103818111156105a2576105a26121cf565b634e487b7160e01b600052603160045260246000fdfea2646970667358221220d6f565d772a9377241f07c01f38e3d579dada905ca82f9ff22ab64df261b6acb64736f6c63430008190033",
  "immutableReferences": {},
  "source": "// SPDX-License-Identifier: UNLICENSED\r\npragma solidity ^0.8.25;\r\n\r\nimport \"./Interfaces.sol\";\r\nimport \"./Context.sol\";\r\n\r\ncontract VoterManager is IVoterManager, MultiERC2771Context {\r\n    error VoterAlreadyRegistered();\r\n    error AddressAlreadyRegistered();\r\n    error VoterNotRegistered();\r\n    error AlreadyVoted();\r\n    error UnauthorizedKPU();\r\n\r\n    IVotechainBase public base;\r\n    IKPUManager public kpuManager;\r\n\r\n    mapping(address => string) public _voterNIKByAddresses;\r\n    mapping(string => Voter) public _voterss;\r\n    Voter[] public voterAddressesArray;\r\n\r\n    event VoterRegistered(string indexed nik, address indexed voterAddress, string region);\r\n    event VoterMarkedAsVoted(address indexed voterAddress, string indexed nik);\r\n\r\n    constructor(\r\n        address _baseAddress,\r\n        address _kpuManagerAddress,\r\n        address[] memory trustedForwarders\r\n    ) MultiERC2771Context(trustedForwarders) {\r\n        base = IVotechainBase(_baseAddress);\r\n        kpuManager = IKPUManager(_kpuManagerAddress);\r\n    }\r\n\r\n    function voterNIKByAddress(address voter) external view returns (string memory) {\r\n        return _voterNIKByAddresses[voter];\r\n    }\r\n\r\n    function voters(string calldata nik) external view returns (Voter memory) {\r\n        return _voterss[nik];\r\n    }\r\n\r\n    modifier onlyKpuKota() {\r\n        if (!kpuManager.isKPUKota(_msgSender())) revert UnauthorizedKPU();\r\n        _;\r\n    }\r\n\r\n    function registerVoter(\r\n        string calldata nik,\r\n        address voterAddress\r\n    ) external override onlyKpuKota {\r\n        if (_voterss[nik].isRegistered) revert VoterAlreadyRegistered();\r\n        if (bytes(_voterNIKByAddresses[voterAddress]).length != 0) revert AddressAlreadyRegistered();\r\n\r\n        string memory region = kpuManager.getKpuKotaRegion(_msgSender());\r\n\r\n        Voter memory newVoter = Voter({\r\n            nik: nik,\r\n            voterAddress: voterAddress,\r\n            hasVoted: false,\r\n            region: region,\r\n            isRegistered: true\r\n        });\r\n\r\n        _voterss[nik] = newVoter;\r\n        _voterNIKByAddresses[voterAddress] = nik;\r\n        voterAddressesArray.push(newVoter);\r\n\r\n        emit VoterRegistered(nik, voterAddress, region);\r\n    }\r\n\r\n    function markVoted(address voterAddress) external override returns (bool) {\r\n        string memory nik = _voterNIKByAddresses[voterAddress];\r\n        if (bytes(nik).length == 0) revert VoterNotRegistered();\r\n\r\n        Voter storage voter = _voterss[nik];\r\n        if (voter.hasVoted) revert AlreadyVoted();\r\n\r\n        voter.hasVoted = true;\r\n\r\n        for (uint i = 0; i < voterAddressesArray.length; i++) {\r\n            if (voterAddressesArray[i].voterAddress == voterAddress) {\r\n                voterAddressesArray[i].hasVoted = true;\r\n                break;\r\n            }\r\n        }\r\n        emit VoterMarkedAsVoted(voterAddress, nik);\r\n        return true;\r\n    }\r\n\r\n    function getVoterNikByAddress(address voterAddress) external view override returns (string memory) {\r\n        string memory nik = _voterNIKByAddresses[voterAddress];\r\n        if (bytes(nik).length == 0) revert VoterNotRegistered();\r\n        return nik;\r\n    }\r\n\r\n    function getVoterByAddress(address voterAddress) external view override returns (Voter memory) {\r\n        string memory nik = _voterNIKByAddresses[voterAddress];\r\n        if (bytes(nik).length == 0) revert VoterNotRegistered();\r\n        return _voterss[nik];\r\n    }\r\n\r\n    function getAllVoter() external view returns (Voter[] memory) {\r\n        return voterAddressesArray;\r\n    }\r\n\r\n    function getVoterByNIK(string calldata nik) external view returns (Voter memory) {\r\n        if (!_voterss[nik].isRegistered) revert VoterNotRegistered();\r\n        return _voterss[nik];\r\n    }\r\n\r\n    function getVoterByRegion(string calldata region) external view returns (Voter[] memory) {\r\n        uint256 count;\r\n        for (uint256 i = 0; i < voterAddressesArray.length; i++) {\r\n            if (keccak256(bytes(voterAddressesArray[i].region)) == keccak256(bytes(region))) {\r\n                count++;\r\n            }\r\n        }\r\n\r\n        Voter[] memory regionVoters = new Voter[](count);\r\n        uint256 index;\r\n        for (uint256 i = 0; i < voterAddressesArray.length; i++) {\r\n            if (keccak256(bytes(voterAddressesArray[i].region)) == keccak256(bytes(region))) {\r\n                regionVoters[index] = voterAddressesArray[i];\r\n                index++;\r\n            }\r\n        }\r\n        return regionVoters;\r\n    }\r\n\r\n    /**\r\n     * @dev Add a trusted forwarder for gasless transactions\r\n     */\r\n    function addTrustedForwarder(address forwarder) external {\r\n        // Only KPU admin should be able to do this\r\n        if (_msgSender() != base.kpuAdmin()) revert UnauthorizedKPU();\r\n        _addTrustedForwarder(forwarder);\r\n    }\r\n\r\n    /**\r\n     * @dev Remove a trusted forwarder\r\n     */\r\n    function removeTrustedForwarder(address forwarder) external {\r\n        // Only KPU admin should be able to do this\r\n        if (_msgSender() != base.kpuAdmin()) revert UnauthorizedKPU();\r\n        _removeTrustedForwarder(forwarder);\r\n    }\r\n\r\n    /**\r\n     * @dev Override to use the correct _msgSender implementation\r\n     */\r\n    function _msgSender() internal view override returns (address) {\r\n        return MultiERC2771Context._msgSender();\r\n    }\r\n\r\n    /**\r\n     * @dev Override to use the correct _msgData implementation\r\n     */\r\n    function _msgData() internal view override returns (bytes calldata) {\r\n        return MultiERC2771Context._msgData();\r\n    }\r\n}",
  "sourcePath": "C:\\Users\\bbyas\\Documents\\Kuliah\\Skripsi\\backend\\votechain-contract\\contracts\\VoterManager.sol",
  "compiler": {
    "name": "solc",
    "version": "0.8.25+commit.b61c2a91.Emscripten.clang"
  },
  "schemaVersion": "3.4.16",
  "updatedAt": "2025-06-19T07:26:19.386Z",
  "networkType": "ethereum",
  "devdoc": {
    "kind": "dev",
    "methods": {
      "addTrustedForwarder(address)": {
        "details": "Add a trusted forwarder for gasless transactions"
      },
      "removeTrustedForwarder(address)": {
        "details": "Remove a trusted forwarder"
      }
    },
    "version": 1
  },
  "userdoc": {
    "kind": "user",
    "methods": {},
    "version": 1
  }
}