{
  "contractName": "Votechain",
  "abi": [
    {
      "inputs": [],
      "stateMutability": "nonpayable",
      "type": "constructor"
    },
    {
      "inputs": [],
      "name": "AddressAlreadyRegistered",
      "type": "error"
    },
    {
      "inputs": [],
      "name": "AlreadyVoted",
      "type": "error"
    },
    {
      "inputs": [],
      "name": "BranchAlreadyRegistered",
      "type": "error"
    },
    {
      "inputs": [],
      "name": "BranchNotActive",
      "type": "error"
    },
    {
      "inputs": [],
      "name": "CandidateAlreadyExists",
      "type": "error"
    },
    {
      "inputs": [],
      "name": "InvalidCandidate",
      "type": "error"
    },
    {
      "inputs": [],
      "name": "OnlyKpuAdmin",
      "type": "error"
    },
    {
      "inputs": [],
      "name": "OnlyKpuBranch",
      "type": "error"
    },
    {
      "inputs": [],
      "name": "UnauthorizedVoter",
      "type": "error"
    },
    {
      "inputs": [],
      "name": "VoterAlreadyRegistered",
      "type": "error"
    },
    {
      "inputs": [],
      "name": "VoterNotRegistered",
      "type": "error"
    },
    {
      "inputs": [],
      "name": "VotingNotActive",
      "type": "error"
    },
    {
      "anonymous": false,
      "inputs": [
        {
          "indexed": true,
          "internalType": "string",
          "name": "candidateId",
          "type": "string"
        },
        {
          "indexed": false,
          "internalType": "string",
          "name": "name",
          "type": "string"
        }
      ],
      "name": "CandidateAdded",
      "type": "event"
    },
    {
      "anonymous": false,
      "inputs": [
        {
          "indexed": true,
          "internalType": "string",
          "name": "candidateId",
          "type": "string"
        },
        {
          "indexed": false,
          "internalType": "bool",
          "name": "isActive",
          "type": "bool"
        }
      ],
      "name": "CandidateStatusChanged",
      "type": "event"
    },
    {
      "anonymous": false,
      "inputs": [
        {
          "indexed": true,
          "internalType": "address",
          "name": "branchAddress",
          "type": "address"
        }
      ],
      "name": "KPUBranchDeactivated",
      "type": "event"
    },
    {
      "anonymous": false,
      "inputs": [
        {
          "indexed": true,
          "internalType": "address",
          "name": "branchAddress",
          "type": "address"
        },
        {
          "indexed": false,
          "internalType": "string",
          "name": "name",
          "type": "string"
        },
        {
          "indexed": false,
          "internalType": "string",
          "name": "region",
          "type": "string"
        }
      ],
      "name": "KPUBranchRegistered",
      "type": "event"
    },
    {
      "anonymous": false,
      "inputs": [
        {
          "indexed": true,
          "internalType": "string",
          "name": "nik",
          "type": "string"
        },
        {
          "indexed": true,
          "internalType": "string",
          "name": "candidateId",
          "type": "string"
        }
      ],
      "name": "VoteCasted",
      "type": "event"
    },
    {
      "anonymous": false,
      "inputs": [
        {
          "indexed": true,
          "internalType": "string",
          "name": "nik",
          "type": "string"
        },
        {
          "indexed": true,
          "internalType": "address",
          "name": "voterAddress",
          "type": "address"
        },
        {
          "indexed": false,
          "internalType": "string",
          "name": "region",
          "type": "string"
        }
      ],
      "name": "VoterRegistered",
      "type": "event"
    },
    {
      "anonymous": false,
      "inputs": [
        {
          "indexed": false,
          "internalType": "bool",
          "name": "isActive",
          "type": "bool"
        }
      ],
      "name": "VotingStatusChanged",
      "type": "event"
    },
    {
      "inputs": [
        {
          "internalType": "uint256",
          "name": "",
          "type": "uint256"
        }
      ],
      "name": "candidateAddressesArray",
      "outputs": [
        {
          "internalType": "string",
          "name": "id",
          "type": "string"
        },
        {
          "internalType": "string",
          "name": "name",
          "type": "string"
        },
        {
          "internalType": "uint256",
          "name": "voteCount",
          "type": "uint256"
        },
        {
          "internalType": "bool",
          "name": "isActive",
          "type": "bool"
        }
      ],
      "stateMutability": "view",
      "type": "function",
      "constant": true
    },
    {
      "inputs": [
        {
          "internalType": "string",
          "name": "",
          "type": "string"
        }
      ],
      "name": "candidates",
      "outputs": [
        {
          "internalType": "string",
          "name": "id",
          "type": "string"
        },
        {
          "internalType": "string",
          "name": "name",
          "type": "string"
        },
        {
          "internalType": "uint256",
          "name": "voteCount",
          "type": "uint256"
        },
        {
          "internalType": "bool",
          "name": "isActive",
          "type": "bool"
        }
      ],
      "stateMutability": "view",
      "type": "function",
      "constant": true
    },
    {
      "inputs": [],
      "name": "kpuAdmin",
      "outputs": [
        {
          "internalType": "address",
          "name": "",
          "type": "address"
        }
      ],
      "stateMutability": "view",
      "type": "function",
      "constant": true
    },
    {
      "inputs": [
        {
          "internalType": "uint256",
          "name": "",
          "type": "uint256"
        }
      ],
      "name": "kpuBranchAddressesArray",
      "outputs": [
        {
          "internalType": "string",
          "name": "name",
          "type": "string"
        },
        {
          "internalType": "address",
          "name": "branchAddress",
          "type": "address"
        },
        {
          "internalType": "bool",
          "name": "isActive",
          "type": "bool"
        },
        {
          "internalType": "string",
          "name": "region",
          "type": "string"
        }
      ],
      "stateMutability": "view",
      "type": "function",
      "constant": true
    },
    {
      "inputs": [
        {
          "internalType": "address",
          "name": "",
          "type": "address"
        }
      ],
      "name": "kpuBranches",
      "outputs": [
        {
          "internalType": "string",
          "name": "name",
          "type": "string"
        },
        {
          "internalType": "address",
          "name": "branchAddress",
          "type": "address"
        },
        {
          "internalType": "bool",
          "name": "isActive",
          "type": "bool"
        },
        {
          "internalType": "string",
          "name": "region",
          "type": "string"
        }
      ],
      "stateMutability": "view",
      "type": "function",
      "constant": true
    },
    {
      "inputs": [
        {
          "internalType": "uint256",
          "name": "",
          "type": "uint256"
        }
      ],
      "name": "voterAddressesArray",
      "outputs": [
        {
          "internalType": "string",
          "name": "nik",
          "type": "string"
        },
        {
          "internalType": "address",
          "name": "voterAddress",
          "type": "address"
        },
        {
          "internalType": "bool",
          "name": "hasVoted",
          "type": "bool"
        },
        {
          "internalType": "string",
          "name": "region",
          "type": "string"
        },
        {
          "internalType": "bool",
          "name": "isRegistered",
          "type": "bool"
        }
      ],
      "stateMutability": "view",
      "type": "function",
      "constant": true
    },
    {
      "inputs": [
        {
          "internalType": "address",
          "name": "",
          "type": "address"
        }
      ],
      "name": "voterNIKByAddress",
      "outputs": [
        {
          "internalType": "string",
          "name": "",
          "type": "string"
        }
      ],
      "stateMutability": "view",
      "type": "function",
      "constant": true
    },
    {
      "inputs": [
        {
          "internalType": "string",
          "name": "",
          "type": "string"
        }
      ],
      "name": "voters",
      "outputs": [
        {
          "internalType": "string",
          "name": "nik",
          "type": "string"
        },
        {
          "internalType": "address",
          "name": "voterAddress",
          "type": "address"
        },
        {
          "internalType": "bool",
          "name": "hasVoted",
          "type": "bool"
        },
        {
          "internalType": "string",
          "name": "region",
          "type": "string"
        },
        {
          "internalType": "bool",
          "name": "isRegistered",
          "type": "bool"
        }
      ],
      "stateMutability": "view",
      "type": "function",
      "constant": true
    },
    {
      "inputs": [],
      "name": "votingActive",
      "outputs": [
        {
          "internalType": "bool",
          "name": "",
          "type": "bool"
        }
      ],
      "stateMutability": "view",
      "type": "function",
      "constant": true
    },
    {
      "inputs": [
        {
          "internalType": "address",
          "name": "branchAddress",
          "type": "address"
        },
        {
          "internalType": "string",
          "name": "name",
          "type": "string"
        },
        {
          "internalType": "string",
          "name": "region",
          "type": "string"
        }
      ],
      "name": "registerKPUBranch",
      "outputs": [],
      "stateMutability": "nonpayable",
      "type": "function"
    },
    {
      "inputs": [
        {
          "internalType": "address",
          "name": "branchAddress",
          "type": "address"
        }
      ],
      "name": "deactivateKPUBranch",
      "outputs": [],
      "stateMutability": "nonpayable",
      "type": "function"
    },
    {
      "inputs": [
        {
          "internalType": "string",
          "name": "nik",
          "type": "string"
        },
        {
          "internalType": "address",
          "name": "voterAddress",
          "type": "address"
        }
      ],
      "name": "registerVoter",
      "outputs": [],
      "stateMutability": "nonpayable",
      "type": "function"
    },
    {
      "inputs": [
        {
          "internalType": "string",
          "name": "candidateId",
          "type": "string"
        }
      ],
      "name": "vote",
      "outputs": [],
      "stateMutability": "nonpayable",
      "type": "function"
    },
    {
      "inputs": [
        {
          "internalType": "string",
          "name": "candidateId",
          "type": "string"
        },
        {
          "internalType": "string",
          "name": "name",
          "type": "string"
        }
      ],
      "name": "addCandidate",
      "outputs": [],
      "stateMutability": "nonpayable",
      "type": "function"
    },
    {
      "inputs": [
        {
          "internalType": "string",
          "name": "candidateId",
          "type": "string"
        }
      ],
      "name": "toggleCandidateActive",
      "outputs": [],
      "stateMutability": "nonpayable",
      "type": "function"
    },
    {
      "inputs": [
        {
          "internalType": "bool",
          "name": "status",
          "type": "bool"
        }
      ],
      "name": "setVotingStatus",
      "outputs": [],
      "stateMutability": "nonpayable",
      "type": "function"
    },
    {
      "inputs": [
        {
          "internalType": "address",
          "name": "newAdmin",
          "type": "address"
        }
      ],
      "name": "setKpuAdmin",
      "outputs": [],
      "stateMutability": "nonpayable",
      "type": "function"
    },
    {
      "inputs": [],
      "name": "getAllKPUBranches",
      "outputs": [
        {
          "components": [
            {
              "internalType": "string",
              "name": "name",
              "type": "string"
            },
            {
              "internalType": "address",
              "name": "branchAddress",
              "type": "address"
            },
            {
              "internalType": "bool",
              "name": "isActive",
              "type": "bool"
            },
            {
              "internalType": "string",
              "name": "region",
              "type": "string"
            }
          ],
          "internalType": "struct Votechain.KPUBranch[]",
          "name": "",
          "type": "tuple[]"
        }
      ],
      "stateMutability": "view",
      "type": "function",
      "constant": true
    },
    {
      "inputs": [
        {
          "internalType": "address",
          "name": "branchAddress",
          "type": "address"
        }
      ],
      "name": "getBranchByAddress",
      "outputs": [
        {
          "components": [
            {
              "internalType": "string",
              "name": "name",
              "type": "string"
            },
            {
              "internalType": "address",
              "name": "branchAddress",
              "type": "address"
            },
            {
              "internalType": "bool",
              "name": "isActive",
              "type": "bool"
            },
            {
              "internalType": "string",
              "name": "region",
              "type": "string"
            }
          ],
          "internalType": "struct Votechain.KPUBranch",
          "name": "",
          "type": "tuple"
        }
      ],
      "stateMutability": "view",
      "type": "function",
      "constant": true
    },
    {
      "inputs": [],
      "name": "getAllVoter",
      "outputs": [
        {
          "components": [
            {
              "internalType": "string",
              "name": "nik",
              "type": "string"
            },
            {
              "internalType": "address",
              "name": "voterAddress",
              "type": "address"
            },
            {
              "internalType": "bool",
              "name": "hasVoted",
              "type": "bool"
            },
            {
              "internalType": "string",
              "name": "region",
              "type": "string"
            },
            {
              "internalType": "bool",
              "name": "isRegistered",
              "type": "bool"
            }
          ],
          "internalType": "struct Votechain.Voter[]",
          "name": "",
          "type": "tuple[]"
        }
      ],
      "stateMutability": "view",
      "type": "function",
      "constant": true
    },
    {
      "inputs": [
        {
          "internalType": "string",
          "name": "nik",
          "type": "string"
        }
      ],
      "name": "getVoterByNIK",
      "outputs": [
        {
          "components": [
            {
              "internalType": "string",
              "name": "nik",
              "type": "string"
            },
            {
              "internalType": "address",
              "name": "voterAddress",
              "type": "address"
            },
            {
              "internalType": "bool",
              "name": "hasVoted",
              "type": "bool"
            },
            {
              "internalType": "string",
              "name": "region",
              "type": "string"
            },
            {
              "internalType": "bool",
              "name": "isRegistered",
              "type": "bool"
            }
          ],
          "internalType": "struct Votechain.Voter",
          "name": "",
          "type": "tuple"
        }
      ],
      "stateMutability": "view",
      "type": "function",
      "constant": true
    },
    {
      "inputs": [
        {
          "internalType": "address",
          "name": "voterAddress",
          "type": "address"
        }
      ],
      "name": "getVoterByAddress",
      "outputs": [
        {
          "components": [
            {
              "internalType": "string",
              "name": "nik",
              "type": "string"
            },
            {
              "internalType": "address",
              "name": "voterAddress",
              "type": "address"
            },
            {
              "internalType": "bool",
              "name": "hasVoted",
              "type": "bool"
            },
            {
              "internalType": "string",
              "name": "region",
              "type": "string"
            },
            {
              "internalType": "bool",
              "name": "isRegistered",
              "type": "bool"
            }
          ],
          "internalType": "struct Votechain.Voter",
          "name": "",
          "type": "tuple"
        }
      ],
      "stateMutability": "view",
      "type": "function",
      "constant": true
    },
    {
      "inputs": [
        {
          "internalType": "string",
          "name": "region",
          "type": "string"
        }
      ],
      "name": "getVoterByRegion",
      "outputs": [
        {
          "components": [
            {
              "internalType": "string",
              "name": "nik",
              "type": "string"
            },
            {
              "internalType": "address",
              "name": "voterAddress",
              "type": "address"
            },
            {
              "internalType": "bool",
              "name": "hasVoted",
              "type": "bool"
            },
            {
              "internalType": "string",
              "name": "region",
              "type": "string"
            },
            {
              "internalType": "bool",
              "name": "isRegistered",
              "type": "bool"
            }
          ],
          "internalType": "struct Votechain.Voter[]",
          "name": "",
          "type": "tuple[]"
        }
      ],
      "stateMutability": "view",
      "type": "function",
      "constant": true
    },
    {
      "inputs": [
        {
          "internalType": "string",
          "name": "candidateId",
          "type": "string"
        }
      ],
      "name": "getCandidate",
      "outputs": [
        {
          "components": [
            {
              "internalType": "string",
              "name": "id",
              "type": "string"
            },
            {
              "internalType": "string",
              "name": "name",
              "type": "string"
            },
            {
              "internalType": "uint256",
              "name": "voteCount",
              "type": "uint256"
            },
            {
              "internalType": "bool",
              "name": "isActive",
              "type": "bool"
            }
          ],
          "internalType": "struct Votechain.Candidate",
          "name": "",
          "type": "tuple"
        }
      ],
      "stateMutability": "view",
      "type": "function",
      "constant": true
    },
    {
      "inputs": [],
      "name": "getAllCandidates",
      "outputs": [
        {
          "components": [
            {
              "internalType": "string",
              "name": "id",
              "type": "string"
            },
            {
              "internalType": "string",
              "name": "name",
              "type": "string"
            },
            {
              "internalType": "uint256",
              "name": "voteCount",
              "type": "uint256"
            },
            {
              "internalType": "bool",
              "name": "isActive",
              "type": "bool"
            }
          ],
          "internalType": "struct Votechain.Candidate[]",
          "name": "",
          "type": "tuple[]"
        }
      ],
      "stateMutability": "view",
      "type": "function",
      "constant": true
    }
  ],
  "bytecode": "0x6080604052348015600f57600080fd5b50336000806101000a81548173ffffffffffffffffffffffffffffffffffffffff021916908373ffffffffffffffffffffffffffffffffffffffff160217905550614b298061005f6000396000f3fe608060405234801561001057600080fd5b5060043610610190576000357c01000000000000000000000000000000000000000000000000000000009004806389c7e391116100fb578063e0d5343b116100b4578063f276669d1161008e578063f276669d146104d7578063f44f4e1414610507578063fb4ab16414610525578063fc36e15b1461054357610190565b8063e0d5343b14610447578063efe3b01b14610477578063f0416e5f146104a757610190565b806389c7e391146103405780639df86dc114610374578063ab165a3e14610390578063b0c9b9a0146103c3578063c5539cc2146103e1578063c7cb520a1461041457610190565b8063408e27271161014d578063408e27271461026a5780634a075de2146102885780634bdd7585146102a45780634c361435146102d457806353fa2e64146102f05780637478c9fe1461032457610190565b8063027d8514146101955780631999a15f146101b157806326541b56146101cd5780632a70ecca146101e95780632e6997fe1461021957806330503d0614610237575b600080fd5b6101af60048036038101906101aa919061375b565b61055f565b005b6101cb60048036038101906101c691906137f0565b610924565b005b6101e760048036038101906101e2919061383d565b610b01565b005b61020360048036038101906101fe91906137f0565b610df6565b60405161021091906139f5565b60405180910390f35b610221610fe1565b60405161022e9190613b5c565b60405180910390f35b610251600480360381019061024c9190613baa565b611189565b6040516102619493929190613c3f565b60405180910390f35b6102726112e6565b60405161027f9190613c92565b60405180910390f35b6102a2600480360381019061029d9190613cad565b6112f9565b005b6102be60048036038101906102b99190613d0d565b611875565b6040516102cb91906139f5565b60405180910390f35b6102ee60048036038101906102e99190613d0d565b611b65565b005b61030a60048036038101906103059190613e6a565b611d11565b60405161031b959493929190613ec2565b60405180910390f35b61033e60048036038101906103399190613f4f565b611ea7565b005b61035a60048036038101906103559190613baa565b611f80565b60405161036b959493929190613ec2565b60405180910390f35b61038e60048036038101906103899190613d0d565b612110565b005b6103aa60048036038101906103a59190613d0d565b6121d8565b6040516103ba9493929190613f7c565b60405180910390f35b6103cb612345565b6040516103d891906140fb565b60405180910390f35b6103fb60048036038101906103f69190613e6a565b612539565b60405161040b9493929190613c3f565b60405180910390f35b61042e60048036038101906104299190613baa565b61269c565b60405161043e9493929190613f7c565b60405180910390f35b610461600480360381019061045c91906137f0565b612819565b60405161046e919061425c565b60405180910390f35b610491600480360381019061048c9190613d0d565b612b8c565b60405161049e91906142e8565b60405180910390f35b6104c160048036038101906104bc9190613d0d565b612e00565b6040516104ce919061430a565b60405180910390f35b6104f160048036038101906104ec91906137f0565b612ea0565b6040516104fe9190614396565b60405180910390f35b61050f61308d565b60405161051c919061425c565b60405180910390f35b61052d61329c565b60405161053a91906143b8565b60405180910390f35b61055d600480360381019061055891906137f0565b6132c0565b005b60008054906101000a900473ffffffffffffffffffffffffffffffffffffffff1673ffffffffffffffffffffffffffffffffffffffff163373ffffffffffffffffffffffffffffffffffffffff16146105e4576040517f8b8958dc00000000000000000000000000000000000000000000000000000000815260040160405180910390fd5b600260008673ffffffffffffffffffffffffffffffffffffffff1673ffffffffffffffffffffffffffffffffffffffff16815260200190815260200160002060010160149054906101000a900460ff161561066b576040517fd3eede8600000000000000000000000000000000000000000000000000000000815260040160405180910390fd5b6000604051806080016040528086868080601f016020809104026020016040519081016040528093929190818152602001838380828437600081840152601f19601f8201169050808301925050505050505081526020018773ffffffffffffffffffffffffffffffffffffffff16815260200160011515815260200184848080601f016020809104026020016040519081016040528093929190818152602001838380828437600081840152601f19601f82011690508083019250505050505050815250905080600260008873ffffffffffffffffffffffffffffffffffffffff1673ffffffffffffffffffffffffffffffffffffffff168152602001908152602001600020600082015181600001908161078691906145e5565b5060208201518160010160006101000a81548173ffffffffffffffffffffffffffffffffffffffff021916908373ffffffffffffffffffffffffffffffffffffffff16021790555060408201518160010160146101000a81548160ff021916908315150217905550606082015181600201908161080391906145e5565b509050506005819080600181540180825580915050600190039060005260206000209060030201600090919091909150600082015181600001908161084891906145e5565b5060208201518160010160006101000a81548173ffffffffffffffffffffffffffffffffffffffff021916908373ffffffffffffffffffffffffffffffffffffffff16021790555060408201518160010160146101000a81548160ff02191690831515021790555060608201518160020190816108c591906145e5565b5050508573ffffffffffffffffffffffffffffffffffffffff167fc4e2c95246cc050bddc27763a59824d38df0df18e23f19099623d7e1618790f68686868660405161091494939291906146e4565b60405180910390a2505050505050565b60008054906101000a900473ffffffffffffffffffffffffffffffffffffffff1673ffffffffffffffffffffffffffffffffffffffff163373ffffffffffffffffffffffffffffffffffffffff16146109a9576040517f8b8958dc00000000000000000000000000000000000000000000000000000000815260040160405180910390fd5b6000600183836040516109bd92919061474f565b908152602001604051809103902060000180546109d990614402565b905003610a12576040517fe66ea08f00000000000000000000000000000000000000000000000000000000815260040160405180910390fd5b60018282604051610a2492919061474f565b908152602001604051809103902060030160009054906101000a900460ff161560018383604051610a5692919061474f565b908152602001604051809103902060030160006101000a81548160ff0219169083151502179055508181604051610a8e92919061474f565b60405180910390207f24a689d3938ff739c48065a7730e43e7433e0e64398d1a1cc828e7ab82913ff760018484604051610ac992919061474f565b908152602001604051809103902060030160009054906101000a900460ff16604051610af59190613c92565b60405180910390a25050565b60008054906101000a900473ffffffffffffffffffffffffffffffffffffffff1673ffffffffffffffffffffffffffffffffffffffff163373ffffffffffffffffffffffffffffffffffffffff1614610b86576040517f8b8958dc00000000000000000000000000000000000000000000000000000000815260040160405180910390fd5b600060018585604051610b9a92919061474f565b90815260200160405180910390206000018054610bb690614402565b905014610bef576040517ff638326500000000000000000000000000000000000000000000000000000000815260040160405180910390fd5b6000604051806080016040528086868080601f016020809104026020016040519081016040528093929190818152602001838380828437600081840152601f19601f82011690508083019250505050505050815260200184848080601f016020809104026020016040519081016040528093929190818152602001838380828437600081840152601f19601f820116905080830192505050505050508152602001600081526020016001151581525090508060018686604051610cb392919061474f565b90815260200160405180910390206000820151816000019081610cd691906145e5565b506020820151816001019081610cec91906145e5565b506040820151816002015560608201518160030160006101000a81548160ff02191690831515021790555090505060078190806001815401808255809150506001900390600052602060002090600402016000909190919091506000820151816000019081610d5b91906145e5565b506020820151816001019081610d7191906145e5565b506040820151816002015560608201518160030160006101000a81548160ff02191690831515021790555050508484604051610dae92919061474f565b60405180910390207f6184463fde61a3e60869da6c5a223163f4b7548f805e17f865da2e8d3828d3378484604051610de7929190614768565b60405180910390a25050505050565b610dfe6135d1565b60048383604051610e1092919061474f565b90815260200160405180910390206040518060a0016040529081600082018054610e3990614402565b80601f0160208091040260200160405190810160405280929190818152602001828054610e6590614402565b8015610eb25780601f10610e8757610100808354040283529160200191610eb2565b820191906000526020600020905b815481529060010190602001808311610e9557829003601f168201915b505050505081526020016001820160009054906101000a900473ffffffffffffffffffffffffffffffffffffffff1673ffffffffffffffffffffffffffffffffffffffff1673ffffffffffffffffffffffffffffffffffffffff1681526020016001820160149054906101000a900460ff16151515158152602001600282018054610f3c90614402565b80601f0160208091040260200160405190810160405280929190818152602001828054610f6890614402565b8015610fb55780601f10610f8a57610100808354040283529160200191610fb5565b820191906000526020600020905b815481529060010190602001808311610f9857829003601f168201915b505050505081526020016003820160009054906101000a900460ff161515151581525050905092915050565b60606007805480602002602001604051908101604052809291908181526020016000905b82821015611180578382906000526020600020906004020160405180608001604052908160008201805461103890614402565b80601f016020809104026020016040519081016040528092919081815260200182805461106490614402565b80156110b15780601f10611086576101008083540402835291602001916110b1565b820191906000526020600020905b81548152906001019060200180831161109457829003601f168201915b505050505081526020016001820180546110ca90614402565b80601f01602080910402602001604051908101604052809291908181526020018280546110f690614402565b80156111435780601f1061111857610100808354040283529160200191611143565b820191906000526020600020905b81548152906001019060200180831161112657829003601f168201915b50505050508152602001600282015481526020016003820160009054906101000a900460ff16151515158152505081526020019060010190611005565b50505050905090565b6007818154811061119957600080fd5b90600052602060002090600402016000915090508060000180546111bc90614402565b80601f01602080910402602001604051908101604052809291908181526020018280546111e890614402565b80156112355780601f1061120a57610100808354040283529160200191611235565b820191906000526020600020905b81548152906001019060200180831161121857829003601f168201915b50505050509080600101805461124a90614402565b80601f016020809104026020016040519081016040528092919081815260200182805461127690614402565b80156112c35780601f10611298576101008083540402835291602001916112c3565b820191906000526020600020905b8154815290600101906020018083116112a657829003601f168201915b5050505050908060020154908060030160009054906101000a900460ff16905084565b600060149054906101000a900460ff1681565b600260003373ffffffffffffffffffffffffffffffffffffffff1673ffffffffffffffffffffffffffffffffffffffff16815260200190815260200160002060010160149054906101000a900460ff1661137f576040517f72c7057a00000000000000000000000000000000000000000000000000000000815260040160405180910390fd5b6004838360405161139192919061474f565b908152602001604051809103902060030160009054906101000a900460ff16156113e7576040517f59a1ec4700000000000000000000000000000000000000000000000000000000815260040160405180910390fd5b6000600360008373ffffffffffffffffffffffffffffffffffffffff1673ffffffffffffffffffffffffffffffffffffffff168152602001908152602001600020805461143390614402565b90501461146c576040517f2d42c77200000000000000000000000000000000000000000000000000000000815260040160405180910390fd5b60006040518060a0016040528085858080601f016020809104026020016040519081016040528093929190818152602001838380828437600081840152601f19601f8201169050808301925050505050505081526020018373ffffffffffffffffffffffffffffffffffffffff168152602001600015158152602001600260003373ffffffffffffffffffffffffffffffffffffffff1673ffffffffffffffffffffffffffffffffffffffff168152602001908152602001600020600201805461153590614402565b80601f016020809104026020016040519081016040528092919081815260200182805461156190614402565b80156115ae5780601f10611583576101008083540402835291602001916115ae565b820191906000526020600020905b81548152906001019060200180831161159157829003601f168201915b5050505050815260200160011515815250905080600485856040516115d492919061474f565b908152602001604051809103902060008201518160000190816115f791906145e5565b5060208201518160010160006101000a81548173ffffffffffffffffffffffffffffffffffffffff021916908373ffffffffffffffffffffffffffffffffffffffff16021790555060408201518160010160146101000a81548160ff021916908315150217905550606082015181600201908161167491906145e5565b5060808201518160030160006101000a81548160ff0219169083151502179055509050508383600360008573ffffffffffffffffffffffffffffffffffffffff1673ffffffffffffffffffffffffffffffffffffffff16815260200190815260200160002091826116e6929190614797565b506006819080600181540180825580915050600190039060005260206000209060040201600090919091909150600082015181600001908161172891906145e5565b5060208201518160010160006101000a81548173ffffffffffffffffffffffffffffffffffffffff021916908373ffffffffffffffffffffffffffffffffffffffff16021790555060408201518160010160146101000a81548160ff02191690831515021790555060608201518160020190816117a591906145e5565b5060808201518160030160006101000a81548160ff02191690831515021790555050508173ffffffffffffffffffffffffffffffffffffffff1684846040516117ef92919061474f565b60405180910390207fe8bf381bec3899d7c4d98d7e52cfd45dfe7254b2ceafbb4d6dca1235ed10624d600260003373ffffffffffffffffffffffffffffffffffffffff1673ffffffffffffffffffffffffffffffffffffffff16815260200190815260200160002060020160405161186791906148eb565b60405180910390a350505050565b61187d6135d1565b6000600360008473ffffffffffffffffffffffffffffffffffffffff1673ffffffffffffffffffffffffffffffffffffffff16815260200190815260200160002080546118c990614402565b80601f01602080910402602001604051908101604052809291908181526020018280546118f590614402565b80156119425780601f1061191757610100808354040283529160200191611942565b820191906000526020600020905b81548152906001019060200180831161192557829003601f168201915b505050505090506000815103611984576040517f6f08c58700000000000000000000000000000000000000000000000000000000815260040160405180910390fd5b600481604051611994919061493e565b90815260200160405180910390206040518060a00160405290816000820180546119bd90614402565b80601f01602080910402602001604051908101604052809291908181526020018280546119e990614402565b8015611a365780601f10611a0b57610100808354040283529160200191611a36565b820191906000526020600020905b815481529060010190602001808311611a1957829003601f168201915b505050505081526020016001820160009054906101000a900473ffffffffffffffffffffffffffffffffffffffff1673ffffffffffffffffffffffffffffffffffffffff1673ffffffffffffffffffffffffffffffffffffffff1681526020016001820160149054906101000a900460ff16151515158152602001600282018054611ac090614402565b80601f0160208091040260200160405190810160405280929190818152602001828054611aec90614402565b8015611b395780601f10611b0e57610100808354040283529160200191611b39565b820191906000526020600020905b815481529060010190602001808311611b1c57829003601f168201915b505050505081526020016003820160009054906101000a900460ff161515151581525050915050919050565b60008054906101000a900473ffffffffffffffffffffffffffffffffffffffff1673ffffffffffffffffffffffffffffffffffffffff163373ffffffffffffffffffffffffffffffffffffffff1614611bea576040517f8b8958dc00000000000000000000000000000000000000000000000000000000815260040160405180910390fd5b600260008273ffffffffffffffffffffffffffffffffffffffff1673ffffffffffffffffffffffffffffffffffffffff16815260200190815260200160002060010160149054906101000a900460ff16611c70576040517fc75d5c6500000000000000000000000000000000000000000000000000000000815260040160405180910390fd5b6000600260008373ffffffffffffffffffffffffffffffffffffffff1673ffffffffffffffffffffffffffffffffffffffff16815260200190815260200160002060010160146101000a81548160ff0219169083151502179055508073ffffffffffffffffffffffffffffffffffffffff167f3954ed3404fab00c2419751b1587a1f6655215f0dc812ab5ed515d4c2677b2d360405160405180910390a250565b600481805160208101820180518482526020830160208501208183528095505050505050600091509050806000018054611d4a90614402565b80601f0160208091040260200160405190810160405280929190818152602001828054611d7690614402565b8015611dc35780601f10611d9857610100808354040283529160200191611dc3565b820191906000526020600020905b815481529060010190602001808311611da657829003601f168201915b5050505050908060010160009054906101000a900473ffffffffffffffffffffffffffffffffffffffff16908060010160149054906101000a900460ff1690806002018054611e1190614402565b80601f0160208091040260200160405190810160405280929190818152602001828054611e3d90614402565b8015611e8a5780601f10611e5f57610100808354040283529160200191611e8a565b820191906000526020600020905b815481529060010190602001808311611e6d57829003601f168201915b5050505050908060030160009054906101000a900460ff16905085565b60008054906101000a900473ffffffffffffffffffffffffffffffffffffffff1673ffffffffffffffffffffffffffffffffffffffff163373ffffffffffffffffffffffffffffffffffffffff1614611f2c576040517f8b8958dc00000000000000000000000000000000000000000000000000000000815260040160405180910390fd5b80600060146101000a81548160ff0219169083151502179055507f9069a1a16ace751e8690f383e12f87b01e8488ba387e626810bd113fef0417f981604051611f759190613c92565b60405180910390a150565b60068181548110611f9057600080fd5b9060005260206000209060040201600091509050806000018054611fb390614402565b80601f0160208091040260200160405190810160405280929190818152602001828054611fdf90614402565b801561202c5780601f106120015761010080835404028352916020019161202c565b820191906000526020600020905b81548152906001019060200180831161200f57829003601f168201915b5050505050908060010160009054906101000a900473ffffffffffffffffffffffffffffffffffffffff16908060010160149054906101000a900460ff169080600201805461207a90614402565b80601f01602080910402602001604051908101604052809291908181526020018280546120a690614402565b80156120f35780601f106120c8576101008083540402835291602001916120f3565b820191906000526020600020905b8154815290600101906020018083116120d657829003601f168201915b5050505050908060030160009054906101000a900460ff16905085565b60008054906101000a900473ffffffffffffffffffffffffffffffffffffffff1673ffffffffffffffffffffffffffffffffffffffff163373ffffffffffffffffffffffffffffffffffffffff1614612195576040517f8b8958dc00000000000000000000000000000000000000000000000000000000815260040160405180910390fd5b806000806101000a81548173ffffffffffffffffffffffffffffffffffffffff021916908373ffffffffffffffffffffffffffffffffffffffff16021790555050565b60026020528060005260406000206000915090508060000180546121fb90614402565b80601f016020809104026020016040519081016040528092919081815260200182805461222790614402565b80156122745780601f1061224957610100808354040283529160200191612274565b820191906000526020600020905b81548152906001019060200180831161225757829003601f168201915b5050505050908060010160009054906101000a900473ffffffffffffffffffffffffffffffffffffffff16908060010160149054906101000a900460ff16908060020180546122c290614402565b80601f01602080910402602001604051908101604052809291908181526020018280546122ee90614402565b801561233b5780601f106123105761010080835404028352916020019161233b565b820191906000526020600020905b81548152906001019060200180831161231e57829003601f168201915b5050505050905084565b60606005805480602002602001604051908101604052809291908181526020016000905b82821015612530578382906000526020600020906003020160405180608001604052908160008201805461239c90614402565b80601f01602080910402602001604051908101604052809291908181526020018280546123c890614402565b80156124155780601f106123ea57610100808354040283529160200191612415565b820191906000526020600020905b8154815290600101906020018083116123f857829003601f168201915b505050505081526020016001820160009054906101000a900473ffffffffffffffffffffffffffffffffffffffff1673ffffffffffffffffffffffffffffffffffffffff1673ffffffffffffffffffffffffffffffffffffffff1681526020016001820160149054906101000a900460ff1615151515815260200160028201805461249f90614402565b80601f01602080910402602001604051908101604052809291908181526020018280546124cb90614402565b80156125185780601f106124ed57610100808354040283529160200191612518565b820191906000526020600020905b8154815290600101906020018083116124fb57829003601f168201915b50505050508152505081526020019060010190612369565b50505050905090565b60018180516020810182018051848252602083016020850120818352809550505050505060009150905080600001805461257290614402565b80601f016020809104026020016040519081016040528092919081815260200182805461259e90614402565b80156125eb5780601f106125c0576101008083540402835291602001916125eb565b820191906000526020600020905b8154815290600101906020018083116125ce57829003601f168201915b50505050509080600101805461260090614402565b80601f016020809104026020016040519081016040528092919081815260200182805461262c90614402565b80156126795780601f1061264e57610100808354040283529160200191612679565b820191906000526020600020905b81548152906001019060200180831161265c57829003601f168201915b5050505050908060020154908060030160009054906101000a900460ff16905084565b600581815481106126ac57600080fd5b90600052602060002090600302016000915090508060000180546126cf90614402565b80601f01602080910402602001604051908101604052809291908181526020018280546126fb90614402565b80156127485780601f1061271d57610100808354040283529160200191612748565b820191906000526020600020905b81548152906001019060200180831161272b57829003601f168201915b5050505050908060010160009054906101000a900473ffffffffffffffffffffffffffffffffffffffff16908060010160149054906101000a900460ff169080600201805461279690614402565b80601f01602080910402602001604051908101604052809291908181526020018280546127c290614402565b801561280f5780601f106127e45761010080835404028352916020019161280f565b820191906000526020600020905b8154815290600101906020018083116127f257829003601f168201915b5050505050905084565b6060600080600090505b6006805490508110156128a3578484604051612840929190614985565b60405180910390206006828154811061285c5761285b61499e565b5b906000526020600020906004020160020160405161287a9190614a65565b60405180910390200361289657818061289290614aab565b9250505b8080600101915050612823565b5060008167ffffffffffffffff8111156128c0576128bf613d3f565b5b6040519080825280602002602001820160405280156128f957816020015b6128e66135d1565b8152602001906001900390816128de5790505b509050600080600090505b600680549050811015612b7f578686604051612921929190614985565b60405180910390206006828154811061293d5761293c61499e565b5b906000526020600020906004020160020160405161295b9190614a65565b604051809103902003612b72576006818154811061297c5761297b61499e565b5b90600052602060002090600402016040518060a00160405290816000820180546129a590614402565b80601f01602080910402602001604051908101604052809291908181526020018280546129d190614402565b8015612a1e5780601f106129f357610100808354040283529160200191612a1e565b820191906000526020600020905b815481529060010190602001808311612a0157829003601f168201915b505050505081526020016001820160009054906101000a900473ffffffffffffffffffffffffffffffffffffffff1673ffffffffffffffffffffffffffffffffffffffff1673ffffffffffffffffffffffffffffffffffffffff1681526020016001820160149054906101000a900460ff16151515158152602001600282018054612aa890614402565b80601f0160208091040260200160405190810160405280929190818152602001828054612ad490614402565b8015612b215780601f10612af657610100808354040283529160200191612b21565b820191906000526020600020905b815481529060010190602001808311612b0457829003601f168201915b505050505081526020016003820160009054906101000a900460ff161515151581525050838381518110612b5857612b5761499e565b5b60200260200101819052508180612b6e90614aab565b9250505b8080600101915050612904565b5081935050505092915050565b612b9461361a565b600260008373ffffffffffffffffffffffffffffffffffffffff1673ffffffffffffffffffffffffffffffffffffffff16815260200190815260200160002060010160149054906101000a900460ff16612c1a576040517fc75d5c6500000000000000000000000000000000000000000000000000000000815260040160405180910390fd5b600260008373ffffffffffffffffffffffffffffffffffffffff1673ffffffffffffffffffffffffffffffffffffffff168152602001908152602001600020604051806080016040529081600082018054612c7490614402565b80601f0160208091040260200160405190810160405280929190818152602001828054612ca090614402565b8015612ced5780601f10612cc257610100808354040283529160200191612ced565b820191906000526020600020905b815481529060010190602001808311612cd057829003601f168201915b505050505081526020016001820160009054906101000a900473ffffffffffffffffffffffffffffffffffffffff1673ffffffffffffffffffffffffffffffffffffffff1673ffffffffffffffffffffffffffffffffffffffff1681526020016001820160149054906101000a900460ff16151515158152602001600282018054612d7790614402565b80601f0160208091040260200160405190810160405280929190818152602001828054612da390614402565b8015612df05780601f10612dc557610100808354040283529160200191612df0565b820191906000526020600020905b815481529060010190602001808311612dd357829003601f168201915b5050505050815250509050919050565b60036020528060005260406000206000915090508054612e1f90614402565b80601f0160208091040260200160405190810160405280929190818152602001828054612e4b90614402565b8015612e985780601f10612e6d57610100808354040283529160200191612e98565b820191906000526020600020905b815481529060010190602001808311612e7b57829003601f168201915b505050505081565b612ea861365a565b600060018484604051612ebc92919061474f565b90815260200160405180910390206000018054612ed890614402565b905003612f11576040517fe66ea08f00000000000000000000000000000000000000000000000000000000815260040160405180910390fd5b60018383604051612f2392919061474f565b9081526020016040518091039020604051806080016040529081600082018054612f4c90614402565b80601f0160208091040260200160405190810160405280929190818152602001828054612f7890614402565b8015612fc55780601f10612f9a57610100808354040283529160200191612fc5565b820191906000526020600020905b815481529060010190602001808311612fa857829003601f168201915b50505050508152602001600182018054612fde90614402565b80601f016020809104026020016040519081016040528092919081815260200182805461300a90614402565b80156130575780601f1061302c57610100808354040283529160200191613057565b820191906000526020600020905b81548152906001019060200180831161303a57829003601f168201915b50505050508152602001600282015481526020016003820160009054906101000a900460ff161515151581525050905092915050565b60606006805480602002602001604051908101604052809291908181526020016000905b8282101561329357838290600052602060002090600402016040518060a00160405290816000820180546130e490614402565b80601f016020809104026020016040519081016040528092919081815260200182805461311090614402565b801561315d5780601f106131325761010080835404028352916020019161315d565b820191906000526020600020905b81548152906001019060200180831161314057829003601f168201915b505050505081526020016001820160009054906101000a900473ffffffffffffffffffffffffffffffffffffffff1673ffffffffffffffffffffffffffffffffffffffff1673ffffffffffffffffffffffffffffffffffffffff1681526020016001820160149054906101000a900460ff161515151581526020016002820180546131e790614402565b80601f016020809104026020016040519081016040528092919081815260200182805461321390614402565b80156132605780601f1061323557610100808354040283529160200191613260565b820191906000526020600020905b81548152906001019060200180831161324357829003601f168201915b505050505081526020016003820160009054906101000a900460ff161515151581525050815260200190600101906130b1565b50505050905090565b60008054906101000a900473ffffffffffffffffffffffffffffffffffffffff1681565b600060149054906101000a900460ff16613306576040517f9b8cc47500000000000000000000000000000000000000000000000000000000815260040160405180910390fd5b6000600360003373ffffffffffffffffffffffffffffffffffffffff1673ffffffffffffffffffffffffffffffffffffffff168152602001908152602001600020805461335290614402565b80601f016020809104026020016040519081016040528092919081815260200182805461337e90614402565b80156133cb5780601f106133a0576101008083540402835291602001916133cb565b820191906000526020600020905b8154815290600101906020018083116133ae57829003601f168201915b50505050509050600081510361340d576040517f6f08c58700000000000000000000000000000000000000000000000000000000815260040160405180910390fd5b600060048260405161341f919061493e565b908152602001604051809103902090508060010160149054906101000a900460ff1615613478576040517f7c9a1cf900000000000000000000000000000000000000000000000000000000815260040160405180910390fd5b60006001858560405161348c92919061474f565b908152602001604051809103902060000180546134a890614402565b905014806134e45750600184846040516134c392919061474f565b908152602001604051809103902060030160009054906101000a900460ff16155b1561351b576040517fe66ea08f00000000000000000000000000000000000000000000000000000000815260040160405180910390fd5b60018160010160146101000a81548160ff0219169083151502179055506001848460405161354a92919061474f565b9081526020016040518091039020600201600081548092919061356c90614aab565b9190505550838360405161358192919061474f565b604051809103902082604051613597919061493e565b60405180910390207f791f7d5f0b0d6e798f239ccca607156ff12f293d6709379301dc1a27e520618160405160405180910390a350505050565b6040518060a0016040528060608152602001600073ffffffffffffffffffffffffffffffffffffffff168152602001600015158152602001606081526020016000151581525090565b604051806080016040528060608152602001600073ffffffffffffffffffffffffffffffffffffffff168152602001600015158152602001606081525090565b60405180608001604052806060815260200160608152602001600081526020016000151581525090565b6000604051905090565b600080fd5b600080fd5b600073ffffffffffffffffffffffffffffffffffffffff82169050919050565b60006136c382613698565b9050919050565b6136d3816136b8565b81146136de57600080fd5b50565b6000813590506136f0816136ca565b92915050565b600080fd5b600080fd5b600080fd5b60008083601f84011261371b5761371a6136f6565b5b8235905067ffffffffffffffff811115613738576137376136fb565b5b60208301915083600182028301111561375457613753613700565b5b9250929050565b6000806000806000606086880312156137775761377661368e565b5b6000613785888289016136e1565b955050602086013567ffffffffffffffff8111156137a6576137a5613693565b5b6137b288828901613705565b9450945050604086013567ffffffffffffffff8111156137d5576137d4613693565b5b6137e188828901613705565b92509250509295509295909350565b600080602083850312156138075761380661368e565b5b600083013567ffffffffffffffff81111561382557613824613693565b5b61383185828601613705565b92509250509250929050565b600080600080604085870312156138575761385661368e565b5b600085013567ffffffffffffffff81111561387557613874613693565b5b61388187828801613705565b9450945050602085013567ffffffffffffffff8111156138a4576138a3613693565b5b6138b087828801613705565b925092505092959194509250565b600081519050919050565b600082825260208201905092915050565b60005b838110156138f85780820151818401526020810190506138dd565b60008484015250505050565b6000601f19601f8301169050919050565b6000613920826138be565b61392a81856138c9565b935061393a8185602086016138da565b61394381613904565b840191505092915050565b613957816136b8565b82525050565b60008115159050919050565b6139728161395d565b82525050565b600060a08301600083015184820360008601526139958282613915565b91505060208301516139aa602086018261394e565b5060408301516139bd6040860182613969565b50606083015184820360608601526139d58282613915565b91505060808301516139ea6080860182613969565b508091505092915050565b60006020820190508181036000830152613a0f8184613978565b905092915050565b600081519050919050565b600082825260208201905092915050565b6000819050602082019050919050565b6000819050919050565b613a5681613a43565b82525050565b60006080830160008301518482036000860152613a798282613915565b91505060208301518482036020860152613a938282613915565b9150506040830151613aa86040860182613a4d565b506060830151613abb6060860182613969565b508091505092915050565b6000613ad28383613a5c565b905092915050565b6000602082019050919050565b6000613af282613a17565b613afc8185613a22565b935083602082028501613b0e85613a33565b8060005b85811015613b4a5784840389528151613b2b8582613ac6565b9450613b3683613ada565b925060208a01995050600181019050613b12565b50829750879550505050505092915050565b60006020820190508181036000830152613b768184613ae7565b905092915050565b613b8781613a43565b8114613b9257600080fd5b50565b600081359050613ba481613b7e565b92915050565b600060208284031215613bc057613bbf61368e565b5b6000613bce84828501613b95565b91505092915050565b600082825260208201905092915050565b6000613bf3826138be565b613bfd8185613bd7565b9350613c0d8185602086016138da565b613c1681613904565b840191505092915050565b613c2a81613a43565b82525050565b613c398161395d565b82525050565b60006080820190508181036000830152613c598187613be8565b90508181036020830152613c6d8186613be8565b9050613c7c6040830185613c21565b613c896060830184613c30565b95945050505050565b6000602082019050613ca76000830184613c30565b92915050565b600080600060408486031215613cc657613cc561368e565b5b600084013567ffffffffffffffff811115613ce457613ce3613693565b5b613cf086828701613705565b93509350506020613d03868287016136e1565b9150509250925092565b600060208284031215613d2357613d2261368e565b5b6000613d31848285016136e1565b91505092915050565b600080fd5b7f4e487b7100000000000000000000000000000000000000000000000000000000600052604160045260246000fd5b613d7782613904565b810181811067ffffffffffffffff82111715613d9657613d95613d3f565b5b80604052505050565b6000613da9613684565b9050613db58282613d6e565b919050565b600067ffffffffffffffff821115613dd557613dd4613d3f565b5b613dde82613904565b9050602081019050919050565b82818337600083830152505050565b6000613e0d613e0884613dba565b613d9f565b905082815260208101848484011115613e2957613e28613d3a565b5b613e34848285613deb565b509392505050565b600082601f830112613e5157613e506136f6565b5b8135613e61848260208601613dfa565b91505092915050565b600060208284031215613e8057613e7f61368e565b5b600082013567ffffffffffffffff811115613e9e57613e9d613693565b5b613eaa84828501613e3c565b91505092915050565b613ebc816136b8565b82525050565b600060a0820190508181036000830152613edc8188613be8565b9050613eeb6020830187613eb3565b613ef86040830186613c30565b8181036060830152613f0a8185613be8565b9050613f196080830184613c30565b9695505050505050565b613f2c8161395d565b8114613f3757600080fd5b50565b600081359050613f4981613f23565b92915050565b600060208284031215613f6557613f6461368e565b5b6000613f7384828501613f3a565b91505092915050565b60006080820190508181036000830152613f968187613be8565b9050613fa56020830186613eb3565b613fb26040830185613c30565b8181036060830152613fc48184613be8565b905095945050505050565b600081519050919050565b600082825260208201905092915050565b6000819050602082019050919050565b600060808301600083015184820360008601526140188282613915565b915050602083015161402d602086018261394e565b5060408301516140406040860182613969565b50606083015184820360608601526140588282613915565b9150508091505092915050565b60006140718383613ffb565b905092915050565b6000602082019050919050565b600061409182613fcf565b61409b8185613fda565b9350836020820285016140ad85613feb565b8060005b858110156140e957848403895281516140ca8582614065565b94506140d583614079565b925060208a019950506001810190506140b1565b50829750879550505050505092915050565b600060208201905081810360008301526141158184614086565b905092915050565b600081519050919050565b600082825260208201905092915050565b6000819050602082019050919050565b600060a08301600083015184820360008601526141668282613915565b915050602083015161417b602086018261394e565b50604083015161418e6040860182613969565b50606083015184820360608601526141a68282613915565b91505060808301516141bb6080860182613969565b508091505092915050565b60006141d28383614149565b905092915050565b6000602082019050919050565b60006141f28261411d565b6141fc8185614128565b93508360208202850161420e85614139565b8060005b8581101561424a578484038952815161422b85826141c6565b9450614236836141da565b925060208a01995050600181019050614212565b50829750879550505050505092915050565b6000602082019050818103600083015261427681846141e7565b905092915050565b6000608083016000830151848203600086015261429b8282613915565b91505060208301516142b0602086018261394e565b5060408301516142c36040860182613969565b50606083015184820360608601526142db8282613915565b9150508091505092915050565b60006020820190508181036000830152614302818461427e565b905092915050565b600060208201905081810360008301526143248184613be8565b905092915050565b600060808301600083015184820360008601526143498282613915565b915050602083015184820360208601526143638282613915565b91505060408301516143786040860182613a4d565b50606083015161438b6060860182613969565b508091505092915050565b600060208201905081810360008301526143b0818461432c565b905092915050565b60006020820190506143cd6000830184613eb3565b92915050565b7f4e487b7100000000000000000000000000000000000000000000000000000000600052602260045260246000fd5b6000600282049050600182168061441a57607f821691505b60208210810361442d5761442c6143d3565b5b50919050565b60008190508160005260206000209050919050565b60006020601f8301049050919050565b60008160020a8302905092915050565b6000600883026144987fffffffffffffffffffffffffffffffffffffffffffffffffffffffffffffffff82614458565b6144a28683614458565b95508019841693508086168417925050509392505050565b6000819050919050565b60006144df6144da6144d584613a43565b6144ba565b613a43565b9050919050565b6000819050919050565b6144f9836144c4565b61450d614505826144e6565b848454614468565b825550505050565b600090565b614522614515565b61452d8184846144f0565b505050565b5b818110156145515761454660008261451a565b600181019050614533565b5050565b601f8211156145965761456781614433565b61457084614448565b8101602085101561457f578190505b61459361458b85614448565b830182614532565b50505b505050565b60008160020a8304905092915050565b60006145bc6000198460080261459b565b1980831691505092915050565b60006145d583836145ab565b9150826002028217905092915050565b6145ee826138be565b67ffffffffffffffff81111561460757614606613d3f565b5b6146118254614402565b61461c828285614555565b600060209050601f83116001811461464f576000841561463d578287015190505b61464785826145c9565b8655506146af565b601f19841661465d86614433565b60005b8281101561468557848901518255600182019150602085019450602081019050614660565b868310156146a2578489015161469e601f8916826145ab565b8355505b6001600288020188555050505b505050505050565b60006146c38385613bd7565b93506146d0838584613deb565b6146d983613904565b840190509392505050565b600060408201905081810360008301526146ff8186886146b7565b905081810360208301526147148184866146b7565b905095945050505050565b600081905092915050565b6000614736838561471f565b9350614743838584613deb565b82840190509392505050565b600061475c82848661472a565b91508190509392505050565b600060208201905081810360008301526147838184866146b7565b90509392505050565b600082905092915050565b6147a1838361478c565b67ffffffffffffffff8111156147ba576147b9613d3f565b5b6147c48254614402565b6147cf828285614555565b6000601f8311600181146147fe57600084156147ec578287013590505b6147f685826145c9565b86555061485e565b601f19841661480c86614433565b60005b828110156148345784890135825560018201915060208501945060208101905061480f565b86831015614851578489013561484d601f8916826145ab565b8355505b6001600288020188555050505b50505050505050565b6000815461487481614402565b61487e8186613bd7565b9450600182166000811461489957600181146148af576148e2565b60ff1983168652811515602002860193506148e2565b6148b885614433565b60005b838110156148da578154818901526001820191506020810190506148bb565b808801955050505b50505092915050565b600060208201905081810360008301526149058184614867565b905092915050565b6000614918826138be565b614922818561471f565b93506149328185602086016138da565b80840191505092915050565b600061494a828461490d565b915081905092915050565b600081905092915050565b600061496c8385614955565b9350614979838584613deb565b82840190509392505050565b6000614992828486614960565b91508190509392505050565b7f4e487b7100000000000000000000000000000000000000000000000000000000600052603260045260246000fd5b60008190508160005260206000209050919050565b600081546149ef81614402565b6149f98186614955565b94506001821660008114614a145760018114614a2957614a5c565b60ff1983168652811515820286019350614a5c565b614a32856149cd565b60005b83811015614a5457815481890152600182019150602081019050614a35565b838801955050505b50505092915050565b6000614a7182846149e2565b915081905092915050565b7f4e487b7100000000000000000000000000000000000000000000000000000000600052601160045260246000fd5b6000614ab682613a43565b91507fffffffffffffffffffffffffffffffffffffffffffffffffffffffffffffffff8203614ae857614ae7614a7c565b5b60018201905091905056fea2646970667358221220c119834fbe6c64261fad56e82ad19cd8caf8613bb0bf5782cf8d9051cddf6aa964736f6c63430008190033",
  "immutableReferences": {},
  "source": "// SPDX-License-Identifier: UNLICENSED\r\npragma solidity ^0.8.25;\r\n\r\ncontract Votechain {\r\n    error OnlyKpuAdmin();\r\n    error OnlyKpuBranch();\r\n    error VotingNotActive();\r\n    error BranchAlreadyRegistered();\r\n    error BranchNotActive();\r\n    error VoterAlreadyRegistered();\r\n    error AddressAlreadyRegistered();\r\n    error VoterNotRegistered();\r\n    error AlreadyVoted();\r\n    error InvalidCandidate();\r\n    error UnauthorizedVoter();\r\n    error CandidateAlreadyExists();\r\n\r\n    struct KPUBranch {\r\n        string name;\r\n        address branchAddress;\r\n        bool isActive;\r\n        string region;\r\n    }\r\n\r\n    struct Voter {\r\n        string nik;\r\n        address voterAddress;\r\n        bool hasVoted;\r\n        string region;\r\n        bool isRegistered;\r\n    }\r\n\r\n    struct Candidate {\r\n        string id; // UUID as a string\r\n        string name;\r\n        uint256 voteCount;\r\n        bool isActive;\r\n    }\r\n\r\n    address public kpuAdmin;\r\n    bool public votingActive;\r\n\r\n    mapping(string => Candidate) public candidates; // Mapping from UUID to Candidate\r\n    mapping(address => KPUBranch) public kpuBranches;\r\n    mapping(address => string) public voterNIKByAddress;\r\n    mapping(string => Voter) public voters;\r\n\r\n    KPUBranch[] public kpuBranchAddressesArray;\r\n    Voter[] public voterAddressesArray;\r\n    Candidate[] public candidateAddressesArray;\r\n\r\n    event KPUBranchRegistered(address indexed branchAddress, string name, string region);\r\n    event KPUBranchDeactivated(address indexed branchAddress);\r\n    event VoterRegistered(string indexed nik, address indexed voterAddress, string region);\r\n    event VoteCasted(string indexed nik, string indexed candidateId);\r\n    event CandidateAdded(string indexed candidateId, string name);\r\n    event CandidateStatusChanged(string indexed candidateId, bool isActive);\r\n    event VotingStatusChanged(bool isActive);\r\n\r\n    modifier onlyKpuAdmin() {\r\n        if (msg.sender != kpuAdmin) revert OnlyKpuAdmin();\r\n        _;\r\n    }\r\n\r\n    modifier onlyKpuBranch() {\r\n        if (!kpuBranches[msg.sender].isActive) revert OnlyKpuBranch();\r\n        _;\r\n    }\r\n\r\n    modifier votingIsActive() {\r\n        if (!votingActive) revert VotingNotActive();\r\n        _;\r\n    }\r\n\r\n    constructor() {\r\n        kpuAdmin = msg.sender;\r\n    }\r\n\r\n    function registerKPUBranch(\r\n        address branchAddress,\r\n        string calldata name,\r\n        string calldata region\r\n    ) external onlyKpuAdmin {\r\n        if (kpuBranches[branchAddress].isActive) revert BranchAlreadyRegistered();\r\n\r\n        KPUBranch memory newBranch = KPUBranch(name, branchAddress, true, region);\r\n        kpuBranches[branchAddress] = newBranch;\r\n        kpuBranchAddressesArray.push(newBranch);\r\n\r\n        emit KPUBranchRegistered(branchAddress, name, region);\r\n    }\r\n\r\n    function deactivateKPUBranch(address branchAddress) external onlyKpuAdmin {\r\n        if (!kpuBranches[branchAddress].isActive) revert BranchNotActive();\r\n        kpuBranches[branchAddress].isActive = false;\r\n        emit KPUBranchDeactivated(branchAddress);\r\n    }\r\n\r\n    function registerVoter(\r\n        string calldata nik,\r\n        address voterAddress\r\n    ) external onlyKpuBranch {\r\n        if (voters[nik].isRegistered) revert VoterAlreadyRegistered();\r\n        if (bytes(voterNIKByAddress[voterAddress]).length != 0) revert AddressAlreadyRegistered();\r\n        Voter memory newVoter = Voter({\r\n            nik: nik,\r\n            voterAddress: voterAddress,\r\n            hasVoted: false,\r\n            region: kpuBranches[msg.sender].region,\r\n            isRegistered: true\r\n        });\r\n\r\n        voters[nik] = newVoter;\r\n        voterNIKByAddress[voterAddress] = nik;\r\n        voterAddressesArray.push(newVoter);\r\n\r\n        emit VoterRegistered(nik, voterAddress, kpuBranches[msg.sender].region);\r\n    }\r\n\r\n    function vote(string calldata candidateId) external votingIsActive {\r\n        string memory nik = voterNIKByAddress[msg.sender];\r\n        if (bytes(nik).length == 0) revert VoterNotRegistered();\r\n\r\n        Voter storage voter = voters[nik];\r\n        if (voter.hasVoted) revert AlreadyVoted();\r\n        if (bytes(candidates[candidateId].id).length == 0 || !candidates[candidateId].isActive)\r\n            revert InvalidCandidate();\r\n\r\n        voter.hasVoted = true;\r\n        candidates[candidateId].voteCount++;\r\n\r\n        emit VoteCasted(nik, candidateId);\r\n    }\r\n\r\n    function addCandidate(string calldata candidateId, string calldata name) external onlyKpuAdmin {\r\n        if (bytes(candidates[candidateId].id).length != 0) revert CandidateAlreadyExists();\r\n\r\n        Candidate memory newCandidate = Candidate({\r\n            id: candidateId,\r\n            name: name,\r\n            voteCount: 0,\r\n            isActive: true\r\n        });\r\n        candidates[candidateId] = newCandidate;\r\n        candidateAddressesArray.push(newCandidate);\r\n\r\n        emit CandidateAdded(candidateId, name);\r\n    }\r\n\r\n    function toggleCandidateActive(string calldata candidateId) external onlyKpuAdmin {\r\n        if (bytes(candidates[candidateId].id).length == 0) revert InvalidCandidate();\r\n        candidates[candidateId].isActive = !candidates[candidateId].isActive;\r\n        emit CandidateStatusChanged(candidateId, candidates[candidateId].isActive);\r\n    }\r\n\r\n    function setVotingStatus(bool status) external onlyKpuAdmin {\r\n        votingActive = status;\r\n        emit VotingStatusChanged(status);\r\n    }\r\n\r\n    function setKpuAdmin(address newAdmin) external onlyKpuAdmin {\r\n        kpuAdmin = newAdmin;\r\n    }\r\n\r\n    function getAllKPUBranches() external view returns (KPUBranch[] memory) {\r\n        return kpuBranchAddressesArray;\r\n    }\r\n\r\n    function getBranchByAddress(address branchAddress) external view returns (KPUBranch memory) {\r\n        if (!kpuBranches[branchAddress].isActive) revert BranchNotActive();\r\n        return kpuBranches[branchAddress];\r\n    }\r\n\r\n    function getAllVoter() external view returns (Voter[] memory) {\r\n        return voterAddressesArray;\r\n    }\r\n\r\n    function getVoterByNIK(string calldata nik) external view returns (Voter memory) {\r\n        return voters[nik];\r\n    }\r\n\r\n    function getVoterByAddress(address voterAddress) external view returns (Voter memory) {\r\n        string memory nik = voterNIKByAddress[voterAddress];\r\n        if (bytes(nik).length == 0) revert VoterNotRegistered();\r\n        return voters[nik];\r\n    }\r\n\r\n    function getVoterByRegion(string calldata region) external view returns (Voter[] memory) {\r\n        uint256 count;\r\n        for (uint256 i = 0; i < voterAddressesArray.length; i++) {\r\n            if (keccak256(bytes(voterAddressesArray[i].region)) == keccak256(bytes(region))) {\r\n                count++;\r\n            }\r\n        }\r\n\r\n        Voter[] memory regionVoters = new Voter[](count);\r\n        uint256 index;\r\n        for (uint256 i = 0; i < voterAddressesArray.length; i++) {\r\n            if (keccak256(bytes(voterAddressesArray[i].region)) == keccak256(bytes(region))) {\r\n                regionVoters[index] = voterAddressesArray[i];\r\n                index++;\r\n            }\r\n        }\r\n        return regionVoters;\r\n    }\r\n\r\n    function getCandidate(string calldata candidateId) external view returns (Candidate memory) {\r\n        if (bytes(candidates[candidateId].id).length == 0) revert InvalidCandidate();\r\n        return candidates[candidateId];\r\n    }\r\n\r\n    function getAllCandidates() external view returns (Candidate[] memory) {\r\n        return candidateAddressesArray;\r\n    }\r\n}",
  "sourcePath": "C:\\Users\\bbyas\\Documents\\Kuliah\\Skripsi\\backend\\votechain-contract\\contracts\\Votechain.sol",
  "compiler": {
    "name": "solc",
    "version": "0.8.25+commit.b61c2a91.Emscripten.clang"
  },
  "schemaVersion": "3.4.16",
  "updatedAt": "2025-03-05T07:16:32.022Z",
  "networkType": "ethereum",
  "devdoc": {
    "kind": "dev",
    "methods": {},
    "version": 1
  },
  "userdoc": {
    "kind": "user",
    "methods": {},
    "version": 1
  }
}